:100000000211A79007867402F0E59620E7FB75962B
:1000100001759701E490078EF0A37403F0A3F0E458
:10002000900792F090079104F0222202285890073E
:100030008EE06404600BE59620E7FB7596117597DA
:10004000402222020C73E4F52CE5B964E0602E53E3
:10005000A90F85A92D43B280E5A95407D394014087
:1000600003E4F5A9E4F5B943B980D52CFD43B9C043
:10007000E5B930E5FBE52DB4020343A90253A90F0E
:01008000225D
:100083000218D48B2C8A2D892E8C2F8D30E4F531D8
:10009300F532F538900786E0B40611E530452F6058
:1000A3000BD3E5309400E52F94104004E4FEFF22C7
:1000B30053E6FDAB2CAA2DA92EAF01AE02AD038FE3
:1000C300368E358D34753300E53830E0030201D5C3
:1000D300E59620E7FB75960E759702E59620E7FBFC
:1000E300759691E59620E7FB859738E53830E01D56
:1000F300E59620E7FB75960EE4F597E59620E7FB7A
:10010300759691E59620E7FB85973880BBD3E5305C
:100113009440E52F940040057537408003853037C0
:10012300E59620E7FB759622E5376057E5347019AD
:10013300E52E2532F9E52D3531A801E59620E7FBBB
:10014300E6F59708D537F4803AE53420E71BE52E2A
:100153002532F9E52D35318982F583E59620E7FBD4
:10016300E0F597A3D537F4801AE52E2532F9E52D6E
:1001730035318982F583E59620E7FBE493F597A370
:10018300D537F3C3E5309440E52F9400401F744006
:100193002532F532E43531F53174C02530F530744C
:1001A300FF352FF52FE4F5387537408017E53025F7
:1001B30032F532E52F3531F531753801853037E4C5
:1001C300F52FF530E59620E7FB759611759701023B
:0C01D30000CB43E602AE31AF3222014205
:1001E00046333231424F4F540510FFFF00000001EB
:1001F00000000000000000000000000000000000FF
:10020000E5402434F8E60540227831303F02783466
:10021000E475F001120A2802081F2038EB7F2ED265
:10022000388018EF540F2490D43440D4FF303C0B66
:10023000EF24BFB41A0050032461FFE541600215AA
:10024000410544E54470020543303F0D7831E475C3
:10025000F001120A28EF020A160214747403D23F46
:100260008003E4C23FF5408B318A328933E4F541A3
:10027000F543F544E54160077F2012023B80F575A8
:1002800042FFC239C238C23AC23BC23DC23EC2403E
:10029000120209FF700D303F057F0012024CAF447F
:1002A000AE4322B4255FC2D5C23C120209FF24D05E
:1002B000B40A00501A75F00A784130D50508B6FF27
:1002C0000106C6A426F620D5047002D23B80D924AC
:1002D000CFB41A00EF5004C2E5D23C02044CD2392C
:1002E00080C6D23880C0D23A80BCD2D580BAD23D46
:1002F00080B47F2012023B203A077401B5410040D0
:10030000F1120200FF12023B020274D240D23E8080
:1003100095120200FB120200FA120200F94A4B7019
:1003200006791D7A057BFF203A2EE541602A7E0082
:100330008E8275830012083860060EEE654270F0FA
:10034000C2D5EBC0E0EAC0E0E9C0E0EE120493D011
:10035000E0F9D0E0FAD0E0FB12081FFF60AAEBC082
:10036000E0EAC0E0E9C0E012023BD0E02401F9D0AD
:10037000E03400FAD0E0FBE5420460DCD542D980ED
:10038000877BFF7A04798FD23A809C79108002793A
:1003900008C23EC2408008D2D5790A8004790AC2D8
:1003A000D5E542047002F542E4FAFDFEFF120200B8
:1003B000FC7B08203913120200FD7B1030380A1232
:1003C0000200FE120200FF7B20EC3382D592D55052
:1003D00013C3E43038069FFFE49EFEE42039039DFA
:1003E000FDE49CFCE4CBF8C239EC700CCFCECDCC54
:1003F000E824F8F870F38017C3EF33FFEE33FEED17
:1004000033FDEC33FCEB33FB994002FB0FD8E9EBF7
:10041000303905F8D0E0C448B239C0E00AEC4D4E9E
:100420004F78207B0070C2EAB5420040BCC0E012A9
:100430000495D0F0D0E0203904C4C0E0C4B239C083
:10044000F0120224D0F0D5F0EB020274120A380345
:100450001153038B5802E24C02DE42038F4F039785
:100460004403974902F743039D55038146038145A1
:10047000038147053D5002E62D02EA2E030D2B02B3
:10048000EE23030B2005262A02A648000003053FA1
:100490003F3F00790AA2D5203B14303D09B9100234
:1004A0000404B9080104A2D5203E02500104203AF8
:1004B00068923AB541005034C0E07F20303B197F4C
:1004C00030A23A723E723D500F1204ECC23AC23E64
:1004D000C23DC2407F30800F303D03E9C0E01202D0
:1004E0003B303D03D0E0F9D0E0B541CC303D177F43
:1004F00030B9100C12023B7F58303C077F788003E4
:10050000B9080312023B303A057F2D02023B7F20DF
:100510002040F87F2B203EF322923A80CF286E7540
:100520006C6C2900D2391202003039F8C239784196
:1005300030D50108F60202A62D5043495812020098
:100540002403B405004001E49005389312022C7492
:100550003A12022CD23B75410402038B666C757310
:1005600068204649464F210A00696E76616C6964CD
:10057000206672616D65212028626C6F636B4C652B
:100580006E3D252E3262582C206D616769634E6F77
:100590003D252E346858290A00696E76616C6964BD
:1005A000206672616D652076657273696F6E210ACF
:1005B000007278207061636B65742074696D656F7B
:1005C0007574210A00696E76616C696420706163DC
:1005D0006B6574206C656E677468210A00696E76BD
:1005E000616C696420435243210A0010001CF21020
:1005F000101B24110017F611101D2711111F641173
:10060000121F7212001F8012101F8812111F9712E2
:10061000121FAE12131FBD12142000121523F30077
:100620000011892312329B462457AD653674BF8C66
:10063000489DC1AF5ABED3CA6CDBE5E97EF8F70925
:100640001918902A0B3B824F3D5EB46C2F7DA68516
:100650005194D8A643B7CAC375D2FCE067F1EE1235
:100660003203BB312020A95416459F7704668D9E26
:100670007A8FF3BD68ACE1D85EC9D7FB4CEAC51BE5
:100680002B0AA2383929B05D0F4C867E1D6F9497D6
:100690006386EAB471A5F8D147C0CEF255E3DC24F5
:1006A0006435ED077616FF624073C9415250DBA8EE
:1006B0002CB9A58B3E9AB7EE08FF81CD1ADC932D9D
:1006C0007D3CF40E6F1FE66B597AD0484B59C2A19E
:1006D00035B0BC822793AEE711F698C403D58A36AD
:1006E0005627DF154404CD707261FB536042E9BAAE
:1006F0001EAB97990C8885FC3AEDB3DF28CEA13F5D
:100700004F2EC61C5D0DD4796B68E25A794BF0B35D
:1007100007A28E9015819CF523E4AAD631C7B8486C
:10072000C859416BDA7A530EEC1F652DFE3C77C435
:1007300080D509E792F61B82A4932DA1B6B03F4164
:10074000D1505862C3734A07F5167C24E7356ECD45
:1007500099DC10EE8BFF028BBD9A34A8AFB9265AF4
:10076000FA4B7379E868611CDE0D573FCC2E45D6F5
:10077000B2C73BF5A0E4299096811FB384A20D5324
:10078000E3426A70F1617815C7044E36D5275CDF05
:10079000ABCE22FCB9ED30998F8806BA9DAB146CB4
:1007A000AC7D254FBE5E372A883B01099A1813E0BD
:1007B000E4F16DC3F6D27FA6C0B74985D2945B65DC
:1007C000B5743C46A7572E239132180083110AE9CD
:1007D000FDF874CAEFDB66AFD9BE508CCB9D427E6C
:1007E0009E6F175D8C4C0538BA29331BA80A21F27D
:1007F000D6E35FD1C4C04DB4F2A57B97E08669779C
:1008000087660E5495451C31A3202A12B10338FB8C
:10081000CFEA46D8DDC954BDEBAC629EF98F70BB00
:10082000010689828A83E0225002E722BBFE02E3AE
:100830002289828A83E49322BB010CE58229F58216
:10084000E5833AF583E0225006E92582F8E622BBEB
:10085000FE06E92582F8E222E58229F582E5833A5F
:10086000F583E49322C5F0F8A3E028F0C5F0F8E59D
:1008700082158270021583E038F022EB9FF5F0EAD2
:100880009E42F0E99D42F0EC6480C864809845F097
:1008900022EB9FF5F0EA9E42F0E99D42F0E89C458C
:1008A000F0227401FF3395E0FEFDFC080808E6CF56
:1008B0002FF618E6CE3EF618E6CD3DF618E6CC3C0F
:1008C000F622ECF0A3EDF0A3EEF0A3EFF022D0833C
:1008D000D082F8E4937012740193700DA3A393F87F
:1008E000740193F5828883E473740293B5F00674FF
:1008F00003936860E9A3A3A3A380D88A838982E4D1
:1009000073E709F60870FA8046E709F20870FA8082
:100910003E88828C83E709F0A370FA807EE309F6B3
:100920000870FA8076E309F20870FA806E88828C8B
:1009300083E309F0A370FA806289828A83E0A3F6D8
:100940000870FA805689828A83E0A3F20870FA80E0
:100950004A80D280FA80C680D4806580F28031805F
:100960001080A680EA809A80A880DA80E280CA801F
:100970003189828A83ECFAE493A3C8C582C8CCC5C6
:1009800083CCF0A3C8C582C8CCC583CC70E9800DE8
:1009900089828A83E493A3F60870F9ECFAA9F0ED52
:1009A000FB2289828A83ECFAE0A3C8C582C8CCC541
:1009B00083CCF0A3C8C582C8CCC583CC70EA80DDE7
:1009C00089828A83E493A3F20870F980CE88F0EDDF
:1009D0002402B4040050C4F582EB2402B404005095
:1009E000BA232345822390095173EF4E6012EF60C2
:1009F000010EEDBB010B89828A83F0A3DFFCDEFAD6
:100A00002289F05007F709DFFCA9F022BBFEFCF3B6
:100A100009DFFCA9F022BB010689828A83F02250FB
:100A200002F722BBFE01F322FAE6FB0808E6F925ED
:100A3000F0F618E6CA3AF622D083D082F8E4937032
:100A400012740193700DA3A393F8740193F5828837
:100A500083E4737402936860EFA3A3A380DFE59639
:100A600020E7FB75960EE4F597E59620E7FB759673
:100A700091E59620E7FB90079CE597F0E0FF30E2D8
:100A800010E59620E7FB759611E4F59790078EF038
:100A900022EF30E410E59620E7FB759611759780FC
:100AA000E490078EF090078EE06003020B8A9007B7
:100AB0009CE020E003020B8A7596204396C0E4F583
:100AC0004CE59620E7FB747E254CF582E43407F56F
:100AD00083E597F0054CE54CB407E6E59620E7FB87
:100AE000E4F596747E254CF582E43407F583E597AA
:100AF000F0900781E0FE900780E07C002400FFEC8E
:100B00003E900794F0A3EFF0900785E0FE900784F5
:100B1000E02400FFEC3E900796F0A3EFF090077FF3
:100B2000E004603B14B40C00505D900B31F82828B1
:100B300073020B55020B5A020B5F020B64020B8708
:100B4000020B69020B6E020B87020B73020B780219
:100B50000B7D020B8212124280301212B5802B12D2
:100B60000EF9802612131480211214BD801C12105D
:100B7000E780171213CC8012121372800D12144DDD
:100B8000800812002E80031214DD90078EE06401AD
:100B90006003020C7290079C7402F0C390078DE012
:100BA000944090078CE094004055E59620E7FB7553
:100BB0009620E4F54C900787E0FBA3E0FAA3E0F968
:100BC000854C82758300120838F597E59620E7FB7F
:100BD000054CE54CB440DE900788E475F0401208FF
:100BE0006590078DE024C0F090078CE034FFF09012
:100BF000078BE02440F090078AE03400F08045E560
:100C00009620E7FB759620E4F54CD390078DE09590
:100C10004C90078CE09400401F900787E0FBA3E016
:100C2000FAA3E0F9854C82758300120838F597E540
:100C30009620E7FB054C80D290079CE04408F0E446
:100C400090078EF0900796E0FEA3E0FF90078AE001
:100C5000B50611A3E0B5070C90079CE04408F0E44A
:100C600090078EF0E59620E7FB75961190079CE0C3
:100C7000F59722C0E0C0F0C083C082C0D075D0001C
:100C8000C000C001C002C003C004C005C006C00748
:100C900090079DE596F0E59620E7FB75968EE59624
:100CA00020E7FB90079EE597F0E59620E7FB759619
:100CB00086E59620E7FB900798E597F0E030E30B98
:100CC000E59620E7FB75960B759707900798E0303F
:100CD000E203120003900798E030E014900786E0EA
:100CE000FF64046004EFB40607900791E04480F0CD
:100CF000E59620E7FB759682E59620E7FB9007983E
:100D0000E597F0E030E003120A5E900798E030E2E9
:100D10002AE59620E7FB75960E759702E59620E783
:100D2000FB759691E59620E7FB900799E597F0E033
:100D300054037007900791E04402F0E59620E7FB2A
:100D4000759684E59620E7FB900798E597F0E030EC
:100D5000E229E59620E7FB75960E759702E5962049
:100D6000E7FB759694E59620E7FB900799E597F0E9
:100D7000E030E007900791E04404F0E59620E7FBBF
:100D800075960E90079EE0F597E59620E7FB900795
:100D90009DE596F0E59620E7FB900793E030E009AB
:100DA000900791E0600312149BD007D006D005D0C5
:100DB00004D003D002D001D000D0D0D082D083D0D4
:100DC000F0D0E0329004AAEEF0A3EFF09004AEEB86
:100DD000F0A3EAF0A3E9F0E4F52CE52C90141393CA
:100DE000FF7440252CF582E43407F583EFF0052CE1
:100DF000E52CB412E5E4F52CE52C90142593FF7452
:100E000052252CF582E43407F583EFF0052CE52C10
:100E1000B420E59004AAE0F52DA3E0F52E90074854
:100E2000E52EF0A3E52DF08C2D8D2EA3E52EF0A35D
:100E3000E52DF090077274FFF0A37414F0A37445CD
:100E4000F09004AEE0F9A3E0FAA3E0900775C9F0D2
:100E5000A3EAF0A3E9F09004B1E0F9A3E0FAA3E07B
:100E6000900778C9F0A3EAF0A3E9F09004B4E0F9A0
:100E7000A3E0FAA3E090077BC9F0A3EAF0A3E9F0AE
:100E80009004B7E0FFC394FA500590075AEFF09032
:100E900004B8E0900759F09004B9E0FEA3E0900791
:100EA0004CF0EEA3F0E59620E7FB759601759708E8
:100EB000E59620E7FB75960775970FE59620E7FB0B
:100EC00075960975970EE59620E7FB75960B759755
:100ED0000775D7E0121526E4900792F0900791F07D
:100EE000900793F0900786F043E602D2AFE5962094
:100EF000E7FB75960175970122900794E0B4373CA3
:100F0000A3E0B40B3790078EE06404601012002E4B
:100F100090078E7401F0E490078AF0A3F090079B8D
:100F20007480F09007877401F0A37407F0A3749B9A
:100F3000F090078CE4F0A304F0020FFB900795E01B
:100F400020E003020FD2900793E030E00854FEF057
:100F50004402F08007900793E054FDF0E59620E707
:100F6000FB75960E759702E59620E7FB759614754E
:100F70009710E59620E7FB759611759708E5962082
:100F8000E7FB759694E59620E7FB90079BE597F0C5
:100F9000E020E4E9E59620E7FB759614759710E5E7
:100FA0009620E7FB759691E59620E7FB90079BE579
:100FB00097F0E020E3E9E59620E7FB759611759739
:100FC000089007917408F0900793E0FF30E1034424
:100FD00001F0900794E0FCA3E0FD30E10D9007865E
:100FE0007406F0900791E04410F0ED30E20D9007A8
:100FF000867404F0900791E04420F0E59620E7FB2A
:1010000075960EE4F59702002E8D38900786E0B4B1
:101010000606EDD3944040037F0022E59620E7FBCF
:1010200075960E759702E59620E7FB759694E59602
:1010300020E7FB90079AE597F0E020E0030210E438
:10104000E59620E7FB759696E59620E7FB900792DC
:10105000E597F0E0FFEDC39F5006AE05AF068000B8
:10106000900792EFF053E6FDE59620E7FB7596E2D8
:10107000900792E06052AF01AE02AD038F348E3321
:101080008D32753100E5327014AF018F35E5962051
:10109000E7FBA835A6970535D538F2802BE5322039
:1010A000E723AE02AF018E368F37E59620E7FB854A
:1010B0003782853683E597F00537E53770020536C8
:1010C000D538E780037F0022E59620E7FBE4F5961C
:1010D000E59620E7FB759614E4F59743E602900742
:1010E00092E0FF227F0022E49004BBF0900781E0B1
:1010F00024FE601B14603B24027072900787740109
:10110000F0A37407F0A37440F0900740E080539080
:1011100007877401F0A37407F0A37452F090075589
:10112000E0FE900754E07C002400FFEC3E90078C2A
:101130008035900780E0FFD394034002802FEF7545
:10114000F003A42472F582E43407F583E0FBA3E006
:10115000FAA3E0F9900787EBF0A3EAF0A3E9F01215
:10116000081FFF90078CE4F0A3EFF080031214DD5A
:1011700090078CE0FEA3E0FF900796E0FCA3E0FD63
:10118000C39FEC9E500890078CECF0A3EDF0900705
:101190008EE06404601012002E90078E7401F0E45B
:1011A00090078AF0A3F022E4F5D978FFF6D8FD90F5
:1011B00000007E047F00F0A3DFFCDEFA75814C02A4
:1011C00011FD022777E493A3F8E493A34003F6808C
:1011D00001F208DFF48029E493A3F85407240CC833
:1011E000C333C4540F4420C8834004F456800146DE
:1011F000F6DFE4800B0102040810204080901513F4
:10120000E47E019360BCA3FF543F30E509541FFE08
:10121000E493A360010ECF54C025E060A840B8E479
:1012200093A3FAE493A3F8E493A3C8C582C8CAC5FC
:1012300083CAF0A3C8C582C8CAC583CADFE9DEE78E
:1012400080BE90077EE0247F600714600624027051
:1012500048802D90078FE0B40309900782E0B40224
:1012600002800E900790E0B40316900782E0B482EB
:101270000F90078774FFF0A37414F0A37449800DD6
:1012800090078774FFF0A37414F0A3744BF09007D9
:101290008CE4F0A37402F080031214DD90078EE05A
:1012A0006404601012002E90078E7401F0E4900721
:1012B0008AF0A3F022900780E07048900782E0FF58
:1012C000B4021DE59620E7FB75960E759702E5962C
:1012D00020E7FB759614759780E490078FF08026C1
:1012E000EFB4821DE59620E7FB75960E759702E533
:1012F0009620E7FB759611759740E4900790F08073
:101300000580001214DDE59620E7FB75960EE4F5E6
:101310009702002E900780E07047900782E0FFB4AC
:10132000021BE59620E7FB75960E759702E5962061
:10133000E7FB75961475972090078F801DEFB48298
:101340001EE59620E7FB75960E759702E59620E759
:10135000FB7596117597109007907403F0800580C7
:10136000001214DDE59620E7FB75960EE4F5970272
:10137000002E900780E0D394004042900791E04413
:1013800040F09007867404F0E490078FF0A3F0E536
:101390009620E7FB75960E759702E59620E7FB759C
:1013A0009612759784E59620E7FB759615759780DC
:1013B000E59620E7FB75960EE4F597800C9007867E
:1013C0007403F090078FF0A3F002002E900786E0E0
:1013D000FFB40414A374FFF0A37414F0A37449F0D1
:1013E00090078CE4F0A304F0EFB403169007877421
:1013F000FFF0A37414F0A3744BF090078CE4F0A3F7
:1014000004F012002E90078E7401F0E490078AF029
:10141000A3F0221201100100000040C410000000DF
:1014200000010203010902200001010080FA090401
:10143000000002FF0000000705020240000007054F
:1014400082024000000403090401000000900787A5
:1014500074FFF0A37414F0A3744BF090078CE4F0C5
:10146000A304F012002E90078E7401F0E490078A16
:10147000F0A3F022EFB40A07740D12147F740A303F
:101480009811A899B8130CC2983098FDA899C298E1
:10149000B811F63099FDC299F59922D007D007D03E
:1014A00007D006D005D004D003D002D001D000D0A0
:1014B000D0D082D083D0F0D0E002008322E5962005
:1014C000E7FBE4F596900780E0FFF597EF9007863D
:1014D00060057403F080037402F002002EE596208C
:1014E000E7FB75960EE4F597E59620E7FB759611F8
:1014F00075972090078E7404F022900793E04401C2
:10150000F0900791E0600BE59620E7FB75960B7570
:10151000970F22C1C1C142C1C802200000022200AF
:10152000000224000000E59620E7FB75960F7597F2
:101530008922900791E0F54BE4F0AF4B22437265AE
:10154000614C696768747320496E632E00005553BF
:10155000422D436F6E766572746572000000005311
:10156000696C6162732D433241646170746572000D
:10157000FF25B1FF25F5FF25FFFF276CFF1863FF4F
:1015800017EC74FFF531F532E4FDFCD3900005E073
:101590009D900004E09C4031E531FF74082DF582F8
:1015A00074003CF583E06F75F002A4241FF582E51A
:1015B000F03406F583E532FEE4936EF53174019361
:1015C000F5320DBD00010C80C2AE31AF3222304782
:1015D00009122B491209EAC2472290000BE02404A9
:1015E000FE90000AE03400900004F0A3CEF0B18237
:1015F000900006EEF0A3EFF0C23812002A122B4F33
:10160000900005E02408FD900004E03400FC020096
:1016100086122B491209EA122B4F122BEB30470B83
:101620007BFF7A05795C120262C322C3E52E94081F
:10163000E49400400E900000E064437004A3E06472
:101640004C601A7BFF7A057969852E34900000E0A2
:10165000F535A3E0F536120262D247C322900002AC
:10166000E07004A3E0640160137BFF7A05799912AE
:101670000262900002E4F0A304F0C322E52E24F8F5
:10168000F52DE434FFF52CE4F52FF530D39000056B
:10169000E0952D900004E0952C40477408252DF925
:1016A0007400352CFA7B01122BEBE52E70277F019D
:1016B000FEF12A0530E5307002052FFFAE2FE4FC65
:1016C000FD7B507AC3F9F8D312087B50BF7BFF7AB9
:1016D0000579B18021E52E252DF52DE4352CF52C4D
:1016E00080AA900004E0652C7004A3E0652D600ED4
:1016F0007BFF7A0579C5122BB17401F0C322D23871
:1017000012002AB182900006E06E7003A3E06F60C1
:101710000D7BFF7A0579DD122BB114F0C322D322A1
:10172000A2A0D29792307F017E008018EF1F700137
:101730001E144E60140000000000000000000000B5
:101740000000000000000080E322AB07C2383097A1
:101750006930A066AF1412235C7F08122AEB1220B6
:10176000E0EF20E00B78331227E06004F12680EEF2
:101770001227EA7045AF03122AEB1220E0EF20E0B7
:101780000B78331227E06004F12680EE1227EA700E
:1017900029E4FFF1BDE475364075359CF534F53329
:1017A0001220E0EF20E00B78331227E06004F126EE
:1017B00080EE1221FABF0D02D238A238221224A6DE
:1017C0007545277546101220E0EF30E111E546150A
:1017D00046AE45700215454E6004F12680E8223081
:1017E000970320A002C322122AFAD322E4F50AF5B5
:0E17F0000BF508F50922122B287E017F4022FE
:10180000900008E0F52CA3E0F52D7403FFFEE4F54D
:101810002EE52E25E025E024EBF582E43405F58362
:10182000740193B52D22E493B52C1DE52E25E025FA
:10183000E024EDF582E43405F583E493FE7401932E
:10184000AA06F91208FB8009052EE52EC3940D4067
:10185000C0900008EEF0A3EFF0EE64037004A3F074
:10186000A3F022752B01E50B850AF01208CE187A39
:1018700000001880013C000018AF750A01750B3C90
:10188000AE08AF09D3EF9400EE94004003D380017B
:10189000C340037F0022E5091509700215081216DE
:1018A00011500211001215CEE4F508F50980CBE4C1
:1018B000F52BF50AF50B7F0322EF30E2080509E569
:1018C0000970020508EF30E30A0509E50970020511
:1018D00008D24722C0E0C083C082C0D075D000C00B
:1018E0000712153211B9D007D0D0D082D083D0E002
:1018F00032AD077B087801AF05EF08800123D8FDE2
:10190000FD139292000000000000000000000000A3
:101910000000122B4020820F122B397002153F4E0F
:10192000600512172680EE00000000000000000095
:101930000000000000C28280001BEB70B8D2920051
:1019400000000000000000000000000000122B401A
:1019500020820F122B397002153F4E600512172698
:1019600080EEA292923A0000000000000000000009
:1019700000000000C2828000A23AB3228E358F366A
:101980008F828E83A3122A7A8F828E83A3A3A3E0F1
:10199000F539A3E0F53AC239719B4003A2392230F0
:1019A000AF05C2AFD38001C39238E5384537701018
:1019B000E538453760024142E53A45396002414227
:1019C000D2920000000000000000000000000000B3
:1019D000122B9120820F122BCD7002153D4E600507
:1019E00012172680EE00000000000000000000003A
:1019F000000000C292000000000000000000000093
:101A0000000000C2828000122BE354FEFF11F1405F
:101A10000241E8E4F53BF53CC3E53C9538E53B95F0
:101A200037501F122B9A253CF582E583353BF58311
:101A3000E0FF11F1400241E8053CE53C7002053B46
:101A400080D6E53A4539700241E6D29200000000A6
:101A500000000000000000000000122B9120820F07
:101A6000122BCD7002153D4E600512172680EE0038
:101A700000000000000000000000000000C2920012
:101A800000000000000000000000000000C2828092
:101A900000122BE34401FF11F1504DE4F53BF53CFE
:101AA000C3E53C953AE53B9539503BE53A24FFFFC9
:101AB000E53934FFFEEFB53C07EEB53B03D38001BB
:101AC000C3923A916DE538253CFDE537353BFC1274
:101AD0002B9A2DF582E5833CF583EFF0053CE53C40
:101AE0007002053B80BAD239C292000000000000AB
:101AF0000000000000000000122B9120820F122B2A
:101B0000CD7002153D4E600512172680EE000000D4
:101B10000000000000000000000000D292A23892F5
:101B2000AFA2392275330075340C122B62E0FEA38C
:101B3000E0FF2405FDE43EFC90000AE0B50424A388
:101B4000E0B5051F122B62A3A3E0FCA3E0FDEF2D7F
:101B5000FFEE3CFEE4FCFD7B337A04F9F8C3120887
:101B60007B50057E037F0422AF34AE33317C502698
:101B7000122B62E0FEA3E02405FFE43EFE122B627E
:101B8000A3A3E0FCA3E02FFFEC3E90000AF0A3EF3C
:101B9000F07E017F40227E037F402230820530921A
:101BA00002D322208202816B309202816B753F0941
:101BB0000000000000000000000000000000C282E1
:101BC0008000000000000000000000000000000095
:101BD000122BA820820F122BD4700215404E6005E4
:101BE00012172680EED53FC8209202816BD2920058
:101BF00000000000000000000000000000122BA800
:101C000020820F122BD4700215404E600512172649
:101C100080EE000000000000000000000000000056
:101C2000C292000000000000000000000000000060
:101C3000C2828000C292000000000000000000008C
:101C400000000000122BA820820F122BD470021566
:101C5000404E600512172680EE00000000000000D4
:101C600000000000000000D292D322C322E4FD7CD9
:101C7000080000000000000000000000000000124A
:101C80002B4020820F122B397002153F4E60051237
:101C9000172680EEED25E0FDA292E4334205000018
:101CA000000000000000000000000000C282800070
:101CB0001CEC70BDA23A92920000000000000000EF
:101CC000000000000000122B4020820F122B397000
:101CD00002153F4E600512172680EE00000000003E
:101CE000000000000000000000C2828000D292AF1D
:101CF00005220000000000000000000000000000BD
:101D0000D2827533017534F4208212E5341534AE75
:101D100033700215334E600512172680EBD29212F3
:101D20002B287E017F402290000CE0FFA3E0FD7A8B
:101D3000047BAAB13E7E0140027E037F40228B825B
:101D40008A83B1CC30AF05C2AFD38001C39238B122
:101D50005DA238122B564003D38001C32212288F74
:101D60001228DD1229360000D296D294C296D2A152
:101D7000D2960000122A3B9200122A3B9227122A86
:101D80003B9226122A3B9225122A3B9224122A3B8E
:101D90009223122A3B9222122A3B9221122A3B9230
:101DA00020122A3B922F122A3B922E122A3B922D6E
:101DB000122A3B922C122A3B922B122A3B922A1275
:101DC0002A3B9229122A3B9228022B30C20FC20EC4
:101DD000D20DD20C1229AFD20074FFF524F52522C2
:101DE000D238D19230AF05C2AFD38001C39239D17E
:101DF0002AD20DC20CE53A153AAE39700215394EA9
:101E00006021B15DE53CFF2402F53CE53BFE34007A
:101E1000F53B8F828E83122B584003D38001C34041
:101E2000D4C238A23992AFA2382212288F1228DDEC
:101E3000122936A2011229A6A2001229A6A217125F
:101E400029A6A2161229A6A2151229A6A2141229A1
:101E5000A6A2131229A6A2121229A6A2111229A61D
:101E6000A2101229A6A21F1229A6A21E1229A6A2FA
:101E70001D1229A6A21C1229A6A21B1229A6A21A6B
:101E80001229A6A2191229A6A2181229A600000238
:101E90002B30C20FC20EC20D1229ADC2008A228B96
:101EA00023228A378B38AE05AC07E53A153AAA39B2
:101EB000700215394A6043853C82853B83E0F524F6
:101EC000A3E0F525AF04AD06AB38AA37D19230AF09
:101ED00005C2AFD38001C39238D12AC20DD20CD132
:101EE000FCA23892AF0538E5387002053774022538
:101EF0003CF53CE4353BF53B80B0D32212288F12F1
:101F000028DD122936A2011229A6A2001229A6A2B2
:101F1000271229A6A2261229A6A2251229A6A224A2
:101F20001229A6A2231229A6A2221229A6A22112B0
:101F300029A6A2201229A6A22F1229A6A22E122972
:101F4000A6A22D1229A6A22C1229A6A22B1229A6DE
:101F5000A22A1229A6A2291229A6A2281229A6007D
:101F600000022B301229FFB1E07E0140027E037F88
:101F700040221229FFD1A27E0140027E037F40222F
:101F8000122B287E017F4022122B281217DF7E039E
:101F900050027E017F40221222BF90000C1208C224
:101FA00090000AE4F0A37404F07E017F4022122B1B
:101FB000281224467E0350027E017F402290000AB0
:101FC000E07004A3E0640160057E037F04229000BA
:101FD0000CE0FF12174A7E0350027E017F4022E48C
:101FE000754810754727F546F5451220E0EF20E0CB
:101FF0000C78451227E0600512172680ED0221FAC1
:10200000122A5690000AE07004A3E06406700BD315
:10201000E5389432E537940440057E037F0422E5D9
:1020200038240690000BF0E4353790000AF0E538CC
:102030004537602DC3E53794015006AE37AF388081
:10204000047E017F008E398F3AAB3AAD36AC35AFA6
:1020500034AE33116640057E037F4022122A918000
:10206000CD7E017F4022122BBC70057E01FF8004D3
:10207000EBFF7E008E3F8F40C23830976030A05D0E
:10208000AF14715C7F06122A4711E0EF20E009F1DE
:10209000DE600512172680F1F1EA7041E53DFF127E
:1020A00017BDAF3E122A4211E0EF20E009F1DE60D9
:1020B0000512172680F131FABF0D22122B3970025A
:1020C000153F4E6016121FDF053CE53CAC3B70022D
:1020D000053B14F5828C83EFF080E0D238A23822E1
:1020E000C243D24430AF05C2AFD38001C3122A82AB
:1020F00000000000122ADF000000001229F6000094
:102100000000122B6A00D29700000000C297000066
:10211000A2A0D29792300000C2970000A2A0D2974E
:1021200092310000C2970000A2A0D2979232000024
:10213000C2970000A2A0D29792330000C29700007D
:10214000A2A0D29792340000C2970000A2A0D2971A
:1021500092350000C2970000A2A0D29792360000EC
:10216000C2970000122ACEAF2622122BBC70057E29
:1021700001FF8004EBFF7E008E3F8F40C238309716
:102180007630A073AF14715C7F07122A4711E0EF1D
:1021900020E009F1DE600512172680F1F1EA7057A0
:1021A000E53BFF1217BDAF3C122A4211E0EF20E0E1
:1021B00009F1DE600512172680F1F1EA7039122B61
:1021C000397002153F4E6016053EE53EAE3D700289
:1021D000053D14F5828E83E0FF1217BD80E0122AC0
:1021E0004A11E0EF20E009F1DE600512172680F1C8
:1021F00031FABF0D02D238A23822C243C244C245CE
:10220000C24630AF05C2AFD38001C3122A8200009C
:102210000000122ADF000000001229F60000000072
:10222000D297A24592A0C29700000000D297A24682
:1022300092A0C29700000000122B6A00D297000003
:10224000754927754A100000C29700001217202018
:10225000300DE54A154AAE49700215494E70E70047
:1022600000C2970000A2A0D29792300000C297004F
:1022700000A2A0D29792310000C2970000A2A0D283
:102280009792320000C2970000A2A0D2979233002A
:1022900000C2970000A2A0D29792340000C297001B
:1022A00000A2A0D29792350000C2970000A2A0D24F
:1022B0009792360000C2970000122ACEAF262274F1
:1022C000FFF536F535F534F533209702615320A03C
:1022D000026153122AFA7F02715C91A67F0491A6D3
:1022E0007F0191A67F147E00B170E4FF91A28F332D
:1022F0007F0191A28F34E533F460587514B4122B2A
:10230000DB1217BD121FDFEF640D601E7514AD12D6
:102310002BDB122B7411E0EF20E00B7837F1E0603B
:102320000512172680EFF1EA7029121FDF8F35AFF3
:1023300014715C7F01122B7411E0EF20E00B7837F1
:10234000F1E0600512172680EF31FABF0D05121F6C
:10235000DF8F36AF36AE35AD34AC3322D243D24404
:102360008F2630AF05C2AFD38001C3122A8200008E
:102370000000122ADF000000001229F60000000011
:10238000D297A23092A0C29700000000D297A2314B
:1023900092A0C29700000000D297A23292A0C297EA
:1023A00000000000D297A23392A0C2970000000064
:1023B000D297A23492A0C29700000000D297A23513
:1023C00092A0C29700000000D297A23692A0C297B6
:1023D00000000000D297A23792A0C2970000000030
:1023E000D297D2A053A6FE122A8A00000000D297EC
:1023F000022AD7122A562406FFE43537FE90000A37
:10240000E06E7003A3E06F60057E037F0422E53871
:102410004537602DC3E53794015006AE37AF38809D
:10242000047E017F008E398F3AAB3AAD34AC33AFC6
:1024300036AE35316A40057E037F4022122A9180F4
:10244000CD7E017F4022C23830975430A051AF1466
:10245000715C7F03122AEB11E0EF20E00B7833F17F
:10246000E0600512172680EFF1EA70337FDE121765
:10247000BD7FAD1217BD7FA51217BD75360075352E
:102480002D75343175330111E0EF20E00B7833F115
:10249000E0600512172680EF31FABF0D02D238A294
:1024A0003822715C21FAD243C244C245C2468F260B
:1024B00030AF05C2AFD38001C3122A8200000000F2
:1024C000122ADF000000001229F600000000D29757
:1024D000A24592A0C29700000000D297A24692A007
:1024E000C29700000000D297A23092A0C2970000CD
:1024F0000000D297A23192A0C29700000000D297AC
:10250000A23292A0C29700000000D297A23392A0FC
:10251000C29700000000D297A23492A0C297000098
:102520000000D297A23592A0C29700000000D29777
:10253000A23692A0C29700000000D297A23792A0C4
:10254000C29700000000122B6A00D2970000754766
:10255000277548100000C297000012172020300D88
:10256000E5481548AE47700215474E70E7022AD479
:102570008F828E8330AF23EF250FF53EEE350EF5BB
:102580003DE4350DF53CE4350CF53BAF3EAE3DADDD
:102590003CAC3B122AC2501880F1E5821582AE8312
:1025A000700215834E60097FE87E0312172A80EAC5
:1025B00022752B01E5107033E51124CF601A243108
:1025C0007029120042E50F2432122B839004BC12B2
:1025D00008C2751000751131009004BC122AB77F33
:1025E0000050027F01EF60DA7F0022E4F52BF51046
:1025F000F5117F0322E4F510F511D1430201DD75D9
:102600002B01E5127033E51324C8601A24387029B1
:1026100063A008E50F2464122B839004C01208C243
:10262000751200751338009004C0122AB77F00504D
:10263000027F01EF60DA7F0022E4F52BF512F5133B
:102640007F0322438E10E4F5C875CA4075CC4075EF
:10265000CBA275CDA2C2CFD2CAC2BDD2ADF50FF505
:102660000EF50DF50CD17253A57F53A6FED297D26D
:10267000A0229004457403F07F02EFC39422502AF5
:10268000EFC31390153C122BC6401FE52B947F50CF
:102690001974442FF582E43404F583E52BF0744576
:1026A0002FF582E43404F1F080D0900444EFF090F0
:1026B00004677403F07F02EFC39422502AEFC31320
:1026C00090154D122BC6401FE52B947F5019746650
:1026D0002FF582E43404F583E52BF074672FF5823F
:1026E000E43404F1F080D0900466EFF09004897433
:1026F00003F07F02EFC39422502AEFC31390155EBC
:10270000122BC6401FE52B947F501974882FF58239
:10271000E43404F583E52BF074892FF582E4340466
:10272000F1F080D0900488EFF043F602120046905A
:1027300004B17401F0A37404F0A37466F0A37401EF
:10274000F0A37404F0A37488F0A374FAF0A3748067
:10275000F0A37401F0A3E4F07B017A0479447D6175
:102760007CEA7FC47E10120DC4C2AF22E4F512F5DC
:102770001322D2AF0214FA122800F195F172E4F597
:102780002AE52A75F006A42470F582E43415122B8C
:102790001340EE80E9E4F52AE52A75F006A42473D7
:1027A000F582E43415122B1340EE227580BF75902C
:1027B000F675A0FF75B0FF75F17F75F2FF75F3FB3D
:1027C00075F4FE75A44A75A55875A60AE4F5A775B3
:1027D000D4FF75D5FF75D6FFF5E175E2402278414B
:1027E00074FF1208A4EC4D4E4F2231FAEF640D2213
:0727F000F583E4F00F0F2256
:10280000E4F5A8F5E675B283E5B2C41313540313D7
:1028100050F675B9807F057E0012172A43B9C0E5CE
:10282000B9C41354071350F775A90275B68012275F
:10283000AB438E08E589540F4420F589758D98D2F5
:102840008EAFD4EF54EFFF8FD4AFD4EF54DFFF8FB0
:10285000D443E10175980222C0E0C0D075D000C019
:1028600004C005C006C007C2CFAF0FAE0EAD0DACA1
:102870000CEF2401F50FE43EF50EE43DF50DE43CCC
:10288000F50CD007D006D005D004D0D0D0E032C2AD
:1028900083C2A1A248D2969294C296A248D296929E
:1028A00094C296A248D2969294C296A248D2969288
:1028B00094C296A248D2969294C296A248D2969278
:1028C00094C296A248D2969294C296A248D2969268
:1028D00094C296A248D2969294C296A248D2969258
:1028E00094C296A248D2969294C296A248D2969248
:1028F00094C296A248D2969294C296A248D2969238
:1029000094C296A248D2969294C296A248D2969227
:1029100094C296A248D2969294C296A248D2969217
:1029200094C296A248D2969294C296A248D2969207
:1029300094C296A24822D2969294C296A20FD296A0
:102940009294C296A20ED2969294C296A20DD2965C
:102950009294C296A20CD2969294C296A20BD29650
:102960009294C296A20AD2969294C296A209D29644
:102970009294C296A208D2969294C296A207D29638
:102980009294C296A206D2969294C296A205D2962C
:102990009294C296A204D2969294C296A203D29620
:1029A0009294C296A202D2969294C29622C20CEF40
:1029B000C4540F13920BEF131313541F13920AEF07
:1029C0001313543F139209EFC313139208EF13929A
:1029D00007EDC4540F139206ED131313541F1392F3
:1029E00005ED1313543F139204EDC313139203ED3B
:1029F000139202D20122D297A24492A0C2972275CA
:102A0000330075340C853482853383E0FFA3E0FD09
:102A1000853482853383A3A3E0FAA3E0FBE5342465
:102A200004F582E43533F583E0F539A3E0F53AE5C2
:102A3000342406F53CE43533F53B22C296A280D21D
:102A400096221217BDAF031217BDE47544107543EB
:102A500027F542F541227B0C7A00EB2406F534E49D
:102A60003AF5338B828A83A3A3E0FEA3E08E35F58B
:102A700036EB2404F582E43AF583E0F537A3E0F57C
:102A80003822923953A6FE43A580A24192A0C29754
:102A900022E53A2534F534E5393533F533E53A2581
:102AA00036F536E5393535F535C3E538953AF53837
:102AB000E5379539F53722E0FCA3E0FDA3E0FEA35E
:102AC000E0FFAB0FAA0EA90DA80CC3020891A2A0AB
:102AD000D297923753A6FE53A57FA23992AF22D246
:102AE0009743A601A24392A0C297221217BDE47594
:102AF0003610753527F534F5332243A580C2977F0C
:102B0000147E0012172AD2977F027E0012172A53D2
:102B1000A57F22F583740193FA740293F91208FBDE
:102B2000052AE52AC3940322E490000AF0A3F022C8
:102B3000D296D294D283D2A122E5401540AE3F2254
:102B4000D282753F017540F4227E047F447D007B74
:102B5000017A0079002292AFE524F0A3E525F0A2E6
:102B60000022853482853383A322D29753A6FED2D6
:102B7000A0C297221217BDE4753A10753927F538AF
:102B8000F53722FFE4350EFEE4350DFDE4350CFC8F
:102B900022D282753D01753EF422E5362405F58288
:102BA000E43535F583E58222D2827540017541F422
:102BB000221202629000087403F0A3228E3B8F3C25
:102BC0008C3D8D3EEB2293F52BC3942022E53E15E0
:102BD0003EAE3D22E5411541AE4022AF1412235CCA
:102BE0007F0222853682853583E0227D40121009DE
:032BF0008F2E2203
:00000001FF
