:100000000212739007867402F0E59620E7FB75965E
:1000100001759701E490078EF0A37403F0A3F0E458
:10002000900792F090079104F02222022F4190074E
:100030008EE06404600BE59620E7FB7596117597DA
:0200400040225C
:10004300020D3FE4F52CE5B964E0602E53A90F855A
:10005300A92D43B280E5A95407D394014003E4F5E5
:10006300A9E4F5B943B980D52CFD43B9C0E5B9304E
:0E007300E5FBE52DB4020343A90253A90F22B9
:10008300022F788B2C8A2D892E8C2F8D30E4F5311D
:10009300F532F538900786E0B40611E530452F6058
:1000A3000BD3E5309400E52F94104004E4FEFF22C7
:1000B30053E6FDAB2CAA2DA92EAF01AE02AD038FE3
:1000C300368E358D34753300E53830E0030201D5C3
:1000D300E59620E7FB75960E759702E59620E7FBFC
:1000E300759691E59620E7FB859738E53830E01D56
:1000F300E59620E7FB75960EE4F597E59620E7FB7A
:10010300759691E59620E7FB85973880BBD3E5305C
:100113009440E52F940040057537408003853037C0
:10012300E59620E7FB759622E5376057E5347019AD
:10013300E52E2532F9E52D3531A801E59620E7FBBB
:10014300E6F59708D537F4803AE53420E71BE52E2A
:100153002532F9E52D35318982F583E59620E7FBD4
:10016300E0F597A3D537F4801AE52E2532F9E52D6E
:1001730035318982F583E59620E7FBE493F597A370
:10018300D537F3C3E5309440E52F9400401F744006
:100193002532F532E43531F53174C02530F530744C
:1001A300FF352FF52FE4F5387537408017E53025F7
:1001B30032F532E52F3531F531753801853037E4C5
:1001C300F52FF530E59620E7FB759611759701023B
:1001D30000CB43E602AE31AF32220225B3463332BF
:1001E30031424F4F540510FFFF0000010000000093
:1001F30000000000000000000000000000E54024B3
:1002030034F8E60540227831303F027834E475F063
:100213000112083102055C2038EB7F2ED23880189A
:10022300EF540F2490D43440D4FF303C0BEF24BF61
:10023300B41A0050032461FFE541600215410544EF
:10024300E54470020543303F0D7831E475F0011247
:100253000831EF02081F0215407403D23F8003E404
:10026300C23FF5408B318A328933E4F541F543F5DA
:1002730044E54160077F2012023B80F57542FFC2CF
:1002830039C238C23AC23BC23DC23EC24012020921
:10029300FF700D303F057F0012024CAF44AE432286
:1002A300B4255FC2D5C23C120209FF24D0B40A00B0
:1002B300501A75F00A784130D50508B6FF0106C615
:1002C300A426F620D5047002D23B80D924CFB41AD9
:1002D30000EF5004C2E5D23C02044CD23980C6D2AE
:1002E3003880C0D23A80BCD2D580BAD23D80B47FA8
:1002F3002012023B203A077401B5410040F112027B
:1003030000FF12023B020274D240D23E80951202D9
:1003130000FB120200FA120200F94A4B7006791D23
:100323007A057BFF203A2EE541602A7E008E827596
:10033300830012057560060EEE654270F0C2D5EBC0
:10034300C0E0EAC0E0E9C0E0EE120493D0E0F9D0E7
:10035300E0FAD0E0FB12055CFF60AAEBC0E0EAC064
:10036300E0E9C0E012023BD0E02401F9D0E0340020
:10037300FAD0E0FBE5420460DCD542D980877BFFFD
:100383007A04798FD23A809C791080027908C23E30
:10039300C2408008D2D5790A8004790AC2D5E542E1
:1003A300047002F542E4FAFDFEFF120200FC7B0832
:1003B300203913120200FD7B1030380A120200FEAE
:1003C300120200FF7B20EC3382D592D55013C3E495
:1003D3003038069FFFE49EFEE42039039DFDE49C34
:1003E300FCE4CBF8C239EC700CCFCECDCCE824F8CA
:1003F300F870F38017C3EF33FFEE33FEED33FDECFC
:1004030033FCEB33FB994002FB0FD8E9EB303905A2
:10041300F8D0E0C448B239C0E00AEC4D4E4F782022
:100423007B0070C2EAB5420040BCC0E0120495D024
:10043300F0D0E0203904C4C0E0C4B239C0F01202E5
:1004430024D0F0D5F0EB02027412084103115303D8
:100453008B5802E24C02DE42038F4F03974403970B
:100463004902F743039D55038146038145038147B1
:10047300053D5002E62D02EA2E030D2B02EE230367
:100483000B2005262A02A648000003053F3F3F0034
:10049300790AA2D5203B14303D09B910020404B9EE
:1004A300080104A2D5203E02500104203A68923A82
:1004B300B541005034C0E07F20303B197F30A23A71
:1004C300723E723D500F1204ECC23AC23EC23DC2AC
:1004D300407F30800F303D03E9C0E012023B303DE6
:1004E30003D0E0F9D0E0B541CC303D177F30B910EF
:1004F3000C12023B7F58303C077F788003B9080316
:1005030012023B303A057F2D02023B7F202040F848
:100513007F2B203EF322923A80CF286E756C6C2994
:1005230000D2391202003039F8C239784130D5018E
:1005330008F60202A62D504349581202002403B4C0
:1005430005004001E49005389312022C743A12021C
:100553002CD23B75410402038BBB010689828A833B
:10056300E0225002E722BBFE02E32289828A83E46F
:100573009322BB010CE58229F582E5833AF583E0FA
:10058300225006E92582F8E622BBFE06E92582F819
:10059300E222E58229F582E5833AF583E49322C5D5
:1005A300F0F8A3E028F0C5F0F8E582158270021593
:1005B30083E038F022E88FF0A4CC8BF0A42CFCE984
:1005C3008EF0A42CFC8AF0EDA42CFCEA8EF0A4CDD2
:1005D300A8F08BF0A42DCC3825F0FDE98FF0A42CE6
:1005E300CD35F0FCEB8EF0A4FEA9F0EB8FF0A4CF99
:1005F300C5F02ECD39FEE43CFCEAA42DCE35F0FD4A
:10060300E43CFC22EB9FF5F0EA9E42F0E99D42F0C8
:10061300EC6480C864809845F022EB9FF5F0EA9E75
:1006230042F0E99D42F0E89C45F022E86010ECA21C
:10063300E713FCED13FDEE13FEEF13FFD8F022E8F2
:10064300600FEFC333FFEE33FEED33FDEC33FCD825
:10065300F122E493FC740193FD740293FE740393FB
:10066300FF227401FF3395E0FEFDFC080808E6CF86
:100673002FF618E6CE3EF618E6CD3DF618E6CC3C4E
:10068300F622ECF0A3EDF0A3EEF0A3EFF022ECF2F0
:1006930008EDF208EEF208EFF222D083D082F8E4FC
:1006A300937012740193700DA3A393F8740193F5DF
:1006B300828883E473740293B5F0067403936860CD
:1006C300E9A3A3A3A380D8D083D082E49370127448
:1006D3000193700DA3A393F8740193F5828883E4C7
:1006E300737402936C70127403936D700C7404939F
:1006F3006E70067405936F60DDA3A3A3A3A3A38009
:10070300CA8A838982E473E709F60870FA8046E7A8
:1007130009F20870FA803E88828C83E709F0A3709F
:10072300FA807EE309F60870FA8076E309F208702E
:10073300FA806E88828C83E309F0A370FA80628961
:10074300828A83E0A3F60870FA805689828A83E05E
:10075300A3F20870FA804A80D280FA80C680D480DF
:100763006580F28031801080A680EA809A80A8801C
:10077300DA80E280CA803189828A83ECFAE493A327
:10078300C8C582C8CCC583CCF0A3C8C582C8CCC5B4
:1007930083CC70E9800D89828A83E493A3F6087081
:1007A300F9ECFAA9F0EDFB2289828A83ECFAE0A343
:1007B300C8C582C8CCC583CCF0A3C8C582C8CCC584
:1007C30083CC70EA80DD89828A83E493A3F2087084
:1007D300F980CE88F0ED2402B4040050C4F582EB16
:1007E3002402B4040050BA232345822390075A738A
:1007F300EF4E6012EF60010EEDBB010B89828A831D
:10080300F0A3DFFCDEFA2289F05007F709DFFCA929
:10081300F022BBFEFCF309DFFCA9F022BB01068931
:10082300828A83F0225002F722BBFE01F322FAE60A
:10083300FB0808E6F925F0F618E6CA3AF622D08353
:10084300D082F8E4937012740193700DA3A393F80C
:10085300740193F5828883E4737402936860EFA351
:10086300A3A380DF666C757368204649464F210A4F
:1008730000696E76616C6964206672616D65212022
:1008830028626C6F636B4C656E3D252E3262582C6B
:10089300206D616769634E6F3D252E346858290AC0
:1008A30000696E76616C6964206672616D6520769D
:1008B300657273696F6E210A007278207061636BD1
:1008C30065742074696D656F7574210A00696E76AD
:1008D300616C6964207061636B6574206C656E671D
:1008E3007468210A00696E76616C6964204352431F
:1008F300210A0010002475101021461100279A11B7
:100903001027E01111284D11122A67120027F8123F
:10091300102A7512112A8312122A9A12132AA81264
:10092300142ACA12152B31000011892312329B4657
:100933002457AD653674BF8C489DC1AF5ABED3CA28
:100943006CDBE5E97EF8F7091918902A0B3B824F17
:100953003D5EB46C2F7DA6855194D8A643B7CAC318
:1009630075D2FCE067F1EE123203BB312020A954AB
:1009730016459F7704668D9E7A8FF3BD68ACE1D8E8
:100983005EC9D7FB4CEAC51B2B0AA2383929B05DD7
:100993000F4C867E1D6F94976386EAB471A5F8D1D8
:1009A30047C0CEF255E3DC246435ED077616FF62CB
:1009B3004073C9415250DBA82CB9A58B3E9AB7EEC0
:1009C30008FF81CD1ADC932D7D3CF40E6F1FE66B7F
:1009D300597AD0484B59C2A135B0BC822793AEE7B0
:1009E30011F698C403D58A365627DF154404CD7013
:1009F3007261FB536042E9BA1EAB97990C8885FC80
:100A03003AEDB3DF28CEA13F4F2EC61C5D0DD4793E
:100A13006B68E25A794BF0B307A28E9015819CF56F
:100A230023E4AAD631C7B848C859416BDA7A530EC2
:100A3300EC1F652DFE3C77C480D509E792F61B8237
:100A4300A4932DA1B6B03F41D1505862C3734A0756
:100A5300F5167C24E7356ECD99DC10EE8BFF028B07
:100A6300BD9A34A8AFB9265AFA4B7379E868611C6A
:100A7300DE0D573FCC2E45D6B2C73BF5A0E42990F7
:100A830096811FB384A20D53E3426A70F161781516
:100A9300C7044E36D5275CDFABCE22FCB9ED3099C7
:100AA3008F8806BA9DAB146CAC7D254FBE5E372A8A
:100AB300883B01099A1813E0E4F16DC3F6D27FA6CF
:100AC300C0B74985D2945B65B5743C46A7572E23BE
:100AD3009132180083110AE9FDF874CAEFDB66AF9F
:100AE300D9BE508CCB9D427E9E6F175D8C4C0538D2
:100AF300BA29331BA80A21F2D6E35FD1C4C04DB48F
:100B0300F2A57B97E086697787660E5495451C317D
:100B1300A3202A12B10338FBCFEA46D8DDC954BD5E
:100B2300EBAC629EF98F70E59620E7FB75960EE4B9
:100B3300F597E59620E7FB759691E59620E7FB9000
:100B4300079CE597F0E0FF30E210E59620E7FB75A0
:100B53009611E4F59790078EF022EF30E410E596B6
:100B630020E7FB759611759780E490078EF0900748
:100B73008EE06003020C5690079CE020E003020C19
:100B8300567596204396C0E4F55AE59620E7FB7424
:100B93007E255AF582E43407F583E597F0055AE597
:100BA3005AB407E6E59620E7FBE4F596747E255AEA
:100BB300F582E43407F583E597F0900781E0FE9032
:100BC3000780E07C002400FFEC3E900794F0A3EF45
:100BD300F0900785E0FE900784E02400FFEC3E9050
:100BE3000796F0A3EFF090077FE004603B14B40C8A
:100BF30000505D900BFDF8282873020C21020C268F
:100C0300020C2B020C30020C53020C35020C3A027C
:100C13000C53020C3F020C44020C49020C4E1213FB
:100C23000E8030121381802B120FC580261213E021
:100C33008021121589801C1211B380171214988019
:100C43001212143E800D121519800812002E800313
:100C53001215A990078EE064016003020D3E900710
:100C63009C7402F0C390078DE0944090078CE0944D
:100C7300004055E59620E7FB759620E4F55A90076A
:100C830087E0FBA3E0FAA3E0F9855A82758300129B
:100C93000575F597E59620E7FB055AE55AB440DE5E
:100CA300900788E475F0401205A290078DE024C0F8
:100CB300F090078CE034FFF090078BE02440F09035
:100CC300078AE03400F08045E59620E7FB7596201F
:100CD300E4F55AD390078DE0955A90078CE0940081
:100CE300401F900787E0FBA3E0FAA3E0F9855A824F
:100CF300758300120575F597E59620E7FB055A8085
:100D0300D290079CE04408F0E490078EF090079699
:100D1300E0FEA3E0FF90078AE0B50611A3E0B50764
:100D23000C90079CE04408F0E490078EF0E59620D1
:100D3300E7FB75961190079CE0F59722C0E0C0F0A1
:100D4300C083C082C0D075D000C000C001C002C043
:100D530003C004C005C006C00790079DE596F0E5F3
:100D63009620E7FB75968EE59620E7FB90079EE5B8
:100D730097F0E59620E7FB759686E59620E7FB90CE
:100D83000798E597F0E030E30BE59620E7FB7596CF
:100D93000B759707900798E030E203120003900762
:100DA30098E030E014900786E0FF64046004EFB439
:100DB3000607900791E04480F0E59620E7FB7596DF
:100DC30082E59620E7FB900798E597F0E030E00393
:100DD300120B2A900798E030E22AE59620E7FB758C
:100DE300960E759702E59620E7FB759691E596209A
:100DF300E7FB900799E597F0E0540370079007919C
:100E0300E04402F0E59620E7FB759684E59620E73B
:100E1300FB900798E597F0E030E229E59620E7FBA1
:100E230075960E759702E59620E7FB759694E59601
:100E330020E7FB900799E597F0E030E007900791F2
:100E4300E04404F0E59620E7FB75960E90079EE0DC
:100E5300F597E59620E7FB90079DE596F0E596204C
:100E6300E7FB900793E030E009900791E0600312FD
:100E73001567D007D006D005D004D003D002D00127
:100E8300D000D0D0D082D083D0F0D0E0329004EA2A
:100E9300EEF0A3EFF09004EEEBF0A3EAF0A3E9F099
:100EA300E4F52CE52C9014DF93FF7440252CF58298
:100EB300E43407F583EFF0052CE52CB412E5E4F5F3
:100EC3002CE52C9014F193FF7452252CF582E43415
:100ED30007F583EFF0052CE52CB420E59004EAE058
:100EE300F52DA3E0F52E900748E52EF0A3E52DF0B0
:100EF3008C2D8D2EA3E52EF0A3E52DF090077274B3
:100F0300FFF0A37415F0A37411F09004EEE0F9A3BD
:100F1300E0FAA3E0900775C9F0A3EAF0A3E9F09023
:100F230004F1E0F9A3E0FAA3E0900778C9F0A3EA9B
:100F3300F0A3E9F09004F4E0F9A3E0FAA3E090074A
:100F43007BC9F0A3EAF0A3E9F09004F7E0FFC394B0
:100F5300FA500590075AEFF09004F8E0900759F023
:100F63009004F9E0FEA3E090074CF0EEA3F0E596C1
:100F730020E7FB759601759708E59620E7FB7596C4
:100F83000775970FE59620E7FB75960975970EE5AC
:100F93009620E7FB75960B75970775D7E01215F545
:100FA300E4900792F0900791F0900793F0900786F2
:100FB300F043E602D2AFE59620E7FB7596017597FD
:100FC3000122900794E0B4373CA3E0B40B379007B9
:100FD3008EE06404601012002E90078E7401F0E41A
:100FE30090078AF0A3F090079B7480F090078774B2
:100FF30001F0A37407F0A3749BF090078CE4F0A3B3
:1010030004F00210C7900795E020E00302109E90C1
:101013000793E030E00854FEF04402F080079007A5
:1010230093E054FDF0E59620E7FB75960E75970265
:10103300E59620E7FB759614759710E59620E7FB78
:10104300759611759708E59620E7FB759694E596D6
:1010530020E7FB90079BE597F0E020E4E9E5962085
:10106300E7FB759614759710E59620E7FB75969147
:10107300E59620E7FB90079BE597F0E020E3E9E5A1
:101083009620E7FB7596117597089007917408F001
:10109300900793E0FF30E1034401F0900794E0FCF4
:1010A300A3E0FD30E10D9007867406F0900791E010
:1010B3004410F0ED30E20D9007867404F090079130
:1010C300E04420F0E59620E7FB75960EE4F59702E1
:1010D300002E8D38900786E0B40606EDD394404089
:1010E300037F0022E59620E7FB75960E759702E5D0
:1010F3009620E7FB759694E59620E7FB90079AE523
:1011030097F0E020E0030211B0E59620E7FB759627
:1011130096E59620E7FB900792E597F0E0FFEDC395
:101123009F5006AE05AF068000900792EFF053E69E
:10113300FDE59620E7FB7596E2900792E06052AFDB
:1011430001AE02AD038F348E338D32753100E5323B
:101153007014AF018F35E59620E7FBA835A69705F8
:1011630035D538F2802BE53220E723AE02AF018E6E
:10117300368F37E59620E7FB853782853683E597FB
:10118300F00537E53770020536D538E780037F0071
:1011930022E59620E7FBE4F596E59620E7FB7596B6
:1011A30014E4F59743E602900792E0FF227F0022C2
:1011B300E49004FBF0900781E024FE601B14603B85
:1011C300240270729007877401F0A37407F0A3746C
:1011D30040F0900740E080539007877401F0A374B8
:1011E30007F0A37452F0900755E0FE900754E07C9B
:1011F300002400FFEC3E90078C8035900780E0FFD1
:10120300D394034002802FEF75F003A42472F58278
:10121300E43407F583E0FBA3E0FAA3E0F990078742
:10122300EBF0A3EAF0A3E9F012055CFF90078CE46E
:10123300F0A3EFF080031215A990078CE0FEA3E062
:10124300FF900796E0FCA3E0FDC39FEC9E5008903F
:10125300078CECF0A3EDF090078EE06404601012AD
:10126300002E90078E7401F0E490078AF0A3F02219
:10127300E4F5D978FFF6D8FD9000007E047F00F0F6
:10128300A3DFFCDEFA75815A0212C9022DEFE49343
:10129300A3F8E493A34003F68001F208DFF4802966
:1012A300E493A3F85407240CC8C333C4540F442055
:1012B300C8834004F456800146F6DFE4800B010244
:1012C3000408102040809015DFE47E019360BCA3E6
:1012D300FF543F30E509541FFEE493A360010ECF92
:1012E30054C025E060A840B8E493A3FAE493A3F8BC
:1012F300E493A3C8C582C8CAC583CAF0A3C8C5827C
:10130300C8CAC583CADFE9DEE780BE90077EE02452
:101313007F600714600624027048802D90078FE0D9
:10132300B40309900782E0B40202800E900790E0B4
:10133300B40316900782E0B4820F90078774FFF01E
:10134300A37415F0A37415800D90078774FFF0A3A1
:101353007415F0A37417F090078CE4F0A37402F0F3
:1013630080031215A990078EE06404601012002E0A
:1013730090078E7401F0E490078AF0A3F02290079F
:1013830080E07048900782E0FFB4021DE59620E7F5
:10139300FB75960E759702E59620E7FB7596147517
:1013A3009780E490078FF08026EFB4821DE59620A6
:1013B300E7FB75960E759702E59620E7FB75961188
:1013C300759740E4900790F0800580001215A9E519
:1013D3009620E7FB75960EE4F59702002E900780A2
:1013E300E07047900782E0FFB4021BE59620E7FB1D
:1013F30075960E759702E59620E7FB75961475971B
:101403002090078F801DEFB4821EE59620E7FB75C1
:10141300960E759702E59620E7FB75961175971062
:101423009007907403F0800580001215A9E59620BB
:10143300E7FB75960EE4F59702002E900780E0D344
:1014430094004042900791E04440F0900786740472
:10145300F0E490078FF0A3F0E59620E7FB75960E76
:10146300759702E59620E7FB759612759784E596C6
:1014730020E7FB759615759780E59620E7FB759633
:101483000EE4F597800C9007867403F090078FF0B5
:10149300A3F002002E900786E0FFB40414A374FFA8
:1014A300F0A37415F0A37415F090078CE4F0A30473
:1014B300F0EFB4031690078774FFF0A37415F0A33D
:1014C3007417F090078CE4F0A304F012002E900739
:1014D3008E7401F0E490078AF0A3F0221201100148
:1014E30000000040C41000000000010203010902D3
:1014F300200001010080FA0904000002FF0000003F
:1015030007050202400000070582024000000403B1
:1015130009040100000090078774FFF0A37415F01D
:10152300A37417F090078CE4F0A304F012002E903C
:10153300078E7401F0E490078AF0A3F022EFB40A57
:1015430007740D12154B740A309811A899B8130C2F
:10155300C2983098FDA899C298B811F63099FDC287
:1015630099F59922D007D007D007D006D005D0042B
:10157300D003D002D001D000D0D0D082D083D0F01D
:10158300D0E002008322E59620E7FBE4F59690077E
:1015930080E0FFF597EF90078660057403F0800302
:1015A3007402F002002EE59620E7FB75960EE4F533
:1015B30097E59620E7FB75961175972090078E7433
:1015C30004F022900793E04401F0900791E0600B50
:1015D300E59620E7FB75960B75970F22011400C162
:1015E300C1C142C1C802200000022200000224003F
:1015F3000000E59620E7FB75960F75978922900703
:1016030091E0F559E4F0AF5922FF2B85FF2BCCFF76
:101613002D81FF2DE4FF1863FF17E6080008080873
:101623000800FFFF080808080474FFF531F532E4E9
:10163300FDFCD3900045E09D900044E09C4031E5E3
:1016430031FF74482DF58274003CF583E06F75F02B
:1016530002A4242AF582E5F03409F583E532FEE499
:10166300936EF531740193F5320DBD00010C80C208
:10167300AE31AF32223047091234DC1207F3C247CE
:101683002290004BE02404FE90004AE034009000D6
:1016930044F0A3CEF0D12C900046EEF0A3EFF0C2BD
:1016A3003812002A1234E2900045E02408FD90002D
:1016B30044E03400FC0200861234DC1207F31234D7
:1016C300E21235C830470B7BFF7A08796712026252
:1016D300C322C3E52E9408E49400400E900040E03A
:1016E30064437004A3E0644C601A7BFF7A08797446
:1016F300852E34900040E0F535A3E0F53612026202
:10170300D247C322900042E07004A3E06401601357
:101713007BFF7A0879A4120262900042E4F0A304EA
:10172300F0C322E52E24F8F52DE434FFF52CE4F57F
:101733002FF530D3900045E0952D900044E0952C93
:1017430040487448252DF97400352CFA7B01123575
:10175300C8E52E70287F01FE121AD90530E53070D6
:1017630002052FFFAE2FE4FCFD7B507AC3F9F8D3BB
:1017730012060750BE7BFF7A0879BC8021E52E252F
:101783002DF52DE4352CF52C80A9900044E0652C33
:101793007004A3E0652D600E7BFF7A0879D01235C3
:1017A300717401F0C322D23812002AD12C90004662
:1017B300E06E7003A3E06F600D7BFF7A0879E81297
:1017C300357114F0C322D322EF30E2080509E5098D
:1017D30070020508EF30E30A0509E5097002050800
:1017E300D24722E4F50AF50BF508F50922121ED4B7
:0B17F300021D46A807E2FE08E2FF22EC
:10180000900048E0F52CA3E0F52D7403FFFEE4F50D
:101810002EE52E25E025E024F6F582E43408F58354
:10182000740193B52D22E493B52C1DE52E25E025FA
:10183000E024F8F582E43408F583E493FE74019320
:10184000AA06F91207048009052EE52EC3940D405F
:10185000C0900048EEF0A3EFF0EE64037004A3F034
:10186000A3F022752B01E50B850AF012069D187A6C
:1018700000001880013C000018AF750A01750B3C90
:10188000AE08AF09D3EF9400EE94004003D380017B
:10189000C340037F0022E5091509700215081216DE
:1018A000BB50021100121678E4F508F50980CBE46C
:1018B000F52BF50AF50B7F0322AD077B087801AF06
:1018C00005EF08800123D8FDFD139292000000006F
:1018D000000000000000000000001234D320820E3F
:1018E0001234CC7002153F4E600451D580EF0000D9
:1018F000000000000000000000000000C282800024
:101900001BEB70B9D2920000000000000000000044
:10191000000000001234D320820E1234CC70021565
:101920003F4E600451D580EFA292923A0000000031
:1019300000000000000000000000C2828000A23A07
:10194000B322123597A31233DD123502C2391220A9
:10195000004003A2392230AF05C2AFD38001C39249
:1019600038E53845377010E538453760024105E500
:101970003A453960024105D29200000000000000A3
:101980000000000000000012353C208211E53E15E9
:101990003EAE3D7002153D4E600451D580EC000016
:1019A000000000000000000000000000C2920000E3
:1019B000000000000000000000000000C282800063
:1019C0001235C054FEFF11B940024191E4F53BF5D8
:1019D0003CC3E53C9538E53B95375029E536240571
:1019E000F582E43535F583E582253CF582E58335DE
:1019F0003BF583E0FF11B940024191053CE53C70A5
:101A000002053B80CCE53A45397002418FD2920005
:101A10000000000000000000000000000012353C43
:101A2000208211E53E153EAE3D7002153D4E60042C
:101A300051D580EC00000000000000000000000014
:101A40000000C29200000000000000000000000042
:101A50000000C28280001235C04401FF11B950312C
:101A6000E4F53BF53C1235B895395023E53A24FFAF
:101A7000FFE53934FFFEEFB53C07EEB53B03D380FD
:101A800001C3923AF16112341F7002053B80D6D235
:101A900039C29200000000000000000000000000B9
:101AA0000012353C208211E53E153EAE3D70021518
:101AB0003D4E600451D580EC0000000000000000A5
:101AC000000000000000D292A23892AFA23922A2F8
:101AD000A0D29792307F017E008018EF1F70011E08
:101AE000144E601400000000000000000000000020
:101AF00000000000000080E322123585EB70057EB7
:101B000001FF8004EBFF7E008E3F8F40C23830978C
:101B10007630A073AF16D1D47F071233EA9119EF54
:101B200020E009123371600451D580F1122FF17059
:101B300056E53BFF718AAF3C1233E59119EF20E087
:101B400009123371600451D580F1122FF1703812EF
:101B500034CC7002153F4E6015053EE53EAE3D703B
:101B600002053D14F5828E83E0FF718A80E1123315
:101B7000ED9119EF20E009123371600451D580F125
:101B8000B146BF0D02D238A238221230B8754527AF
:101B90007546109119EF30E111E5461546AE4570D6
:101BA0000215454E600451D580E922AB07C238309A
:101BB000976430A061AF16D1D47F0812345A9119BE
:101BC000EF20E00B7833123373600451D580EF12AD
:101BD0002FF17042AF0312345A9119EF20E00B78C5
:101BE00033123373600451D580EF122FF17027E464
:101BF000FF718AE475364075359CF534F5339119DB
:101C0000EF20E00B7833123373600451D580EFB1CD
:101C100046BF0D02D238A23822C243D24430AF05AB
:101C2000C2AFD38001C312326B000000001232F049
:101C30000000000012327A000000001232E600D2EA
:101C40009700000000C2970000A2A0D29792300037
:101C500000C2970000A2A0D29792310000C2970064
:101C600000A2A0D29792320000C2970000A2A0D298
:101C70009792330000C2970000A2A0D2979234003E
:101C800000C2970000A2A0D29792350000C2970030
:101C900000A2A0D29792360000C29700001232FC38
:101CA000AF262274FFF536F535F534F5332097026B
:101CB000A13D20A002A13D12348253A57F7F02D115
:101CC000D41230B87F041230B87F011230B87F14BC
:101CD0007E00122D34E4FF1217F08F337F011217AC
:101CE000F08F34E533F460557516B41235A0718A5F
:101CF000F143EF640D601F7516AD1235A01235115A
:101D00009119EF20E00B7837123373600451D580BE
:101D1000EF122FF17027F1438F35AF16D1D47F0129
:101D20001235119119EF20E00B78371233736004EC
:101D300051D580EFB146BF0D04F1438F36AF36AEBB
:101D400035AD34AC3322C243C244C245C24630AF83
:101D500005C2AFD38001C312326B00000000123203
:101D6000F00000000012327A0000000012328C00F5
:101D7000000000123283000000001232E600D29709
:101D80000000754927754A100000C297000051CF26
:101D900020300DE54A154AAE49700215494E70E8EB
:101DA0000000C2970000A2A0D29792300000C29714
:101DB0000000A2A0D29792310000C2970000A2A01A
:101DC000D29792320000C2970000A2A0D29792331D
:101DD0000000C2970000A2A0D29792340000C297E0
:101DE0000000A2A0D29792350000C2970000A2A0E6
:101DF000D29792360000C29700001232FCAF262222
:101E0000C23830975230A04FAF16D1D47F0312346E
:101E10005A9119EF20E00B7833123373600451D5D7
:101E200080EF122FF170307FDE718A7FAD718A7F73
:101E3000A5718A75360075352D753431753301916C
:101E400019EF20E00B7833123373600451D580EF23
:101E5000B146BF0D02D238A23822123585EB70058B
:101E60007E01FF8004EBFF7E008E3F8F40C2383042
:101E7000975F30A05CAF16D1D47F061233EA911978
:101E8000EF20E009123371600451D580F1122FF177
:101E9000703FE53DFF718AAF3E1233E59119EF20A7
:101EA000E009123371600451D580F1B146BF0D21B4
:101EB0001234CC7002153F4E6015F143053CE53CF1
:101EC000AC3B7002053B14F5828C83EFF080E1D2CD
:101ED00038A23822D243D2448F2630AF05C2AFD3C6
:101EE0008001C312326B000000001232F0000000CB
:101EF0000012327A000000001232D40000000012FA
:101F000032CB000000001232C2000000001232B9D1
:101F1000000000001232B0000000001232A70000E2
:101F2000000012329E0000000012329500000000F6
:101F3000D297D2A053A6FE12327300000000D297AF
:101F4000023305E4754810754727F546F5459119A4
:101F5000EF20E00B7845123373600451D580EFA178
:101F600046E4FD7C080000000000000000000000C6
:101F70000000001234D320820E1234CC7002153FC0
:101F80004E600451D580EFED25E0FDA292E433428E
:101F9000050000000000000000000000000000C27A
:101FA0008280001CEC70BEA23A92920000000000F9
:101FB0000000000000000000001234D320820E1246
:101FC00034CC7002153F4E600451D580EF00000004
:101FD0000000000000000000000000C2828000D26B
:101FE00092AF052230970320A002C32212348253FD
:0F1FF000A57FD3228D447A007B447D0102230616
:10200000308205309202D3222082030220DA3092FD
:102010000201DA753F090000000000000000000026
:1020200000000000C28280000000000000000000EC
:10203000000000000000123545208212E5411541E4
:10204000AE40700215404E6005121AD580EBD53FA8
:10205000C520920201DAD2920000000000000000C8
:10206000000000000000123545208212E5411541B4
:10207000AE40700215404E6005121AD580EB00008C
:10208000000000000000000000000000C2920000FC
:10209000000000000000000000000000C28280007C
:1020A000C2920000000000000000000000000000DC
:1020B000123545208212E5411541AE4070021540AF
:1020C0004E6005121AD580EB0000000000000000F1
:1020D000000000000000D292D322C322123597A341
:1020E0001233DD123502E538453760368F828E8334
:1020F000E5822405F582E43583F583E0F514D3E524
:10210000389400E5379401400122E53814FDE536A6
:102110002406FBE43535FAAF1431CCE51425381428
:10212000F514E53A4539601CE4F53BF53C1235B849
:1021300095395010AF14051412300012341F70027C
:10214000053B80E9D32275330075344C1234FAE034
:10215000FEA3E0FF2405FDE43EFC90004AE0B50448
:1021600024A3E0B5051F1234FAA3A3E0FCA3E0FD0D
:10217000EF2DFFEE3CFEE4FCFD7B337A04F9F8C35F
:1021800012060750057E037F04228534828533833F
:10219000E0AF34AE33B4FE0411DC800312194250B8
:1021A000261234FAE0FEA3E02405FFE43EFE1234DA
:1021B000FAA3A3E0FCA3E02FFFEC3E90004AF0A3BB
:1021C000EFF07E017F40227E037F40228F3D8D3ED7
:1021D0008A3F8B40122F028F41E541F47002610566
:1021E000E53E70026105123569400912355650040A
:1021F0007F2080027F80EF14523DE53EFDE53D2DBE
:10220000FDE433FCEFFBD3ED9B7480F86C98400841
:10221000E53D253EC39FF53EE54164017027F5424B
:10222000E542C3953E501C123497F543E53D24E545
:1022300024FB500424087005A83DE543F20542053F
:102240003D80DD81AAE541B4061BE53D253EFFE466
:1022500033FED3EF9460EE648094804008E53D2522
:102260003E24A0F53EAF41EF3395E0FE74252FF5F7
:102270008274163E1232DD9F5002610512356A40AB
:102280005C1235565057E4F542E542C3953E507511
:10229000123569401B1235565016123497FFE53D32
:1022A0002542FEE54114C43354E02EF8EFF28029B4
:1022B0001235B040241235A8501F122FA5C333CEBB
:1022C00033CED8F9122F96E53D25427C002FFFEC46
:1022D0003EFE123497FD121FF4054280AC1235B059
:1022E00040231235A8501E122FA5C333CE33CED8AB
:1022F000F9122F967C00EF253DFFEC3EFEAB40AA85
:102300003FAD3E7106228E458F468A478B48A90510
:1023100030AF05C2AFD38001C3E433F549E545547E
:10232000FEF54A754B00E5455401F54C85464DE4F4
:10233000FFFEEEC3995033E54B254DFDE54A354C84
:10234000FCEE7A002DFDEA3C8D82F583E493F54E98
:10235000E5482EF582E43547F583E0F54F554E65A7
:102360004F60047F0180030E80C8EF700B12352090
:10237000AF46AE4571F8807512358EAB4BAA4AADAB
:102380004DAC4C71F4E54D254FF54FE54C354EF510
:102390004E12352071F4E9FF7E00254FF54FEE35E2
:1023A0004EF54EE54D2FFFEE354CFEC3E49FFD7418
:1023B000029EFCE54B254DFFE54A354CFE7A00EFC9
:1023C00029FBEA3EFAD23871F4E4FB7D03AF4BAE51
:1023D0004A915212358EAB4FAA4E7D007C02AF4B14
:1023E000AE4A71F8E4FB7D03FF7E3A9152E5492441
:1023F000FF92AF22AF4FAE4E8E508F518C528D5305
:102400008A548B55E5531553AE52700215524E60E7
:102410004030380B855582855483E493FF800885CE
:102420005582758300E0FF8F56855182855083E485
:10243000936556600AAB567D01AF51AE509152057F
:1024400051E551700205500555E55570020554805F
:10245000B3228E578F5875FF8075EF068D8FA2AF10
:10246000E43324A5F5B775B7F1855882855783EB1A
:10247000F0E4F58F220000000000000000000000E2
:10248000000000D2827533017534F4208212E534E5
:102490001534AE33700215334E6005121AD580EB39
:1024A000D292122FE07E017F40227F1B7E00122EEF
:1024B000E58F478E468D458C441206CA24D2F626F7
:1024C00052A724DAFC54D40224D6FDE7554F00006D
:1024D00024DE75EF122275150822751504227F7C03
:1024E0001234E97004751502227F781234E9700401
:1024F00075150122E4F51522FFE43438FE8F828E33
:1025000083020655AF2EAE2D8E308F318D32E425ED
:102510003291F88F3A8E398D388C37E53224049118
:10252000F88F3E8E3D8D3C8C3BAE30AF31E4FCFDF0
:10253000AB3AAA39A938A8371205B8780812062E7E
:10254000EF253EF536EE353DF535ED353CF534EC11
:10255000353BF533303831E47FFF7E7F123477C36B
:1025600012060740067E7F7FFF80477F007E807DCA
:10257000FF7CFF123479D312060750067E807F005D
:102580008004AE35AF36802AE47FFF7EFF123477B9
:10259000C312060740067EFF7FFF8016E4FFFE128F
:1025A0003477D312060750067E007F008004AE35D4
:1025B000AF3622E4F531F530F52FF52E7F1BFE12F4
:1025C0002EF381AA7B037D1F7F1E1234B97F207EEC
:1025D00000F1AED238E4FDA1047818E2FF8FFCB11F
:1025E000C4AC06AD07E4FFFEF1AEF1B6AC06AD0734
:1025F0007F027E00F1AEF1CBAC06AD077F047E001A
:10260000F1AE7F401234C5C006C007FF123451D06E
:1026100007D006D312355E50177F421234C5C0066C
:10262000C007FF123451D007D006C312355E500DDB
:10263000E4F52C7819E212335F6020800B752C01D1
:102640007819E212335F60137819E2FFEF54FEFB52
:10265000E52C5401FFEF4BFFE4EFF27F441234C549
:10266000C006C0077F02123451D007D006D3ED9FB9
:10267000EC9E50197F461234C5C006C0077F021277
:102680003451D007D006C3ED9FEC9E500FE4F52CDB
:102690007819E2C31312335F6033800D752C017813
:1026A00019E2C31312335F602412344554FDFFC096
:1026B00004C005C006C007E52C5401FFE4780112F0
:1026C0000642D003D002D001D0001234697F4812F4
:1026D00034C5C006C00712344FD007D006D3ED9FD3
:1026E000EC9E50177F4A1234C5C006C00712344F03
:1026F000D007D006C3ED9FEC9E500DE4F52C1235AB
:102700004E12335F6031800B752C0112354E12333F
:102710005F602412344554FBFFC004C005C006C0EE
:1027200007E52C5401FFE47802120642D003D002E0
:10273000D001D00012346912344512352F702E7832
:1027400019E2C3131234485401FFE4F8C312061D02
:10275000701B12354E1234485401FFE4F8C31206C0
:102760001D700A752C01123356602E8008E4F52C7A
:102770001233566024123445547FFFC004C005C094
:1027800006C007E52C5401FFE47807120642D00387
:10279000D002D001D00012346922122FE07E017FD6
:1027A00040228F828E83E493FE740193FF22A80758
:1027B000ECF208EDF2227B037D1E7F1F1234B97FFD
:1027C000227E00F1AEC2387D08A1047B037D1F7F0D
:1027D0000A1234B97F247E00F1AEC2387D10A10404
:1027E00090004CE0FFA3E0FD7A047BEA122A3A7ED7
:1027F0000140027E037F4022122FE07E017F4022B3
:102800008FBB8DBA7FC87E00121AD9E4FDFC04A8E4
:1028100003088002C333D8FCFAEAD39400401AC2FA
:10282000EDD2EC30EDFDAFBEEFFEA9BDE9F582E5DE
:10283000822DFDEE3CFC1A80E0AF03EDAE04A8074C
:10284000088006CEA2E713CE13D8F8FF2212337DFC
:10285000115B7E0140027E037F4022D23831693015
:10286000AF05C2AFD38001C3923911A5D20DC20CFE
:10287000E53A153AAE39700215394E6021310CE552
:102880003CFF2402F53CE53BFE3400F53B8F828E95
:10289000831232614003D38001C340D4C238A239CD
:1028A00092AFA2382212314112318F1231E8A201C7
:1028B000123258A200123258A217123258A216121F
:1028C0003258A215123258A214123258A2131232E0
:1028D00058A212123258A211123258A210123258B3
:1028E000A21F123258A21E123258A21D123258A232
:1028F0001C123258A21B123258A21A123258A219B4
:10290000123258A2181232580000E1B012314112AE
:10291000318F1231E80000D296D294C296D2A1D261
:10292000960000F19E9200F19E9227F19E9226F170
:102930009E9225F19E9224F19E9223F19E9222F185
:102940009E9221F19E9220F19E922FF19E922EF165
:102950009E922DF19E922CF19E922BF19E922AF145
:102960009E9229F19E9228E1B0C20FC20EC20D12B2
:10297000330DC2008A228B23228A378B38AE05ACF6
:1029800007E53A153AAA39700215394A6043853C81
:1029900082853B83E0F524A3E0F525AF04AD06ABCB
:1029A00038AA37316930AF05C2AFD38001C392383E
:1029B00011A5C20DD20C31D3A23892AF0538E5383B
:1029C000700205377402253CF53CE4353BF53B804D
:1029D000B0D32212314112318F1231E8A2011232EA
:1029E00058A200123258A227123258A22612325888
:1029F000A225123258A224123258A223123258A20F
:102A000022123258A221123258A220123258A22F7A
:102A1000123258A22E123258A22D123258A22C1263
:102A20003258A22B123258A22A123258A22912323C
:102A300058A2281232580000E1B08B828A83515983
:102A400030AF05C2AFD38001C39238310CA2381227
:102A5000325F4003D38001C322C20FC20ED20DD217
:102A60000C12330F02357C12337D31797E01400226
:102A70007E037F4022F1E0121FE47E0350027E01BC
:102A80007F4022121CA390004C12068590004AE45D
:102A9000F0A37404F07E017F4022F1E0121E007E5C
:102AA0000350027E017F402290004AE07004A3E0C0
:102AB000640160057E037F042290004CE0FF121B3E
:102AC000AB7E0350027E017F40221233B990004A50
:102AD000E07004A3E06406700BD3E5389432E53768
:102AE000940440057E037F0422E538240690004BC1
:102AF000F0E4353790004AF0E5384537602EC3E5FD
:102B00003794015006AE37AF3880047E017F008EC7
:102B1000398F3AAB3AAD36AC35AF34AE33121E5ABC
:102B200040057E037F40221233F980CC7E017F4036
:102B3000221233B92406FFE43537FE90004AE06ED6
:102B40007003A3E06F60057E037F0422E5384537FC
:102B5000602EC3E53794015006AE37AF3880047E4F
:102B6000017F008E398F3AAB3AAD34AC33AF36AE1D
:102B700035121AF940057E037F40221233F980CCCA
:102B80007E017F4022752B01E5107036E51124CFC0
:102B9000601E2431702C1225D9E50F2432FFE43554
:102BA0000EF1E8FC9004FC120685751000751131D9
:102BB000009004FCF1C97F0050027F01EF60D77FD5
:102BC0000022E4F52BF510F5117F0322E4F510F552
:102BD000111201DD71F0903860E493FF7818EFF284
:102BE0007818E2FFE48FFC7F0A7E00B134C29122A4
:102BF000438E10E4F5C875CA4075CC4075CBA275FC
:102C0000CDA2C2CFD2CAC2BDD2ADF50FF50EF50D21
:102C1000F50C912B75D1077FD07E07121AD9B174AC
:102C200053A57F53A6FED297D2A0229004857403A9
:102C3000F07F02EFC39422502FEFC313C3940124FB
:102C400090F1B94023E52B947F501D74842FF582B9
:102C5000E43404F583E52BF074852FF582E4340425
:102C6000F583E4F00F0F80CB900484EFF09004A77D
:102C70007403F07F02EFC39422502FEFC313C39469
:102C80000124A0F1B94023E52B947F501D74A62F99
:102C9000F582E43404F583E52BF074A72FF582E484
:102CA0003404F583E4F00F0F80CB9004A6EFF0908E
:102CB00004C97403F07F02EFC39422502FEFC313B3
:102CC000C3940124B0F1B94023E52B947F501D74C7
:102CD000C82FF582E43404F583E52BF074C92FF591
:102CE00082E43404F583E4F00F0F80CB9004C8EF46
:102CF000F043F6021200469004F17401F0A374044C
:102D0000F0A374A6F0A37401F0A37404F0A374C834
:102D1000F0A374FAF0A37480F0A37401F0A3E4F0BC
:102D20007B017A0479847D617CEA7FC47E10120E77
:102D300090C2AF228F828E8330AF22EF250FF53EF7
:102D4000EE350EF53DE4350DF53CE4350CF53BAFC5
:102D50003EAE3DAD3CAC3BF1D4501880F2E582155F
:102D600082AE83700215834E60097FE87E03121ADB
:102D7000D980EA2275BB1E75BA1F75BCB875E8808C
:102D800022752B01E5127052E51324C5603A243BED
:102D900070487819E2C413131354011234481235E1
:102DA0002F7006D293C2868004C293D28663A00895
:102DB000E50F24F4FFE50E3401F1E8FC9005001264
:102DC000068575120075133B00900500F1C97F0060
:102DD00050027F01EF60BB7F0022E4F52BF512F576
:102DE000137F0322E4F512F51322D2AF0215C6D1E8
:102DF00022D10CB1EAE4F52AE52A75F006A4240CE8
:102E0000F582E434161234A440EE80E9E4F52AE5B4
:102E10002A75F006A4240FF582E434161234A44077
:102E2000EE22E4F5A8F5E675B283E5B2C4131354B7
:102E3000031350F675B9807F057E00121AD943B985
:102E4000C0E5B9C41354071350F775A90275B680CD
:102E5000D1B2438E08E589540F4420F589758D98C9
:102E6000D28EAFD4EF54EFFF8FD4AFD4EF54DFFF47
:102E70008FD443E101759802E4FB75FCFF75DA42DB
:102E8000AFD4EF54FDFF8FD40BE4F5E9F5EAE4F598
:102E9000DBE4F5EBF5ECE4F5DCE4F5EDF5EEE4F57B
:102EA000DDE4F5FAF5F975D90875D840EB54074219
:102EB000E2227580BF7590F775A0FF75B0FF75F1C0
:102EC0007F75F2FE75F3FB75F4FE75A44A75A5587F
:102ED00075A60AE4F5A775D4FF75D5FF75D6FFF57D
:102EE000E175E24022A807E2FC08E2FD08E2FE08E4
:102EF000E2FF22AB07AF31AE30AD2FAC2EA80302FC
:102F00000691EFC3946050037F0622EFC394805074
:102F1000037F0122781FE224806017146017146079
:102F20001724836016243F7015EFC394A0500F7FC1
:102F300002227F03227F04227F05227F00227FFF5F
:102F400022C0E0C0D075D000C004C005C006C007D4
:102F5000C2CFAF0FAE0EAD0DAC0CEF2401F50FE4F8
:102F60003EF50EE43DF50DE43CF50CD007D006D05F
:102F700005D004D0D0D0E032C0E0C083C082C0D041
:102F800075D000C0071216011217CBD007D0D0D0D1
:102F900082D083D0E0322480FFEE3436FE22C29607
:102FA000A280D29622AF41EF3395E0FEEF78072260
:102FB000D296D294D283D2A122FDE434398D82F507
:102FC00083E493F52BC3942022E0FCA3E0FDA3E06F
:102FD000FEA3E0FFAB0FAA0EA90DA80CC302061DAD
:102FE000E490004AF0A3F022FEE4350DFDE4350C38
:082FF00022121D46EF640D22C0
:10300000AD07122F02AE07BEFF037FAA22C3EE64F4
:10301000809481400CD3EE6480948250047F2080A1
:10302000027F80EF145205EEFB3395E0FA741E2BFD
:10303000F58274163A51DD9F407BEE6014147027C0
:10304000ED24E524FD50046005801C7F0022AF15AF
:1030500022EDC39478400DEDD3947F5007ED90019D
:103060007093FF227FAA22C3EE648094814014D320
:10307000EE64809482500CEE14C43354E02DF8E2D8
:10308000FF8031C3EE648094834027D3EE64809444
:1030900086501FAF06122FA7C333CE33CED8F912F6
:1030A0002F967C00EF2DFFEC3E8F82F583E493FF9B
:1030B00080027FAA227FAA22D243C244C245C246CE
:1030C0008F2630AF05C2AFD38001C3516B00000023
:1030D0000051F000000000517A00000000518C0007
:1030E00000000051830000000051D4000000005196
:1030F000CB0000000051C20000000051B9000000E8
:103100000051B00000000051A700000000519E00D7
:1031100000000051950000000051E600D297000029
:103120007547277548100000C2970000121ACF207B
:10313000300DE5481548AE47700215474E70E761FF
:1031400002C283C2A1A248D2969294C296A248D249
:10315000969294C296A248D2969294C296A248D2CF
:10316000969294C296A248D2969294C296A248D2BF
:10317000969294C296A248D2969294C296A248D2AF
:10318000969294C296A248D2969294C296A248D29F
:10319000969294C296A248D2969294C296A248D28F
:1031A000969294C296A248D2969294C296A248D27F
:1031B000969294C296A248D2969294C296A248D26F
:1031C000969294C296A248D2969294C296A248D25F
:1031D000969294C296A248D2969294C296A248D24F
:1031E000969294C296A24822D2969294C296A20F28
:1031F000D2969294C296A20ED2969294C296A20DA4
:10320000D2969294C296A20CD2969294C296A20B97
:10321000D2969294C296A20AD2969294C296A2098B
:10322000D2969294C296A208D2969294C296A2077F
:10323000D2969294C296A206D2969294C296A20573
:10324000D2969294C296A204D2969294C296A20367
:10325000D2969294C296A202D2969294C29622924A
:10326000AFE524F0A3E525F0A20022923953A6FE93
:1032700043A580A24192A0C29722D297A24492A0D5
:10328000C29722D297A24692A0C29722D297A24575
:1032900092A0C29722D297A23792A0C29722D29729
:1032A000A23692A0C29722D297A23592A0C29722AC
:1032B000D297A23492A0C29722D297A23392A0C2F0
:1032C0009722D297A23292A0C29722D297A231928D
:1032D000A0C29722D297A23092A0C29722F583E48F
:1032E00093FFE515C322D29753A6FED2A0C2972220
:1032F000D29743A601A24392A0C29722A2A0D2973E
:10330000923753A6FE53A57FA23992AF22C20CEF8B
:10331000C4540F13920BEF131313541F13920AEF9D
:103320001313543F139209EFC313139208EF139230
:1033300007EDC4540F139206ED131313541F139289
:1033400005ED1313543F139204EDC313139203EDD1
:10335000139202D201227819E2C41313135401FF0D
:10336000EF5401FBE4FAF9F8AF2CFCFDFEC30206B2
:103370001D784174FF120667EC4D4E4F22753300E5
:1033800075344C853482853383E0FFA3E0FD8534BA
:1033900082853383A3A3E0FAA3E0FBE5342404F59C
:1033A00082E43533F583E0F539A3E0F53AE53424DA
:1033B00006F53CE43533F53B227B4C7A00EB2406E2
:1033C000F534E43AF5338B828A83A3A3E0FEA3E0CD
:1033D0008E35F536EB2404F582E43AF583E0F537D3
:1033E000A3E0F53822121B8AAF03121B8AE475444E
:1033F00010754327F542F54122E53A2534F534E5C9
:10340000393533F533E53A2536F536E5393535F5D1
:1034100035C3E538953AF538E5379539F53722E57E
:1034200038253CFDE537353BFCE5362405F582E4DF
:103430003535F583E5822DF582E5833CF583EFF0A4
:10344000053CE53C227819E2FFE4FCFDFEEF227F1B
:1034500004FE1217F6AD07AC0622121B8AE475367D
:1034600010753527F534F53322EF4BFFEE4AED4961
:10347000EC487819EFF222FDFCAB36AA35A934A846
:10348000332243A580C2977F147E00121AD9D297A7
:103490007F027E00021AD9E5402542F582E4353FDD
:1034A000F583E022F583740193FA740293F912070D
:1034B00004052AE52AC39403221228008E2D8F2E9C
:1034C000AD2EAC2D227E381227A2E422E540154015
:1034D000AE3F22D282753F017540F4227E047F44C4
:1034E0007D007B017A007940227E381224FDAB47B3
:1034F000AA46A945A844C302061D853482853383A4
:10350000A3228F828E83A3A3A3E0F539A3E0F53A2B
:1035100022121B8AE4753A10753927F538F53722DF
:10352000E9FD7C00AE47AF48AB07AA06C23822547B
:1035300001FFE47B01FAF9F8C302061DD282753D52
:1035400001753EF422D2827540017541F42278194A
:10355000E21313543F22D3E5416480948222ED9F0D
:10356000EE6480F8EC64809822C3E5416480948125
:10357000221202629000487403F0A322D20074FF6A
:10358000F524F525228E3B8F3C8C3D8D3E22754ED9
:103590003A754F00D238228E358F368F828E832235
:1035A000AF16121ED47F0222D3E541648094862296
:1035B000C3E5416480948322C3E53C953AE53B2210
:1035C000853682853583E0227D401210D58F2E22EC
:00000001FF
