:100000000211FD9007867402F0E59620E7FB7596D5
:1000100001759701E490078EF0A37403F0A3F0E458
:10002000900792F090079104F02222022C42900750
:100030008EE06404600BE59620E7FB7596117597DA
:10004000402222020CC9E4F52CE5B964E0602E538D
:10005000A90F85A92D43B280E5A95407D394014087
:1000600003E4F5A9E4F5B943B980D52CFD43B9C043
:10007000E5B930E5FBE52DB4020343A90253A90F0E
:01008000225D
:100083000217D68B2C8A2D892E8C2F8D30E4F531D7
:10009300F532F538900786E0B40611E530452F6058
:1000A3000BD3E5309400E52F94104004E4FEFF22C7
:1000B30053E6FDAB2CAA2DA92EAF01AE02AD038FE3
:1000C300368E358D34753300E53830E0030201D5C3
:1000D300E59620E7FB75960E759702E59620E7FBFC
:1000E300759691E59620E7FB859738E53830E01D56
:1000F300E59620E7FB75960EE4F597E59620E7FB7A
:10010300759691E59620E7FB85973880BBD3E5305C
:100113009440E52F940040057537408003853037C0
:10012300E59620E7FB759622E5376057E5347019AD
:10013300E52E2532F9E52D3531A801E59620E7FBBB
:10014300E6F59708D537F4803AE53420E71BE52E2A
:100153002532F9E52D35318982F583E59620E7FBD4
:10016300E0F597A3D537F4801AE52E2532F9E52D6E
:1001730035318982F583E59620E7FBE493F597A370
:10018300D537F3C3E5309440E52F9400401F744006
:100193002532F532E43531F53174C02530F530744C
:1001A300FF352FF52FE4F5387537408017E53025F7
:1001B30032F532E52F3531F531753801853037E4C5
:1001C300F52FF530E59620E7FB759611759701023B
:1001D30000CB43E602AE31AF3222021FD3463332A5
:1001E30031424F4F540510FFFF0000000100000093
:1001F30000000000000000000000000000E54024B3
:1002030034F8E60540227831303F027834E475F063
:1002130001120A7E02081F2038EB7F2ED238801885
:10022300EF540F2490D43440D4FF303C0BEF24BF61
:10023300B41A0050032461FFE541600215410544EF
:10024300E54470020543303F0D7831E475F0011247
:100253000A7EEF020A6C0214CA7403D23F8003E4DD
:10026300C23FF5408B318A328933E4F541F543F5DA
:1002730044E54160077F2012023B80F57542FFC2CF
:1002830039C238C23AC23BC23DC23EC24012020921
:10029300FF700D303F057F0012024CAF44AE432286
:1002A300B4255FC2D5C23C120209FF24D0B40A00B0
:1002B300501A75F00A784130D50508B6FF0106C615
:1002C300A426F620D5047002D23B80D924CFB41AD9
:1002D30000EF5004C2E5D23C02044CD23980C6D2AE
:1002E3003880C0D23A80BCD2D580BAD23D80B47FA8
:1002F3002012023B203A077401B5410040F112027B
:1003030000FF12023B020274D240D23E80951202D9
:1003130000FB120200FA120200F94A4B7006791D23
:100323007A057BFF203A2EE541602A7E008E827596
:10033300830012083860060EEE654270F0C2D5EBFA
:10034300C0E0EAC0E0E9C0E0EE120493D0E0F9D0E7
:10035300E0FAD0E0FB12081FFF60AAEBC0E0EAC09E
:10036300E0E9C0E012023BD0E02401F9D0E0340020
:10037300FAD0E0FBE5420460DCD542D980877BFFFD
:100383007A04798FD23A809C791080027908C23E30
:10039300C2408008D2D5790A8004790AC2D5E542E1
:1003A300047002F542E4FAFDFEFF120200FC7B0832
:1003B300203913120200FD7B1030380A120200FEAE
:1003C300120200FF7B20EC3382D592D55013C3E495
:1003D3003038069FFFE49EFEE42039039DFDE49C34
:1003E300FCE4CBF8C239EC700CCFCECDCCE824F8CA
:1003F300F870F38017C3EF33FFEE33FEED33FDECFC
:1004030033FCEB33FB994002FB0FD8E9EB303905A2
:10041300F8D0E0C448B239C0E00AEC4D4E4F782022
:100423007B0070C2EAB5420040BCC0E0120495D024
:10043300F0D0E0203904C4C0E0C4B239C0F01202E5
:1004430024D0F0D5F0EB020274120A8E0311530389
:100453008B5802E24C02DE42038F4F03974403970B
:100463004902F743039D55038146038145038147B1
:10047300053D5002E62D02EA2E030D2B02EE230367
:100483000B2005262A02A648000003053F3F3F0034
:10049300790AA2D5203B14303D09B910020404B9EE
:1004A300080104A2D5203E02500104203A68923A82
:1004B300B541005034C0E07F20303B197F30A23A71
:1004C300723E723D500F1204ECC23AC23EC23DC2AC
:1004D300407F30800F303D03E9C0E012023B303DE6
:1004E30003D0E0F9D0E0B541CC303D177F30B910EF
:1004F3000C12023B7F58303C077F788003B9080316
:1005030012023B303A057F2D02023B7F202040F848
:100513007F2B203EF322923A80CF286E756C6C2994
:1005230000D2391202003039F8C239784130D5018E
:1005330008F60202A62D504349581202002403B4C0
:1005430005004001E49005389312022C743A12021C
:100553002CD23B75410402038B666C75736820468D
:1005630049464F210A00696E76616C6964206672A0
:10057300616D65212028626C6F636B4C656E3D2550
:100583002E3262582C206D616769634E6F3D252EB4
:10059300346858290A00696E76616C696420667252
:1005A300616D652076657273696F6E210A007278DA
:1005B300207061636B65742074696D656F75742158
:1005C3000A00696E76616C6964207061636B65749F
:1005D300206C656E677468210A00696E76616C69C8
:1005E3006420435243210A001000208510101AC8CA
:1005F30011001FE4111020BA111122F71112230563
:1006030012002313121017C81211231B121227B939
:10061300121327C712142800121528660000118927
:100623002312329B462457AD653674BF8C489DC157
:10063300AF5ABED3CA6CDBE5E97EF8F70919189007
:100643002A0B3B824F3D5EB46C2F7DA6855194D817
:10065300A643B7CAC375D2FCE067F1EE123203BBFF
:10066300312020A95416459F7704668D9E7A8FF317
:10067300BD68ACE1D85EC9D7FB4CEAC51B2B0AA207
:10068300383929B05D0F4C867E1D6F94976386EAD7
:10069300B471A5F8D147C0CEF255E3DC246435ED3F
:1006A300077616FF624073C9415250DBA82CB9A5E7
:1006B3008B3E9AB7EE08FF81CD1ADC932D7D3CF477
:1006C3000E6F1FE66B597AD0484B59C2A135B0BCA7
:1006D300822793AEE711F698C403D58A365627DFEF
:1006E300154404CD707261FB536042E9BA1EAB97A7
:1006F300990C8885FC3AEDB3DF28CEA13F4F2EC677
:100703001C5D0DD4796B68E25A794BF0B307A28E66
:100713009015819CF523E4AAD631C7B848C859413E
:100723006BDA7A530EEC1F652DFE3C77C480D50936
:10073300E792F61B82A4932DA1B6B03F41D1505846
:1007430062C3734A07F5167C24E7356ECD99DC1036
:10075300EE8BFF028BBD9A34A8AFB9265AFA4B73BE
:1007630079E868611CDE0D573FCC2E45D6B2C73BF6
:10077300F5A0E4299096811FB384A20D53E3426A46
:1007830070F1617815C7044E36D5275CDFABCE22F6
:10079300FCB9ED30998F8806BA9DAB146CAC7D25FE
:1007A3004FBE5E372A883B01099A1813E0E4F16DC6
:1007B300C3F6D27FA6C0B74985D2945B65B5743CB6
:1007C30046A7572E239132180083110AE9FDF874C6
:1007D300CAEFDB66AFD9BE508CCB9D427E9E6F17AE
:1007E3005D8C4C0538BA29331BA80A21F2D6E35F86
:1007F300D1C4C04DB4F2A57B97E086697787660EB6
:100803005495451C31A3202A12B10338FBCFEA4685
:10081300D8DDC954BDEBAC629EF98F70BB0106896C
:10082300828A83E0225002E722BBFE02E32289820E
:100833008A83E49322BB010CE58229F582E5833A9E
:10084300F583E0225006E92582F8E622BBFE06E99D
:100853002582F8E222E58229F582E5833AF583E4ED
:100863009322C5F0F8A3E028F0C5F0F8E5821582DD
:1008730070021583E038F022EB9FF5F0EA9E42F018
:10088300E99D42F0EC6480C864809845F022EB9FB8
:10089300F5F0EA9E42F0E99D42F0E89C45F022E43F
:1008A30093FC740193FD740293FE740393FF22740B
:1008B30001FF3395E0FEFDFC080808E6CF2FF6188C
:1008C300E6CE3EF618E6CD3DF618E6CC3CF622EC35
:1008D300F0A3EDF0A3EEF0A3EFF022ECF208EDF2BB
:1008E30008EEF208EFF222D083D082F8E49370127C
:1008F300740193700DA3A393F8740193F582888315
:10090300E473740293B5F0067403936860E9A3A3D8
:10091300A3A380D8D083D082E49370127401937020
:100923000DA3A393F8740193F5828883E47374028F
:10093300936C70127403936D700C7404936E700651
:100943007405936F60DDA3A3A3A3A3A380CA8A83C3
:100953008982E473E709F60870FA8046E709F2082A
:1009630070FA803E88828C83E709F0A370FA807E58
:10097300E309F60870FA8076E309F20870FA806EEC
:1009830088828C83E309F0A370FA806289828A8368
:10099300E0A3F60870FA805689828A83E0A3F208FE
:1009A30070FA804A80D280FA80C680D4806580F253
:1009B3008031801080A680EA809A80A880DA80E265
:1009C30080CA803189828A83ECFAE493A3C8C58202
:1009D300C8CCC583CCF0A3C8C582C8CCC583CC70B2
:1009E300E9800D89828A83E493A3F60870F9ECFA0F
:1009F300A9F0EDFB2289828A83ECFAE0A3C8C582C1
:100A0300C8CCC583CCF0A3C8C582C8CCC583CC7081
:100A1300EA80DD89828A83E493A3F20870F980CEA9
:100A230088F0ED2402B4040050C4F582EB2402B430
:100A3300040050BA23234582239009A773EF4E6025
:100A430012EF60010EEDBB010B89828A83F0A3DFF5
:100A5300FCDEFA2289F05007F709DFFCA9F022BB7C
:100A6300FEFCF309DFFCA9F022BB010689828A831D
:100A7300F0225002F722BBFE01F322FAE6FB08083C
:100A8300E6F925F0F618E6CA3AF622D083D082F8C2
:100A9300E4937012740193700DA3A393F8740193FC
:100AA300F5828883E4737402936860EFA3A3A38041
:100AB300DFE59620E7FB75960EE4F597E59620E7CC
:100AC300FB759691E59620E7FB90079CE597F0E090
:100AD300FF30E210E59620E7FB759611E4F5979059
:100AE300078EF022EF30E410E59620E7FB759611B0
:100AF300759780E490078EF090078EE06003020BF9
:100B0300E090079CE020E003020BE07596204396FB
:100B1300C0E4F55AE59620E7FB747E255AF582E496
:100B23003407F583E597F0055AE55AB407E6E596E9
:100B330020E7FBE4F596747E255AF582E43407F545
:100B430083E597F0900781E0FE900780E07C002426
:100B530000FFEC3E900794F0A3EFF0900785E0FED2
:100B6300900784E02400FFEC3E900796F0A3EFF09B
:100B730090077FE004603B14B40C00505D900B873A
:100B8300F8282873020BAB020BB0020BB5020BBAA9
:100B9300020BDD020BBF020BC4020BDD020BC90209
:100BA3000BCE020BD3020BD8121298803012130B08
:100BB300802B120F4F802612136A80211215138087
:100BC3001C12113D801712142280121213C8800DBB
:100BD3001214A3800812002E800312153390078E7F
:100BE300E064016003020CC890079C7402F0C39098
:100BF300078DE0944090078CE094004055E59620E3
:100C0300E7FB759620E4F55A900787E0FBA3E0FA2B
:100C1300A3E0F9855A82758300120838F597E596A3
:100C230020E7FB055AE55AB440DE900788E475F0E7
:100C33004012086590078DE024C0F090078CE034E3
:100C4300FFF090078BE02440F090078AE03400F037
:100C53008045E59620E7FB759620E4F55AD3900787
:100C63008DE0955A90078CE09400401F900787E031
:100C7300FBA3E0FAA3E0F9855A82758300120838D2
:100C8300F597E59620E7FB055A80D290079CE04450
:100C930008F0E490078EF0900796E0FEA3E0FF9043
:100CA300078AE0B50611A3E0B5070C90079CE04462
:100CB30008F0E490078EF0E59620E7FB7596119017
:100CC300079CE0F59722C0E0C0F0C083C082C0D08B
:100CD30075D000C000C001C002C003C004C005C07D
:100CE30006C00790079DE596F0E59620E7FB75960D
:100CF3008EE59620E7FB90079EE597F0E59620E7C3
:100D0300FB759686E59620E7FB900798E597F0E05C
:100D130030E30BE59620E7FB75960B759707900775
:100D230098E030E203120003900798E030E014905B
:100D33000786E0FF64046004EFB40607900791E0C0
:100D43004480F0E59620E7FB759682E59620E7FB65
:100D5300900798E597F0E030E003120AB490079803
:100D6300E030E22AE59620E7FB75960E759702E5DB
:100D73009620E7FB759691E59620E7FB900799E5AA
:100D830097F0E054037007900791E04402F0E59672
:100D930020E7FB759684E59620E7FB900798E59797
:100DA300F0E030E229E59620E7FB75960E75970291
:100DB300E59620E7FB759694E59620E7FB90079967
:100DC300E597F0E030E007900791E04404F0E59602
:100DD30020E7FB75960E90079EE0F597E59620E7D2
:100DE300FB90079DE596F0E59620E7FB900793E0DF
:100DF30030E009900791E060031214F1D007D006A8
:100E0300D005D004D003D002D001D000D0D0D082FE
:100E1300D083D0F0D0E0329004EAEEF0A3EFF0906C
:100E230004EEEBF0A3EAF0A3E9F0E4F52CE52C9053
:100E3300146993FF7440252CF582E43407F583EF9E
:100E4300F0052CE52CB412E5E4F52CE52C90147B8D
:100E530093FF7452252CF582E43407F583EFF005F4
:100E63002CE52CB420E59004EAE0F52DA3E0F52E63
:100E7300900748E52EF0A3E52DF08C2D8D2EA3E5EC
:100E83002EF0A3E52DF090077274FFF0A37414F015
:100E9300A3749BF09004EEE0F9A3E0FAA3E09007BB
:100EA30075C9F0A3EAF0A3E9F09004F1E0F9A3E037
:100EB300FAA3E0900778C9F0A3EAF0A3E9F090045D
:100EC300F4E0F9A3E0FAA3E090077BC9F0A3EAF00A
:100ED300A3E9F09004F7E0FFC394FA500590075A92
:100EE300EFF09004F8E0900759F09004F9E0FEA3C6
:100EF300E090074CF0EEA3F0E59620E7FB75960132
:100F0300759708E59620E7FB75960775970FE596A5
:100F130020E7FB75960975970EE59620E7FB759616
:100F23000B75970775D7E012157FE4900792F09041
:100F33000791F0900793F0900786F043E602D2AF53
:100F4300E59620E7FB75960175970122900794E0DB
:100F5300B4373CA3E0B40B3790078EE06404601011
:100F630012002E90078E7401F0E490078AF0A3F02C
:100F730090079B7480F09007877401F0A37407F0C7
:100F8300A3749BF090078CE4F0A304F0021051903B
:100F93000795E020E003021028900793E030E00873
:100FA30054FEF04402F08007900793E054FDF0E50F
:100FB3009620E7FB75960E759702E59620E7FB757D
:100FC3009614759710E59620E7FB759611759708AB
:100FD300E59620E7FB759694E59620E7FB90079B43
:100FE300E597F0E020E4E9E59620E7FB75961475B4
:100FF3009710E59620E7FB759691E59620E7FB9021
:10100300079BE597F0E020E3E9E59620E7FB75967B
:10101300117597089007917408F0900793E0FF30DB
:10102300E1034401F0900794E0FCA3E0FD30E10DFF
:101033009007867406F0900791E04410F0ED30E2DB
:101043000D9007867404F0900791E04420F0E59634
:1010530020E7FB75960EE4F59702002E8D38900776
:1010630086E0B40606EDD3944040037F0022E59664
:1010730020E7FB75960E759702E59620E7FB7596BC
:1010830094E59620E7FB90079AE597F0E020E003CC
:1010930002113AE59620E7FB759696E59620E7FB65
:1010A300900792E597F0E0FFEDC39F5006AE05AFC2
:1010B300068000900792EFF053E6FDE59620E7FBEC
:1010C3007596E2900792E06052AF01AE02AD038FD6
:1010D300348E338D32753100E5327014AF018F35A4
:1010E300E59620E7FBA835A6970535D538F2802B82
:1010F300E53220E723AE02AF018E368F37E5962027
:10110300E7FB853782853683E597F00537E537704A
:10111300020536D538E780037F0022E59620E7FBFA
:10112300E4F596E59620E7FB759614E4F59743E618
:1011330002900792E0FF227F0022E49004FBF090EC
:101143000781E024FE601B14603B24027072900749
:10115300877401F0A37407F0A37440F0900740E094
:1011630080539007877401F0A37407F0A37452F0BF
:10117300900755E0FE900754E07C002400FFEC3E0E
:1011830090078C8035900780E0FFD3940340028062
:101193002FEF75F003A42472F582E43407F583E09E
:1011A300FBA3E0FAA3E0F9900787EBF0A3EAF0A32F
:1011B300E9F012081FFF90078CE4F0A3EFF080031F
:1011C30012153390078CE0FEA3E0FF900796E0FC36
:1011D300A3E0FDC39FEC9E500890078CECF0A3EDB9
:1011E300F090078EE06404601012002E90078E7456
:1011F30001F0E490078AF0A3F022E4F5D978FFF632
:10120300D8FD9000007E047F00F0A3DFFCDEFA75BA
:10121300815A021253022963E493A3F8E493A3408F
:1012230003F68001F208DFF48029E493A3F854075E
:10123300240CC8C333C4540F4420C8834004F45659
:10124300800146F6DFE4800B010204081020408091
:10125300901569E47E019360BCA3FF543F30E50918
:10126300541FFEE493A360010ECF54C025E060A891
:1012730040B8E493A3FAE493A3F8E493A3C8C58224
:10128300C8CAC583CAF0A3C8C582C8CAC583CADF92
:10129300E9DEE780BE90077EE0247F6007146006E6
:1012A30024027048802D90078FE0B40309900782D1
:1012B300E0B40202800E900790E0B4031690078218
:1012C300E0B4820F90078774FFF0A37414F0A37443
:1012D3009F800D90078774FFF0A37414F0A374A18B
:1012E300F090078CE4F0A37402F08003121533909E
:1012F300078EE06404601012002E90078E7401F0D4
:10130300E490078AF0A3F022900780E070489007EA
:1013130082E0FFB4021DE59620E7FB75960E7597F4
:1013230002E59620E7FB759614759780E490078F86
:10133300F08026EFB4821DE59620E7FB75960E75C7
:101343009702E59620E7FB759611759740E49007A1
:1013530090F080058000121533E59620E7FB759623
:101363000EE4F59702002E900780E0704790078205
:10137300E0FFB4021BE59620E7FB75960E75970216
:10138300E59620E7FB75961475972090078F801DCF
:10139300EFB4821EE59620E7FB75960E759702E57E
:1013A3009620E7FB7596117597109007907403F0DC
:1013B30080058000121533E59620E7FB75960EE451
:1013C300F59702002E900780E0D3940040429007E7
:1013D30091E04440F09007867404F0E490078FF0A6
:1013E300A3F0E59620E7FB75960E759702E5962028
:1013F300E7FB759612759784E59620E7FB759615BE
:10140300759780E59620E7FB75960EE4F597800CBB
:101413009007867403F090078FF0A3F002002E90DC
:101423000786E0FFB40414A374FFF0A37414F0A3BD
:10143300749FF090078CE4F0A304F0EFB4031690CC
:10144300078774FFF0A37414F0A374A1F090078CC2
:10145300E4F0A304F012002E90078E7401F0E490E0
:10146300078AF0A3F0221201100100000040C4100B
:1014730000000000010203010902200001010080B5
:10148300FA0904000002FF00000007050202400001
:101493000007058202400000040309040100000064
:1014A30090078774FFF0A37414F0A374A1F090075E
:1014B3008CE4F0A304F012002E90078E7401F0E484
:1014C30090078AF0A3F022EFB40A07740D1214D523
:1014D300740A309811A899B8130CC2983098FDA8D3
:1014E30099C298B811F63099FDC299F59922D0079F
:1014F300D007D007D006D005D004D003D002D00146
:10150300D000D0D0D082D083D0F0D0E002008322AC
:10151300E59620E7FBE4F596900780E0FFF597EF6B
:1015230090078660057403F080037402F002002EB6
:10153300E59620E7FB75960EE4F597E59620E7FB25
:1015430075961175972090078E7404F02290079377
:10155300E04401F0900791E0600BE59620E7FB750E
:10156300960B75970F22011400C1C1C142C1C80275
:10157300200000022200000224000000E59620E77C
:10158300FB75960F75978922900791E0F559E4F062
:10159300AF5922FF28B8FF27E8FF28FAFF27F6FFF5
:1015A3001863FF17F208000808080800FFFF08087F
:1015B30008080474FFF531F532E4FDFCD3900045CF
:1015C300E09D900044E09C4031E531FF74482DF5E7
:1015D3008274003CF583E06F75F002A4241FF5824A
:1015E300E5F03406F583E532FEE4936EF5317401DC
:1015F30093F5320DBD00010C80C2AE31AF32223003
:101603004709123091120A40C2472290004BE0244E
:1016130004FE90004AE03400900044F0A3CEF0B101
:10162300B6900046EEF0A3EFF0C23812002A123053
:1016330097900045E02408FD900044E03400FC024C
:101643000086123091120A401230971231693047E6
:101653000B7BFF7A05795C120262C322C3E52E94E9
:1016630008E49400400E900040E064437004A3E05B
:10167300644C601A7BFF7A057969852E34900040AB
:10168300E0F535A3E0F536120262D247C32290009B
:1016930042E07004A3E0640160137BFF7A0579994B
:1016A300120262900042E4F0A304F0C322E52E2468
:1016B300F8F52DE434FFF52CE4F52FF530D3900045
:1016C30045E0952D900044E0952C40477448252D26
:1016D300F97400352CFA7B01123169E52E70277FEE
:1016E30001FEF15E0530E5307002052FFFAE2FE4F9
:1016F300FCFD7B507AC3F9F8D312087B50BF7BFF04
:101703007A0579B18021E52E252DF52DE4352CF5CB
:101713002C80AA900044E0652C7004A3E0652D6042
:101723000E7BFF7A0579C51231127401F0C322D200
:101733003812002AB1B6900046E06E7003A3E06F42
:10174300600D7BFF7A0579DD12311214F0C322D3C9
:1017530022A2A0D29792307F017E008018EF1F70E3
:10176300011E144E60140000000000000000000081
:10177300000000000000000080E322122C79754570
:10178300277546101225BFEF30E111E5461546AE29
:1017930045700215454E6004F15A80E822309703E4
:1017A30020A002C322123043D322EF30E2080509FE
:1017B300E50970020508EF30E30A0509E50970023F
:1017C3000508D24722123070F1A07E0350027E0139
:1017D3007F4022C0E0C083C082C0D075D000C00764
:1017E300B18BF1ADD007D0D0D082D083D0E032E43A
:0C17F300F50AF50BF508F509220200428A
:10180000900048E0F52CA3E0F52D7403FFFEE4F50D
:101810002EE52E25E025E024EBF582E43405F58362
:10182000740193B52D22E493B52C1DE52E25E025FA
:10183000E024EDF582E43405F583E493FE7401932E
:10184000AA06F91209518009052EE52EC3940D4010
:10185000C0900048EEF0A3EFF0EE64037004A3F034
:10186000A3F022752B01E50B850AF01208EA187A1D
:1018700000001880013C000018AF750A01750B3C90
:10188000AE08AF09D3EF9400EE94004003D380017B
:10189000C340037F0022E5091509700215081216DE
:1018A0004550021100121602E4F508F50980CBE458
:1018B000F52BF50AF50B7F0322AD077B087801AF06
:1018C00005EF08800123D8FDFD139292000000006F
:1018D0000000000000000000000012308820820F8D
:1018E0001230817002153F4E600512175A80EE00CB
:1018F00000000000000000000000000000C2828024
:10190000001BEB70B8D29200000000000000000045
:10191000000000000012308820820F123081700217
:10192000153F4E600512175A80EEA292923A0000BF
:10193000000000000000000000000000C2828000E3
:10194000A23AB322123131122EA91230C3C2397118
:101950004D4003A2392230AF05C2AFD38001C392FC
:1019600038E53845377010E538453760024103E502
:101970003A453960024103D29200000000000000A5
:10198000000000000000001230F020820F12313BF6
:101990007002153D4E600512175A80EE00000000DF
:1019A00000000000000000000000C29200000000E3
:1019B00000000000000000000000C2828000123120
:1019C0006154FEFF11B94002418CE4F53BF53CC384
:1019D000E53C9538E53B95375029E5362405F582F9
:1019E000E43535F583E582253CF582E583353BF525
:1019F00083E0FF11B94002418C053CE53C700205D3
:101A00003B80CCE53A45397002418AD29200000011
:101A100000000000000000000000001230F02082F2
:101A20000F12313B7002153D4E600512175A80EEC1
:101A30000000000000000000000000000000C29252
:101A40000000000000000000000000000000C28252
:101A500080001231614401FF11B95030E4F53BF5CB
:101A60003C1231275024E53A24FFFFE53934FFFECC
:101A7000EFB53C07EEB53B03D38001C3923A122089
:101A80000012300E7002053B80D7D239C29200009E
:101A90000000000000000000000000001230F020F4
:101AA000820F12313B7002153D4E600512175A80AD
:101AB000EE0000000000000000000000000000D266
:101AC00092A23892AFA2392275330075344C12308D
:101AD000BBE0FEA3E0FF2405FDE43EFC90004AE0ED
:101AE000B50424A3E0B5051F1230BBA3A3E0FCA3FB
:101AF000E0FDEF2DFFEE3CFEE4FCFD7B337A04F9C4
:101B0000F8C312087B50057E037F0422853482854A
:101B10003383E0AF34AE33B4FE04911F800231440E
:101B200050261230BBE0FEA3E02405FFE43EFE1287
:101B300030BBA3A3E0FCA3E02FFFEC3E90004AF0F3
:101B4000A3EFF07E017F40227E037F40223082059A
:101B5000309202D322208202811D309202811D75B3
:101B60003F0900000000000000000000000000002D
:101B7000C2828000000000000000000000000000A1
:101B800000001230F920820F123142700215404ECF
:101B9000600512175A80EED53FC8209202811DD2EF
:101BA0009200000000000000000000000000001291
:101BB00030F920820F123142700215404E6005123A
:101BC000175A80EE00000000000000000000000036
:101BD0000000C292000000000000000000000000B1
:101BE0000000C2828000C2920000000000000000DD
:101BF0000000000000001230F920820F1231427004
:101C00000215404E600512175A80EE0000000000D9
:101C1000000000000000000000D292D322C3221274
:101C20003131122EA91230C3E538453760368F8224
:101C30008E83E5822405F582E43583F583E0F5148F
:101C4000D3E5389400E5379401400122E53814FDCE
:101C5000E5362406FBE43535FAAF149186E5142504
:101C60003814F514E53A4539601AE4F53BF53C12B1
:101C700031275010AF140514122A2D12300E7002A5
:101C8000053B80EBD3228F3D8D3E8A3F8B40F14058
:101C90008F41E541F47002A1BCE53E7002A1BC1287
:101CA000310A400912310250047F2080027F80EF08
:101CB00014523DE53EFDE53D2DFDE433FCEFFBD345
:101CC000ED9B7480F86C984008E53D253EC39FF578
:101CD0003EE54164017027F542E542C3953E501C44
:101CE000123063F543E53D24E524FB5004240870DD
:101CF00005A83DE543F20542053D80DDE17FE54174
:101D0000B4061BE53D253EFFE433FED3EF9460EEC1
:101D1000648094804008E53D253E24A0F53EAF4117
:101D2000EF3395E0FE74AF2FF58274153E122EC48A
:101D30005002A1BC12310B405B1231025056E4F547
:101D400042E542C3953E507412310A401B123102E3
:101D50005016123063FFE53D2542FEE54114C433C1
:101D600054E02EF8EFF280281231594023123151FD
:101D7000501E122E22C333CE33CED8F9122E1AE5BE
:101D80003D25427C002FFFEC3EFE123063FDF13614
:101D9000054280AD1231594023123151501E122E8E
:101DA00022C333CE33CED8F9122E1A7C00EF253D54
:101DB000FFEC3EFEAB40AA3FAD3EB1BD228E458F4B
:101DC000468A478B48A90530AF05C2AFD38001C30F
:101DD000E433F549E54554FEF54A754B00E54554B5
:101DE00001F54C85464DE4FFFEEEC3995033E54BBB
:101DF000254DFDE54A354CFCEE7A002DFDEA3C8D83
:101E000082F583E493F54EE5482EF582E43547F5F7
:101E100083E0F54F554E654F60047F0180030E80CF
:101E2000C8EF700B1230E1AF46AE45D1B9807F7577
:101E30004E3A754F00D238AB4BAA4AAD4DAC4CD19F
:101E4000B5E54D254FF54FE54C354EF54E1230E1D9
:101E5000D1B5E9FF7E00254FF54FEE354EF54EE545
:101E60004D2FFFEE354CFEC3E49FFD74029EFCE552
:101E70004B254DFFE54A354CFE7A00EF29FBEA3E43
:101E8000FAD238D1B5E4FB7D03AF4BAE4AF11375FE
:101E90004E3A754F00D238AB4FAA4E7D007C02AF50
:101EA0004BAE4AD1B9E4FB7D03FF7E3AF113E5491D
:101EB00024FF92AF22AF4FAE4E8E508F518C528D79
:101EC000538A548B55E5531553AE52700215524E3A
:101ED000604030380B855582855483E493FF800839
:101EE000855582758300E0FF8F568551828550832A
:101EF000E4936556600AAB567D01AF51AE50F113C5
:101F00000551E551700205500555E555700205541F
:101F100080B3228E578F5875FF8075EF068D8FA284
:101F2000AFE43324A5F5B775B7F18558828557839B
:101F3000EBF0E4F58F228D447A007B447D01A1BD56
:101F4000EFC3946050037F0622EFC3948050037F59
:101F50000122781FE2248060171460171460172490
:101F6000836016243F7015EFC394A0500F7F0222A8
:101F70007F03227F04227F05227F00227FFF227FB2
:101F80001B7E00F1EC8F478E468D458C441209175D
:101F90001FA6F62652A71FAEFC54D4021FAAFDE7C7
:101FA000554F00001FB275EF1222751508227515E6
:101FB00004227F7C1230AA7004751502227F7812E9
:101FC00030AA700475150122E4F515228F828E83E4
:101FD0000208A2E4F531F530F52FF52E7F1BFE1235
:101FE0002A1E809B1230707E017F4022A807E2FCEF
:101FF00008E2FD08E2FE08E2FF221223D402248850
:10200000E4FD7C080000000000000000000000006B
:10201000000012308820820F1230817002153F4E6E
:10202000600512175A80EEED25E0FDA292E43342DE
:10203000050000000000000000000000000000C2D9
:102040008280001CEC70BDA23A9292000000000059
:1020500000000000000000000012308820820F12F3
:1020600030817002153F4E600512175A80EE000055
:10207000000000000000000000000000C28280009C
:10208000D292AF0522000000000000000000000016
:10209000000000D2827533017534F4208212E534D9
:1020A0001534AE33700215334E600512175A80EBAB
:1020B000D2921230707E017F402290004CE0FFA34C
:1020C000E0FD7A047BEA11D17E0140027E037F406D
:1020D000228B828A83315F30AF05C2AFD38001C3C8
:1020E000923811F0A23812309E4003D38001C322EF
:1020F000122D3E122D8C122EEB0000D296D294C2DD
:1021000096D2A1D2960000122FF39200122FF392D2
:1021100027122FF39226122FF39225122FF39224D7
:10212000122FF39223122FF39222122FF3922112E5
:102130002FF39220122FF3922F122FF3922E122FA1
:10214000F3922D122FF3922C122FF3922B122FF3C6
:10215000922A122FF39229122FF39228023078C27A
:102160000FC20ED20DD20C122F64D20074FFF524D0
:10217000F52522D238512530AF05C2AFD38001C337
:10218000923931BDD20DC20CE53A153AAE39700222
:1021900015394E602111F0E53CFF2402F53CE53B8A
:1021A000FE3400F53B8F828E831230A04003D38033
:1021B00001C340D4C238A23992AFA23822122D3EB8
:1021C000122D8C122EEBA201122F5BA200122F5B9C
:1021D000A217122F5BA216122F5BA215122F5BA261
:1021E00014122F5BA213122F5BA212122F5BA211EB
:1021F000122F5BA210122F5BA21F122F5BA21E12C6
:102200002F5BA21D122F5BA21C122F5BA21B122F91
:102210005BA21A122F5BA219122F5BA218122F5B5E
:102220000000023078C20FC20EC20D122F62C2002F
:102230008A228B23228A378B38AE05AC07E53A1504
:102240003AAA39700215394A6043853C82853B833E
:10225000E0F524A3E0F525AF04AD06AB38AA37516D
:102260002530AF05C2AFD38001C3923831BDC20D56
:10227000D20C518FA23892AF0538E538700205377D
:102280007402253CF53CE4353BF53B80B0D322128B
:102290002D3E122D8C122EEBA201122F5BA20012EA
:1022A0002F5BA227122F5BA226122F5BA225122FD3
:1022B0005BA224122F5BA223122F5BA222122F5BA0
:1022C000A221122F5BA220122F5BA22F122F5BA242
:1022D0002E122F5BA22D122F5BA22C122F5BA22B92
:1022E000122F5BA22A122F5BA229122F5BA22812A7
:1022F0002F5B0000023078122FB731737E0140024D
:102300007E037F4022122FB751357E0140027E03AB
:102310007F40221230707E017F4022713190004C4C
:102320001208D290004AE4F0A37404F07E017F40CA
:102330002274FFF536F535F534F53320970261CB7D
:1023400020A00261CB1230437F0271D4122C797F1E
:1023500004122C797F01122C797F147E00122C023A
:10236000E4FF121FFA8F337F01121FFA8F34E53317
:10237000F460587516B412314912177E916BEF64F0
:102380000D60207516AD1231491230D2B1BFEF2069
:10239000E00C7837122FAD600512175A80EE12301C
:1023A0005C7028916B8F35AF1671D47F011230D2DB
:1023B000B1BFEF20E00C7837122FAD600512175A2D
:1023C00080EE9188BF0D04916B8F36AF36AE35AD80
:1023D00034AC3322D243D2448F2630AF05C2AFD3C0
:1023E0008001C3122E3B00000000122ECE00000020
:1023F00000122EB100000000D297A23092A0C29726
:1024000000000000D297A23192A0C2970000000005
:10241000D297A23292A0C29700000000D297A233B6
:1024200092A0C29700000000D297A23492A0C29757
:1024300000000000D297A23592A0C29700000000D1
:10244000D297A23692A0C29700000000D297A2377E
:1024500092A0C29700000000D297D2A053A6FE120D
:102460002E4300000000D297022EE3E47548107559
:102470004727F546F545B1BFEF20E00C7845122F10
:10248000AD600512175A80EEC243C244C245C2462F
:1024900030AF05C2AFD38001C3122E3B0000000055
:1024A000122ECE00000000122EB100000000D297C4
:1024B000A24592A0C29700000000D297A24692A027
:1024C000C29700000000122EBA00D2970000754992
:1024D00027754A100000C297000012175420300DD3
:1024E000E54A154AAE49700215494E70E70000C230
:1024F000970000A2A0D29792300000C2970000A2DD
:10250000A0D29792310000C2970000A2A0D2979269
:10251000320000C2970000A2A0D29792330000C2FE
:10252000970000A2A0D29792340000C2970000A2A8
:10253000A0D29792350000C2970000A2A0D2979235
:10254000360000C2970000122EDAAF2622AB07C277
:102550003830976830A065AF1671D47F08123034D8
:10256000B1BFEF20E00C7833122FAD600512175A7F
:1025700080EE12305C7045AF03123034B1BFEF20F3
:10258000E00C7833122FAD600512175A80EE12302E
:102590005C7029E4FF12177EE475364075359CF5B2
:1025A00034F533B1BFEF20E00C7833122FAD600566
:1025B00012175A80EE9188BF0D02D238A23822C27B
:1025C00043D24430AF05C2AFD38001C3122E3B00CB
:1025D000000000122ECE00000000122EB1000000FC
:1025E00000122EBA00D29700000000C2970000A28D
:1025F000A0D29792300000C2970000A2A0D297927A
:10260000310000C2970000A2A0D29792320000C20F
:10261000970000A2A0D29792330000C2970000A2B8
:10262000A0D29792340000C2970000A2A0D2979245
:10263000350000C2970000A2A0D29792360000C2D7
:10264000970000122EDAAF262212311D70057E018E
:10265000FF8004EBFF7E008E3F8F40C23830977BB7
:1026600030A078AF1671D47F07122FFFB1BFEF20D3
:10267000E00A122FAB600512175A80F012305C701E
:102680005AE53BFF12177EAF3C122FFAB1BFEF2085
:10269000E00A122FAB600512175A80F012305C70FE
:1026A0003A1230817002153F4E6016053EE53EAE8F
:1026B0003D7002053D14F5828E83E0FF12177E8087
:1026C000E0123002B1BFEF20E00A122FAB6005121A
:1026D000175A80F09188BF0D02D238A238221231E9
:1026E0001D70057E01FF8004EBFF7E008E3F8F4052
:1026F000C23830976230A05FAF1671D47F06122FB8
:10270000FFB1BFEF20E00A122FAB600512175A800D
:10271000F012305C7041E53DFF12177EAF3E122F84
:10272000FAB1BFEF20E00A122FAB600512175A80F2
:10273000F09188BF0D211230817002153F4E601557
:10274000916B053CE53CAC3B7002053B14F5828C7B
:1027500083EFF080E1D238A23822C2383097573068
:10276000A054AF1671D47F03123034B1BFEF20E014
:102770000C7833122FAD600512175A80EE12305CC0
:1027800070347FDE12177E7FAD12177E7FA5121781
:102790007E75360075352D753431753301B1BFEF57
:1027A00020E00C7833122FAD600512175A80EE919D
:1027B00088BF0D02D238A23822123070F15A7E033F
:1027C00050027E017F402290004AE07004A3E06442
:1027D0000160057E037F042290004CE0FFB14D7E36
:1027E0000350027E017F4022E4F510F5111201DD55
:0C27F000122AE20217FCE4F512F5132295
:10280000122E8590004AE07004A3E06406700BD39A
:10281000E5389432E537940440057E037F0422E5D1
:1028200038240690004BF0E4353790004AF0E53844
:102830004537602DC3E53794015006AE37AF388079
:10284000047E017F008E398F3AAB3AAD36AC35AF9E
:1028500034AE331226DE40057E037F4022D15F80F6
:10286000CD7E017F4022D1852406FFE43537FE90DE
:10287000004AE06E7003A3E06F60057E037F0422D0
:10288000E5384537602DC3E53794015006AE37AFC4
:102890003880047E017F008E398F3AAB3AAD34AC7C
:1028A00033AF36AE3512264940057E037F4022D134
:1028B0005F80CD7E017F4022752B01E5107031E5F0
:1028C0001124CF601924317027120042E50F243201
:1028D000D12D9004FC1208D27510007511310090B2
:1028E00004FCD1037F0050027F01EF60DC7F0022F7
:1028F000E4F52BF510F5117F0322752B01E512701D
:1029000053E51324C8603B243870497819E2C41396
:1029100013135401FFE4FCFDFEEF5401FFE47B01BF
:10292000FAF9F8C31208917004C2A3800363A008E7
:10293000E50F2464D12D9005001208D275120075A0
:10294000133800900500D1037F0050027F01EF6033
:10295000BA7F0022E4F52BF512F5137F0322D2AFE4
:102960000215503194317F315EE4F52AE52A75F085
:1029700006A42496F582E43415D14A40EF80EAE4B7
:10298000F52AE52A75F006A42499F582E43415D1D8
:102990004A40EF22E4F5A8F5E675B283E5B2C41328
:1029A0001354031350F675B9807F057E0012175E2D
:1029B00043B9C0E5B9C41354071350F775A902759C
:1029C000B68031EB438E08E589540F4420F58975B4
:1029D0008D98D28EAFD4EF54EFFF8FD4AFD4EF5495
:1029E000DFFF8FD443E101759802227580BF759097
:1029F000F675A0FF75B0FF75F17F75F2FF75F3FBFB
:102A000075F4FE75A44A75A55875A60AE4F5A77570
:102A1000D4FF75D5FF75D6FFF5E175E24022AB070F
:102A2000AF31AE30AD2FAC2EA8030208DEAD0712D9
:102A30001F40AE07BEFF037FAA22C3EE64809481CD
:102A4000400CD3EE6480948250047F2080027F800B
:102A5000EF145205EEFB3395E0FA74A82BF582745F
:102A6000153AD1C44079EE6014147027ED24E524A2
:102A7000FD50046005801C7F0022AF1522EDC39439
:102A800078400DEDD3947F5007ED90017093FF22B5
:102A90007FAA22C3EE648094814014D3EE648094B4
:102AA00082500CEE14C43354E02DF8E2FF802FC3A3
:102AB000EE648094834025D3EE64809486501DAFED
:102AC00006D124C333CE33CED8F9D11A7C00EF2DF2
:102AD000FFEC3E8F82F583E493FF80027FAA227F82
:102AE000AA22438E10E4F5C875CA4075CC4075CB58
:102AF000A275CDA2C2CFD2CAC2BDD2ADF50FF50E1E
:102B0000F50DF50C711153A57F53A6FED297D2A0F7
:102B1000229004857403F07F02EFC394225027B102
:102B2000EC2490B1F3401FE52B947F501974842F4F
:102B3000F582E43404F583E52BF074852FF582E407
:102B40003404B1E580D3900484EFF09004A77403BB
:102B5000F07F02EFC394225027B1EC24A0B1F340E0
:102B60001FE52B947F501974A62FF582E43404F5E9
:102B700083E52BF074A72FF582E43404B1E580D30C
:102B80009004A6EFF09004C97403F07F02EFC394A1
:102B9000225027B1EC24B0B1F3401FE52B947F50B5
:102BA0001974C82FF582E43404F583E52BF074C959
:102BB0002FF582E43404B1E580D39004C8EFF043EC
:102BC000F6021200469004F17401F0A37404F0A31D
:102BD00074A6F0A37401F0A37404F0A374C8F0A366
:102BE00074FAF0A37480F0A37401F0A3E4F07B0105
:102BF0007A0479847D617CEA7FC47E10120E1AC249
:102C0000AF228F828E8330AF22EF250FF53EEE3557
:102C10000EF53DE4350DF53CE4350CF53BAF3EAE2D
:102C20003DAD3CAC3BD10E501880F2E5821582AE32
:102C300083700215834E60097FE87E0312175E8061
:102C4000EA22C0E0C0D075D000C004C005C006C0F4
:102C500007C2CFAF0FAE0EAD0DAC0CEF2401F50FD8
:102C6000E43EF50EE43DF50DE43CF50CD007D0064E
:102C7000D005D004D0D0D0E032D243C244C245C245
:102C8000468F2630AF05C2AFD38001C3D13B0000D1
:102C90000000D1CE00000000D1B100000000D297AA
:102CA000A24592A0C29700000000D297A24692A02F
:102CB000C29700000000D297A23092A0C2970000F5
:102CC0000000D297A23192A0C29700000000D297D4
:102CD000A23292A0C29700000000D297A23392A025
:102CE000C29700000000D297A23492A0C2970000C1
:102CF0000000D297A23592A0C29700000000D297A0
:102D0000A23692A0C29700000000D297A23792A0EC
:102D1000C29700000000D1BA00D297000075472783
:102D20007548100000C297000012175420300DE5BE
:102D3000481548AE47700215474E70E7C1E0C283A0
:102D4000C2A1A248D2969294C296A248D2969294D8
:102D5000C296A248D2969294C296A248D2969294D3
:102D6000C296A248D2969294C296A248D2969294C3
:102D7000C296A248D2969294C296A248D2969294B3
:102D8000C296A248D2969294C296A248D2969294A3
:102D9000C296A248D2969294C296A248D296929493
:102DA000C296A248D2969294C296A248D296929483
:102DB000C296A248D2969294C296A248D296929473
:102DC000C296A248D2969294C296A248D296929463
:102DD000C296A248D2969294C296A248D296929453
:102DE000C296A24822F583E4F00F0F22EFC313C36B
:102DF000940122FDE434398D82F583E493F52BC3ED
:102E0000942022E0FCA3E0FDA3E0FEA3E0FFAB0FD3
:102E1000AA0EA90DA80CC30208912480FFEE343637
:102E2000FE22AF41EF3395E0FEEF780722FFE43555
:102E30000EFEE4350DFDE4350CFC22923953A6FE5E
:102E400043A580A24192A0C29722F583740193FA10
:102E5000740293F9120951052AE52AC3940322E565
:102E60003A2534F534E5393533F533E53A2536F589
:102E700036E5393535F535C3E538953AF538E53772
:102E80009539F537227B4C7A00EB2406F534E43A89
:102E9000F5338B828A83A3A3E0FEA3E08E35F5365B
:102EA000EB2404F582E43AF583E0F537A3E0F53846
:102EB00022D297A24492A0C29722D29753A6FED2C2
:102EC000A0C29722F583E493FFE515C39F22D29712
:102ED00043A601A24392A0C29722A2A0D297923702
:102EE00053A6FE53A57FA23992AF22D2969294C2E6
:102EF00096A20FD2969294C296A20ED2969294C2A5
:102F000096A20DD2969294C296A20CD2969294C298
:102F100096A20BD2969294C296A20AD2969294C28C
:102F200096A209D2969294C296A208D2969294C280
:102F300096A207D2969294C296A206D2969294C274
:102F400096A205D2969294C296A204D2969294C268
:102F500096A203D2969294C296A202D2969294C25C
:102F60009622C20CEFC4540F13920BEF1313135499
:102F70001F13920AEF1313543F139209EFC3131355
:102F80009208EF139207EDC4540F139206ED13133A
:102F900013541F139205ED1313543F139204EDC302
:102FA00013139203ED139202D20122784174FF129F
:102FB00008B4EC4D4E4F2275330075344C85348285
:102FC000853383E0FFA3E0FD853482853383A3A3AB
:102FD000E0FAA3E0FBE5342404F582E43533F5831D
:102FE000E0F539A3E0F53AE5342406F53CE4353361
:102FF000F53B22C296A280D2962212177EAF031210
:10300000177EE4754410754327F542F54122E538F3
:10301000253CFDE537353BFCE5362405F582E435F6
:1030200035F583E5822DF582E5833CF583EFF005E8
:103030003CE53C2212177EE4753610753527F534D1
:10304000F5332243A580C2977F147E0012175ED20B
:10305000977F027E0012175E53A57F22122488EF0D
:10306000640D22E5402542F582E4353FF583E022F8
:10307000E490004AF0A3F022D296D294D283D2A157
:1030800022E5401540AE3F22D282753F017540F4E3
:10309000227E047F447D007B017A0079402292AF3A
:1030A000E524F0A3E525F0A200227E38121FCCAB68
:1030B00047AA46A945A844C30208918534828533AE
:1030C00083A3228F828E83A3A3A3E0F539A3E0F527
:1030D0003A2212177EE4753A10753927F538F5371C
:1030E00022E9FD7C00AE47AF48AB07AA06C23822F2
:1030F000D282753D01753EF422D282754001754140
:10310000F422D3E5416480948222C3E54164809433
:1031100081221202629000487403F0A3228E3B8F3A
:103120003C8C3D8D3EEB22C3E53C953AE53B953921
:10313000228E358F368F828E83A322E53E153EAEDA
:103140003D22E5411541AE4022AF161223D47F0245
:1031500022D3E5416480948622C3E5416480948350
:1031600022853682853583E0227D4012105F8F2EC6
:01317000223C
:00000001FF
