:10000000020B139007867402F0E59620E7FB7596C5
:1000100001759701E490078EF0A37403F0A3F0E458
:10002000900792F090079104F02222020E17900799
:100030008EE06404600BE59620E7FB7596117597DA
:10004000402232020085E4F50AE5B964E0602E53EF
:10005000A90F85A90B43B280E5A95407D3940140A9
:1000600003E4F5A9E4F5B943B980D50AFD43B9C065
:10007000E5B930E5FBE50BB4020343A90253A90F30
:01008000225D
:1000830080BDC0E0C0F0C083C082C0D075D000C0C6
:1000930000C001C002C003C004C005C006C0079071
:1000A300079DE596F0E59620E7FB75968EE596208D
:1000B300E7FB90079EE597F0E59620E7FB759686AC
:1000C300E59620E7FB900798E597F0E030E30BE532
:1000D3009620E7FB75960B759707900798E030E23B
:1000E30003120003900798E030E014900786E0FFC6
:1000F30064046004EFB40607900791E04480F0E5E0
:100103009620E7FB759682E59620E7FB900798E536
:1001130097F0E030E003120200900798E030E22A03
:10012300E59620E7FB75960E759702E59620E7FBAB
:10013300759691E59620E7FB900799E597F0E054D3
:10014300037007900791E04402F0E59620E7FB7502
:100153009684E59620E7FB900798E597F0E030E278
:1001630029E59620E7FB75960E759702E59620E73D
:10017300FB759694E59620E7FB900799E597F0E0E9
:1001830030E007900791E04404F0E59620E7FB7523
:10019300960E90079EE0F597E59620E7FB90079D66
:1001A300E596F0E59620E7FB900793E030E00990B1
:1001B3000791E06003120AB4D007D006D005D0043B
:1001C300D003D002D001D000D0D0D082D083D0F0E1
:0B01D300D0E032012AE4F514F51522FB
:1001E00046333231424F4F540510FFFF00000001EB
:1001F00000000000000000000000000000000000FF
:10020000E59620E7FB75960EE4F597E59620E7FB6B
:10021000759691E59620E7FB90079CE597F0E0FF47
:1002200030E210E59620E7FB759611E4F59790070C
:100230008EF022EF30E410E59620E7FB75961175FD
:100240009780E490078EF090078EE0600302032C05
:1002500090079CE020E00302032C7596204396C093
:10026000E4F50DE59620E7FB747E250DF582E43478
:1002700007F583E597F0050DE50DB407E6E5962053
:10028000E7FBE4F596747E250DF582E43407F583EB
:10029000E597F0900781E0FE900780E07C00240065
:1002A000FFEC3E900794F0A3EFF0900785E0FE90FE
:1002B0000784E02400FFEC3E900796F0A3EFF09057
:1002C000077FE004603B14B40C00505D9002D3F84B
:1002D0002828730202F70202FC020301020306024D
:1002E000032902030B020310020329020315020370
:1002F0001A02031F02032412088280301208F580BC
:100300002B1206B280261209548021120AD6801CB4
:100310001207C28017120A0C80121209B2800D1245
:100320000A8D800812002E8003120AF690078EE0D4
:100330006401600302041490079C7402F0C39007E8
:100340008DE0944090078CE094004055E59620E7BE
:10035000FB759620E4F50D900787E0FBA3E0FAA378
:10036000E0F9850D8275830012042EF597E596203D
:10037000E7FB050DE50DB440DE900788E475F0401D
:1003800012045B90078DE024C0F090078CE034FFEE
:10039000F090078BE02440F090078AE03400F08072
:1003A00045E59620E7FB759620E4F50DD390078D83
:1003B000E0950D90078CE09400401F900787E0FBCC
:1003C000A3E0FAA3E0F9850D8275830012042EF5EF
:1003D00097E59620E7FB050D80D290079CE0440846
:1003E000F0E490078EF0900796E0FEA3E0FF900700
:1003F0008AE0B50611A3E0B5070C90079CE044081D
:10040000F0E490078EF0E59620E7FB7596119007D3
:100410009CE0F59722BB010689828A83E022500284
:10042000E722BBFE02E32289828A83E49322BB0196
:100430000CE58229F582E5833AF583E0225006E94E
:100440002582F8E622BBFE06E92582F8E222E58253
:1004500029F582E5833AF583E49322C5F0F8A3E019
:1004600028F0C5F0F8E582158270021583E038F0B7
:1004700022EB9FF5F0EA9E42F0E99D42F0E89C45B0
:10048000F022ECF0A3EDF0A3EEF0A3EFF0228A83CC
:100490008982E473E709F60870FA8046E709F208F2
:1004A00070FA803E88828C83E709F0A370FA807E20
:1004B000E309F60870FA8076E309F20870FA806EB4
:1004C00088828C83E309F0A370FA806289828A8330
:1004D000E0A3F60870FA805689828A83E0A3F208C6
:1004E00070FA804A80D280FA80C680D4806580F21B
:1004F0008031801080A680EA809A80A880DA80E22D
:1005000080CA803189828A83ECFAE493A3C8C582C9
:10051000C8CCC583CCF0A3C8C582C8CCC583CC7079
:10052000E9800D89828A83E493A3F60870F9ECFAD6
:10053000A9F0EDFB2289828A83ECFAE0A3C8C58288
:10054000C8CCC583CCF0A3C8C582C8CCC583CC7049
:10055000EA80DD89828A83E493A3F20870F980CE71
:1005600088F0ED2402B4040050C4F582EB2402B4F8
:10057000040050BA23234582239004E4739000665C
:10058000EEF0A3EFF090006AEBF0A3EAF0A3E9F03D
:10059000E4F50AE50A900A5393FF7440250AF582B0
:1005A000E43407F583EFF0050AE50AB412E5E4F553
:1005B0000AE50A900A6593FF7452250AF582E4342D
:1005C00007F583EFF0050AE50AB420E5900066E040
:1005D000F50BA3E0F50C900748E50CF0A3E50BF054
:1005E0008C0B8D0CA3E50CF0A3E50BF09007727457
:1005F000FFF0A3740AF0A37485F090006AE0F9A3F9
:10060000E0FAA3E0900775C9F0A3EAF0A3E9F0903F
:10061000006DE0F9A3E0FAA3E0900778C9F0A3EA3F
:10062000F0A3E9F0900070E0F9A3E0FAA3E09007EE
:100630007BC9F0A3EAF0A3E9F0900073E0FFC39454
:10064000FA500590075AEFF0900074E0900759F0C7
:10065000900075E0FEA3E090074CF0EEA3F0E59665
:1006600020E7FB759601759708E59620E7FB7596E0
:100670000775970FE59620E7FB75960975970EE5C8
:100680009620E7FB75960B75970775D7E0120B4719
:10069000E4900792F0900791F0900793F09007860E
:1006A000F043E602D2AFE59620E7FB759601759719
:1006B0000122900794E0B4373CA3E0B40B379007D5
:1006C0008EE06404601012002E90078E7401F0E436
:1006D00090078AF0A3F090079B7480F090078774CE
:1006E00001F0A37407F0A3749BF090078CE4F0A3CF
:1006F00004F00207B4900795E020E00302078B9016
:100700000793E030E00854FEF04402F080079007C1
:1007100093E054FDF0E59620E7FB75960E75970281
:10072000E59620E7FB759614759710E59620E7FB94
:10073000759611759708E59620E7FB759694E596F2
:1007400020E7FB90079BE597F0E020E4E9E59620A1
:10075000E7FB759614759710E59620E7FB75969163
:10076000E59620E7FB90079BE597F0E020E3E9E5BD
:100770009620E7FB7596117597089007917408F01D
:10078000900793E0FF30E1034401F0900794E0FC10
:10079000A3E0FD30E10D9007867406F0900791E02C
:1007A0004410F0ED30E20D9007867404F09007914C
:1007B000E04420F0E59620E7FB75960EE4F59702FD
:1007C000002EE4900077F0900781E024FE601B1477
:1007D000603B240270729007877401F0A37407F0E5
:1007E000A37440F0900740E080539007877401F0B5
:1007F000A37407F0A37452F0900755E0FE900754DD
:10080000E07C002400FFEC3E90078C803590078050
:10081000E0FFD394034002802FEF75F003A424720D
:10082000F582E43407F583E0FBA3E0FAA3E0F99056
:100830000787EBF0A3EAF0A3E9F0120415FF900795
:100840008CE4F0A3EFF08003120AF690078CE0FE30
:10085000A3E0FF900796E0FCA3E0FDC39FEC9E5051
:100860000890078CECF0A3EDF090078EE064046034
:100870001012002E90078E7401F0E490078AF0A306
:10088000F02290077EE0247F600714600624027047
:1008900048802D90078FE0B40309900782E0B402EE
:1008A00002800E900790E0B40316900782E0B482B5
:1008B0000F90078774FFF0A3740AF0A37489800D6A
:1008C00090078774FFF0A3740AF0A3748BF090076D
:1008D0008CE4F0A37402F08003120AF690078EE015
:1008E0006404601012002E90078E7401F0E49007EB
:1008F0008AF0A3F022900780E07048900782E0FF22
:10090000B4021DE59620E7FB75960E759702E596F5
:1009100020E7FB759614759780E490078FF080268A
:10092000EFB4821DE59620E7FB75960E759702E5FC
:100930009620E7FB759611759740E4900790F0803C
:10094000058000120AF6E59620E7FB75960EE4F5A1
:100950009702002E900780E07047900782E0FFB476
:10096000021BE59620E7FB75960E759702E596202B
:10097000E7FB75961475972090078F801DEFB48262
:100980001EE59620E7FB75960E759702E59620E723
:10099000FB7596117597109007907403F080058091
:1009A00000120AF6E59620E7FB75960EE4F597022D
:1009B000002E900780E0D394004042900791E044DD
:1009C00040F09007867404F0E490078FF0A3F0E500
:1009D0009620E7FB75960E759702E59620E7FB7566
:1009E0009612759784E59620E7FB759615759780A6
:1009F000E59620E7FB75960EE4F597800C90078648
:100A00007403F090078FF0A3F002002E900786E0A9
:100A1000FFB40414A374FFF0A3740AF0A37489F064
:100A200090078CE4F0A304F0EFB4031690078774EA
:100A3000FFF0A3740AF0A3748BF090078CE4F0A38A
:100A400004F012002E90078E7401F0E490078AF0F3
:100A5000A3F0221201100100000040C410000000A9
:100A600000010203010902200001010080FA0904CB
:100A7000000002FF00000007050202400000070519
:100A8000820240000004030904010000009007876F
:100A900074FFF0A3740AF0A3748BF090078CE4F059
:100AA000A304F012002E90078E7401F0E490078AE0
:100AB000F0A3F022D007D007D007D006D005D0048D
:100AC000D003D002D001D000D0D0D082D083D0F0DB
:100AD000D0E002008322E59620E7FBE4F59690073C
:100AE00080E0FFF597EF90078660057403F08003C0
:100AF0007402F002002EE59620E7FB75960EE4F5F1
:100B000097E59620E7FB75961175972090078E74F0
:100B100004F022E4F5D978FFF6D8FD9000007E04B9
:100B20007F00F0A3DFFCDEFA758115020D3D900712
:100B300093E04401F0900791E0600BE59620E7FB1D
:100B400075960B75970F22E59620E7FB75960F7546
:100B5000978922437265614C696768747320496E96
:100B6000632E00005553422D436F6E766572746597
:100B7000720000000053696C6162732D433241645E
:100B8000617074657200FF0B92FF0BD4FF0BDEFFE8
:100B900001D8750901E5127031E51324CF601924DD
:100BA00031702712002AE5112432D1739000781297
:100BB000048275120075133100900078D14E7F00C9
:100BC00050027F01EF60DC7F0022E4F509F512F5A9
:100BD000137F0322E4F512F51391200201D6750963
:100BE00001E5147031E51524C860192438702763B5
:100BF000A008E5112464D17390007C12048275145E
:100C0000007515380090007CD14E7F0050027F01A6
:100C1000EF60DC7F0022E4F509F514F5157F03226F
:100C2000438E10E4F5C875CA4075CC4075CBA275EB
:100C3000CDA2C2CFD2CAC2BDD2ADF511F510F50F0B
:100C4000F50E9000017403F07F02EFC39422502947
:100C5000EFC313900B52D16C401FE509947F5019DC
:100C600074002FF582E43400F583E509F074012F58
:100C7000F582E43400D16580D1900000EFF090005F
:100C8000237403F07F02EFC394225029EFC3139023
:100C90000B63D16C401FE509947F501974222FF526
:100CA00082E43400F583E509F074232FF582E434FF
:100CB00000D16580D1900022EFF09000457403F0E0
:100CC0007F02EFC394225029EFC313900B74D16CB1
:100CD000401FE509947F501974442FF582E43400D5
:100CE000F583E509F074452FF582E43400D1658081
:100CF000D1900044EFF043F60212004690006D746C
:100D000001F0A37400F0A37422F0A37401F0A374A3
:100D100000F0A37444F0A374FAF0A37480F0A374F9
:100D200001F0A3E4F07B017A0079007D617CEA7F29
:100D3000C47E1012057DC2AF22D2AF612EB16EB15A
:100D400059B139E4F508E50875F006A42486F58262
:100D5000E4340BD18140EF80EAE4F508E50875F052
:100D600006A42489F582E4340BD18140EF22E4F516
:100D7000A8F5E675B283E5B2C4131354031350F615
:100D800075B9807F057E00B1C443B9C0E5B9C4130D
:100D900054071350F775A90275B680B1E4438E0865
:100DA000E589540F4420F589758D98D28EAFD4EF24
:100DB00054EFFF8FD4AFD4EF54DFFF8FD443E10162
:100DC000759802228018EF1F70011E144E601400E7
:100DD0000000000000000000000000000000000013
:100DE0000080E3227580BF7590F675A0FF75B0FF97
:100DF00075F17F75F2FF75F3FB75F4FE75A44A7506
:100E0000A55875A60AE4F5A775D4FF75D5FF75D664
:100E1000FFF5E175E24022C0E0C0D075D000C0040B
:100E2000C005C006C007C2CFAF11AE10AD0FAC0EEB
:100E3000EF2401F511E43EF510E43DF50FE43CF537
:100E40000ED007D006D005D004D0D0D0E032E0FCE0
:100E5000A3E0FDA3E0FEA3E0FFAB11AA10A90FA839
:100E60000EC3020471F583E4F00F0F2293F509C35A
:100E7000942022FFE43510FEE4350FFDE4350EFC2E
:100E800022F583740193FA740293F912048E050813
:060E9000E508C3940222F4
:00000001FF
