:100000000212739007867402F0E59620E7FB75965E
:1000100001759701E490078EF0A37403F0A3F0E458
:10002000900792F090079104F02222022D999007F8
:100030008EE06404600BE59620E7FB7596117597DA
:0200400040225C
:10004300020D3FE4F52CE5B964E0602E53A90F855A
:10005300A92D43B280E5A95407D394014003E4F5E5
:10006300A9E4F5B943B980D52CFD43B9C0E5B9304E
:0E007300E5FBE52DB4020343A90253A90F22B9
:10008300022DD08B2C8A2D892E8C2F8D30E4F531C7
:10009300F532F538900786E0B40611E530452F6058
:1000A3000BD3E5309400E52F94104004E4FEFF22C7
:1000B30053E6FDAB2CAA2DA92EAF01AE02AD038FE3
:1000C300368E358D34753300E53830E0030201D5C3
:1000D300E59620E7FB75960E759702E59620E7FBFC
:1000E300759691E59620E7FB859738E53830E01D56
:1000F300E59620E7FB75960EE4F597E59620E7FB7A
:10010300759691E59620E7FB85973880BBD3E5305C
:100113009440E52F940040057537408003853037C0
:10012300E59620E7FB759622E5376057E5347019AD
:10013300E52E2532F9E52D3531A801E59620E7FBBB
:10014300E6F59708D537F4803AE53420E71BE52E2A
:100153002532F9E52D35318982F583E59620E7FBD4
:10016300E0F597A3D537F4801AE52E2532F9E52D6E
:1001730035318982F583E59620E7FBE493F597A370
:10018300D537F3C3E5309440E52F9400401F744006
:100193002532F532E43531F53174C02530F530744C
:1001A300FF352FF52FE4F5387537408017E53025F7
:1001B30032F532E52F3531F531753801853037E4C5
:1001C300F52FF530E59620E7FB759611759701023B
:1001D30000CB43E602AE31AF32220223DE46333296
:1001E30031424F4F540510FFFF0000010200000091
:1001F30000000000000000000000000000E54024B3
:1002030034F8E60540227831303F027834E475F063
:100213000112083102055C2038EB7F2ED23880189A
:10022300EF540F2490D43440D4FF303C0BEF24BF61
:10023300B41A0050032461FFE541600215410544EF
:10024300E54470020543303F0D7831E475F0011247
:100253000831EF02081F0215407403D23F8003E404
:10026300C23FF5408B318A328933E4F541F543F5DA
:1002730044E54160077F2012023B80F57542FFC2CF
:1002830039C238C23AC23BC23DC23EC24012020921
:10029300FF700D303F057F0012024CAF44AE432286
:1002A300B4255FC2D5C23C120209FF24D0B40A00B0
:1002B300501A75F00A784130D50508B6FF0106C615
:1002C300A426F620D5047002D23B80D924CFB41AD9
:1002D30000EF5004C2E5D23C02044CD23980C6D2AE
:1002E3003880C0D23A80BCD2D580BAD23D80B47FA8
:1002F3002012023B203A077401B5410040F112027B
:1003030000FF12023B020274D240D23E80951202D9
:1003130000FB120200FA120200F94A4B7006791D23
:100323007A057BFF203A2EE541602A7E008E827596
:10033300830012057560060EEE654270F0C2D5EBC0
:10034300C0E0EAC0E0E9C0E0EE120493D0E0F9D0E7
:10035300E0FAD0E0FB12055CFF60AAEBC0E0EAC064
:10036300E0E9C0E012023BD0E02401F9D0E0340020
:10037300FAD0E0FBE5420460DCD542D980877BFFFD
:100383007A04798FD23A809C791080027908C23E30
:10039300C2408008D2D5790A8004790AC2D5E542E1
:1003A300047002F542E4FAFDFEFF120200FC7B0832
:1003B300203913120200FD7B1030380A120200FEAE
:1003C300120200FF7B20EC3382D592D55013C3E495
:1003D3003038069FFFE49EFEE42039039DFDE49C34
:1003E300FCE4CBF8C239EC700CCFCECDCCE824F8CA
:1003F300F870F38017C3EF33FFEE33FEED33FDECFC
:1004030033FCEB33FB994002FB0FD8E9EB303905A2
:10041300F8D0E0C448B239C0E00AEC4D4E4F782022
:100423007B0070C2EAB5420040BCC0E0120495D024
:10043300F0D0E0203904C4C0E0C4B239C0F01202E5
:1004430024D0F0D5F0EB02027412084103115303D8
:100453008B5802E24C02DE42038F4F03974403970B
:100463004902F743039D55038146038145038147B1
:10047300053D5002E62D02EA2E030D2B02EE230367
:100483000B2005262A02A648000003053F3F3F0034
:10049300790AA2D5203B14303D09B910020404B9EE
:1004A300080104A2D5203E02500104203A68923A82
:1004B300B541005034C0E07F20303B197F30A23A71
:1004C300723E723D500F1204ECC23AC23EC23DC2AC
:1004D300407F30800F303D03E9C0E012023B303DE6
:1004E30003D0E0F9D0E0B541CC303D177F30B910EF
:1004F3000C12023B7F58303C077F788003B9080316
:1005030012023B303A057F2D02023B7F202040F848
:100513007F2B203EF322923A80CF286E756C6C2994
:1005230000D2391202003039F8C239784130D5018E
:1005330008F60202A62D504349581202002403B4C0
:1005430005004001E49005389312022C743A12021C
:100553002CD23B75410402038BBB010689828A833B
:10056300E0225002E722BBFE02E32289828A83E46F
:100573009322BB010CE58229F582E5833AF583E0FA
:10058300225006E92582F8E622BBFE06E92582F819
:10059300E222E58229F582E5833AF583E49322C5D5
:1005A300F0F8A3E028F0C5F0F8E582158270021593
:1005B30083E038F022E88FF0A4CC8BF0A42CFCE984
:1005C3008EF0A42CFC8AF0EDA42CFCEA8EF0A4CDD2
:1005D300A8F08BF0A42DCC3825F0FDE98FF0A42CE6
:1005E300CD35F0FCEB8EF0A4FEA9F0EB8FF0A4CF99
:1005F300C5F02ECD39FEE43CFCEAA42DCE35F0FD4A
:10060300E43CFC22EB9FF5F0EA9E42F0E99D42F0C8
:10061300EC6480C864809845F022EB9FF5F0EA9E75
:1006230042F0E99D42F0E89C45F022E86010ECA21C
:10063300E713FCED13FDEE13FEEF13FFD8F022E8F2
:10064300600FEFC333FFEE33FEED33FDEC33FCD825
:10065300F122E493FC740193FD740293FE740393FB
:10066300FF227401FF3395E0FEFDFC080808E6CF86
:100673002FF618E6CE3EF618E6CD3DF618E6CC3C4E
:10068300F622ECF0A3EDF0A3EEF0A3EFF022ECF2F0
:1006930008EDF208EEF208EFF222D083D082F8E4FC
:1006A300937012740193700DA3A393F8740193F5DF
:1006B300828883E473740293B5F0067403936860CD
:1006C300E9A3A3A3A380D8D083D082E49370127448
:1006D3000193700DA3A393F8740193F5828883E4C7
:1006E300737402936C70127403936D700C7404939F
:1006F3006E70067405936F60DDA3A3A3A3A3A38009
:10070300CA8A838982E473E709F60870FA8046E7A8
:1007130009F20870FA803E88828C83E709F0A3709F
:10072300FA807EE309F60870FA8076E309F208702E
:10073300FA806E88828C83E309F0A370FA80628961
:10074300828A83E0A3F60870FA805689828A83E05E
:10075300A3F20870FA804A80D280FA80C680D480DF
:100763006580F28031801080A680EA809A80A8801C
:10077300DA80E280CA803189828A83ECFAE493A327
:10078300C8C582C8CCC583CCF0A3C8C582C8CCC5B4
:1007930083CC70E9800D89828A83E493A3F6087081
:1007A300F9ECFAA9F0EDFB2289828A83ECFAE0A343
:1007B300C8C582C8CCC583CCF0A3C8C582C8CCC584
:1007C30083CC70EA80DD89828A83E493A3F2087084
:1007D300F980CE88F0ED2402B4040050C4F582EB16
:1007E3002402B4040050BA232345822390075A738A
:1007F300EF4E6012EF60010EEDBB010B89828A831D
:10080300F0A3DFFCDEFA2289F05007F709DFFCA929
:10081300F022BBFEFCF309DFFCA9F022BB01068931
:10082300828A83F0225002F722BBFE01F322FAE60A
:10083300FB0808E6F925F0F618E6CA3AF622D08353
:10084300D082F8E4937012740193700DA3A393F80C
:10085300740193F5828883E4737402936860EFA351
:10086300A3A380DF666C757368204649464F210A4F
:1008730000696E76616C6964206672616D65212022
:1008830028626C6F636B4C656E3D252E3262582C6B
:10089300206D616769634E6F3D252E346858290AC0
:1008A30000696E76616C6964206672616D6520769D
:1008B300657273696F6E210A007278207061636BD1
:1008C30065742074696D656F7574210A00696E76AD
:1008D300616C6964207061636B6574206C656E671D
:1008E3007468210A00696E76616C6964204352431F
:1008F300210A00100023B410102069110017F6110B
:100903001024E21111272711122735120027521242
:1009130010275A12112769121227801213278F12D8
:1009230014280012152867000011892312329B46F0
:100933002457AD653674BF8C489DC1AF5ABED3CA28
:100943006CDBE5E97EF8F7091918902A0B3B824F17
:100953003D5EB46C2F7DA6855194D8A643B7CAC318
:1009630075D2FCE067F1EE123203BB312020A954AB
:1009730016459F7704668D9E7A8FF3BD68ACE1D8E8
:100983005EC9D7FB4CEAC51B2B0AA2383929B05DD7
:100993000F4C867E1D6F94976386EAB471A5F8D1D8
:1009A30047C0CEF255E3DC246435ED077616FF62CB
:1009B3004073C9415250DBA82CB9A58B3E9AB7EEC0
:1009C30008FF81CD1ADC932D7D3CF40E6F1FE66B7F
:1009D300597AD0484B59C2A135B0BC822793AEE7B0
:1009E30011F698C403D58A365627DF154404CD7013
:1009F3007261FB536042E9BA1EAB97990C8885FC80
:100A03003AEDB3DF28CEA13F4F2EC61C5D0DD4793E
:100A13006B68E25A794BF0B307A28E9015819CF56F
:100A230023E4AAD631C7B848C859416BDA7A530EC2
:100A3300EC1F652DFE3C77C480D509E792F61B8237
:100A4300A4932DA1B6B03F41D1505862C3734A0756
:100A5300F5167C24E7356ECD99DC10EE8BFF028B07
:100A6300BD9A34A8AFB9265AFA4B7379E868611C6A
:100A7300DE0D573FCC2E45D6B2C73BF5A0E42990F7
:100A830096811FB384A20D53E3426A70F161781516
:100A9300C7044E36D5275CDFABCE22FCB9ED3099C7
:100AA3008F8806BA9DAB146CAC7D254FBE5E372A8A
:100AB300883B01099A1813E0E4F16DC3F6D27FA6CF
:100AC300C0B74985D2945B65B5743C46A7572E23BE
:100AD3009132180083110AE9FDF874CAEFDB66AF9F
:100AE300D9BE508CCB9D427E9E6F175D8C4C0538D2
:100AF300BA29331BA80A21F2D6E35FD1C4C04DB48F
:100B0300F2A57B97E086697787660E5495451C317D
:100B1300A3202A12B10338FBCFEA46D8DDC954BD5E
:100B2300EBAC629EF98F70E59620E7FB75960EE4B9
:100B3300F597E59620E7FB759691E59620E7FB9000
:100B4300079CE597F0E0FF30E210E59620E7FB75A0
:100B53009611E4F59790078EF022EF30E410E596B6
:100B630020E7FB759611759780E490078EF0900748
:100B73008EE06003020C5690079CE020E003020C19
:100B8300567596204396C0E4F558E59620E7FB7426
:100B93007E2558F582E43407F583E597F00558E59B
:100BA30058B407E6E59620E7FBE4F596747E2558EE
:100BB300F582E43407F583E597F0900781E0FE9032
:100BC3000780E07C002400FFEC3E900794F0A3EF45
:100BD300F0900785E0FE900784E02400FFEC3E9050
:100BE3000796F0A3EFF090077FE004603B14B40C8A
:100BF30000505D900BFDF8282873020C21020C268F
:100C0300020C2B020C30020C53020C35020C3A027C
:100C13000C53020C3F020C44020C49020C4E1213FB
:100C23000E8030121381802B120FC580261213E021
:100C33008021121589801C1211B380171214988019
:100C43001212143E800D121519800812002E800313
:100C53001215A990078EE064016003020D3E900710
:100C63009C7402F0C390078DE0944090078CE0944D
:100C7300004055E59620E7FB759620E4F55890076C
:100C830087E0FBA3E0FAA3E0F9855882758300129D
:100C93000575F597E59620E7FB0558E558B440DE62
:100CA300900788E475F0401205A290078DE024C0F8
:100CB300F090078CE034FFF090078BE02440F09035
:100CC300078AE03400F08045E59620E7FB7596201F
:100CD300E4F558D390078DE0955890078CE0940085
:100CE300401F900787E0FBA3E0FAA3E0F985588251
:100CF300758300120575F597E59620E7FB05588087
:100D0300D290079CE04408F0E490078EF090079699
:100D1300E0FEA3E0FF90078AE0B50611A3E0B50764
:100D23000C90079CE04408F0E490078EF0E59620D1
:100D3300E7FB75961190079CE0F59722C0E0C0F0A1
:100D4300C083C082C0D075D000C000C001C002C043
:100D530003C004C005C006C00790079DE596F0E5F3
:100D63009620E7FB75968EE59620E7FB90079EE5B8
:100D730097F0E59620E7FB759686E59620E7FB90CE
:100D83000798E597F0E030E30BE59620E7FB7596CF
:100D93000B759707900798E030E203120003900762
:100DA30098E030E014900786E0FF64046004EFB439
:100DB3000607900791E04480F0E59620E7FB7596DF
:100DC30082E59620E7FB900798E597F0E030E00393
:100DD300120B2A900798E030E22AE59620E7FB758C
:100DE300960E759702E59620E7FB759691E596209A
:100DF300E7FB900799E597F0E0540370079007919C
:100E0300E04402F0E59620E7FB759684E59620E73B
:100E1300FB900798E597F0E030E229E59620E7FBA1
:100E230075960E759702E59620E7FB759694E59601
:100E330020E7FB900799E597F0E030E007900791F2
:100E4300E04404F0E59620E7FB75960E90079EE0DC
:100E5300F597E59620E7FB90079DE596F0E596204C
:100E6300E7FB900793E030E009900791E0600312FD
:100E73001567D007D006D005D004D003D002D00127
:100E8300D000D0D0D082D083D0F0D0E0329004EA2A
:100E9300EEF0A3EFF09004EEEBF0A3EAF0A3E9F099
:100EA300E4F52CE52C9014DF93FF7440252CF58298
:100EB300E43407F583EFF0052CE52CB412E5E4F5F3
:100EC3002CE52C9014F193FF7452252CF582E43415
:100ED30007F583EFF0052CE52CB420E59004EAE058
:100EE300F52DA3E0F52E900748E52EF0A3E52DF0B0
:100EF3008C2D8D2EA3E52EF0A3E52DF090077274B3
:100F0300FFF0A37415F0A37411F09004EEE0F9A3BD
:100F1300E0FAA3E0900775C9F0A3EAF0A3E9F09023
:100F230004F1E0F9A3E0FAA3E0900778C9F0A3EA9B
:100F3300F0A3E9F09004F4E0F9A3E0FAA3E090074A
:100F43007BC9F0A3EAF0A3E9F09004F7E0FFC394B0
:100F5300FA500590075AEFF09004F8E0900759F023
:100F63009004F9E0FEA3E090074CF0EEA3F0E596C1
:100F730020E7FB759601759708E59620E7FB7596C4
:100F83000775970FE59620E7FB75960975970EE5AC
:100F93009620E7FB75960B75970775D7E01215F545
:100FA300E4900792F0900791F0900793F0900786F2
:100FB300F043E602D2AFE59620E7FB7596017597FD
:100FC3000122900794E0B4373CA3E0B40B379007B9
:100FD3008EE06404601012002E90078E7401F0E41A
:100FE30090078AF0A3F090079B7480F090078774B2
:100FF30001F0A37407F0A3749BF090078CE4F0A3B3
:1010030004F00210C7900795E020E00302109E90C1
:101013000793E030E00854FEF04402F080079007A5
:1010230093E054FDF0E59620E7FB75960E75970265
:10103300E59620E7FB759614759710E59620E7FB78
:10104300759611759708E59620E7FB759694E596D6
:1010530020E7FB90079BE597F0E020E4E9E5962085
:10106300E7FB759614759710E59620E7FB75969147
:10107300E59620E7FB90079BE597F0E020E3E9E5A1
:101083009620E7FB7596117597089007917408F001
:10109300900793E0FF30E1034401F0900794E0FCF4
:1010A300A3E0FD30E10D9007867406F0900791E010
:1010B3004410F0ED30E20D9007867404F090079130
:1010C300E04420F0E59620E7FB75960EE4F59702E1
:1010D300002E8D38900786E0B40606EDD394404089
:1010E300037F0022E59620E7FB75960E759702E5D0
:1010F3009620E7FB759694E59620E7FB90079AE523
:1011030097F0E020E0030211B0E59620E7FB759627
:1011130096E59620E7FB900792E597F0E0FFEDC395
:101123009F5006AE05AF068000900792EFF053E69E
:10113300FDE59620E7FB7596E2900792E06052AFDB
:1011430001AE02AD038F348E338D32753100E5323B
:101153007014AF018F35E59620E7FBA835A69705F8
:1011630035D538F2802BE53220E723AE02AF018E6E
:10117300368F37E59620E7FB853782853683E597FB
:10118300F00537E53770020536D538E780037F0071
:1011930022E59620E7FBE4F596E59620E7FB7596B6
:1011A30014E4F59743E602900792E0FF227F0022C2
:1011B300E49004FBF0900781E024FE601B14603B85
:1011C300240270729007877401F0A37407F0A3746C
:1011D30040F0900740E080539007877401F0A374B8
:1011E30007F0A37452F0900755E0FE900754E07C9B
:1011F300002400FFEC3E90078C8035900780E0FFD1
:10120300D394034002802FEF75F003A42472F58278
:10121300E43407F583E0FBA3E0FAA3E0F990078742
:10122300EBF0A3EAF0A3E9F012055CFF90078CE46E
:10123300F0A3EFF080031215A990078CE0FEA3E062
:10124300FF900796E0FCA3E0FDC39FEC9E5008903F
:10125300078CECF0A3EDF090078EE06404601012AD
:10126300002E90078E7401F0E490078AF0A3F02219
:10127300E4F5D978FFF6D8FD9000007E047F00F0F6
:10128300A3DFFCDEFA7581580212C902298BE493AD
:10129300A3F8E493A34003F68001F208DFF4802966
:1012A300E493A3F85407240CC8C333C4540F442055
:1012B300C8834004F456800146F6DFE4800B010244
:1012C3000408102040809015DFE47E019360BCA3E6
:1012D300FF543F30E509541FFEE493A360010ECF92
:1012E30054C025E060A840B8E493A3FAE493A3F8BC
:1012F300E493A3C8C582C8CAC583CAF0A3C8C5827C
:10130300C8CAC583CADFE9DEE780BE90077EE02452
:101313007F600714600624027048802D90078FE0D9
:10132300B40309900782E0B40202800E900790E0B4
:10133300B40316900782E0B4820F90078774FFF01E
:10134300A37415F0A37415800D90078774FFF0A3A1
:101353007415F0A37417F090078CE4F0A37402F0F3
:1013630080031215A990078EE06404601012002E0A
:1013730090078E7401F0E490078AF0A3F02290079F
:1013830080E07048900782E0FFB4021DE59620E7F5
:10139300FB75960E759702E59620E7FB7596147517
:1013A3009780E490078FF08026EFB4821DE59620A6
:1013B300E7FB75960E759702E59620E7FB75961188
:1013C300759740E4900790F0800580001215A9E519
:1013D3009620E7FB75960EE4F59702002E900780A2
:1013E300E07047900782E0FFB4021BE59620E7FB1D
:1013F30075960E759702E59620E7FB75961475971B
:101403002090078F801DEFB4821EE59620E7FB75C1
:10141300960E759702E59620E7FB75961175971062
:101423009007907403F0800580001215A9E59620BB
:10143300E7FB75960EE4F59702002E900780E0D344
:1014430094004042900791E04440F0900786740472
:10145300F0E490078FF0A3F0E59620E7FB75960E76
:10146300759702E59620E7FB759612759784E596C6
:1014730020E7FB759615759780E59620E7FB759633
:101483000EE4F597800C9007867403F090078FF0B5
:10149300A3F002002E900786E0FFB40414A374FFA8
:1014A300F0A37415F0A37415F090078CE4F0A30473
:1014B300F0EFB4031690078774FFF0A37415F0A33D
:1014C3007417F090078CE4F0A304F012002E900739
:1014D3008E7401F0E490078AF0A3F0221201100148
:1014E30000000040C41000000000010203010902D3
:1014F300200001010080FA0904000002FF0000003F
:1015030007050202400000070582024000000403B1
:1015130009040100000090078774FFF0A37415F01D
:10152300A37417F090078CE4F0A304F012002E903C
:10153300078E7401F0E490078AF0A3F022EFB40A57
:1015430007740D12154B740A309811A899B8130C2F
:10155300C2983098FDA899C298B811F63099FDC287
:1015630099F59922D007D007D007D006D005D0042B
:10157300D003D002D001D000D0D0D082D083D0F01D
:10158300D0E002008322E59620E7FBE4F59690077E
:1015930080E0FFF597EF90078660057403F0800302
:1015A3007402F002002EE59620E7FB75960EE4F533
:1015B30097E59620E7FB75961175972090078E7433
:1015C30004F022900793E04401F0900791E0600B50
:1015D300E59620E7FB75960B75970F22011400C162
:1015E300C1C142C1C802200000022200000224003F
:1015F3000000E59620E7FB75960F75978922900703
:1016030091E0F557E4F0AF5722FF27B1FF28BBFF66
:101613002921FF27FAFF1863FF17E60800080808C7
:101623000800FFFF080808080474FFF531F532E4E9
:10163300FDFCD3900045E09D900044E09C4031E5E3
:1016430031FF74482DF58274003CF583E06F75F02B
:1016530002A4242AF582E5F03409F583E532FEE499
:10166300936EF531740193F5320DBD00010C80C208
:10167300AE31AF32223047091232FD1207F3C247AF
:101683002290004BE02404FE90004AE034009000D6
:1016930044F0A3CEF0D12C900046EEF0A3EFF0C2BD
:1016A3003812002A123303900045E02408FD90000D
:1016B30044E03400FC0200861232FD1207F31233B9
:1016C3000312347330470B7BFF7A08796712026287
:1016D300C322C3E52E9408E49400400E900040E03A
:1016E30064437004A3E0644C601A7BFF7A08797446
:1016F300852E34900040E0F535A3E0F53612026202
:10170300D247C322900042E07004A3E06401601357
:101713007BFF7A0879A4120262900042E4F0A304EA
:10172300F0C322E52E24F8F52DE434FFF52CE4F57F
:101733002FF530D3900045E0952D900044E0952C93
:1017430040487448252DF97400352CFA7B01123476
:1017530073E52E70287F01FE121A3E0530E53070C6
:1017630002052FFFAE2FE4FCFD7B507AC3F9F8D3BB
:1017730012060750BE7BFF7A0879BC8021E52E252F
:101783002DF52DE4352CF52C80A9900044E0652C33
:101793007004A3E0652D600E7BFF7A0879D01233C5
:1017A300C07401F0C322D23812002AD12C90004613
:1017B300E06E7003A3E06F600D7BFF7A0879E81297
:1017C30033C014F0C322D322EF30E2080509E50940
:1017D30070020508EF30E30A0509E5097002050800
:1017E300D24722E4F50AF50BF508F50922121EB7D4
:0B17F300021D291232CC7E017F402233
:10180000900048E0F52CA3E0F52D7403FFFEE4F50D
:101810002EE52E25E025E024F6F582E43408F58354
:10182000740193B52D22E493B52C1DE52E25E025FA
:10183000E024F8F582E43408F583E493FE74019320
:10184000AA06F91207048009052EE52EC3940D405F
:10185000C0900048EEF0A3EFF0EE64037004A3F034
:10186000A3F022752B01E50B850AF012069D187A6C
:1018700000001880013C000018AF750A01750B3C90
:10188000AE08AF09D3EF9400EE94004003D380017B
:10189000C340037F0022E5091509700215081216DE
:1018A000BB50021100121678E4F508F50980CBE46C
:1018B000F52BF50AF50B7F0322AD077B087801AF06
:1018C00005EF08800123D8FDFD13929212311D12FD
:1018D00032D420820E1232ED7002153F4E60045158
:1018E0003A80EF12311DC2828000DBD1D2921231D8
:1018F0001D1232D420820E1232ED7002153F4E605E
:1019000004513A80EFA292923A12311DC2828000B5
:10191000A23AB322123452A3123197123339C23988
:10192000515E4003A2392230AF05C2AFD38001C35C
:101930009238E5384537700CE5384537706CE53A34
:1019400045397066D29212311D12337C208211E526
:101950003E153EAE3D7002153D4E6004513A80EC9E
:10196000123114C282800012346B54FEFF11B94050
:1019700002410EE4F53BF53CC3E53C9538E53B956B
:10198000375027E5362405F582E43535F583E582C1
:10199000253CF582E583353BF583E0FF11B9506EB8
:1019A000053CE53C7002053B80CEE53A4539605C7C
:1019B000D29212311D12337C208211E53E153EAECB
:1019C0003D7002153D4E6004513A80EC123114C254
:1019D00082800012346B4401FF11B95031E4F53BB1
:1019E000F53C12346395395023E53A24FFFFE5397D
:1019F00034FFFEEFB53C07EEB53B03D38001C39245
:101A00003AF1441231E87002053B80D6D2391231E6
:101A10001B12337C208211E53E153EAE3D7002154F
:101A20003D4E6004513A80EC12311DD292A23892A0
:101A3000AFA23922A2A0D29792307F017E008018F7
:101A4000EF1F70011E144E60140000000000000023
:101A5000000000000000000000000080E32230824F
:101A600005309202D32230827120926E753F0912A6
:101A7000311DC282800012311D123373208211E5A4
:101A8000411541AE40700215404E6004513A80EC61
:101A9000D53FDC309244D29212311D123373208232
:101AA00011E5411541AE40700215404E6004513AB7
:101AB00080EC123114C282800012311B1233732069
:101AC0008211E5411541AE40700215404E6004514F
:101AD0003A80EC12311DD292D322C3221233D4EBBE
:101AE00070057E01FF8004EBFF7E008E3F8F40C2B9
:101AF0003830977630A073AF16D1B77F071231A474
:101B000071FCEF20E0091231246004513A80F11297
:101B1000328F7056E53BFF716DAF3C12319F71FC07
:101B2000EF20E0091231246004513A80F112328F23
:101B300070381232ED7002153F4E6015053EE53EDD
:101B4000AE3D7002053D14F5828E83E0FF716D801D
:101B5000E11231A771FCEF20E00912312460045139
:101B60003A80F1B129BF0D02D238A23822122EFAE2
:101B700075452775461071FCEF30E111E5461546B5
:101B8000AE45700215454E6004513A80E922AB071C
:101B9000C23830976430A061AF16D1B77F081232D7
:101BA0006771FCEF20E00B78331231266004513A64
:101BB00080EF12328F7042AF0312326771FCEF2058
:101BC000E00B78331231266004513A80EF12328FE5
:101BD0007027E4FF716DE475364075359CF534F57A
:101BE0003371FCEF20E00B78331231266004513A58
:101BF00080EFB129BF0D02D238A23822C243D244AD
:101C000030AF05C2AFD38001C31231B30000000072
:101C100012324B000000001232F4000000001233B8
:101C20002F00D29700000000C2970000A2A0D29718
:101C300092300000C2970000A2A0D297923100001B
:101C4000C2970000A2A0D29792320000C297000073
:101C5000A2A0D29792330000C2970000A2A0D29710
:101C600092340000C2970000A2A0D29792350000E3
:101C7000C2970000A2A0D29792360000C29700003F
:101C800012323AAF262274FFF536F535F534F533C6
:101C9000209702A12020A002A12012329653A57FF6
:101CA0007F02D1B7122EFA7F04122EFA7F01122E74
:101CB000FA7F147E001228E0E4FF1217F08F337FC2
:101CC000011217F08F34E533F460557516B41234F1
:101CD0005B716DF126EF640D601F7516AD12345BFC
:101CE00012334871FCEF20E00B7837123126600484
:101CF000513A80EF12328F7027F1268F35AF16D10F
:101D0000B77F0112334871FCEF20E00B78371231B6
:101D1000266004513A80EFB129BF0D04F1268F36B9
:101D2000AF36AE35AD34AC3322C243C244C245C235
:101D30004630AF05C2AFD38001C31231B3000000FB
:101D40000012324B000000001232F40000000012BA
:101D500033E6000000001233DD0000000012332FD4
:101D600000D2970000754927754A100000C29700FD
:101D700000513420300DE54A154AAE49700215492C
:101D80004E70E80000C2970000A2A0D297923000E7
:101D900000C2970000A2A0D29792310000C2970023
:101DA00000A2A0D29792320000C2970000A2A0D257
:101DB0009792330000C2970000A2A0D297923400FD
:101DC00000C2970000A2A0D29792350000C29700EF
:101DD00000A2A0D29792360000C297000012323AB9
:101DE000AF2622C23830975230A04FAF16D1B77FFE
:101DF0000312326771FCEF20E00B7833123126605A
:101E000004513A80EF12328F70307FDE716D7FADFA
:101E1000716D7FA5716D75360075352D7534317511
:101E2000330171FCEF20E00B78331231266004514E
:101E30003A80EFB129BF0D02D238A238221233D432
:101E4000EB70057E01FF8004EBFF7E008E3F8F402C
:101E5000C23830975F30A05CAF16D1B77F06123121
:101E6000A471FCEF20E0091231246004513A80F1A2
:101E700012328F703FE53DFF716DAF3E12319F71A1
:101E8000FCEF20E0091231246004513A80F1B129BD
:101E9000BF0D211232ED7002153F4E6015F126057F
:101EA0003CE53CAC3B7002053B14F5828C83EFF0C3
:101EB00080E1D238A23822D243D2448F2630AF05F7
:101EC000C2AFD38001C31231B30000000012324B05
:101ED000000000001232F40000000012342E000056
:101EE00000001234250000000012341C0000000025
:101EF0001234130000000012340A000000001234F3
:101F000001000000001233F8000000001233EF005F
:101F1000000000D297D2A053A6FE1231BB000000F1
:101F200000D297023243E4754810754727F546F50D
:101F30004571FCEF20E00B78451231266004513AE0
:101F400080EFA129E4FD7C0812311D1232D42082D9
:101F50000E1232ED7002153F4E6004513A80EFEDE3
:101F600025E0FDA292E433420512311DC2828000B9
:101F7000DCD6A23A929212311D1232D420820E1275
:101F800032ED7002153F4E6004513A80EF12311D60
:101F9000C2828000D292AF052230970320A002C3F4
:101FA0002212329653A57FD322438E10E4F5C875D2
:101FB000CA4075CC4075CBA275CDA2C2CFD2CAC2E1
:101FC000BDD2ADF50FF50EF50DF50C122DEE75D158
:101FD000077FD07E07513EF1E453A57F53A6FED282
:101FE00097D2A02275BB1E75BA1F75BCB875E88064
:0D1FF00022FFE43438FE8F828E83020655F6
:10200000123452A3123197123339E538453760360E
:102010008F828E83E5822405F582E43583F583E0A3
:10202000F514D3E5389400E5379401400122E538F2
:1020300014FDE5362406FBE43535FAAF1411EFE55F
:1020400014253814F514E53A4539601BE4F53BF5E1
:102050003C1234639539500FAF14051471EE1231F0
:10206000E87002053B80EAD32275330075344C12C8
:102070003327E0FEA3E0FF2405FDE43EFC90004A88
:10208000E0B50424A3E0B5051F123327A3A3E0FCA9
:10209000A3E0FDEF2DFFEE3CFEE4FCFD7B337A0474
:1020A000F9F8C312060750057E037F0422853482A7
:1020B000853383E0AF34AE33B4FE041100800312E5
:1020C00019145026123327E0FEA3E02405FFE43E56
:1020D000FE123327A3A3E0FCA3E02FFFEC3E900009
:1020E0004AF0A3EFF07E017F40227E037F40228FE3
:1020F0003D8D3E8A3F8B4091A38F41E541F47002B4
:102100004101E53E700241011233B8400912339A91
:1021100050047F2080027F80EF14523DE53EFDE5B4
:102120003D2DFDE433FCEFFBD3ED9B7480F86C9800
:102130004008E53D253EC39FF53EE541640170271B
:10214000F542E542C3953E501C123385F543E53D0B
:1021500024E524FB500424087005A83DE543F2055E
:1021600042053D80DD6167E541B4061BE53D253E46
:10217000FFE433FED3EF9460EE648094804008E582
:102180003D253E24A0F53EAF41EF3395E0FE74259A
:102190002FF58274163E1234409F40651233B940C9
:1021A0003112339A502CE4F542E542C3953E50512A
:1021B0001233B8401912339A5014123385FFE53D9B
:1021C0002542FEE54114C43354E02EF8EFF20542F7
:1021D00080D7C3E541648094834026D3E541648081
:1021E0009486501DAF41123437C333CE33CED8F965
:1021F0001233AD253DFFEC3EFEAB3EAD40AC3F5152
:1022000002228E448F458C468D47A90330AF05C20C
:10221000AFD38001C39238E54454FEF548754900B8
:10222000E5445401F54A85454BC239E4FFEFC399B3
:102230005033E549254BFDE548354AFCEF7A002D42
:10224000FDEA3C8D82F583E493F54CE5472FF5825A
:10225000E43546F583E0F54D554C654D6004D239C3
:1022600080030F80C820390B123357AF45AE44515D
:10227000EA806E754C3A754D00D23AAB4BAA4AAD26
:1022800049AC4851E6E54B254DF54DE54A354CF551
:102290004C12335751E6E9FF7E00254DF54DEE35E2
:1022A0004CF54CE5452FFDEE3544FCE54B2FFFEE9C
:1022B000354AFEC374FF9FFB74019EFAD23A51E681
:1022C000E4FB7D03AF49AE487144D23A7A027D0007
:1022D0007C3AAF49AE4851EAE4FB7D03FF7E3A7198
:1022E00044A23892AF22AF4DAE4C8E4E8F4F8C50E1
:1022F0008D518A528B53E5531553AE5270021552CD
:102300004E6040303A0B855182855083E493FF80C4
:1023100008855182855083E0FF8F54854F82854E1A
:1023200083E4936554600AAB547D01AF4FAE4E71A8
:1023300044054FE54F7002054E0551E55170020509
:102340005080B3228E558F5675FF8075EF068D8FA6
:10235000A2AFE43324A5F5B775B7F185568285554C
:1023600083EBF0E4F58F227F1B7E00F1198F478EFF
:10237000468D458C441206CA238EF62652A7239614
:10238000FC54D4022392FDE7554F0000239A75EFC9
:10239000122275150822751504227F7C12331670DF
:1023A00004751502227F7812331670047515012208
:1023B000E4F5152212311DD2827533017534F420F3
:1023C0008212E5341534AE33700215334E600512B7
:1023D0001A3A80EBD2921232CC7E017F4022E4F591
:1023E00031F530F52FF52E7F1BFEF1436167AD0708
:1023F00091A3AE07BEFF037FAA22C3EE648094813F
:10240000400CD3EE6480948250047F2080027F8051
:10241000EF145205EEFB3395E0FA741E2BF582742F
:10242000163A1234409F4078EE6014147027ED2461
:10243000E524FD50046005801C7F0022AF1522EDCD
:10244000C39478400DEDD3947F5007ED90017093C5
:10245000FF227FAA22C3EE648094814014D3EE64ED
:10246000809482500CEE14C43354E02DF8E2FF80C7
:102470002EC3EE648094834024D3EE64809486500F
:102480001CAF06123437C333CE33CED8F91233AD76
:102490002DFFEC3E8F82F583E493FF80027FAA221A
:1024A0007FAA22EFC3946050037F0622EFC394807B
:1024B00050037F0122781FE22480601714601714F4
:1024C000601724836016243F7015EFC394A0500F4B
:1024D0007F02227F03227F04227F05227F00227F4A
:1024E000FF2290004CE0FFA3E0FD7A047BEA91F923
:1024F0007E0140027E037F40228B828A83B1873037
:10250000AF05C2AFD38001C39238B118A2381233DD
:102510000A4003D38001C322122F92122FE01230FF
:10252000390000D296D294C296D2A1D2960000125F
:10253000316C920012316C922712316C922612315A
:102540006C922512316C922412316C922312316CF0
:10255000922212316C922112316C922012316C92C3
:102560002F12316C922E12316C922D12316C922CF2
:1025700012316C922B12316C922A12316C92291208
:10258000316C92280232E4C20FC20ED20DD20C126C
:1025900030B20233CBD238D14730AF05C2AFD3808F
:1025A00001C39239B1DFD20DC20CE53A153AAE390A
:1025B000700215394E6021B118E53CFF2402F53C4C
:1025C000E53BFE3400F53B8F828E8312330C4003D3
:1025D000D38001C340D4C238A23992AFA2382212AC
:1025E0002F92122FE0123039A2011230A9A200124C
:1025F00030A9A2171230A9A2161230A9A2151230C2
:10260000A9A2141230A9A2131230A9A2121230A941
:10261000A2111230A9A2101230A9A21F1230A9A231
:102620001E1230A9A21D1230A9A21C1230A9A21B91
:102630001230A9A21A1230A9A2191230A9A2181296
:1026400030A900000232E4C20FC20EC20D1230B037
:10265000C2008A228B23228A378B38AE05AC07E56D
:102660003A153AAA39700215394A6043853C828589
:102670003B83E0F524A3E0F525AF04AD06AB38AA13
:1026800037D14730AF05C2AFD38001C39238B1DF35
:10269000C20DD20CD1B1A23892AF0538E538700224
:1026A00005377402253CF53CE4353BF53B80B0D35F
:1026B00022122F92122FE0123039A2011230A9A259
:1026C000001230A9A2271230A9A2261230A9A225F1
:1026D0001230A9A2241230A9A2231230A9A22212D8
:1026E00030A9A2211230A9A2201230A9A22F1230A3
:1026F000A9A22E1230A9A22D1230A9A22C1230A903
:10270000A22B1230A9A22A1230A9A2291230A9A202
:10271000281230A900000232E4A807E2FC08E2FD1A
:1027200008E2FE08E2FF22123130B1957E0140023C
:102730007E037F4022123130D1577E0140027E035A
:102740007F4022AB07AF31AE30AD2FAC2EA80302D5
:1027500006911232CC7E017F40221232CC121F9998
:102760007E0350027E017F4022121C8690004C1294
:10277000068590004AE4F0A37404F07E017F4022B5
:102780001232CC121DE37E0350027E017F40229064
:10279000004AE07004A3E0640160057E037F042228
:1027A00090004CE0FF121B8E7E0350027E017F40A2
:1027B00022752B01E5107038E51124CF601F2431FC
:1027C000702E122A89E50F2432FFE4350E123449A7
:1027D000FC9004FC12068575100075113100900400
:1027E000FC12320E7F0050027F01EF60D57F002285
:1027F000E4F52BF510F5117F0322E4F512F5132211
:1028000012317390004AE07004A3E06406700BD3A9
:10281000E5389432E537940440057E037F0422E5D1
:1028200038240690004BF0E4353790004AF0E53844
:102830004537602EC3E53794015006AE37AF388078
:10284000047E017F008E398F3AAB3AAD36AC35AF9E
:1028500034AE33121E3D40057E037F40221231C24A
:1028600080CC7E017F40221231732406FFE435378D
:10287000FE90004AE06E7003A3E06F60057E037F68
:102880000422E5384537602EC3E53794015006AE83
:1028900037AF3880047E017F008E398F3AAB3AAD76
:1028A00034AC33AF36AE35121ADC40057E037F40C0
:1028B000221231C280CC7E017F4022E4F510F51156
:1028C0001201DD121FA9903860E493FF7818EFF22F
:1028D0007818E2FFE48FFC7F0A7E0011E0C29122AB
:1028E0008F828E8330AF23EF250FF53EEE350EF548
:1028F0003DE4350DF53CE4350CF53BAF3EAE3DAD6A
:102900003CAC3B123219501880F1E5821582AE833F
:10291000700215834E60097FE87E03121A3E80EA3A
:1029200022752B01E5127054E51324C5603B243B4E
:10293000704A7819E2C41313135401123228123367
:10294000667006D293C2868004C293D28663A008C2
:10295000E50F24F4FFE50E3401123449FC90050024
:1029600012068575120075133B0090050012320E99
:102970007F0050027F01EF60B97F0022E4F52BF564
:1029800012F5137F0322D2AF0215C631BE31A83132
:1029900086E4F52AE52A75F006A4240CF582E434D1
:1029A000161232AB40EE80E9E4F52AE52A75F0060E
:1029B000A4240FF582E434161232AB40EE22E4F583
:1029C000A8F5E675B283E5B2C4131354031350F6A9
:1029D00075B9807F057E00121A3E43B9C0E5B9C4BF
:1029E0001354071350F775A90275B680514E438EE4
:1029F00008E589540F4420F589758D98D28EAFD49F
:102A0000EF54EFFF8FD4AFD4EF54DFFF8FD443E107
:102A100001759802E4FB75FCFF75DA42AFD4EF5400
:102A2000FDFF8FD40BE4F5E9F5EAE4F5DBE4F5EB23
:102A3000F5ECE4F5DCE4F5EDF5EEE4F5DDE4F5FACE
:102A4000F5F975D90875D840EB540742E222758034
:102A5000BF7590F775A0FF75B0FF75F17F75F2FE39
:102A600075F3FB75F4FE75A44A75A55875A60AE4BE
:102A7000F5A775D4FF75D5FF75D6FFF5E175E24072
:102A800022A807E2FE08E2FF227818E2FF8FFC91FD
:102A90005EAC06AD07E4FFFE9156B122AC06AD0771
:102AA0007F027E009156B137AC06AD077F047E00F1
:102AB00091567F401232DDC006C007FF123231D07E
:102AC00007D006D31233A250177F421232DDC00660
:102AD000C007FF123231D007D006C31233A2500D07
:102AE000E4F52C7819E21231026020800B752C017C
:102AF0007819E212310260137819E2FFEF54FEFBFD
:102B0000E52C5401FFEF4BFFE4EFF27F441232DD7E
:102B1000C006C0077F02123231D007D006D3ED9F26
:102B2000EC9E50197F461232DDC006C0077F0212AC
:102B30003231D007D006C3ED9FEC9E500FE4F52C48
:102B40007819E2C3131231026033800D752C0178BD
:102B500019E2C313123102602412322554FDFFC062
:102B600004C005C006C007E52C5401FFE47801123B
:102B70000642D003D002D001D0001232767F481234
:102B800032DDC006C00712322FD007D006D3ED9F2A
:102B9000EC9E50177F4A1232DDC006C00712322F5A
:102BA000D007D006C3ED9FEC9E500DE4F52C1233F8
:102BB000921231026031800B752C01123392123166
:102BC00002602412322554FBFFC004C005C006C0B9
:102BD00007E52C5401FFE47802120642D003D0022C
:102BE000D001D000123276123225123366702E7860
:102BF00019E2C3131232285401FFE4F8C312061D70
:102C0000701B1233921232285401FFE4F8C31206EB
:102C10001D700A752C011230F9602E8008E4F52C25
:102C20001230F96024123225547FFFC004C005C061
:102C300006C007E52C5401FFE47807120642D003D2
:102C4000D002D001D000123276228F828E83E4939C
:102C5000FE740193FF22A807ECF208EDF2227B0339
:102C60007D1F7F1E1232C07F207E009156D238E435
:102C7000FDAF2EAE2D8E308F318D32E42532121FF6
:102C8000F18F3A8E398D388C37E5322404121FF1DA
:102C90008F3E8E3D8D3C8C3BAE30AF31E4FCFDABC6
:102CA0003AAA39A938A8371205B8780812062EEFC3
:102CB000253EF536EE353DF535ED353CF534EC3554
:102CC0003BF533303831E47FFF7E7F123284C3120C
:102CD000060740067E7F7FFF80477F007E807DFF66
:102CE0007CFF123286D312060750067E807F00805A
:102CF00004AE35AF36802AE47FFF7EFF123284C3F4
:102D000012060740067EFF7FFF8016E4FFFE1232A8
:102D100084D312060750067E007F008004AE35AFD4
:102D200036227B037D1E7F1F1232C07F227E0091E0
:102D300056C2387D0881717B037D1F7F0A1232C025
:102D40007F247E009156C2387D1081718FBB8DBA71
:102D50007FC87E00121A3EE4FDFC04A8030880022E
:102D6000C333D8FCFAEAD39400401AC2EDD2EC3057
:102D7000EDFDAFBEEFFEA9BDE9F582E5822DFDEECA
:102D80003CFC1A80E0AF03EDAE04A807088006CE35
:102D9000A2E713CE13D8F8FF22C0E0C0D075D00050
:102DA000C004C005C006C007C2CFAF0FAE0EAD0D48
:102DB000AC0CEF2401F50FE43EF50EE43DF50DE417
:102DC0003CF50CD007D006D005D004D0D0D0E032EE
:102DD000C0E0C083C082C0D075D000C00712160109
:102DE0001217CBD007D0D0D082D083D0E03290045D
:102DF000857403F07F02EFC394225030EFC313C3F6
:102E0000940124901232574023E52B947F501D7477
:102E1000842FF582E43404F583E52BF074852FF5D7
:102E200082E43404F583E4F00F0F80CA900484EF49
:102E3000F09004A77403F07F02EFC394225030EFA8
:102E4000C313C3940124A01232574023E52B947F6F
:102E5000501D74A62FF582E43404F583E52BF0743D
:102E6000A72FF582E43404F583E4F00F0F80CA90B5
:102E700004A6EFF09004C97403F07F02EFC394221C
:102E80005030EFC313C3940124B01232574023E5EE
:102E90002B947F501D74C82FF582E43404F583E52C
:102EA0002BF074C92FF582E43404F583E4F00F0F9E
:102EB00080CA9004C8EFF043F6021200469004F175
:102EC0007401F0A37404F0A374A6F0A37401F0A33A
:102ED0007404F0A374C8F0A374FAF0A37480F0A390
:102EE0007401F0A3E4F07B017A0479847D617CEACB
:102EF0007FC47E10120E90C2AF22D243C244C2459C
:102F0000C2468F2630AF05C2AFD38001C31231B3A2
:102F10000000000012324B000000001232F40000EA
:102F200000001233E6000000001233DD0000000054
:102F300012342E000000001234250000000012346C
:102F40001C000000001234130000000012340A00BC
:102F5000000000123401000000001233F8000000ED
:102F6000001233EF0000000012332F00D297000050
:102F70007547277548100000C2970000121A3420C8
:102F8000300DE5481548AE47700215474E70E70210
:102F90003240C283C2A1A248D2969294C296A2485D
:102FA000D2969294C296A248D2969294C296A24881
:102FB000D2969294C296A248D2969294C296A24871
:102FC000D2969294C296A248D2969294C296A24861
:102FD000D2969294C296A248D2969294C296A24851
:102FE000D2969294C296A248D2969294C296A24841
:102FF000D2969294C296A248D2969294C296A24831
:10300000D2969294C296A248D2969294C296A24820
:10301000D2969294C296A248D2969294C296A24810
:10302000D2969294C296A248D2969294C296A24800
:10303000D2969294C296A24822D2969294C296A216
:103040000FD2969294C296A20ED2969294C296A253
:103050000DD2969294C296A20CD2969294C296A247
:103060000BD2969294C296A20AD2969294C296A23B
:1030700009D2969294C296A208D2969294C296A22F
:1030800007D2969294C296A206D2969294C296A223
:1030900005D2969294C296A204D2969294C296A217
:1030A00003D2969294C296A202D2969294C296228B
:1030B000C20CEFC4540F13920BEF131313541F13CE
:1030C000920AEF1313543F139209EFC3131392089C
:1030D000EF139207EDC4540F139206ED131313541C
:1030E0001F139205ED1313543F139204EDC31313F2
:1030F0009203ED139202D201227819E2C413131342
:103100005401FFEF5401FBE4FAF9F8AF2CFCFDFE8B
:10311000C302061D7F037E00121A3EC2927F037E09
:1031200000021A3E784174FF120667EC4D4E4F22A2
:1031300075330075344C853482853383E0FFA3E01A
:10314000FD853482853383A3A3E0FAA3E0FBE53455
:103150002404F582E43533F583E0F539A3E0F53A4C
:10316000E5342406F53CE43533F53B22C296A280D3
:10317000D296227B4C7A00EB2406F534E43AF53300
:103180008B828A83A3A3E0FEA3E08E35F536EB2481
:1031900004F582E43AF583E0F537A3E0F53822122E
:1031A0001B6DAF03121B6DE4754410754327F54288
:1031B000F54122923953A6FE43A580A24192A0C2B6
:1031C0009722E53A2534F534E5393533F533E53AD8
:1031D0002536F536E5393535F535C3E538953AF513
:1031E00038E5379539F53722E538253CFDE53735A3
:1031F0003BFCE5362405F582E43535F583E5822D83
:10320000F582E5833CF583EFF0053CE53C22E0FCEC
:10321000A3E0FDA3E0FEA3E0FFAB0FAA0EA90DA85B
:103220000CC302061D7819E2FFE4FCFDFEEF227FCD
:1032300004FE122A81AD07AC0622A2A0D2979237D3
:1032400053A6FE53A57FA23992AF22D29743A6017F
:10325000A24392A0C29722FDE434398D82F583E423
:1032600093F52BC3942022121B6DE475361075352F
:1032700027F534F53322EF4BFFEE4AED49EC487861
:1032800019EFF222FDFCAB36AA35A934A83322127D
:103290001D29EF640D2243A580C2977F147E001282
:1032A0001A3ED2977F027E00021A3EF58374019384
:1032B000FA740293F9120704052AE52AC39403223B
:1032C000122D4C8E2D8F2EAD2EAC2D22E490004A67
:1032D000F0A3F022D282753F017540F4227E3812AD
:1032E0002C4AE422D296D294D283D2A122E5401570
:1032F00040AE3F22D297A24492A0C297227E047F82
:10330000447D007B017A0079402292AFE524F0A34E
:10331000E525F0A200227E38121FF6AB47AA46A987
:1033200045A844C302061D853482853383A322D277
:103330009753A6FED2A0C297228F828E83A3A3A307
:10334000E0F539A3E0F53A22121B6DE4753A1075E9
:103350003927F538F53722AE46AF47AD07AC06E959
:10336000FB7A00C23A225401FFE47B01FAF9F8C368
:1033700002061DD2827540017541F422D282753D4C
:1033800001753EF422E5402542F582E4353FF583A0
:10339000E0227819E21313543F22D3E5416480946C
:1033A0008222ED9FEE6480F8EC648098222480FFF6
:1033B000EE3436FE7C00EF22C3E541648094812226
:1033C0001202629000487403F0A322D20074FFF549
:1033D00024F525228E3B8F3C8C3D8D3E22D297A238
:1033E0004692A0C29722D297A24592A0C29722D21B
:1033F00097A23792A0C29722D297A23692A0C297E4
:1034000022D297A23592A0C29722D297A23492A03C
:10341000C29722D297A23392A0C29722D297A23209
:1034200092A0C29722D297A23192A0C29722D2979D
:10343000A23092A0C29722EF3395E0FEEF780722E8
:10344000F583E493FFE515C322FEE4350DFDE43575
:103450000C228E358F368F828E8322AF16121EB7C6
:103460007F0222C3E53C953AE53B228536828535CD
:0B34700083E0227D401210D58F2E2239
:00000001FF
