:10000000020FB09007867402F0E59620E7FB759624
:1000100001759701E490078EF0A37403F0A3F0E458
:10002000900792F090079104F02222022E5D900733
:100030008EE06404600BE59620E7FB7596117597DA
:0200400040225C
:10004300020A7CE4F52CE5B964E0602E53A90F8520
:10005300A92D43B280E5A95407D394014003E4F5E5
:10006300A9E4F5B943B980D52CFD43B9C0E5B9304E
:0E007300E5FBE52DB4020343A90253A90F22B9
:10008300022E948B2C8A2D892E8C2F8D30E4F53102
:10009300F532F538900786E0B40611E530452F6058
:1000A3000BD3E5309400E52F94104004E4FEFF22C7
:1000B30053E6FDAB2CAA2DA92EAF01AE02AD038FE3
:1000C300368E358D34753300E53830E0030201D5C3
:1000D300E59620E7FB75960E759702E59620E7FBFC
:1000E300759691E59620E7FB859738E53830E01D56
:1000F300E59620E7FB75960EE4F597E59620E7FB7A
:10010300759691E59620E7FB85973880BBD3E5305C
:100113009440E52F940040057537408003853037C0
:10012300E59620E7FB759622E5376057E5347019AD
:10013300E52E2532F9E52D3531A801E59620E7FBBB
:10014300E6F59708D537F4803AE53420E71BE52E2A
:100153002532F9E52D35318982F583E59620E7FBD4
:10016300E0F597A3D537F4801AE52E2532F9E52D6E
:1001730035318982F583E59620E7FBE493F597A370
:10018300D537F3C3E5309440E52F9400401F744006
:100193002532F532E43531F53174C02530F530744C
:1001A300FF352FF52FE4F5387537408017E53025F7
:1001B30032F532E52F3531F531753801853037E4C5
:1001C300F52FF530E59620E7FB759611759701023B
:1001D30000CB43E602AE31AF32220225FA46333278
:1001E30031424F4F540110FFFF0000010000000097
:1001F30000000000000000000000000000E54024B3
:1002030034F8E60540227831303F027834E475F063
:100213000112083102055C2038EB7F2ED23880189A
:10022300EF540F2490D43440D4FF303C0BEF24BF61
:10023300B41A0050032461FFE541600215410544EF
:10024300E54470020543303F0D7831E475F0011247
:100253000831EF02081F02127D7403D23F8003E4CA
:10026300C23FF5408B318A328933E4F541F543F5DA
:1002730044E54160077F2012023B80F57542FFC2CF
:1002830039C238C23AC23BC23DC23EC24012020921
:10029300FF700D303F057F0012024CAF44AE432286
:1002A300B4255FC2D5C23C120209FF24D0B40A00B0
:1002B300501A75F00A784130D50508B6FF0106C615
:1002C300A426F620D5047002D23B80D924CFB41AD9
:1002D30000EF5004C2E5D23C02044CD23980C6D2AE
:1002E3003880C0D23A80BCD2D580BAD23D80B47FA8
:1002F3002012023B203A077401B5410040F112027B
:1003030000FF12023B020274D240D23E80951202D9
:1003130000FB120200FA120200F94A4B7006791D23
:100323007A057BFF203A2EE541602A7E008E827596
:10033300830012057560060EEE654270F0C2D5EBC0
:10034300C0E0EAC0E0E9C0E0EE120493D0E0F9D0E7
:10035300E0FAD0E0FB12055CFF60AAEBC0E0EAC064
:10036300E0E9C0E012023BD0E02401F9D0E0340020
:10037300FAD0E0FBE5420460DCD542D980877BFFFD
:100383007A04798FD23A809C791080027908C23E30
:10039300C2408008D2D5790A8004790AC2D5E542E1
:1003A300047002F542E4FAFDFEFF120200FC7B0832
:1003B300203913120200FD7B1030380A120200FEAE
:1003C300120200FF7B20EC3382D592D55013C3E495
:1003D3003038069FFFE49EFEE42039039DFDE49C34
:1003E300FCE4CBF8C239EC700CCFCECDCCE824F8CA
:1003F300F870F38017C3EF33FFEE33FEED33FDECFC
:1004030033FCEB33FB994002FB0FD8E9EB303905A2
:10041300F8D0E0C448B239C0E00AEC4D4E4F782022
:100423007B0070C2EAB5420040BCC0E0120495D024
:10043300F0D0E0203904C4C0E0C4B239C0F01202E5
:1004430024D0F0D5F0EB02027412084103115303D8
:100453008B5802E24C02DE42038F4F03974403970B
:100463004902F743039D55038146038145038147B1
:10047300053D5002E62D02EA2E030D2B02EE230367
:100483000B2005262A02A648000003053F3F3F0034
:10049300790AA2D5203B14303D09B910020404B9EE
:1004A300080104A2D5203E02500104203A68923A82
:1004B300B541005034C0E07F20303B197F30A23A71
:1004C300723E723D500F1204ECC23AC23EC23DC2AC
:1004D300407F30800F303D03E9C0E012023B303DE6
:1004E30003D0E0F9D0E0B541CC303D177F30B910EF
:1004F3000C12023B7F58303C077F788003B9080316
:1005030012023B303A057F2D02023B7F202040F848
:100513007F2B203EF322923A80CF286E756C6C2994
:1005230000D2391202003039F8C239784130D5018E
:1005330008F60202A62D504349581202002403B4C0
:1005430005004001E49005389312022C743A12021C
:100553002CD23B75410402038BBB010689828A833B
:10056300E0225002E722BBFE02E32289828A83E46F
:100573009322BB010CE58229F582E5833AF583E0FA
:10058300225006E92582F8E622BBFE06E92582F819
:10059300E222E58229F582E5833AF583E49322C5D5
:1005A300F0F8A3E028F0C5F0F8E582158270021593
:1005B30083E038F022E88FF0A4CC8BF0A42CFCE984
:1005C3008EF0A42CFC8AF0EDA42CFCEA8EF0A4CDD2
:1005D300A8F08BF0A42DCC3825F0FDE98FF0A42CE6
:1005E300CD35F0FCEB8EF0A4FEA9F0EB8FF0A4CF99
:1005F300C5F02ECD39FEE43CFCEAA42DCE35F0FD4A
:10060300E43CFC22EB9FF5F0EA9E42F0E99D42F0C8
:10061300EC6480C864809845F022EB9FF5F0EA9E75
:1006230042F0E99D42F0E89C45F022E86010ECA21C
:10063300E713FCED13FDEE13FEEF13FFD8F022E8F2
:10064300600FEFC333FFEE33FEED33FDEC33FCD825
:10065300F122E493FC740193FD740293FE740393FB
:10066300FF227401FF3395E0FEFDFC080808E6CF86
:100673002FF618E6CE3EF618E6CD3DF618E6CC3C4E
:10068300F622ECF0A3EDF0A3EEF0A3EFF022ECF2F0
:1006930008EDF208EEF208EFF222D083D082F8E4FC
:1006A300937012740193700DA3A393F8740193F5DF
:1006B300828883E473740293B5F0067403936860CD
:1006C300E9A3A3A3A380D8D083D082E49370127448
:1006D3000193700DA3A393F8740193F5828883E4C7
:1006E300737402936C70127403936D700C7404939F
:1006F3006E70067405936F60DDA3A3A3A3A3A38009
:10070300CA8A838982E473E709F60870FA8046E7A8
:1007130009F20870FA803E88828C83E709F0A3709F
:10072300FA807EE309F60870FA8076E309F208702E
:10073300FA806E88828C83E309F0A370FA80628961
:10074300828A83E0A3F60870FA805689828A83E05E
:10075300A3F20870FA804A80D280FA80C680D480DF
:100763006580F28031801080A680EA809A80A8801C
:10077300DA80E280CA803189828A83ECFAE493A327
:10078300C8C582C8CCC583CCF0A3C8C582C8CCC5B4
:1007930083CC70E9800D89828A83E493A3F6087081
:1007A300F9ECFAA9F0EDFB2289828A83ECFAE0A343
:1007B300C8C582C8CCC583CCF0A3C8C582C8CCC584
:1007C30083CC70EA80DD89828A83E493A3F2087084
:1007D300F980CE88F0ED2402B4040050C4F582EB16
:1007E3002402B4040050BA232345822390075A738A
:1007F300EF4E6012EF60010EEDBB010B89828A831D
:10080300F0A3DFFCDEFA2289F05007F709DFFCA929
:10081300F022BBFEFCF309DFFCA9F022BB01068931
:10082300828A83F0225002F722BBFE01F322FAE60A
:10083300FB0808E6F925F0F618E6CA3AF622D08353
:10084300D082F8E4937012740193700DA3A393F80C
:10085300740193F5828883E4737402936860EFA351
:10086300A3A380DFE59620E7FB75960EE4F597E5F5
:100873009620E7FB759691E59620E7FB90079CE5AC
:1008830097F0E0FF30E210E59620E7FB759611E460
:10089300F59790078EF022EF30E410E59620E7FB02
:1008A300759611759780E490078EF090078EE0603F
:1008B3000302099390079CE020E0030209937596D5
:1008C300204396C0E4F558E59620E7FB747E25584F
:1008D300F582E43407F583E597F00558E558B40746
:1008E300E6E59620E7FBE4F596747E2558F582E469
:1008F3003407F583E597F0900781E0FE900780E0E9
:100903007C002400FFEC3E900794F0A3EFF09007E7
:1009130085E0FE900784E02400FFEC3E900796F00C
:10092300A3EFF090077FE004603B14B40C00505D2C
:1009330090093AF828287302095E020963020968DC
:1009430002096D02099002097202097702099002F5
:10095300097C02098102098602098B12104B80303F
:100963001210BE802B120D02802612111D8021123F
:1009730012C6801C120EF080171211D580121211AC
:100983007B800D121256800812002E80031212E68D
:1009930090078EE064016003020A7B90079C740257
:1009A300F0C390078DE0944090078CE0940040558D
:1009B300E59620E7FB759620E4F558900787E0FB62
:1009C300A3E0FAA3E0F9855882758300120575F553
:1009D30097E59620E7FB0558E558B440DE90078875
:1009E300E475F0401205A290078DE024C0F0900753
:1009F3008CE034FFF090078BE02440F090078AE00E
:100A03003400F08045E59620E7FB759620E4F55821
:100A1300D390078DE0955890078CE09400401F9089
:100A23000787E0FBA3E0FAA3E0F98558827583000A
:100A3300120575F597E59620E7FB055880D29007D8
:100A43009CE04408F0E490078EF0900796E0FEA344
:100A5300E0FF90078AE0B50611A3E0B5070C900705
:100A63009CE04408F0E490078EF0E59620E7FB75E0
:100A7300961190079CE0F59722C0E0C0F0C083C0B8
:100A830082C0D075D000C000C001C002C003C00442
:100A9300C005C006C00790079DE596F0E59620E7E0
:100AA300FB75968EE59620E7FB90079EE597F0E5AC
:100AB3009620E7FB759686E59620E7FB900798E579
:100AC30097F0E030E30BE59620E7FB75960B7597FF
:100AD30007900798E030E203120003900798E03094
:100AE300E014900786E0FF64046004EFB406079007
:100AF3000791E04480F0E59620E7FB759682E59642
:100B030020E7FB900798E597F0E030E003120867D1
:100B1300900798E030E22AE59620E7FB75960E757C
:100B23009702E59620E7FB759691E59620E7FB9003
:100B33000799E597F0E054037007900791E04402AA
:100B4300F0E59620E7FB759684E59620E7FB900792
:100B530098E597F0E030E229E59620E7FB75960EDD
:100B6300759702E59620E7FB759694E59620E7FBDB
:100B7300900799E597F0E030E007900791E044048F
:100B8300F0E59620E7FB75960E90079EE0F597E556
:100B93009620E7FB90079DE596F0E59620E7FB900E
:100BA3000793E030E009900791E060031212A4D0AC
:100BB30007D006D005D004D003D002D001D000D096
:100BC300D0D082D083D0F0D0E0329004EAEEF0A30C
:100BD300EFF09004EEEBF0A3EAF0A3E9F0E4F52CD8
:100BE300E52C90121C93FF7440252CF582E4340706
:100BF300F583EFF0052CE52CB412E5E4F52CE52C98
:100C030090122E93FF7452252CF582E43407F5835A
:100C1300EFF0052CE52CB420E59004EAE0F52DA3D4
:100C2300E0F52E900748E52EF0A3E52DF08C2D8DF1
:100C33002EA3E52EF0A3E52DF090077274FFF0A329
:100C43007412F0A3744EF09004EEE0F9A3E0FAA35B
:100C5300E0900775C9F0A3EAF0A3E9F09004F1E08E
:100C6300F9A3E0FAA3E0900778C9F0A3EAF0A3E9B7
:100C7300F09004F4E0F9A3E0FAA3E090077BC9F055
:100C8300A3EAF0A3E9F09004F7E0FFC394FA500558
:100C930090075AEFF09004F8E0900759F09004F9A8
:100CA300E0FEA3E090074CF0EEA3F0E59620E7FB0F
:100CB300759601759708E59620E7FB759607759776
:100CC3000FE59620E7FB75960975970EE59620E7E5
:100CD300FB75960B75970775D7E0121332E49007EF
:100CE30092F0900791F0900793F0900786F043E617
:100CF30002D2AFE59620E7FB759601759701229026
:100D03000794E0B4373CA3E0B40B3790078EE0645C
:100D130004601012002E90078E7401F0E490078A8D
:100D2300F0A3F090079B7480F09007877401F0A301
:100D33007407F0A3749BF090078CE4F0A304F00213
:100D43000E04900795E020E003020DDB900793E08B
:100D530030E00854FEF04402F08007900793E0541B
:100D6300FDF0E59620E7FB75960E759702E5962054
:100D7300E7FB759614759710E59620E7FB759611BA
:100D8300759708E59620E7FB759694E59620E7FBB3
:100D930090079BE597F0E020E4E9E59620E7FB75F3
:100DA3009614759710E59620E7FB759691E59620C6
:100DB300E7FB90079BE597F0E020E3E9E59620E762
:100DC300FB7596117597089007917408F090079337
:100DD300E0FF30E1034401F0900794E0FCA3E0FD61
:100DE30030E10D9007867406F0900791E04410F00F
:100DF300ED30E20D9007867404F0900791E04420F3
:100E0300F0E59620E7FB75960EE4F59702002E8D2C
:100E130038900786E0B40606EDD3944040037F0084
:100E230022E59620E7FB75960E759702E59620E777
:100E3300FB759694E59620E7FB90079AE597F0E01B
:100E430020E003020EEDE59620E7FB759696E59606
:100E530020E7FB900792E597F0E0FFEDC39F500674
:100E6300AE05AF068000900792EFF053E6FDE596DE
:100E730020E7FB7596E2900792E06052AF01AE0265
:100E8300AD038F348E338D32753100E5327014AF7C
:100E9300018F35E59620E7FBA835A6970535D538AC
:100EA300F2802BE53220E723AE02AF018E368F3777
:100EB300E59620E7FB853782853683E597F005378E
:100EC300E53770020536D538E780037F0022E596C3
:100ED30020E7FBE4F596E59620E7FB759614E4F529
:100EE3009743E602900792E0FF227F0022E49004FA
:100EF300FBF0900781E024FE601B14603B2402702A
:100F0300729007877401F0A37407F0A37440F09004
:100F13000740E080539007877401F0A37407F0A3A0
:100F23007452F0900755E0FE900754E07C002400D3
:100F3300FFEC3E90078C8035900780E0FFD394034D
:100F43004002802FEF75F003A42472F582E4340786
:100F5300F583E0FBA3E0FAA3E0F9900787EBF0A3A6
:100F6300EAF0A3E9F012055CFF90078CE4F0A3EF2D
:100F7300F080031212E690078CE0FEA3E0FF9007D7
:100F830096E0FCA3E0FDC39FEC9E500890078CEC19
:100F9300F0A3EDF090078EE06404601012002E9031
:100FA300078E7401F0E490078AF0A3F022E4F5D9E8
:100FB30078FFF6D8FD9000007E047F00F0A3DFFCED
:100FC300DEFA758158021006022D66E493A3F8E455
:100FD30093A34003F68001F208DFF48029E493A38E
:100FE300F85407240CC8C333C4540F4420C88340A7
:100FF30004F456800146F6DFE4800B010204081076
:1010030020408090131CE47E019360BCA3FF543FF7
:1010130030E509541FFEE493A360010ECF54C025AD
:10102300E060A840B8E493A3FAE493A3F8E493A39D
:10103300C8C582C8CAC583CAF0A3C8C582C8CAC501
:1010430083CADFE9DEE780BE90077EE0247F600786
:1010530014600624027048802D90078FE0B40309C2
:10106300900782E0B40202800E900790E0B403166A
:10107300900782E0B4820F90078774FFF0A3741285
:10108300F0A37452800D90078774FFF0A37412F0DD
:10109300A37454F090078CE4F0A37402F08003125D
:1010A30012E690078EE06404601012002E90078E03
:1010B3007401F0E490078AF0A3F022900780E070B7
:1010C30048900782E0FFB4021DE59620E7FB759682
:1010D3000E759702E59620E7FB759614759780E4E5
:1010E30090078FF08026EFB4821DE59620E7FB750D
:1010F300960E759702E59620E7FB75961175974056
:10110300E4900790F0800580001212E6E59620E750
:10111300FB75960EE4F59702002E900780E070476A
:10112300900782E0FFB4021BE59620E7FB75960E5D
:10113300759702E59620E7FB75961475972090073F
:101143008F801DEFB4821EE59620E7FB75960E7522
:101153009702E59620E7FB75961175971090079017
:101163007403F0800580001212E6E59620E7FB7514
:10117300960EE4F59702002E900780E0D39400408A
:1011830042900791E04440F09007867404F0E490A5
:10119300078FF0A3F0E59620E7FB75960E7597028F
:1011A300E59620E7FB759612759784E59620E7FB95
:1011B300759615759780E59620E7FB75960EE4F511
:1011C30097800C9007867403F090078FF0A3F002CA
:1011D300002E900786E0FFB40414A374FFF0A374F9
:1011E30012F0A37452F090078CE4F0A304F0EFB470
:1011F300031690078774FFF0A37412F0A37454F0DE
:1012030090078CE4F0A304F012002E90078E740173
:10121300F0E490078AF0A3F022120110010000000D
:1012230040C4100000000001020301090220000174
:10123300010080FA0904000002FF00000007050214
:101243000240000007058202400000040309040174
:1012530000000090078774FFF0A37412F0A3745486
:10126300F090078CE4F0A304F012002E90078E7424
:1012730001F0E490078AF0A3F022EFB40A07740D9B
:10128300121288740A309811A899B8130CC29830B6
:1012930098FDA899C298B811F63099FDC299F599AD
:1012A30022D007D007D007D006D005D004D003D072
:1012B30002D001D000D0D0D082D083D0F0D0E002D1
:1012C300008322E59620E7FBE4F596900780E0FF94
:1012D300F597EF90078660057403F080037402F0BE
:1012E30002002EE59620E7FB75960EE4F597E5964A
:1012F30020E7FB75961175972090078E7404F022F2
:10130300900793E04401F0900791E0600BE596208D
:10131300E7FB75960B75970F22011600C1C1C142F9
:10132300C1C802200000022200000224000000E5E0
:101333009620E7FB75960F75978922900791E0F544
:1013430057E4F0AF5722666C757368204649464FE1
:10135300210A00696E76616C6964206672616D654D
:10136300212028626C6F636B4C656E3D252E3262C3
:10137300582C206D616769634E6F3D252E34685884
:10138300290A00696E76616C6964206672616D6515
:101393002076657273696F6E210A0072782070611E
:1013A300636B65742074696D656F7574210A0069D8
:1013B3006E76616C6964207061636B6574206C6523
:1013C3006E677468210A00696E76616C69642043F4
:1013D3005243210A00100025D01010228511001F4E
:1013E300F7111026FE11112800111229BC11202912
:1013F300E811212A01112227EB11232A2012002AA6
:101403003212102A3A12112A5812122A6F12132A70
:101413007E1214215A12152AA000001189231232B8
:101423009B462457AD653674BF8C489DC1AF5ABEE9
:10143300D3CA6CDBE5E97EF8F7091918902A0B3B50
:10144300824F3D5EB46C2F7DA6855194D8A643B7D9
:10145300CAC375D2FCE067F1EE123203BB31202020
:10146300A95416459F7704668D9E7A8FF3BD68ACA9
:10147300E1D85EC9D7FB4CEAC51B2B0AA238392930
:10148300B05D0F4C867E1D6F94976386EAB471A599
:10149300F8D147C0CEF255E3DC246435ED07761668
:1014A300FF624073C9415250DBA82CB9A58B3E9A09
:1014B300B7EE08FF81CD1ADC932D7D3CF40E6F1F30
:1014C300E66B597AD0484B59C2A135B0BC822793F9
:1014D300AEE711F698C403D58A365627DF154404C0
:1014E300CD707261FB536042E9BA1EAB97990C88C9
:1014F30085FC3AEDB3DF28CEA13F4F2EC61C5D0D10
:10150300D4796B68E25A794BF0B307A28E901581B8
:101513009CF523E4AAD631C7B848C859416BDA7A97
:10152300530EEC1F652DFE3C77C480D509E792F678
:101533001B82A4932DA1B6B03F41D1505862C3730F
:101543004A07F5167C24E7356ECD99DC10EE8BFF48
:10155300028BBD9A34A8AFB9265AFA4B7379E8685F
:10156300611CDE0D573FCC2E45D6B2C73BF5A0E438
:10157300299096811FB384A20D53E3426A70F161EF
:101583007815C7044E36D5275CDFABCE22FCB9ED08
:1015930030998F8806BA9DAB146CAC7D254FBE5E27
:1015A300372A883B01099A1813E0E4F16DC3F6D298
:1015B3007FA6C0B74985D2945B65B5743C46A757EF
:1015C3002E239132180083110AE9FDF874CAEFDB68
:1015D30066AFD9BE508CCB9D427E9E6F175D8C4CFF
:1015E3000538BA29331BA80A21F2D6E35FD1C4C058
:1015F3004DB4F2A57B97E086697787660E549545CF
:101603001C31A3202A12B10338FBCFEA46D8DDC927
:1016130054BDEBAC629EF98F70FF2AF4FF2B3DFFA4
:101623002CF6FF2D5BFF1863FF18B90800080808A4
:101633000800FFFF080808080474FFF531F532E4D9
:10164300FDFCD3900045E09D900044E09C4031E5D3
:1016530031FF74482DF58274003CF583E06F75F01B
:1016630002A4241CF582E5F03414F583E532FEE48C
:10167300936EF531740193F5320DBD00010C80C2F8
:10168300AE31AF322230470912344B1207F3C2474F
:101693002290004BE02404FE90004AE034009000C6
:1016A30044F0A3CEF0D13C900046EEF0A3EFF0C29D
:1016B3003812002A123451900045E02408FD9000AE
:1016C30044E03400FC02008612344B1207F3123458
:1016D3005112359730470B7BFF7A13794912026217
:1016E300C322C3E52E9408E49400400E900040E02A
:1016F30065087004A3E06509601A7BFF7A137956C5
:10170300852E34900040E0F535A3E0F536120262F1
:10171300D247C322900042E07004A3E06401601347
:101723007BFF7A137986120262900042E4F0A304ED
:10173300F0C322E52E24F8F52DE434FFF52CE4F56F
:101743002FF530D3900045E0952D900044E0952C83
:1017530040487448252DF97400352CFA7B01123565
:1017630097E52E70287F01FE121C260530E53070A8
:1017730002052FFFAE2FE4FCFD7B507AC3F9F8D3AB
:1017830012060750BE7BFF7A13799E8021E52E2532
:101793002DF52DE4352CF52C80A9900044E0652C23
:1017A3007004A3E0652D600E7BFF7A1379B21235C6
:1017B300407401F0C322D23812002AD13C90004673
:1017C300E06E7003A3E06F600D7BFF7A1379CA129A
:1017D300354014F0C322D322EF30E208050BE50BAA
:1017E3007002050AEF30E30A050BE50B7002050AE8
:0B17F300D24722A807E2FE08E2FF2216
:10180000900048E0F52CA3E0F52D7403FFFEE4F50D
:101810002EE52E25E025E024D8F582E43413F58367
:10182000740193B52D22E493B52C1DE52E25E025FA
:10183000E024DAF582E43413F583E493FE74019333
:10184000AA06F91207048009052EE52EC39411405B
:10185000C0900048EEF0A3EFF0EE64037004A3F034
:10186000A3F022752B01E50D850CF012069D187A68
:10187000000018800149000018AF750C01750D4972
:10188000AE0AAF0BD3EF9400EE94004003D3800177
:10189000C340037F0022E50B150B7002150A1216D8
:1018A000CB50021100121688E4F50AF50B80CBE448
:1018B000F52BF50CF50D7F0322E4F50CF50DF50A7B
:1018C000F50B7F767E3811CD8E088F09228F828EA0
:1018D00083E493FE740193FF227818E2FF8FFC12D9
:1018E0002F21AC06AD07E4FFFEF1EF123089AC0604
:1018F000AD077F027E00F1EF1230A0AC06AD077F8E
:10190000047E00F1EF7F4012343BC006C007FF1297
:1019100033C7D007D006D312352250177F42123476
:101920003BC006C007FF1233C7D007D006C312352D
:1019300022500DE4F52C7819E21232776020800BEA
:10194000752C017819E212327760137819E2FFEFF3
:1019500054FEFBE52C5401FFEF4BFFE4EFF27F4414
:1019600012343BC006C0077F021233C7D007D0062F
:10197000D3ED9FEC9E50197F4612343BC006C00742
:101980007F021233C7D007D006C3ED9FEC9E500FE5
:10199000E4F52C7819E2C3131232776033800D75A9
:1019A0002C017819E2C31312327760241233BB542E
:1019B000FDFFC004C005C006C007E52C5401FFE4CC
:1019C0007801120642D003D002D001D0001233E0D9
:1019D0007F4812343BC006C0071233C5D007D0067B
:1019E000D3ED9FEC9E50177F4A12343BC006C007D0
:1019F0001233C5D007D006C3ED9FEC9E500DE4F521
:101A00002C1234FE1232776031800B752C011234A7
:101A1000FE12327760241233BB54FBFFC004C005B2
:101A2000C006C007E52C5401FFE47802120642D03C
:101A300003D002D001D0001233E01233BB1234BE07
:101A4000702E7819E2C3131233BE5401FFE4F8C3B9
:101A500012061D701B1234FE1233BE5401FFE4F84F
:101A6000C312061D700A752C0112326E602E80089A
:101A7000E4F52C12326E60241233BB547FFFC00495
:101A8000C005C006C007E52C5401FFE47807120624
:101A900042D003D002D001D0001233E0228F3F7534
:101AA0004008AF3F7801EF08800123D8FDF53F13D0
:101AB000929212329212343220820E1234F7700255
:101AC00015414E6004912280EF123292C282800052
:101AD000D540CFD29212329212343220820E12347A
:101AE000F7700215414E6004912280EFA292923A63
:101AF000123292C2828000A23AB322123566A31239
:101B0000330C123482C23991464003A2392230AFDD
:101B100005C2AFD38001C39238E5384537700CE574
:101B2000384537706CE53A45397066D29212329278
:101B30001234D4208211E53E153EAE3D7002153DB3
:101B40004E6004912280EC123289C28280001235EC
:101B50008F54FEFF519D400261F6E4F53BF53CC316
:101B6000E53C9538E53B95375027E5362405F58269
:101B7000E43535F583E582253CF582E583353BF593
:101B800083E0FF519D506F053CE53C7002053B80B2
:101B9000CEE53A4539605DD2921232921234D420A9
:101BA0008211E53E153EAE3D7002153D4E6004913A
:101BB0002280EC123289C282800012358F4401FFEC
:101BC000519D5032E4F53BF53C1235879539502450
:101BD000E53A24FFFFE53934FFFEEFB53C07EEB5EB
:101BE0003B03D38001C3923A1221C012334E7002DC
:101BF000053B80D5D2391232901234D4208211E5BF
:101C00003E153EAE3D7002153D4E6004912280ECC3
:101C1000123292D292A23892AFA23922A2A0D297C7
:101C200092307F017E008018EF1F70011E144E60FD
:101C30001400000000000000000000000000000090
:101C400000000080E322308205309202D3223082ED
:101C500068209265753F09123292C282800012326A
:101C6000921234CB20820E12347B700215404E60EB
:101C700004912280EFD53FDF30923ED29212329211
:101C80001234CB20820E12347B700215404E600459
:101C9000912280EF123289C2828000123290123477
:101CA000CB20820E12347B700215404E60049122CC
:101CB00080EF123292D292D322C3221234DD700509
:101CC0007E01FF8004AF3F7E008E408F41C23830DE
:101CD000977730A074AF18F10B7F07123319B1DC7E
:101CE000EF20E0091232996004912280F11233F959
:101CF0007057E53BFFB14CAF3C123314B1DCEF2021
:101D0000E0091232996004912280F11233F970399E
:101D100012347B700215404E6015053EE53EAE3D27
:101D20007002053D14F5828E83E0FFB14C80E11214
:101D3000331CB1DCEF20E00912329960049122805B
:101D4000F1122000BF0D02D238A2382212300075E5
:101D50004627754710B1DCEF30E111E5471547AE76
:101D600046700215464E6004912280E9228F33C2EC
:101D70003830976530A062AF18F10B7F08123491AC
:101D8000B1DCEF20E00B783412329B6004912280AA
:101D9000EF1233F97043AF33123491B1DCEF20E02E
:101DA0000B783412329B6004912280EF1233F97069
:101DB00028E4FFB14CE475374075369CF535F534B1
:101DC000B1DCEF20E00B783412329B60049122806A
:101DD000EF122000BF0D02D238A23822C243D244F3
:101DE00030AF05C2AFD38001C31231D5000000006F
:101DF000123251000000001231E4000000001232E3
:101E00004700D29700000000C2970000A2A0D2971E
:101E100092300000C2970000A2A0D2979231000039
:101E2000C2970000A2A0D29792320000C297000091
:101E3000A2A0D29792330000C2970000A2A0D2972E
:101E400092340000C2970000A2A0D2979235000001
:101E5000C2970000A2A0D29792360000C29700005D
:101E600012325DAF262274FFF536F535F534F533C1
:101E7000209702E10220A002E10212340053A57F64
:101E80007F02F10B1230007F041230007F0112300C
:101E9000007F147E00122CA8E4FFF1DF8F337F0156
:101EA000F1DF8F34E533F460597518B412357FB122
:101EB0004C1220BBEF640D601F7518AD12357F12F8
:101EC00034A0B1DCEF20E00B783712329B60049134
:101ED0002280EF1233F9702A1220BB8F35AF18F130
:101EE0000B7F011234A0B1DCEF20E00B7837123207
:101EF0009B6004912280EF122000BF0D051220BBD1
:101F00008F36AF36AE35AD34AC3322D243D2448FA8
:101F10002630AF05C2AFD38001C31231D500000017
:101F200000123251000000001231E40000000012E3
:101F3000323E000000001232350000000012322C48
:101F4000000000001232230000000012321A0000CC
:101F500000001232110000000012320800000000E0
:101F60001231FF00000000D297D2A053A6FE12311A
:101F7000DD00000000D297023266C23830975D3033
:101F8000A05AAF18F10B7F03B14CE47536107535CC
:101F900027F534F533B1DCEF20E00B783312329BB8
:101FA0006004912280EF1233F970317FDEB14C7FF3
:101FB000ADB14C7FA5B14C75360075352D753431FA
:101FC000753301B1DCEF20E00B783312329B6004F3
:101FD000912280EF122000BF0D02D238A23822F1E8
:101FE0000B801DFFE43438FE8F828E83020655A8D5
:0F1FF00007ECF208EDF22212342A7E017F402224
:10200000C243C244C245C24630AF05C2AFD380010D
:10201000C31231D50000000012325100000000123E
:1020200031E4000000001231F6000000001231ED32
:102030000000000012324700D2970000754A277551
:102040004B100000C2970000121C1C20300DE54B05
:10205000154BAE4A7002154A4E70E70000C2970059
:1020600000A2A0D29792300000C2970000A2A0D296
:102070009792310000C2970000A2A0D2979232003E
:1020800000C2970000A2A0D29792330000C297002E
:1020900000A2A0D29792340000C2970000A2A0D262
:1020A0009792350000C2970000A2A0D29792360006
:1020B00000C297000012325DAF2622E47549107508
:1020C0004827F547F546121DDCEF20E00C78461254
:1020D000329B6005121C2280ED01001234DD700578
:1020E0007E01FF8004AF3F7E008E408F41C23830BA
:1020F000976530A062AF18121F0B7F0612331912BA
:102100001DDCEF20E00A1232996005121C2280EFDC
:102110001233F97042E53DFF121D4CAF3E123314ED
:10212000121DDCEF20E00A1232996005121C228099
:10213000EF1100BF0D2112347B700215404E601567
:1021400011BB053CE53CAC3B7002053B14F5828CB1
:1021500083EFF080E1D238A238221232E890004AB0
:10216000E07004A3E06406700BD3E5389432E537E1
:10217000940440057E037F0422E538240690004B3A
:10218000F0E4353790004AF0E5384537602DC3E577
:102190003794015006AE37AF3880047E017F008E41
:1021A000398F3AAB3AAD36AC35AF34AE3311DB4094
:1021B000057E037F402212332880CD7E017F40229E
:1021C000E4F540753F0812329212343220820F1229
:1021D00034F7700215414E6005121C2280EEE54076
:1021E00025E0F540A292E4334240123292C282804E
:1021F00000D53FD2A23A9292123292123432208209
:102200000F1234F7700215414E6005121C2280EE49
:10221000123292C2828000D292AF4022123566A35F
:1022200012330C123482E538453760368F828E8344
:10223000E5822405F582E43583F583E0F516D3E5E0
:10224000389400E5379401400122E53814FDE53665
:102250002406FBE43535FAAF16710BE51625381464
:10226000F516E53A4539601BE4F53BF53C12358738
:102270009539500FAF160516D10A12334E7002056C
:102280003B80EAD32275330075344C123469E0FE8A
:10229000A3E0FF2405FDE43EFC90004AE0B50424E1
:1022A000A3E0B5051F123469A3A3E0FCA3E0FDEF92
:1022B0002DFFEE3CFEE4FCFD7B337A04F9F8C312FB
:1022C000060750057E037F0422853482853383E030
:1022D000AF34AE33B4FE04511C8003121AFB5026F7
:1022E000123469E0FEA3E02405FFE43EFE123469E7
:1022F000A3A3E0FCA3E02FFFEC3E90004AF0A3EF85
:10230000F07E017F40227E037F40228F3D8D3E8AFA
:102310003F8B40D1BF8F41E541F47002811DE53E06
:102320007002811D123538400912351A50047F2081
:1023300080027F80EF14523DE53EFDE53D2DFDE43A
:1023400033FCEFFBD3ED9B7480F86C984008E53DBF
:10235000253EC39FF53EE54164017027F542E54205
:10236000C3953E501C1234EAF543E53D24E524FBB9
:10237000500424087005A83DE543F20542053D8060
:10238000DDA183E541B4061BE53D253EFFE433FEB8
:10239000D3EF9460EE648094804008E53D253E24B0
:1023A000A0F53EAF41EF3395E0FE74352FF5827412
:1023B000163E1235549F4065123539403112351A98
:1023C000502CE4F542E542C3953E50511235384059
:1023D0001912351A50141234EAFFE53D2542FEE584
:1023E0004114C43354E02EF8EFF2054280D7C3E520
:1023F00041648094834026D3E54164809486501DD7
:10240000AF4112354BC333CE33CED8F912352D251B
:102410003DFFEC3EFEAB3EAD40AC3F911E228E44F4
:102420008F458C468D47A90330AF05C2AFD38001DD
:10243000C39238E54454FEF548754900E54454011B
:10244000F54A85454BC239E4FFEFC3995033E5495E
:10245000254BFDE548354AFCEF7A002DFDEA3C8D21
:1024600082F583E493F54CE5472FF582E43546F594
:1024700083E0F54D554C654D6004D23980030F80E3
:10248000C820390B1234AFAF45AE44B106806E752B
:102490004C3A754D00D23AAB4BAA4AAD49AC48B163
:1024A00002E54B254DF54DE54A354CF54C1234AF60
:1024B000B102E9FF7E00254DF54DEE354CF54CE5BA
:1024C000452FFDEE3544FCE54B2FFFEE354AFEC3AC
:1024D00074FF9FFB74019EFAD23AB102E4FB7D03C4
:1024E000AF49AE48B160D23A7A027D007C3AAF493A
:1024F000AE48B106E4FB7D03FF7E3AB160A238929C
:10250000AF22AF4DAE4C8E4E8F4F8C508D518A52B4
:102510008B53E5531553AE52700215524E60403046
:102520003A0B855182855083E493FF800885518260
:10253000855083E0FF8F54854F82854E83E49365F9
:1025400054600AAB547D01AF4FAE4EB160054FE50C
:102550004F7002054E0551E5517002055080B322BF
:102560008E558F5675FF8075EF068D8FA2AFE433C1
:1025700024A5F5B775B7F1855682855583EBF0E450
:10258000F58F227F1B7E00F1CE8F478E468D458CC6
:10259000441206CA25AED1E95B9325B2DA17B67CA0
:1025A00025AAE37A97A1000025B675EF12227517C8
:1025B0000822751704227F7C1234587004751702A4
:1025C000227F78123458700475170122E4F517221F
:1025D000123292D2827533017534F4208212E534BE
:1025E0001534AE33700215334E6005121C2280EB99
:1025F000D29212342A7E017F4022E4F531F530F583
:102600002FF52E7F1BFEF1DCA183AD07D1BFAE07F6
:10261000BEFF037FAA22C3EE64809481400CD3EEF8
:102620006480948250047F2080027F80EF145205E2
:10263000EEFB3395E0FA742E2BF58274163A1235C0
:10264000549F4078EE6014147027ED24E524FD506B
:10265000046005801C7F0022AF1722EDC3947840F0
:102660000DEDD3947F5007ED90017093FF227FAA68
:1026700022C3EE648094814014D3EE64809482502F
:102680000CEE14C43354E02DF8E2FF802EC3EE6448
:102690008094834024D3EE64809486501CAF06124D
:1026A000354BC333CE33CED8F912352D2DFFEC3E4A
:1026B0008F82F583E493FF80027FAA227FAA22EF14
:1026C000C3946050037F0622EFC3948050037F01C0
:1026D00022781FE224806017146017146017248387
:1026E0006016243F7015EFC394A0500F7F02227F25
:1026F00003227F04227F05227F00227FFF22900099
:102700004CE0FFA3E0FD7A047BEAF1157E01400274
:102710007E037F40228B828A83A90530AF05C2AF3A
:10272000D38001C312347144031233746003123531
:1027300012A2004003D38001C3221230B712310528
:1027400012315E0000D296D294C296D2A1D29600E7
:10275000001232E192001232E192271232E1922607
:102760001232E192251232E192241232E1922312C6
:1027700032E192221232E192211232E1922012329F
:10278000E1922F1232E1922E1232E1922D1232E1B9
:10279000922C1232E1922B1232E1922A1232E19201
:1027A000291232E192280234428B828A83A90530B1
:1027B000AF05C2AFD38001C3123471440212337427
:1027C0006003123512A2004003D38001C322A80780
:1027D000E2FC08E2FD08E2FE08E2FF22AB07AF31AF
:1027E000AE30AD2FAC2EA8030206911233961235EF
:0C27F0006FF1157E0140027E037F402245
:102800001232A5110E7E0140027E037F40228F35D9
:10281000A905D238E53A153AAE39700215394E603D
:102820004530AF05C2AFD38001C392391169D20DD3
:10283000D20C12273AA23992AFE53CFF2402F53CB4
:10284000E53BFE3400F53B8F828E83123512A200E9
:102850004003D38001C34004C238800A0BBB00018F
:102860000A12350680AEA23822E975F004A4FDAC48
:10287000F0E53575F080A4FFE5F04CF520EF4DF55F
:10288000218A228B231230B712310512315EA20148
:102890001231CEA2001231CEA2171231CEA21612E0
:1028A00031CEA2151231CEA2141231CEA2131231A2
:1028B000CEA2121231CEA2111231CEA2101231CEFE
:1028C000A21F1231CEA21E1231CEA21D1231CEA2F3
:1028D0001C1231CEA21B1231CEA21A1231CEA21975
:1028E0001231CEA2181231CE00000234428F35A927
:1028F00005E53A153AAE39700215394E602B853C24
:1029000082853B83E0F524A3E0F52530AF05C2AF17
:10291000D38001C392381169C20DD20C1235770BE6
:10292000BB00010A12350680C8D3221230B712311B
:102930000512315EA2011231CEA2001231CEA227C1
:102940001231CEA2261231CEA2251231CEA22412ED
:1029500031CEA2231231CEA2221231CEA2211231C7
:10296000CEA2201231CEA22F1231CEA22E1231CE03
:10297000A22D1231CEA22C1231CEA22B1231CEA218
:102980002A1231CEA2291231CEA2281231CE000055
:10299000023442A90530AF05C2AFD38001C312345F
:1029A000714401FDE975F004A4FFEC45F0F520ED5C
:1029B0004FF5218A228B23123577D3221232A511AB
:1029C000ED7E0140027E037F4022A90730AF05C2A1
:1029D000AFD38001C39238ED75F004A4FDACF0E9EB
:1029E0001173A23892AFD32212339615828A83A331
:1029F000A3E0FAA3E0FB31CA7E0140027E037F40E0
:102A0000221233961582E5822406F582E43AF58394
:102A1000E0FAA3E0FB31937E0140027E037F402277
:102A200012339612356F1227A97E0140027E037F72
:102A3000402212342A7E017F402212342A51487EDD
:102A40000350027E017F402230970320A002C32260
:102A500012340053A57FD322121E6690004C12063A
:102A60008590004AE4F0A37404F07E017F402212B6
:102A7000342A121F7A7E0350027E017F402290008A
:102A80004AE07004A3E0640160057E037F042290A5
:102A9000004CE0FF121D6D7E0350027E017F40223C
:102AA0001232E82406FFE43537FE90004AE06E70EB
:102AB00003A3E06F60057E037F0422E5384537609D
:102AC0002EC3E53794015006AE37AF3880047E013F
:102AD0007F008E398F3AAB3AAD34AC33AF36AE357A
:102AE000121CBB40057E037F402212332880CC7E1F
:102AF000017F4022752B01E5127038E51324C46074
:102B00001F243C702E1218D9E5112432FFE4351031
:102B100012355DFC9004FC12068575120075133C9D
:102B2000009004FC1233A47F0050027F01EF60D5B7
:102B30007F0022E4F52BF512F5137F0322E4F51252
:102B4000F5131201DD7161903860E493FF7818EF9E
:102B5000F27818E2FFE48FFC7F0A7E0091A8C29110
:102B600022438E10E4F5C875CA4075CC4075CBA2DF
:102B700075CDA2C2CFD2CAC2BDD2ADF511F510F546
:102B80000FF50E719C75D1077FD07E07121C269120
:102B9000E953A57F53A6FED297D2A0229004857454
:102BA00003F07F02EFC394225030EFC313C39401AC
:102BB00024901233D04023E52B947F501D74842F32
:102BC000F582E43404F583E52BF074852FF582E477
:102BD0003404F583E4F00F0F80CA900484EFF09082
:102BE00004A77403F07F02EFC394225030EFC313A5
:102BF000C3940124A01233D04023E52B947F501DB1
:102C000074A62FF582E43404F583E52BF074A72F26
:102C1000F582E43404F583E4F00F0F80CA9004A633
:102C2000EFF09004C97403F07F02EFC39422503098
:102C3000EFC313C3940124B01233D04023E52B9487
:102C40007F501D74C82FF582E43404F583E52BF022
:102C500074C92FF582E43404F583E4F00F0F80CAC1
:102C60009004C8EFF043F6021200469004F174019C
:102C7000F0A37404F0A374A6F0A37401F0A3740489
:102C8000F0A374C8F0A374FAF0A37480F0A37401E5
:102C9000F0A3E4F07B017A0479847D617CEA7FC44F
:102CA0007E10120BCDC2AF228F828E8330AF23EF06
:102CB0002511F53EEE3510F53DE4350FF53CE435D4
:102CC0000EF53BAF3EAE3DAD3CAC3B1233AF5018C2
:102CD00080F1E5821582AE83700215834E60097F14
:102CE000E87E03121C2680EA2275BB1E75BA1F758A
:102CF000BCB875E88022752B01E5147054E51524E5
:102D0000BA603B2446704A7819E2C4131313540185
:102D10001233BE1234BE7006D293C2868004C293B0
:102D2000D28663A008E51124F4FFE51034011235C2
:102D30005DFC90050012068575140075154600901F
:102D400005001233A47F0050027F01EF60B97F00BD
:102D500022E4F52BF514F5157F0322E4F514F5159F
:102D600022D2AF021303B199B183B161E4F52AE530
:102D70002A75F006A4241CF582E43416123415409A
:102D8000EE80E9E4F52AE52A75F006A4241FF58211
:102D9000E4341612341540EE22E4F5A8F5E675B2D7
:102DA00083E5B2C4131354031350F675B9807F053D
:102DB0007E00121C2643B9C0E5B9C4135407135052
:102DC000F775A90275B680D12A438E08E589540F9C
:102DD0004420F589758D98D28EAFD4EF54EFFF8FD4
:102DE000D4AFD4EF54DFFFE48FD443E101759802F0
:102DF000E4FB75FCFF75DA42AFD4EF54FDFF8FD4CE
:102E00000BE4F5E9F5EAE4F5DBE4F5EBF5ECE4F5E4
:102E1000DCE4F5EDF5EEE4F5DDE4F5FAF5F975D968
:102E20000875D840EB540742E2227580BF7590F7D1
:102E300075A0FF75B0FF75F17F75F2FE75F3FB7538
:102E4000F4FE75A44A75A55875A60AE4F5A775D4CD
:102E5000FF75D5FF75D6FFF5E175E24022C0E0C0F1
:102E6000D075D000C004C005C006C007C2CFAF11E6
:102E7000AE10AD0FAC0EEF2401F511E43EF510E4F9
:102E80003DF50FE43CF50ED007D006D005D004D0B8
:102E9000D0D0E032C0E0C0F0C083C082C0D075D0D6
:102EA00000C000C001C002C003C004C005C006C00D
:102EB0000712133E1217DBD007D006D005D004D07E
:102EC00003D002D001D000D0D0D082D083D0F0D0B7
:102ED000E0328B308FBB8DBA7FC87E00121C26E497
:102EE000FDFCAF3004A807088002C333D8FCFBEB1D
:102EF000D39400401AC2EDD2EC30EDFDAFBEEFFE30
:102F0000AABDEAF582E5822DFDEE3CFC1B80E0EDDA
:102F1000AE04A830088006CEA2E713CE13D8F8FF7F
:102F2000227B037D1F7F1EF1E57F207E00121FEFB5
:102F3000D238E4FDAF2EAE2D8E308F318D32E425A8
:102F400032121FE38F3A8E398D388C37E5322404E4
:102F5000121FE38F3E8E3D8D3C8C3BAE30AF31E493
:102F6000FCFDAB3AAA39A938A8371205B87808127F
:102F7000062EEF253EF536EE353DF535ED353CF5C3
:102F800034EC353BF533303831E47FFF7E7F12334C
:102F9000EEC312060740067E7F7FFF80477F007EDC
:102FA000807DFF7CFF1233F0D312060750067E802F
:102FB0007F008004AE35AF36802AE47FFF7EFF12AB
:102FC00033EEC312060740067EFF7FFF8016E4FF44
:102FD000FE1233EED312060750067E007F008004F7
:102FE000AE35AF3622D1D28E2D8F2EAD2EAC2D2206
:10300000D243C244C245C2468F2630AF05C2AFD3B9
:103010008001C331D5000000005151000000003193
:10302000E40000000031F60000000031ED00000077
:1030300000513E00000000513500000000512C00FE
:10304000000000512300000000511A000000005150
:10305000110000000051080000000031FF000000D6
:1030600000514700D29700007548277549100000AD
:10307000C2970000121C1C20300DE5491549AE48CE
:10308000700215484E70E741637B037D1E7F1F125F
:103090002FE57F227E00121FEFC2387D08022F34F9
:1030A0007B037D1F7F0A122FE57F247E00121FEF16
:1030B000C2387D10022F34C283C2A1A248D2969298
:1030C00094C296A248D2969294C296A248D2969260
:1030D00094C296A248D2969294C296A248D2969250
:1030E00094C296A248D2969294C296A248D2969240
:1030F00094C296A248D2969294C296A248D2969230
:1031000094C296A248D2969294C296A248D296921F
:1031100094C296A248D2969294C296A248D296920F
:1031200094C296A248D2969294C296A248D29692FF
:1031300094C296A248D2969294C296A248D29692EF
:1031400094C296A248D2969294C296A248D29692DF
:1031500094C296A248D2969294C296A24822D2963F
:103160009294C296A20FD2969294C296A20ED29632
:103170009294C296A20DD2969294C296A20CD29626
:103180009294C296A20BD2969294C296A20AD2961A
:103190009294C296A209D2969294C296A208D2960E
:1031A0009294C296A207D2969294C296A206D29602
:1031B0009294C296A205D2969294C296A204D296F6
:1031C0009294C296A203D2969294C296A202D296EA
:1031D0009294C29622923953A6FE43A580A24192B0
:1031E000A0C29722D297A24492A0C29722D297A2BD
:1031F0004692A0C29722D297A24592A0C29722D20D
:1032000097A23792A0C29722D297A23692A0C297D5
:1032100022D297A23592A0C29722D297A23492A02E
:10322000C29722D297A23392A0C29722D297A232FB
:1032300092A0C29722D297A23192A0C29722D2978F
:10324000A23092A0C29722D29753A6FED2A0C297D4
:1032500022D29743A601A24392A0C29722A2A0D253
:1032600097923753A6FE53A57FA23992AF227819C1
:10327000E2C41313135401FFEF5401FBE4FAF9F80D
:10328000AF2CFCFDFEC302061D7F037E00121C2630
:10329000C2927F037E00021C26784274FF120667EA
:1032A000EC4D4E4F2275330075344C853482853396
:1032B00083E0FFA3E0FD853482853383A3A3E0FA96
:1032C000A3E0FBE5342404F582E43533F583E0F52F
:1032D00039A3E0F53AE5342406F53CE43533F53B13
:1032E00022C296A280D296227B4C7A00EB2406F56D
:1032F00034E43AF5338B828A83A3A3E0FEA3E08E05
:1033000035F536EB2404F582E43AF583E0F537A38E
:10331000E0F53822121D4CAF3F121D4CE4754510EC
:10332000754427F543F54222E53A2534F534E5396D
:103330003533F533E53A2536F536E5393535F535A6
:10334000C3E538953AF538E5379539F53722E5384C
:10335000253CFDE537353BFCE5362405F582E435B3
:1033600035F583E5822DF582E5833CF583EFF005A5
:103370003CE53C22FDE975F004A4FFEC45F0F520A6
:10338000ED4FF52174FFF522F52312273AA238926A
:10339000AFE5824583227B4C7A008B828A83E0FFF3
:1033A000A3E0FD22E0FCA3E0FDA3E0FEA3E0FFAB71
:1033B00011AA10A90FA80EC302061D7819E2FFE496
:1033C000FCFDFEEF227F04FE1217F6AD07AC0622CD
:1033D000FDE434398D82F583E493F52BC3942022E8
:1033E000EF4BFFEE4AED49EC487819EFF222FDFC75
:1033F000AB36AA35A934A83322122000EF640D227F
:1034000043A580C2977F147E00121C26D2977F02AC
:103410007E00021C26F583740193FA740293F9125C
:103420000704052AE52AC3940322E490004AF0A386
:10343000F022D2827541017542F4227E381218CDF5
:10344000E422D296D294D283D2A1227E047F447DFC
:10345000007B017A007940227E38121FE8AB47AA30
:1034600046A945A844C302061D853482853383A33B
:10347000229238EF75F080A4ACF022E5411541AE00
:1034800040228F828E83A3A3A3E0F539A3E0F53A0F
:1034900022121D4CE4753710753627F535F53422A8
:1034A000121D4CE4753A10753927F538F53722AE00
:1034B00046AF47AD07AC06E9FB7A00C23A22540199
:1034C000FFE47B01FAF9F8C302061DD282754001C0
:1034D0007541F422D282753D01753EF4228E3B8FF8
:1034E0003C8C3D8D3E8B3FE53F22E5402542F582F9
:1034F000E4353FF583E022E5421542AE41227819DA
:10350000E21313543F227402253CF53CE4353BF5AD
:103510003B22E524F0A3E525F022D3E54164809425
:103520008222ED9FEE6480F8EC648098222480FF74
:10353000EE3436FE7C00EF22C3E5416480948122A4
:103540001202629000487403F0A322EF3395E0FE6C
:10355000EF780722F583E493FFE517C322FEE435F5
:103560000FFDE4350E228E358F368F828E8322EB4F
:103570002406FBE43AFA2212292BA23892AF22AF9A
:1035800018121F0B7F0222C3E53C953AE53B2285CA
:0F3590003682853583E0227D40120E128F2E2267
:00000001FF
