:100000000211979007867402F0E59620E7FB75963B
:1000100001759701E490078EF0A37403F0A3F0E458
:10002000900792F090079104F022220224B79007E3
:100030008EE06404600BE59620E7FB7596117597DA
:10004000402222020C63E4F525E5B964E0602E53FA
:10005000A90F85A92643B280E5A95407D39401408E
:1000600003E4F5A9E4F5B943B980D525FD43B9C04A
:10007000E5B930E5FBE526B4020343A90253A90F15
:01008000225D
:100083000218D48B258A2689278C288D29E4F52A02
:10009300F52BF531900786E0B40611E52945286074
:1000A3000BD3E5299400E52894104004E4FEFF22D5
:1000B30053E6FDAB25AA26A927AF01AE02AD038FF8
:1000C3002F8E2E8D2D752C00E53130E0030201D5E6
:1000D300E59620E7FB75960E759702E59620E7FBFC
:1000E300759691E59620E7FB859731E53130E01D64
:1000F300E59620E7FB75960EE4F597E59620E7FB7A
:10010300759691E59620E7FB85973180BBD3E5296A
:100113009440E528940040057530408003852930DC
:10012300E59620E7FB759622E5306057E52D7019BB
:10013300E527252BF9E526352AA801E59620E7FBD7
:10014300E6F59708D530F4803AE52D20E71BE5273F
:10015300252BF9E526352A8982F583E59620E7FBE9
:10016300E0F597A3D530F4801AE527252BF9E5268A
:10017300352A8982F583E59620E7FBE493F597A377
:10018300D530F3C3E5299440E5289400401F74401B
:10019300252BF52BE4352AF52A74C02529F5297476
:1001A300FF3528F528E4F5317530408017E529251A
:1001B3002BF52BE528352AF52A753101852930E4FD
:1001C300F528F529E59620E7FB7596117597010249
:0C01D30000CB43E602AE2AAF2B22014213
:1001E00046333231424F4F540510FFFF00000001EB
:1001F00000000000000000000000000000000000FF
:10020000E539242DF8E6053922782A300F02782DB9
:10021000E475F001120A1802080F2008EB7F2ED2B5
:10022000088018EF540F2490D43440D4FF300C0BC6
:10023000EF24BFB41A0050032461FFE53A600215B1
:100240003A053DE53D7002053C300F0D782AE47516
:10025000F001120A18EF020A060214647403D20FA6
:100260008003E4C20FF5398B2A8A2B892CE4F53AF6
:10027000F53CF53DE53A60077F2012023B80F575BD
:100280003BFFC209C208C20AC20BC20DC20EC21095
:10029000120209FF700D300F057F0012024CAF3DB6
:1002A000AE3C22B4255FC2D5C20C120209FF24D095
:1002B000B40A00501A75F00A783A30D50508B6FF2E
:1002C0000106C6A426F620D5047002D20B80D924DC
:1002D000CFB41A00EF5004C2E5D20C02044CD2098C
:1002E00080C6D20880C0D20A80BCD2D580BAD20DD6
:1002F00080B47F2012023B200A077401B53A004007
:10030000F1120200FF12023B020274D210D20E80E0
:1003100095120200FB120200FA120200F94A4B7019
:1003200006791D7A057BFF200A2EE53A602A7E00B9
:100330008E8275830012082860060EEE653B70F011
:10034000C2D5EBC0E0EAC0E0E9C0E0EE120493D011
:10035000E0F9D0E0FAD0E0FB12080FFF60AAEBC092
:10036000E0EAC0E0E9C0E012023BD0E02401F9D0AD
:10037000E03400FAD0E0FBE53B0460DCD53BD980FB
:10038000877BFF7A04798FD20A809C79108002796A
:1003900008C20EC2108008D2D5790A8004790AC238
:1003A000D5E53B047002F53BE4FAFDFEFF120200C6
:1003B000FC7B08200913120200FD7B1030080A1292
:1003C0000200FE120200FF7B20EC3382D592D55052
:1003D00013C3E43008069FFFE49EFEE42009039D5A
:1003E000FDE49CFCE4CBF8C209EC700CCFCECDCC84
:1003F000E824F8F870F38017C3EF33FFEE33FEED17
:1004000033FDEC33FCEB33FB994002FB0FD8E9EBF7
:10041000300905F8D0E0C448B209C0E00AEC4D4EFE
:100420004F78207B0070C2EAB53B0040BCC0E012B0
:100430000495D0F0D0E0200904C4C0E0C4B209C0E3
:10044000F0120224D0F0D5F0EB020274120A280355
:100450001153038B5802E24C02DE42038F4F039785
:100460004403974902F743039D55038146038145A1
:10047000038147053D5002E62D02EA2E030D2B02B3
:10048000EE23030B2005262A02A648000003053FA1
:100490003F3F00790AA2D5200B14300D09B9100294
:1004A0000404B9080104A2D5200E02500104200A58
:1004B00068920AB53A005034C0E07F20300B197FB3
:1004C00030A20A720E720D500F1204ECC20AC20E54
:1004D000C20DC2107F30800F300D03E9C0E0120260
:1004E0003B300D03D0E0F9D0E0B53ACC300D177FAA
:1004F00030B9100C12023B7F58300C077F78800314
:10050000B9080312023B300A057F2D02023B7F200F
:100510002010F87F2B200EF322920A80CF286E75D0
:100520006C6C2900D2091202003009F8C209783A2D
:1005300030D50108F60202A62D5043495812020098
:100540002403B405004001E49005389312022C7492
:100550003A12022CD20B753A0402038B666C757347
:1005600068204649464F210A00696E76616C6964CD
:10057000206672616D65212028626C6F636B4C652B
:100580006E3D252E3262582C206D616769634E6F77
:100590003D252E346858290A00696E76616C6964BD
:1005A000206672616D652076657273696F6E210ACF
:1005B000007278207061636B65742074696D656F7B
:1005C0007574210A00696E76616C696420706163DC
:1005D0006B6574206C656E677468210A00696E76BD
:1005E000616C696420435243210A0010001CF21020
:1005F000101B2412001D2712101D2F12111D3E1258
:10060000121FB612131FC51214215B121521BF0051
:100610000011892312329B462457AD653674BF8C76
:10062000489DC1AF5ABED3CA6CDBE5E97EF8F70935
:100630001918902A0B3B824F3D5EB46C2F7DA68526
:100640005194D8A643B7CAC375D2FCE067F1EE1245
:100650003203BB312020A95416459F7704668D9E36
:100660007A8FF3BD68ACE1D85EC9D7FB4CEAC51BF5
:100670002B0AA2383929B05D0F4C867E1D6F9497E6
:100680006386EAB471A5F8D147C0CEF255E3DC2405
:100690006435ED077616FF624073C9415250DBA8FE
:1006A0002CB9A58B3E9AB7EE08FF81CD1ADC932DAD
:1006B0007D3CF40E6F1FE66B597AD0484B59C2A1AE
:1006C00035B0BC822793AEE711F698C403D58A36BD
:1006D0005627DF154404CD707261FB536042E9BABE
:1006E0001EAB97990C8885FC3AEDB3DF28CEA13F6D
:1006F0004F2EC61C5D0DD4796B68E25A794BF0B36E
:1007000007A28E9015819CF523E4AAD631C7B8487C
:10071000C859416BDA7A530EEC1F652DFE3C77C445
:1007200080D509E792F61B82A4932DA1B6B03F4174
:10073000D1505862C3734A07F5167C24E7356ECD55
:1007400099DC10EE8BFF028BBD9A34A8AFB9265A04
:10075000FA4B7379E868611CDE0D573FCC2E45D605
:10076000B2C73BF5A0E4299096811FB384A20D5334
:10077000E3426A70F1617815C7044E36D5275CDF15
:10078000ABCE22FCB9ED30998F8806BA9DAB146CC4
:10079000AC7D254FBE5E372A883B01099A1813E0CD
:1007A000E4F16DC3F6D27FA6C0B74985D2945B65EC
:1007B000B5743C46A7572E239132180083110AE9DD
:1007C000FDF874CAEFDB66AFD9BE508CCB9D427E7C
:1007D0009E6F175D8C4C0538BA29331BA80A21F28D
:1007E000D6E35FD1C4C04DB4F2A57B97E0866977AC
:1007F00087660E5495451C31A3202A12B10338FB9D
:10080000CFEA46D8DDC954BDEBAC629EF98F70BB10
:10081000010689828A83E0225002E722BBFE02E3BE
:100820002289828A83E49322BB010CE58229F58226
:10083000E5833AF583E0225006E92582F8E622BBFB
:10084000FE06E92582F8E222E58229F582E5833A6F
:10085000F583E49322C5F0F8A3E028F0C5F0F8E5AD
:1008600082158270021583E038F022EB9FF5F0EAE2
:100870009E42F0E99D42F0EC6480C864809845F0A7
:1008800022EB9FF5F0EA9E42F0E99D42F0E89C459C
:10089000F0227401FF3395E0FEFDFC080808E6CF66
:1008A0002FF618E6CE3EF618E6CD3DF618E6CC3C1F
:1008B000F622ECF0A3EDF0A3EEF0A3EFF022D0834C
:1008C000D082F8E4937012740193700DA3A393F88F
:1008D000740193F5828883E473740293B5F006740F
:1008E00003936860E9A3A3A3A380D88A838982E4E1
:1008F00073E709F60870FA8046E709F20870FA8093
:100900003E88828C83E709F0A370FA807EE309F6C3
:100910000870FA8076E309F20870FA806E88828C9B
:1009200083E309F0A370FA806289828A83E0A3F6E8
:100930000870FA805689828A83E0A3F20870FA80F0
:100940004A80D280FA80C680D4806580F28031806F
:100950001080A680EA809A80A880DA80E280CA802F
:100960003189828A83ECFAE493A3C8C582C8CCC5D6
:1009700083CCF0A3C8C582C8CCC583CC70E9800DF8
:1009800089828A83E493A3F60870F9ECFAA9F0ED62
:10099000FB2289828A83ECFAE0A3C8C582C8CCC551
:1009A00083CCF0A3C8C582C8CCC583CC70EA80DDF7
:1009B00089828A83E493A3F20870F980CE88F0EDEF
:1009C0002402B4040050C4F582EB2402B4040050A5
:1009D000BA232345822390094173EF4E6012EF60E2
:1009E000010EEDBB010B89828A83F0A3DFFCDEFAE6
:1009F0002289F05007F709DFFCA9F022BBFEFCF3C7
:100A000009DFFCA9F022BB010689828A83F022500B
:100A100002F722BBFE01F322FAE6FB0808E6F925FD
:100A2000F0F618E6CA3AF622D083D082F8E4937042
:100A300012740193700DA3A393F8740193F5828847
:100A400083E4737402936860EFA3A3A380DFE59649
:100A500020E7FB75960EE4F597E59620E7FB759683
:100A600091E59620E7FB90079CE597F0E0FF30E2E8
:100A700010E59620E7FB759611E4F59790078EF048
:100A800022EF30E410E59620E7FB7596117597800C
:100A9000E490078EF090078EE06003020B7A9007D7
:100AA0009CE020E003020B7A7596204396C0E4F5A3
:100AB00045E59620E7FB747E2545F582E43407F58D
:100AC00083E597F00545E545B407E6E59620E7FBA5
:100AD000E4F596747E2545F582E43407F583E597C1
:100AE000F0900781E0FE900780E07C002400FFEC9E
:100AF0003E900794F0A3EFF0900785E0FE90078406
:100B0000E02400FFEC3E900796F0A3EFF090077F03
:100B1000E004603B14B40C00505D900B21F82828D1
:100B200073020B45020B4A020B4F020B54020B7768
:100B3000020B59020B5E020B77020B63020B680279
:100B40000B6D020B7212123280301212A5802B1222
:100B50000EE9802612130480211214AD801C12109D
:100B6000D780171213BC8012121362800D12143D2D
:100B7000800812002E80031214CD90078EE06401CD
:100B80006003020C6290079C7402F0C390078DE032
:100B9000944090078CE094004055E59620E7FB7563
:100BA0009620E4F545900787E0FBA3E0FAA3E0F97F
:100BB000854582758300120828F597E59620E7FBA6
:100BC0000545E545B440DE900788E475F04012081D
:100BD0005590078DE024C0F090078CE034FFF09032
:100BE000078BE02440F090078AE03400F08045E570
:100BF0009620E7FB759620E4F545D390078DE095A8
:100C00004590078CE09400401F900787E0FBA3E02D
:100C1000FAA3E0F9854582758300120828F597E567
:100C20009620E7FB054580D290079CE04408F0E45D
:100C300090078EF0900796E0FEA3E0FF90078AE011
:100C4000B50611A3E0B5070C90079CE04408F0E45A
:100C500090078EF0E59620E7FB75961190079CE0D3
:100C6000F59722C0E0C0F0C083C082C0D075D0002C
:100C7000C000C001C002C003C004C005C006C00758
:100C800090079DE596F0E59620E7FB75968EE59634
:100C900020E7FB90079EE597F0E59620E7FB759629
:100CA00086E59620E7FB900798E597F0E030E30BA8
:100CB000E59620E7FB75960B759707900798E0304F
:100CC000E203120003900798E030E014900786E0FA
:100CD000FF64046004EFB40607900791E04480F0DD
:100CE000E59620E7FB759682E59620E7FB9007984E
:100CF000E597F0E030E003120A4E900798E030E20A
:100D00002AE59620E7FB75960E759702E59620E793
:100D1000FB759691E59620E7FB900799E597F0E043
:100D200054037007900791E04402F0E59620E7FB3A
:100D3000759684E59620E7FB900798E597F0E030FC
:100D4000E229E59620E7FB75960E759702E5962059
:100D5000E7FB759694E59620E7FB900799E597F0F9
:100D6000E030E007900791E04404F0E59620E7FBCF
:100D700075960E90079EE0F597E59620E7FB9007A5
:100D80009DE596F0E59620E7FB900793E030E009BB
:100D9000900791E0600312148BD007D006D005D0E5
:100DA00004D003D002D001D000D0D0D082D083D0E4
:100DB000F0D0E0329004AAEEF0A3EFF09004AEEB96
:100DC000F0A3EAF0A3E9F0E4F525E52590140393F8
:100DD000FF74402525F582E43407F583EFF00525FF
:100DE000E525B412E5E4F525E52590141593FF7487
:100DF000522525F582E43407F583EFF00525E52536
:100E0000B420E59004AAE0F526A3E0F52790074872
:100E1000E527F0A3E526F08C268D27A3E527F0A390
:100E2000E526F090077274FFF0A37414F0A37435F4
:100E3000F09004AEE0F9A3E0FAA3E0900775C9F0E2
:100E4000A3EAF0A3E9F09004B1E0F9A3E0FAA3E08B
:100E5000900778C9F0A3EAF0A3E9F09004B4E0F9B0
:100E6000A3E0FAA3E090077BC9F0A3EAF0A3E9F0BE
:100E70009004B7E0FFC394FA500590075AEFF09042
:100E800004B8E0900759F09004B9E0FEA3E09007A1
:100E90004CF0EEA3F0E59620E7FB759601759708F8
:100EA000E59620E7FB75960775970FE59620E7FB1B
:100EB00075960975970EE59620E7FB75960B759765
:100EC0000775D7E0121503E4900792F0900791F0B0
:100ED000900793F0900786F043E602D2AFE59620A4
:100EE000E7FB75960175970122900794E0B4373CB3
:100EF000A3E0B40B3790078EE06404601012002E5C
:100F000090078E7401F0E490078AF0A3F090079B9D
:100F10007480F09007877401F0A37407F0A3749BAA
:100F2000F090078CE4F0A304F0020FEB900795E03B
:100F300020E003020FC2900793E030E00854FEF077
:100F40004402F08007900793E054FDF0E59620E717
:100F5000FB75960E759702E59620E7FB759614755E
:100F60009710E59620E7FB759611759708E5962092
:100F7000E7FB759694E59620E7FB90079BE597F0D5
:100F8000E020E4E9E59620E7FB759614759710E5F7
:100F90009620E7FB759691E59620E7FB90079BE589
:100FA00097F0E020E3E9E59620E7FB759611759749
:100FB000089007917408F0900793E0FF30E1034434
:100FC00001F0900794E0FCA3E0FD30E10D9007866E
:100FD0007406F0900791E04410F0ED30E20D9007B8
:100FE000867404F0900791E04420F0E59620E7FB3A
:100FF00075960EE4F59702002E8D31900786E0B4C9
:101000000606EDD3944040037F0022E59620E7FBDF
:1010100075960E759702E59620E7FB759694E59612
:1010200020E7FB90079AE597F0E020E0030210D458
:10103000E59620E7FB759696E59620E7FB900792EC
:10104000E597F0E0FFEDC39F5006AE05AF068000C8
:10105000900792EFF053E6FDE59620E7FB7596E2E8
:10106000900792E06052AF01AE02AD038F2D8E2C3F
:101070008D2B752A00E52B7014AF018F2EE596207D
:10108000E7FBA82EA697052ED531F2802BE52B2065
:10109000E723AE02AF018E2F8F30E59620E7FB8568
:1010A0003082852F83E597F00530E5307002052FFB
:1010B000D531E780037F0022E59620E7FBE4F59633
:1010C000E59620E7FB759614E4F59743E602900752
:1010D00092E0FF227F0022E49004BBF0900781E0C1
:1010E00024FE601B14603B24027072900787740119
:1010F000F0A37407F0A37440F0900740E080539091
:1011000007877401F0A37407F0A37452F090075599
:10111000E0FE900754E07C002400FFEC3E90078C3A
:101120008035900780E0FFD394034002802FEF7555
:10113000F003A42472F582E43407F583E0FBA3E016
:10114000FAA3E0F9900787EBF0A3EAF0A3E9F01225
:10115000080FFF90078CE4F0A3EFF080031214CD8A
:1011600090078CE0FEA3E0FF900796E0FCA3E0FD73
:10117000C39FEC9E500890078CECF0A3EDF0900715
:101180008EE06404601012002E90078E7401F0E46B
:1011900090078AF0A3F022E4F5D978FFF6D8FD9005
:1011A00000007E047F00F0A3DFFCDEFA75814502BB
:1011B00011ED022295E493A3F8E493A34003F68093
:1011C00001F208DFF48029E493A3F85407240CC843
:1011D000C333C4540F4420C8834004F456800146EE
:1011E000F6DFE4800B010204081020408090151AFD
:1011F000E47E019360BCA3FF543F30E509541FFE19
:10120000E493A360010ECF54C025E060A840B8E489
:1012100093A3FAE493A3F8E493A3C8C582C8CAC50C
:1012200083CAF0A3C8C582C8CAC583CADFE9DEE79E
:1012300080BE90077EE0247F600714600624027061
:1012400048802D90078FE0B40309900782E0B40234
:1012500002800E900790E0B40316900782E0B482FB
:101260000F90078774FFF0A37414F0A37439800DF6
:1012700090078774FFF0A37414F0A3743BF09007F9
:101280008CE4F0A37402F080031214CD90078EE07A
:101290006404601012002E90078E7401F0E4900731
:1012A0008AF0A3F022900780E07048900782E0FF68
:1012B000B4021DE59620E7FB75960E759702E5963C
:1012C00020E7FB759614759780E490078FF08026D1
:1012D000EFB4821DE59620E7FB75960E759702E543
:1012E0009620E7FB759611759740E4900790F08083
:1012F0000580001214CDE59620E7FB75960EE4F507
:101300009702002E900780E07047900782E0FFB4BC
:10131000021BE59620E7FB75960E759702E5962071
:10132000E7FB75961475972090078F801DEFB482A8
:101330001EE59620E7FB75960E759702E59620E769
:10134000FB7596117597109007907403F0800580D7
:10135000001214CDE59620E7FB75960EE4F5970292
:10136000002E900780E0D394004042900791E04423
:1013700040F09007867404F0E490078FF0A3F0E546
:101380009620E7FB75960E759702E59620E7FB75AC
:101390009612759784E59620E7FB759615759780EC
:1013A000E59620E7FB75960EE4F597800C9007868E
:1013B0007403F090078FF0A3F002002E900786E0F0
:1013C000FFB40414A374FFF0A37414F0A37439F0F1
:1013D00090078CE4F0A304F0EFB403169007877431
:1013E000FFF0A37414F0A3743BF090078CE4F0A317
:1013F00004F012002E90078E7401F0E490078AF03A
:10140000A3F0221201100100000040C410000000EF
:1014100000010203010902200001010080FA090411
:10142000000002FF0000000705020240000007055F
:1014300082024000000403090401000000900787B5
:1014400074FFF0A37414F0A3743BF090078CE4F0E5
:10145000A304F012002E90078E7401F0E490078A26
:10146000F0A3F022EFB40A07740D12146F740A305F
:101470009811A899B8130CC2983098FDA899C298F1
:10148000B811F63099FDC299F59922D007D007D04E
:1014900007D006D005D004D003D002D001D000D0B0
:1014A000D0D082D083D0F0D0E002008322E5962015
:1014B000E7FBE4F596900780E0FFF597EF9007864D
:1014C00060057403F080037402F002002EE596209C
:1014D000E7FB75960EE4F597E59620E7FB75961108
:1014E00075972090078E7404F022900793E04401D2
:1014F000F0900791E0600BE59620E7FB75960B7581
:10150000970F22E59620E7FB75960F759789229035
:101510000791E0F544E4F0AF4422C191C1120043C9
:101520007265614C696768747320496E632E0000B0
:101530005553422D436F6E766572746572000000DC
:101540000053696C6162732D43324164617074654C
:101550007200FF2211FF1FE6FF2253FF1FF1FF1849
:1015600063FF17F074FFF52AF52BE4FDFCD3900020
:1015700005E09D900004E09C4031E52AFF74082DB1
:10158000F58274003CF583E06F75F002A4240FF53A
:1015900082E5F03406F583E52BFEE4936EF52A74BC
:1015A0000193F52B0DBD00010C80C2AE2AAF2B229A
:1015B0003017091227131209DAC2172290000BE024
:1015C0002404FE90000AE03400900004F0A3CEF062
:1015D000B164900006EEF0A3EFF0C20812002A12E8
:1015E0002719900005E02408FD900004E03400FC79
:1015F0000200861227131209DA12271912278830DF
:10160000170B7BFF7A05795C120262C322C3E527C0
:101610009408E49400400E900000E064437004A33A
:10162000E0644C601A7BFF7A05796985272D90006C
:1016300000E0F52EA3E0F52F120262D217C322902C
:101640000002E07004A3E0640160137BFF7A057977
:1016500099120262900002E4F0A304F0C322E5278D
:1016600024F8F526E434FFF525E4F528F529D39090
:101670000005E09526900004E09525404774082574
:1016800026F974003525FA7B01122788E527702793
:101690007F01FEF10C0529E52970020528FFAE281F
:1016A000E4FCFD7B507AC3F9F8D312086B50BF7B82
:1016B000FF7A0579B18021E5272526F526E4352531
:1016C000F52580AA900004E065257004A3E0652656
:1016D000600E7BFF7A0579C512275F7401F0C32283
:1016E000D20812002AB164900006E06E7003A3E0F5
:1016F0006F600D7BFF7A0579DD12275F14F0C3223E
:10170000D322A2A0D29792007F017E008018EF1F03
:1017100070011E144E601400000000000000000064
:1017200000000000000000000080E3221226E770A5
:10173000057E01FF8004EBFF7E008E388F39C208E2
:1017400030977B30A078AF14121DF97F071225ACBB
:10175000122000EF20E0091225776004F10880F0E4
:101760001225917059E534FFF1C1AF351225A7124A
:101770002000EF20E0091225776004F10880F012C4
:101780002591703A1225D2700215384E6015053732
:10179000E537AE367002053614F5828E83E0FFF130
:1017A000C180E11225AF122000EF20E00912257759
:1017B0006004F10880F0121E86BF0D02D208A20854
:1017C000221224EE753E27753F10122000EF30E103
:1017D00011E53F153FAE3E7002153E4E6004F10824
:1017E00080E82230970320A002C3221226F1D322E0
:1017F000E4F50AF50BF508F50922121DF9021E861B
:10180000900008E0F525A3E0F5267403FFFEE4F55B
:1018100027E52725E025E024EBF582E43405F58370
:10182000740193B52622E493B5251DE52725E0250F
:10183000E024EDF582E43405F583E493FE7401932E
:10184000AA06F91208EB80090527E527C394094089
:10185000C0900008EEF0A3EFF0EE64037004A3F074
:10186000A3F022752401E50B850AF01208BE187A50
:1018700000001880013C000018AF750A01750B3C90
:10188000AE08AF09D3EF9400EE94004003D380017B
:10189000C340037F0022E5091509700215081215DF
:1018A000F3500211001215B0E4F508F50980CBE4FD
:1018B000F524F50AF50B7F0322EF30E2080509E570
:1018C0000970020508EF30E30A0509E50970020511
:1018D00008D21722C0E0C083C082C0D075D000C03B
:1018E0000712150F11B9D007D0D0D082D083D0E025
:1018F00032AD077B087801AF05EF08800123D8FDE2
:10190000FD139292000000000000000000000000A3
:10191000000012270A20820F1225D2700215384EBD
:10192000600512170880EE000000000000000000B3
:101930000000000000C28280001BEB70B8D2920051
:101940000000000000000000000000000012270A54
:1019500020820F1225D2700215384E60051217082A
:1019600080EEA292920A0000000000000000000039
:1019700000000000C2828000A20AB3228E2E8F2FA8
:101980008F828E83A31226858F828E83A3A3A3E0EA
:10199000F532A3E0F533C209719B4003A20922305E
:1019A000AF05C2AFD38001C39208E5314530701056
:1019B000E531453060024142E53345326002414243
:1019C000D2920000000000000000000000000000B3
:1019D00012273F20820F12276A700215364E6005CB
:1019E00012170880EE000000000000000000000058
:1019F000000000C292000000000000000000000093
:101A0000000000C282800012278054FEFF11F140C6
:101A10000241E8E4F534F535C3E5359531E5349513
:101A200030501F1227482535F582E5833534F5837C
:101A3000E0FF11F1400241E80535E535700205345B
:101A400080D6E5334532700241E6D29200000000B4
:101A50000000000000000000000012273F20820F5D
:101A600012276A700215364E600512170880EE00C4
:101A700000000000000000000000000000C2920012
:101A800000000000000000000000000000C2828092
:101A9000001227804401FF11F1504DE4F534F53573
:101AA000C3E5359533E5349532503BE53324FFFFEC
:101AB000E53234FFFEEFB53507EEB53403D38001D0
:101AC000C3920A916DE5312535FDE5303534FC12C0
:101AD00027482DF582E5833CF583EFF00535E535A4
:101AE0007002053480BAD209C292000000000000E2
:101AF000000000000000000012273F20820F122784
:101B00006A700215364E600512170880EE0000005C
:101B10000000000000000000000000D292A2089225
:101B2000AFA20922752C00752D0C122728E0FEA308
:101B3000E0FF2405FDE43EFC90000AE0B50424A388
:101B4000E0B5051F122728A3A3E0FCA3E0FDEF2DBD
:101B5000FFEE3CFEE4FCFD7B337A04F9F8C3120887
:101B60006B50057E037F0422AF2DAE2C317C5026B6
:101B7000122728E0FEA3E02405FFE43EFE122728FA
:101B8000A3A3E0FCA3E02FFFEC3E90000AF0A3EF3C
:101B9000F07E017F40227E037F402230820530921A
:101BA00002D322208202816B309202816B75380948
:101BB0000000000000000000000000000000C282E1
:101BC0008000000000000000000000000000000095
:101BD00012275620820F122771700215394E6005A8
:101BE00012170880EED538C8209202816BD292007D
:101BF0000000000000000000000000000012275656
:101C000020820F122771700215394E6005121708D5
:101C100080EE000000000000000000000000000056
:101C2000C292000000000000000000000000000060
:101C3000C2828000C292000000000000000000008C
:101C40000000000012275620820F12277170021523
:101C5000394E600512170880EE00000000000000F9
:101C600000000000000000D292D322C322E4FD7CD9
:101C7000080000000000000000000000000000124A
:101C8000270A20820F1225D2700215384E600512E5
:101C9000170880EEED25E0FDA292E4334205000036
:101CA000000000000000000000000000C282800070
:101CB0001CEC70BDA20A929200000000000000001F
:101CC00000000000000012270A20820F1225D270A7
:101CD0000215384E600512170880EE000000000063
:101CE000000000000000000000C2828000D292AF1D
:101CF00005220000000000000000000000000000BD
:101D0000D282752C01752DF4208212E52D152DAE91
:101D10002C7002152C4E600512170880EBD292121F
:101D200027207E017F40221227207E017F40221241
:101D300027201217E37E0350027E017F4022B15418
:101D400090000C1208B290000AE4F0A37404F07E34
:101D5000017F402274FFF52FF52EF52DF52C2097ED
:101D600002A1F020A002A1F01226F17F02B1F91227
:101D700024EE7F041224EE7F011224EE7F147E00F5
:101D8000122477E4FF1217FA8F2C7F011217FA8FB3
:101D90002DE52CF4605A7514B41227781217C1D1AE
:101DA00068EF640D60217514AD1227781227301288
:101DB0002000EF20E00C783012257960051217081A
:101DC00080ED1225917029D1688F2EAF14B1F97F63
:101DD00001122730122000EF20E00C783012257914
:101DE000600512170880EDD186BF0D04D1688F2FD2
:101DF000AF2FAE2EAD2DAC2C22D213D2148F2030AB
:101E0000AF05C2AFD38001C31225980000000012B5
:101E100025EC000000001225D9000000001226DE8B
:101E2000000000001226D5000000001226CC0000A1
:101E300000001226C3000000001226BA00000000B5
:101E40001226B1000000001226A800000000122691
:101E50009F00000000D297D2A053A6FE1225A0003A
:101E6000000000D29702261EE4754110754027F548
:101E70003FF53E122000EF20E00C783E12257960FD
:101E80000512170880EDC213C214C215C21630AF76
:101E900005C2AFD38001C3122598000000001225AF
:101EA000EC000000001225D9000000001226960068
:101EB00000000012268D000000001225E200D297DB
:101EC00000007542277543100000C29700001217EA
:101ED0000220000DE5431543AE42700215424E70DC
:101EE000E70000C2970000A2A0D29792000000C2B3
:101EF000970000A2A0D29792010000C2970000A212
:101F0000A0D29792020000C2970000A2A0D297929E
:101F1000030000C2970000A2A0D29792040000C262
:101F2000970000A2A0D29792050000C2970000A2DD
:101F3000A0D29792060000C2970000122615AF208B
:101F400022AB07C20830976B30A068AF14B1F97F9D
:101F500008122606122000EF20E00C782C122579BA
:101F6000600512170880ED1225917047AF03122605
:101F700006122000EF20E00C782C12257960051263
:101F8000170880ED122591702AE4FF1217C1E4753D
:101F90002F40752E9CF52DF52C122000EF20E00C23
:101FA000782C122579600512170880EDD186BF0DB7
:101FB00002D208A208221227201220867E03500295
:101FC0007E017F402290000AE07004A3E06401607B
:101FD000057E037F042290000CE0FFF1417E035058
:101FE000027E017F4022E4F510F511122351020117
:0C1FF000DDE4F512F51322D2AF0214EA72
:10200000C213D21430AF05C2AFD38001C3122598DA
:1020100000000000B1EC00000000B1D90000000099
:10202000B1E200D29700000000C2970000A2A0D247
:102030009792000000C2970000A2A0D297920100E0
:1020400000C2970000A2A0D29792020000C297009F
:1020500000A2A0D29792030000C2970000A2A0D2D3
:102060009792040000C2970000A2A0D297920500A8
:1020700000C2970000A2A0D29792060000C297006B
:1020800000D115AF2022C20830975530A052AF14AE
:10209000121DF97F03D1061100EF20E00B782CB15F
:1020A00079600512170880EFB19170347FDE121746
:1020B000C17FAD1217C17FA51217C1752F00752EF4
:1020C0002D752D31752C011100EF20E00B782CB10E
:1020D00079600512170880EF121E86BF0D02D20824
:1020E000A20822D1E770057E01FF8004EBFF7E008D
:1020F0008E388F39C20830975F30A05CAF14121D44
:10210000F97F06B1AC1100EF20E009B1776005124C
:10211000170880F1B1917040E536FF1217C1AF3753
:10212000B1A71100EF20E009B17760051217088010
:10213000F1121E86BF0D21B1D2700215384E601605
:10214000121E680535E535AC347002053414F5828D
:102150008C83EFF080E1D208A20822D16190000ABE
:10216000E07004A3E06406700BD3E5319432E530EF
:10217000940440057E037F0422E531240690000B81
:10218000F0E4353090000AF0E5314530602CC3E5CD
:102190003094015006AE30AF3180047E017F008E56
:1021A000328F33AB33AD2FAC2EAF2DAE2C11E340BD
:1021B000057E037F4022D13B80CE7E017F4022D12D
:1021C000612406FFE43530FE90000AE06E7003A340
:1021D000E06F60057E037F0422E5314530602DC34A
:1021E000E53094015006AE30AF3180047E017F00AF
:1021F0008E328F33AB33AD2DAC2CAF2FAE2E1217EA
:102200002C40057E037F4022D13B80CD7E017F4064
:1022100022752401E5107031E51124CF60192431B5
:102220007027120042E50F2432B1F89004BC120866
:10223000B2751000751131009004BCB1BB7F005025
:10224000027F01EF60DC7F0022E4F524F510F51138
:102250007F0322752401E5127031E51324C860194B
:102260002438702763A008E50F2464B1F89004C0F7
:102270001208B2751200751338009004C0B1BB7F0C
:102280000050027F01EF60DC7F0022E4F524F512AC
:10229000F5137F032251C751B2121FF7E4F523E56E
:1022A0002375F006A42452F582E43415D12640EFBC
:1022B00080EAE4F523E52375F006A42455F582E4CD
:1022C0003415D12640EF22E4F5A8F5E675B283E592
:1022D000B2C4131354031350F675B9807F057E0002
:1022E00012170C43B9C0E5B9C41354071350F7755E
:1022F000A90275B680711E438E08E589540F4420EB
:10230000F589758D98D28EAFD4EF54EFFF8FD4AF8F
:10231000D4EF54DFFF8FD443E1017598022275801A
:10232000BF7590F675A0FF75B0FF75F17F75F2FF70
:1023300075F3FB75F4FE75A44A75A55875A60AE4F5
:10234000F5A775D4FF75D5FF75D6FFF5E175E240A9
:1023500022438E10E4F5C875CA4075CC4075CBA2F7
:1023600075CDA2C2CFD2CAC2BDD2ADF50FF50EF562
:102370000DF50C718053A57F53A6FED297D2A022F3
:102380009004457403F07F02EFC394225029EFC3F9
:102390001390151EB18A401FE524947F5019744490
:1023A0002FF582E43404F583E524F074452FF5829B
:1023B000E43404B18380D1900444EFF09004677456
:1023C00003F07F02EFC394225029EFC31390152F1F
:1023D000B18A401FE524947F501974662FF582E47A
:1023E0003404F583E524F074672FF582E43404B1F6
:1023F0008380D1900466EFF09004897403F07F022B
:10240000EFC394225029EFC313901540B18A401FA7
:10241000E524947F501974882FF582E43404F58301
:10242000E524F074892FF582E43404B18380D190DF
:102430000488EFF043F6021200469004B17401F0F4
:10244000A37404F0A37466F0A37401F0A37404F001
:10245000A37488F0A374FAF0A37480F0A37401F05D
:10246000A3E4F07B017A0479447D617CEA7FC47E39
:1024700010120DB4C2AF228F828E8330AF22EF25AF
:102480000FF537EE350EF536E4350DF535E4350C40
:10249000F534AF37AE36AD35AC34B1C6501880F236
:1024A000E5821582AE83700215834E60097FE87E57
:1024B0000312170C80EA22C0E0C0D075D000C0041F
:1024C000C005C006C007C2CFAF0FAE0EAD0DAC0C3D
:1024D000EF2401F50FE43EF50EE43DF50DE43CF587
:1024E0000CD007D006D005D004D0D0D0E032D21323
:1024F000C214C215C2168F2030AF05C2AFD38001FF
:10250000C3B19800000000B1EC00000000B1D90098
:10251000000000D19600000000D18D00000000D125
:10252000DE00000000D1D500000000D1CC0000008A
:1025300000D1C300000000D1BA00000000D1B100FA
:10254000000000D1A800000000D19F00000000B1F1
:10255000E200D29700007540277541100000C29735
:10256000000012170220000DE5411541AE40700237
:1025700015404E70E7C11B783A74FF120894EC4D79
:102580004E4F22F583E4F00F0F2293F524C39420DD
:1025900022121E86EF640D22920953A6FE43A580E7
:1025A000A21192A0C297221217C1AF031217C1E461
:1025B000753D10753C27F53BF53A22E0FCA3E0FDA4
:1025C000A3E0FEA3E0FFAB0FAA0EA90DA80CC30267
:1025D0000881E5391539AE3822D297A21492A0C2EB
:1025E0009722D29753A6FED2A0C29722D29743A693
:1025F00001A21392A0C29722FFE4350EFEE4350D2E
:10260000FDE4350CFC221217C1E4752F10752E273E
:10261000F52DF52C22A2A0D297920753A6FE53A522
:102620007FA20992AF22F583740193FA740293F9A1
:102630001208EB0523E523C3940322E533252DF58A
:102640002DE532352CF52CE533252FF52FE53235E8
:102650002EF52EC3E5319533F531E5309532F53061
:10266000227B0C7A00EB2406F52DE43AF52C8B82C4
:102670008A83A3A3E0FEA3E08E2EF52FEB2404F5BE
:1026800082E43AF583E0F530A3E0F53122D297A257
:102690001692A0C29722D297A21592A0C29722D2D8
:1026A00097A20792A0C29722D297A20692A0C297A1
:1026B00022D297A20592A0C29722D297A20492A0FA
:1026C000C29722D297A20392A0C29722D297A202C7
:1026D00092A0C29722D297A20192A0C29722D2972B
:1026E000A20092A0C297228E348F358C368D37EBA4
:1026F0002243A580C2977F147E0012170CD2977FC9
:10270000027E0012170C53A57F22D2827538017504
:1027100039F4227E047F447D007B017A0079002217
:10272000E490000AF0A3F022852D82852C83A32259
:102730001217C1E4753310753227F531F53022D206
:10274000827536017537F422E52F2405F582E435CC
:102750002EF583E58222D282753901753AF4221270
:1027600002629000087403F0A322E5371537AE36F5
:1027700022E53A153AAE3922AF14121DF97F022232
:10278000852F82852E83E0227D40120FF98F27222C
:00000001FF
