:100000000214139007867402F0E59620E7FB7596BC
:1000100001759701E490078EF0A37403F0A3F0E458
:10002000900792F090079104F022220219C29007E3
:100030008EE06404600BE59620E7FB7596117597DA
:10004000402222020C27E4F524E5B964E0602E5337
:10005000A90F85A92543B280E5A95407D39401408F
:1000600003E4F5A9E4F5B943B980D524FD43B9C04B
:10007000E5B930E5FBE525B4020343A90253A90F16
:01008000225D
:100083000219F98B248A2589268C278D28E4F529E2
:10009300F52AF530900786E0B40611E52845276078
:1000A3000BD3E5289400E52794104004E4FEFF22D7
:1000B30053E6FDAB24AA25A926AF01AE02AD038FFB
:1000C3002E8E2D8D2C752B00E53030E0030201D5EB
:1000D300E59620E7FB75960E759702E59620E7FBFC
:1000E300759691E59620E7FB859730E53030E01D66
:1000F300E59620E7FB75960EE4F597E59620E7FB7A
:10010300759691E59620E7FB85973080BBD3E5286C
:100113009440E52794004005752F40800385282FE0
:10012300E59620E7FB759622E52F6057E52C7019BD
:10013300E526252AF9E5253529A801E59620E7FBDB
:10014300E6F59708D52FF4803AE52C20E71BE52642
:10015300252AF9E52535298982F583E59620E7FBEC
:10016300E0F597A3D52FF4801AE526252AF9E5258E
:1001730035298982F583E59620E7FBE493F597A378
:10018300D52FF3C3E5289440E5279400401F74401E
:10019300252AF52AE43529F52974C02528F528747C
:1001A300FF3527F527E4F530752F408017E528251F
:1001B3002AF52AE5273529F52975300185282FE405
:1001C300F527F528E59620E7FB759611759701024B
:0C01D30000CB43E602AE29AF2A22014215
:1001E00046333231424F4F540510FFFF00000001EB
:1001F00000000000000000000000000000000000FF
:10020000E538242CF8E60538227829300702782CC6
:10021000E475F0011209DC0207F32000EB7F2ED217
:10022000008018EF540F2490D43440D4FF30040BD6
:10023000EF24BFB41A0050032461FFE539600215B2
:1002400039053CE53C7002053B30070D7829E47523
:10025000F0011209DCEF0209CA02138D7403D20700
:100260008003E4C207F5388B298A2A892BE4F53903
:10027000F53BF53CE53960077F2012023B80F575C0
:100280003AFFC201C200C202C203C205C206C208CE
:10029000120209FF700D3007057F0012024CAF3CBF
:1002A000AE3B22B4255FC2D5C204120209FF24D09E
:1002B000B40A00501A75F00A783930D50508B6FF2F
:1002C0000106C6A426F620D5047002D20380D924E4
:1002D000CFB41A00EF5004C2E5D20402044CD2019C
:1002E00080C6D20080C0D20280BCD2D580BAD205EE
:1002F00080B47F2012023B2002077401B539004010
:10030000F1120200FF12023B020274D208D20680F0
:1003100095120200FB120200FA120200F94A4B7019
:1003200006791D7A057BFF20022EE539602A7E00C2
:100330008E8275830012080C60060EEE653A70F02E
:10034000C2D5EBC0E0EAC0E0E9C0E0EE120493D011
:10035000E0F9D0E0FAD0E0FB1207F3FF60AAEBC0AF
:10036000E0EAC0E0E9C0E012023BD0E02401F9D0AD
:10037000E03400FAD0E0FBE53A0460DCD53AD980FD
:10038000877BFF7A04798FD202809C791080027972
:1003900008C206C2088008D2D5790A8004790AC248
:1003A000D5E53A047002F53AE4FAFDFEFF120200C8
:1003B000FC7B08200113120200FD7B1030000A12A2
:1003C0000200FE120200FF7B20EC3382D592D55052
:1003D00013C3E43000069FFFE49EFEE42001039D6A
:1003E000FDE49CFCE4CBF8C201EC700CCFCECDCC8C
:1003F000E824F8F870F38017C3EF33FFEE33FEED17
:1004000033FDEC33FCEB33FB994002FB0FD8E9EBF7
:10041000300105F8D0E0C448B201C0E00AEC4D4E0E
:100420004F78207B0070C2EAB53A0040BCC0E012B1
:100430000495D0F0D0E0200104C4C0E0C4B201C0F3
:10044000F0120224D0F0D5F0EB0202741209EC0392
:100450001153038B5802E24C02DE42038F4F039785
:100460004403974902F743039D55038146038145A1
:10047000038147053D5002E62D02EA2E030D2B02B3
:10048000EE23030B2005262A02A648000003053FA1
:100490003F3F00790AA2D5200314300509B91002A4
:1004A0000404B9080104A2D5200602500104200268
:1004B000689202B539005034C0E07F203003197FC4
:1004C00030A20272067205500F1204ECC202C2067C
:1004D000C205C2087F30800F300503E9C0E0120278
:1004E0003B300503D0E0F9D0E0B539CC3005177FBB
:1004F00030B9100C12023B7F583004077F7880031C
:10050000B9080312023B3002057F2D02023B7F2017
:100510002008F87F2B2006F322920280CF286E75E8
:100520006C6C2900D2011202003001F8C201783946
:1005300030D50108F60202A62D5043495812020098
:100540002403B405004001E49005389312022C7492
:100550003A12022CD20375390402038B666C757350
:1005600068204649464F210A00696E76616C6964CD
:10057000206672616D65212028626C6F636B4C652B
:100580006E3D252E3262582C206D616769634E6F77
:100590003D252E346858290A00696E76616C6964BD
:1005A000206672616D652076657273696F6E210ACF
:1005B000007278207061636B65742074696D656F7B
:1005C0007574210A00696E76616C696420706163DC
:1005D0006B6574206C656E677468210A00696E76BD
:1005E000616C696420435243210A00000018000036
:1005F00010180C000011892312329B462457AD6558
:100600003674BF8C489DC1AF5ABED3CA6CDBE5E9D6
:100610007EF8F7091918902A0B3B824F3D5EB46CA7
:100620002F7DA6855194D8A643B7CAC375D2FCE0E6
:1006300067F1EE123203BB312020A95416459F7793
:1006400004668D9E7A8FF3BD68ACE1D85EC9D7FB96
:100650004CEAC51B2B0AA2383929B05D0F4C867EA7
:100660001D6F94976386EAB471A5F8D147C0CEF2A6
:1006700055E3DC246435ED077616FF624073C9410B
:100680005250DBA82CB9A58B3E9AB7EE08FF81CD5E
:100690001ADC932D7D3CF40E6F1FE66B597AD0481F
:1006A0004B59C2A135B0BC822793AEE711F698C46E
:1006B00003D58A365627DF154404CD707261FB538B
:1006C0006042E9BA1EAB97990C8885FC3AEDB3DF1E
:1006D00028CEA13F4F2EC61C5D0DD4796B68E25A1F
:1006E000794BF0B307A28E9015819CF523E4AAD62E
:1006F00031C7B848C859416BDA7A530EEC1F652DE3
:10070000FE3C77C480D509E792F61B82A4932DA105
:10071000B6B03F41D1505862C3734A07F5167C24E6
:10072000E7356ECD99DC10EE8BFF028BBD9A34A8B5
:10073000AFB9265AFA4B7379E868611CDE0D573F52
:10074000CC2E45D6B2C73BF5A0E4299096811FB3C5
:1007500084A20D53E3426A70F1617815C7044E36E6
:10076000D5275CDFABCE22FCB9ED30998F8806BA75
:100770009DAB146CAC7D254FBE5E372A883B0109CA
:100780009A1813E0E4F16DC3F6D27FA6C0B749858D
:10079000D2945B65B5743C46A7572E23913218005E
:1007A00083110AE9FDF874CAEFDB66AFD9BE508C3D
:1007B000CB9D427E9E6F175D8C4C0538BA29331B4A
:1007C000A80A21F2D6E35FD1C4C04DB4F2A57B974D
:1007D000E086697787660E5495451C31A3202A125E
:1007E000B10338FBCFEA46D8DDC954BDEBAC629EFD
:1007F000F98F70BB010689828A83E0225002E722CA
:10080000BBFE02E32289828A83E49322BB010CE5CA
:100810008229F582E5833AF583E0225006E92582B4
:10082000F8E622BBFE06E92582F8E222E58229F5F8
:1008300082E5833AF583E49322C5F0F8A3E028F03B
:10084000C5F0F8E582158270021583E038F022EBDE
:100850009FF5F0EA9E42F0E99D42F0EC6480C864A6
:10086000809845F022EB9FF5F0EA9E42F0E99D4228
:10087000F0E89C45F022ECF0A3EDF0A3EEF0A3EF3E
:10088000F022D083D082F8E4937012740193700D3B
:10089000A3A393F8740193F5828883E4737402939D
:1008A000B5F0067403936860E9A3A3A3A380D88A74
:1008B000838982E473E709F60870FA8046E709F253
:1008C0000870FA803E88828C83E709F0A370FA8072
:1008D0007EE309F60870FA8076E309F20870FA8080
:1008E0006E88828C83E309F0A370FA806289828A21
:1008F00083E0A3F60870FA805689828A83E0A3F227
:100900000870FA804A80D280FA80C680D4806580E0
:10091000F28031801080A680EA809A80A880DA80F8
:10092000E280CA803189828A83ECFAE493A3C8C545
:1009300082C8CCC583CCF0A3C8C582C8CCC583CC43
:1009400070E9800D89828A83E493A3F60870F9EC3C
:10095000FAA9F0EDFB2289828A83ECFAE0A3C8C5EC
:1009600082C8CCC583CCF0A3C8C582C8CCC583CC13
:1009700070EA80DD89828A83E493A3F20870F980AB
:10098000CE88F0ED2402B4040050C4F582EB2402BA
:10099000B4040050BA232345822390090573EF4E17
:1009A0006012EF60010EEDBB010B89828A83F0A318
:1009B000DFFCDEFA2289F05007F709DFFCA9F022FC
:1009C000BBFEFCF309DFFCA9F022BB010689828A89
:1009D00083F0225002F722BBFE01F322FAE6FB0865
:1009E00008E6F925F0F618E6CA3AF622D083D08256
:1009F000F8E4937012740193700DA3A393F874013B
:100A000093F5828883E4737402936860EFA3A3A3D1
:100A100080DFE59620E7FB75960EE4F597E59620D6
:100A2000E7FB759691E59620E7FB90079CE597F02C
:100A3000E0FF30E210E59620E7FB759611E4F597AC
:100A400090078EF022EF30E410E59620E7FB7596D4
:100A500011759780E490078EF090078EE060030296
:100A60000B3E90079CE020E003020B3E759620436E
:100A700096C0E4F53EE59620E7FB747E253EF582C0
:100A8000E43407F583E597F0053EE53EB407E6E577
:100A90009620E7FBE4F596747E253EF582E4340764
:100AA000F583E597F0900781E0FE900780E07C00F9
:100AB0002400FFEC3E900794F0A3EFF0900785E050
:100AC000FE900784E02400FFEC3E900796F0A3EF31
:100AD000F090077FE004603B14B40C00505D900A76
:100AE000E5F8282873020B09020B0E020B13020B08
:100AF00018020B3B020B1D020B22020B3B020B27C1
:100B0000020B2C020B31020B3612115B80301211DA
:100B1000CE802B120EAD802612122D80211213D6FC
:100B2000801C12109B80171212E5801212128B800B
:100B30000D121366800812002E80031213F6900720
:100B40008EE064016003020C2690079C7402F0C3DF
:100B500090078DE0944090078CE094004055E59616
:100B600020E7FB759620E4F53E900787E0FBA3E0C5
:100B7000FAA3E0F9853E8275830012080CF597E52B
:100B80009620E7FB053EE53EB440DE900788E4751D
:100B9000F04012083990078DE024C0F090078CE0F7
:100BA00034FFF090078BE02440F090078AE0340097
:100BB000F08045E59620E7FB759620E4F53ED3905E
:100BC000078DE0953E90078CE09400401F900787CA
:100BD000E0FBA3E0FAA3E0F9853E827583001208EA
:100BE0000CF597E59620E7FB053E80D290079CE048
:100BF0004408F0E490078EF0900796E0FEA3E0FF33
:100C000090078AE0B50611A3E0B5070C90079CE0B9
:100C10004408F0E490078EF0E59620E7FB75961106
:100C200090079CE0F59722C0E0C0F0C083C082C06E
:100C3000D075D000C000C001C002C003C004C00510
:100C4000C006C00790079DE596F0E59620E7FB7586
:100C5000968EE59620E7FB90079EE597F0E59620B7
:100C6000E7FB759686E59620E7FB900798E597F0F9
:100C7000E030E30BE59620E7FB75960B7597079040
:100C80000798E030E203120003900798E030E01488
:100C9000900786E0FF64046004EFB40607900791B4
:100CA000E04480F0E59620E7FB759682E59620E724
:100CB000FB900798E597F0E030E003120A129007E6
:100CC00098E030E22AE59620E7FB75960E759702CC
:100CD000E59620E7FB759691E59620E7FB9007994E
:100CE000E597F0E054037007900791E04402F0E5C7
:100CF0009620E7FB759684E59620E7FB900798E53C
:100D000097F0E030E229E59620E7FB75960E75979F
:100D100002E59620E7FB759694E59620E7FB9007A1
:100D200099E597F0E030E007900791E04404F0E5A2
:100D30009620E7FB75960E90079EE0F597E59620C6
:100D4000E7FB90079DE596F0E59620E7FB9007937B
:100D5000E030E009900791E060031213B4D007D0AF
:100D600006D005D004D003D002D001D000D0D0D01E
:100D700082D083D0F0D0E0329004AAEEF0A3EFF05E
:100D80009004AEEBF0A3EAF0A3E9F0E4F524E52447
:100D900090132C93FF74402524F582E43407F583E7
:100DA000EFF00524E524B412E5E4F524E5249013DE
:100DB0003E93FF74522524F582E43407F583EFF067
:100DC0000524E524B420E59004AAE0F525A3E0F588
:100DD00026900748E526F0A3E525F08C258D26A36F
:100DE000E526F0A3E525F090077274FFF0A37413D5
:100DF000F0A3745EF09004AEE0F9A3E0FAA3E090F3
:100E00000775C9F0A3EAF0A3E9F09004B1E0F9A3F3
:100E1000E0FAA3E0900778C9F0A3EAF0A3E9F09024
:100E200004B4E0F9A3E0FAA3E090077BC9F0A3EAD9
:100E3000F0A3E9F09004B7E0FFC394FA50059007DF
:100E40005AEFF09004B8E0900759F09004B9E0FE32
:100E5000A3E090074CF0EEA3F0E59620E7FB759633
:100E600001759708E59620E7FB75960775970FE5DE
:100E70009620E7FB75960975970EE59620E7FB75BA
:100E8000960B75970775D7E0121447E4900792F018
:100E9000900791F0900793F0900786F043E602D216
:100EA000AFE59620E7FB75960175970122900794B0
:100EB000E0B4373CA3E0B40B3790078EE0640460E5
:100EC0001012002E90078E7401F0E490078AF0A3B0
:100ED000F090079B7480F09007877401F0A374076B
:100EE000F0A3749BF090078CE4F0A304F0020FAF22
:100EF000900795E020E003020F86900793E030E032
:100F00000854FEF04402F08007900793E054FDF08F
:100F1000E59620E7FB75960E759702E59620E7FBB0
:100F2000759614759710E59620E7FB7596117597E1
:100F300008E59620E7FB759694E59620E7FB900779
:100F40009BE597F0E020E4E9E59620E7FB75961431
:100F5000759710E59620E7FB759691E59620E7FBDF
:100F600090079BE597F0E020E3E9E59620E7FB7525
:100F700096117597089007917408F0900793E0FF19
:100F800030E1034401F0900794E0FCA3E0FD30E180
:100F90000D9007867406F0900791E04410F0ED3054
:100FA000E20D9007867404F0900791E04420F0E58C
:100FB0009620E7FB75960EE4F59702002E8D309093
:100FC0000786E0B40606EDD3944040037F0022E597
:100FD0009620E7FB75960E759702E59620E7FB7560
:100FE0009694E59620E7FB90079AE597F0E020E0DD
:100FF00003021098E59620E7FB759696E59620E7A4
:10100000FB900792E597F0E0FFEDC39F5006AE0519
:10101000AF068000900792EFF053E6FDE59620E7DB
:10102000FB7596E2900792E06052AF01AE02AD030D
:101030008F2C8E2B8D2A752900E52A7014AF018F15
:101040002DE59620E7FBA82DA697052DD530F2803B
:101050002BE52A20E723AE02AF018E2E8F2FE596D7
:1010600020E7FB852F82852E83E597F0052FE52F5E
:101070007002052ED530E780037F0022E59620E739
:10108000FBE4F596E59620E7FB759614E4F59743A7
:10109000E602900792E0FF227F0022E49004BBF07A
:1010A000900781E024FE601B14603B240270729064
:1010B00007877401F0A37407F0A37440F090074011
:1010C000E080539007877401F0A37407F0A3745273
:1010D000F0900755E0FE900754E07C002400FFEC00
:1010E0003E90078C8035900780E0FFD39403400248
:1010F000802FEF75F003A42472F582E43407F583A2
:10110000E0FBA3E0FAA3E0F9900787EBF0A3EAF095
:10111000A3E9F01207F3FF90078CE4F0A3EFF0804F
:10112000031213F690078CE0FEA3E0FF900796E011
:10113000FCA3E0FDC39FEC9E500890078CECF0A34D
:10114000EDF090078EE06404601012002E90078E80
:101150007401F0E490078AF0A3F02290077EE02467
:101160007F600714600624027048802D90078FE08E
:10117000B40309900782E0B40202800E900790E069
:10118000B40316900782E0B4820F90078774FFF0D3
:10119000A37413F0A37462800D90078774FFF0A30B
:1011A0007413F0A37464F090078CE4F0A37402F05D
:1011B00080031213F690078EE06404601012002E74
:1011C00090078E7401F0E490078AF0A3F022900754
:1011D00080E07048900782E0FFB4021DE59620E7AA
:1011E000FB75960E759702E59620E7FB75961475CC
:1011F0009780E490078FF08026EFB4821DE596205B
:10120000E7FB75960E759702E59620E7FB7596113C
:10121000759740E4900790F0800580001213F6E582
:101220009620E7FB75960EE4F59702002E90078056
:10123000E07047900782E0FFB4021BE59620E7FBD1
:1012400075960E759702E59620E7FB7596147597CF
:101250002090078F801DEFB4821EE59620E7FB7576
:10126000960E759702E59620E7FB75961175971017
:101270009007907403F0800580001213F6E5962025
:10128000E7FB75960EE4F59702002E900780E0D3F9
:1012900094004042900791E04440F0900786740427
:1012A000F0E490078FF0A3F0E59620E7FB75960E2B
:1012B000759702E59620E7FB759612759784E5967B
:1012C00020E7FB759615759780E59620E7FB7596E8
:1012D0000EE4F597800C9007867403F090078FF06A
:1012E000A3F002002E900786E0FFB40414A374FF5D
:1012F000F0A37413F0A37462F090078CE4F0A304DD
:10130000F0EFB4031690078774FFF0A37413F0A3F3
:101310007464F090078CE4F0A304F012002E9007A0
:101320008E7401F0E490078AF0A3F02212011001FC
:1013300000000040C4100000000001020301090287
:10134000200001010080FA0904000002FF000000F3
:101350000705020240000007058202400000040366
:1013600009040100000090078774FFF0A37413F0D4
:10137000A37464F090078CE4F0A304F012002E90A4
:10138000078E7401F0E490078AF0A3F022EFB40A0C
:1013900007740D121398740A309811A899B8130C99
:1013A000C2983098FDA899C298B811F63099FDC23C
:1013B00099F59922D007D007D007D006D005D004E0
:1013C000D003D002D001D000D0D0D082D083D0F0D2
:1013D000D0E002008322E59620E7FBE4F596900733
:1013E00080E0FFF597EF90078660057403F08003B7
:1013F0007402F002002EE59620E7FB75960EE4F5E8
:1014000097E59620E7FB75961175972090078E74E7
:1014100004F022E4F5D978FFF6D8FD9000007E04B0
:101420007F00F0A3DFFCDEFA75813E02176E9007A5
:1014300093E04401F0900791E0600BE59620E7FB14
:1014400075960B75970F22E59620E7FB75960F753D
:10145000978922900791E0F53DE4F0AF3D22437279
:1014600065614C696768747320496E632E0000558E
:1014700053422D436F6E76657274657200000000F2
:1014800053696C6162732D4332416461707465729B
:1014900000FF1815FF1857FF1861FF19BCFF16A4AD
:1014A000FF17F374FFF529F52AE4FDFCD39000053E
:1014B000E09D900004E09C4031E529FF74082DF583
:1014C0008274003CF583E06F75F002A424F3F5828A
:1014D000E5F03405F583E52AFEE4936EF529740101
:1014E00093F52A0DBD00010C80C2AE29AF2A22302F
:1014F0000909121A5F12099EC2092290000BE0240A
:1015000004FE90000AE03400900004F0A3CEF091B5
:10151000A3900006EEF0A3EFF0C20012002A121A08
:1015200065900005E02408FD900004E03400FC0212
:101530000086121A5F12099E121A65121A77300974
:101540000B7BFF7A05795C120262C322C3E5269405
:1015500008E49400400E900000E064437004A3E0AF
:10156000644C601A7BFF7A05796985262C9000000F
:10157000E0F52DA3E0F52E120262D209C3229000FD
:1015800002E07004A3E0640160137BFF7A0579999F
:10159000120262900002E4F0A304F0C322E52624C4
:1015A000F8F525E434FFF524E4F527F528D3900079
:1015B00005E09525900004E0952440477408252512
:1015C000F974003524FA7B01121A77E52670277F1B
:1015D00001FED1F80528E52870020527FFAE27E4B3
:1015E000FCFD7B507AC3F9F8D312084F50BF7BFF44
:1015F0007A0579B18021E5262525F525E43524F500
:101600002480AA900004E065247004A3E0652560AE
:101610000E7BFF7A0579C5121A6C7401F0C322D2D1
:101620000012002A91A3900006E06E7003A3E06F01
:10163000600D7BFF7A0579DD121A6C14F0C322D39A
:1016400022900008E0F524A3E0F5257403FFFEE4F2
:10165000F526E52625E025E024EBF582E43405F5C2
:1016600083740193B52522E493B5241DE52625E076
:1016700025E024EDF582E43405F583E493FE74015E
:1016800093AA06F91208AF80090526E526C394023D
:1016900040C0900008EEF0A3EFF0EE64037004A3E6
:1016A000F0A3F022752301E50B850AF012088216DB
:1016B000BB000016C1013C000016EE750A01750B57
:1016C0003CAE08AF09D3EF9400EE94004003D38002
:1016D00001C340037F0022E509150970021508B116
:1016E000325002D14191EFE4F508F50980CDE4F5DF
:1016F00023F50AF50B7F03228018EF1F70011E14DB
:101700004E60140000000000000000000000000017
:10171000000000000080E322E4F5A8F5E675B2833E
:10172000E5B2C4131354031350F675B9807F057ED8
:1017300000D1F843B9C0E5B9C41354071350F77585
:10174000A90275B680F1A5438E08E589540F44209F
:10175000F589758D98D28EAFD4EF54EFFF8FD4AF4B
:10176000D4EF54DFFF8FD443E10175980222F118C2
:10177000F18BF1A1E4F522E52275F006A42491F5A0
:1017800082E43414121A4A40EE80E9E4F522E5229C
:1017900075F006A42494F582E43414121A4A40EE3B
:1017A00022D2AF812E7580BF7590F675A0FF75B0FF
:1017B000FF75F17F75F2FF75F3FB75F4FE75A44AB2
:1017C00075A55875A60AE4F5A775D4FF75D5FF75FC
:1017D000D6FFF5E175E24022EF30E2080509E509A0
:1017E00070020508EF30E30A0509E50970020508F3
:0D17F000D20922E4F50AF50BF508F50922EF
:10180000E490000AF0A3F07E017F4022900008E0FF
:10181000FEA3E0FF22752301E5107031E51124CF0E
:10182000601924317027120042E50F2432513C9098
:1018300004BC120876751000751131009004BC517B
:10184000177F0050027F01EF60DC7F0022E4F52368
:10185000F510F5117F0322E4F510F51111A3020133
:10186000DD752301E5127031E51324C860192438B1
:10187000702763A008E50F2464513C9004C012084F
:1018800076751200751338009004C051177F005010
:10189000027F01EF60DC7F0022E4F523F512F513EF
:1018A0007F0322438E10E4F5C875CA4075CC40759D
:1018B000CBA275CDA2C2CFD2CAC2BDD2ADF50FF5B3
:1018C0000EF50DF50C9004457403F07F02EFC39400
:1018D000225029EFC31390145D5135401FE5239426
:1018E0007F501974442FF582E43404F583E523F026
:1018F00074452FF582E43404512E80D1900444EFD6
:10190000F09004677403F07F02EFC394225029EF34
:10191000C31390146E5135401FE523947F50197402
:10192000662FF582E43404F583E523F074672FF520
:1019300082E43404512E80D1900466EFF090048943
:101940007403F07F02EFC394225029EFC313901465
:101950007F5135401FE523947F501974882FF582FD
:10196000E43404F583E523F074892FF582E434042C
:10197000512E80D1900488EFF043F6021200469079
:1019800004B17401F0A37404F0A37466F0A37401AD
:10199000F0A37404F0A37488F0A374FAF0A3748025
:1019A000F0A37401F0A3E4F07B017A0479447D6133
:1019B0007CEA7FC47E10120D78C2AF22E4F512F5E6
:1019C0001322C0E0C0D075D000C004C005C006C05E
:1019D00007C2CFAF0FAE0EAD0DAC0CEF2401F50F6B
:1019E000E43EF50EE43DF50DE43CF50CD007D006E1
:1019F000D005D004D0D0D0E032C0E0C083C082C0D7
:101A0000D075D000C0071214531217D8D007D0D009
:101A1000D082D083D0E032E0FCA3E0FDA3E0FEA3BF
:101A2000E0FFAB0FAA0EA90DA80CC3020865F58351
:101A3000E4F00F0F2293F523C3942022FFE4350E28
:101A4000FEE4350DFDE4350CFC22F583740193FAB8
:101A5000740293F91208AF0522E522C39403227E93
:101A6000047F447D007B017A00790022120262909B
:0F1A700000087403F0A3227D40120FBD8F2622C1
:00000001FF
