:100000000212739007867402F0E59620E7FB75965E
:1000100001759701E490078EF0A37403F0A3F0E458
:10002000900792F090079104F02222022DCF9007C2
:100030008EE06404600BE59620E7FB7596117597DA
:0200400040225C
:10004300020D3FE4F52CE5B964E0602E53A90F855A
:10005300A92D43B280E5A95407D394014003E4F5E5
:10006300A9E4F5B943B980D52CFD43B9C0E5B9304E
:0E007300E5FBE52DB4020343A90253A90F22B9
:10008300022E068B2C8A2D892E8C2F8D30E4F53190
:10009300F532F538900786E0B40611E530452F6058
:1000A3000BD3E5309400E52F94104004E4FEFF22C7
:1000B30053E6FDAB2CAA2DA92EAF01AE02AD038FE3
:1000C300368E358D34753300E53830E0030201D5C3
:1000D300E59620E7FB75960E759702E59620E7FBFC
:1000E300759691E59620E7FB859738E53830E01D56
:1000F300E59620E7FB75960EE4F597E59620E7FB7A
:10010300759691E59620E7FB85973880BBD3E5305C
:100113009440E52F940040057537408003853037C0
:10012300E59620E7FB759622E5376057E5347019AD
:10013300E52E2532F9E52D3531A801E59620E7FBBB
:10014300E6F59708D537F4803AE53420E71BE52E2A
:100153002532F9E52D35318982F583E59620E7FBD4
:10016300E0F597A3D537F4801AE52E2532F9E52D6E
:1001730035318982F583E59620E7FBE493F597A370
:10018300D537F3C3E5309440E52F9400401F744006
:100193002532F532E43531F53174C02530F530744C
:1001A300FF352FF52FE4F5387537408017E53025F7
:1001B30032F532E52F3531F531753801853037E4C5
:1001C300F52FF530E59620E7FB759611759701023B
:1001D30000CB43E602AE31AF32220224CB463332A8
:1001E30031424F4F540510FFFF0000010100000092
:1001F30000000000000000000000000000E54024B3
:1002030034F8E60540227831303F027834E475F063
:100213000112083102055C2038EB7F2ED23880189A
:10022300EF540F2490D43440D4FF303C0BEF24BF61
:10023300B41A0050032461FFE541600215410544EF
:10024300E54470020543303F0D7831E475F0011247
:100253000831EF02081F0215407403D23F8003E404
:10026300C23FF5408B318A328933E4F541F543F5DA
:1002730044E54160077F2012023B80F57542FFC2CF
:1002830039C238C23AC23BC23DC23EC24012020921
:10029300FF700D303F057F0012024CAF44AE432286
:1002A300B4255FC2D5C23C120209FF24D0B40A00B0
:1002B300501A75F00A784130D50508B6FF0106C615
:1002C300A426F620D5047002D23B80D924CFB41AD9
:1002D30000EF5004C2E5D23C02044CD23980C6D2AE
:1002E3003880C0D23A80BCD2D580BAD23D80B47FA8
:1002F3002012023B203A077401B5410040F112027B
:1003030000FF12023B020274D240D23E80951202D9
:1003130000FB120200FA120200F94A4B7006791D23
:100323007A057BFF203A2EE541602A7E008E827596
:10033300830012057560060EEE654270F0C2D5EBC0
:10034300C0E0EAC0E0E9C0E0EE120493D0E0F9D0E7
:10035300E0FAD0E0FB12055CFF60AAEBC0E0EAC064
:10036300E0E9C0E012023BD0E02401F9D0E0340020
:10037300FAD0E0FBE5420460DCD542D980877BFFFD
:100383007A04798FD23A809C791080027908C23E30
:10039300C2408008D2D5790A8004790AC2D5E542E1
:1003A300047002F542E4FAFDFEFF120200FC7B0832
:1003B300203913120200FD7B1030380A120200FEAE
:1003C300120200FF7B20EC3382D592D55013C3E495
:1003D3003038069FFFE49EFEE42039039DFDE49C34
:1003E300FCE4CBF8C239EC700CCFCECDCCE824F8CA
:1003F300F870F38017C3EF33FFEE33FEED33FDECFC
:1004030033FCEB33FB994002FB0FD8E9EB303905A2
:10041300F8D0E0C448B239C0E00AEC4D4E4F782022
:100423007B0070C2EAB5420040BCC0E0120495D024
:10043300F0D0E0203904C4C0E0C4B239C0F01202E5
:1004430024D0F0D5F0EB02027412084103115303D8
:100453008B5802E24C02DE42038F4F03974403970B
:100463004902F743039D55038146038145038147B1
:10047300053D5002E62D02EA2E030D2B02EE230367
:100483000B2005262A02A648000003053F3F3F0034
:10049300790AA2D5203B14303D09B910020404B9EE
:1004A300080104A2D5203E02500104203A68923A82
:1004B300B541005034C0E07F20303B197F30A23A71
:1004C300723E723D500F1204ECC23AC23EC23DC2AC
:1004D300407F30800F303D03E9C0E012023B303DE6
:1004E30003D0E0F9D0E0B541CC303D177F30B910EF
:1004F3000C12023B7F58303C077F788003B9080316
:1005030012023B303A057F2D02023B7F202040F848
:100513007F2B203EF322923A80CF286E756C6C2994
:1005230000D2391202003039F8C239784130D5018E
:1005330008F60202A62D504349581202002403B4C0
:1005430005004001E49005389312022C743A12021C
:100553002CD23B75410402038BBB010689828A833B
:10056300E0225002E722BBFE02E32289828A83E46F
:100573009322BB010CE58229F582E5833AF583E0FA
:10058300225006E92582F8E622BBFE06E92582F819
:10059300E222E58229F582E5833AF583E49322C5D5
:1005A300F0F8A3E028F0C5F0F8E582158270021593
:1005B30083E038F022E88FF0A4CC8BF0A42CFCE984
:1005C3008EF0A42CFC8AF0EDA42CFCEA8EF0A4CDD2
:1005D300A8F08BF0A42DCC3825F0FDE98FF0A42CE6
:1005E300CD35F0FCEB8EF0A4FEA9F0EB8FF0A4CF99
:1005F300C5F02ECD39FEE43CFCEAA42DCE35F0FD4A
:10060300E43CFC22EB9FF5F0EA9E42F0E99D42F0C8
:10061300EC6480C864809845F022EB9FF5F0EA9E75
:1006230042F0E99D42F0E89C45F022E86010ECA21C
:10063300E713FCED13FDEE13FEEF13FFD8F022E8F2
:10064300600FEFC333FFEE33FEED33FDEC33FCD825
:10065300F122E493FC740193FD740293FE740393FB
:10066300FF227401FF3395E0FEFDFC080808E6CF86
:100673002FF618E6CE3EF618E6CD3DF618E6CC3C4E
:10068300F622ECF0A3EDF0A3EEF0A3EFF022ECF2F0
:1006930008EDF208EEF208EFF222D083D082F8E4FC
:1006A300937012740193700DA3A393F8740193F5DF
:1006B300828883E473740293B5F0067403936860CD
:1006C300E9A3A3A3A380D8D083D082E49370127448
:1006D3000193700DA3A393F8740193F5828883E4C7
:1006E300737402936C70127403936D700C7404939F
:1006F3006E70067405936F60DDA3A3A3A3A3A38009
:10070300CA8A838982E473E709F60870FA8046E7A8
:1007130009F20870FA803E88828C83E709F0A3709F
:10072300FA807EE309F60870FA8076E309F208702E
:10073300FA806E88828C83E309F0A370FA80628961
:10074300828A83E0A3F60870FA805689828A83E05E
:10075300A3F20870FA804A80D280FA80C680D480DF
:100763006580F28031801080A680EA809A80A8801C
:10077300DA80E280CA803189828A83ECFAE493A327
:10078300C8C582C8CCC583CCF0A3C8C582C8CCC5B4
:1007930083CC70E9800D89828A83E493A3F6087081
:1007A300F9ECFAA9F0EDFB2289828A83ECFAE0A343
:1007B300C8C582C8CCC583CCF0A3C8C582C8CCC584
:1007C30083CC70EA80DD89828A83E493A3F2087084
:1007D300F980CE88F0ED2402B4040050C4F582EB16
:1007E3002402B4040050BA232345822390075A738A
:1007F300EF4E6012EF60010EEDBB010B89828A831D
:10080300F0A3DFFCDEFA2289F05007F709DFFCA929
:10081300F022BBFEFCF309DFFCA9F022BB01068931
:10082300828A83F0225002F722BBFE01F322FAE60A
:10083300FB0808E6F925F0F618E6CA3AF622D08353
:10084300D082F8E4937012740193700DA3A393F80C
:10085300740193F5828883E4737402936860EFA351
:10086300A3A380DF666C757368204649464F210A4F
:1008730000696E76616C6964206672616D65212022
:1008830028626C6F636B4C656E3D252E3262582C6B
:10089300206D616769634E6F3D252E346858290AC0
:1008A30000696E76616C6964206672616D6520769D
:1008B300657273696F6E210A007278207061636BD1
:1008C30065742074696D656F7574210A00696E76AD
:1008D300616C6964207061636B6574206C656E671D
:1008E3007468210A00696E76616C6964204352431F
:1008F300210A00100023991010206A110026B2115A
:100903001027451111280011122992120029A01253
:100913001029A8121129B7121229CE121329DD1298
:100923001429FF12152A66000011892312329B46EF
:100933002457AD653674BF8C489DC1AF5ABED3CA28
:100943006CDBE5E97EF8F7091918902A0B3B824F17
:100953003D5EB46C2F7DA6855194D8A643B7CAC318
:1009630075D2FCE067F1EE123203BB312020A954AB
:1009730016459F7704668D9E7A8FF3BD68ACE1D8E8
:100983005EC9D7FB4CEAC51B2B0AA2383929B05DD7
:100993000F4C867E1D6F94976386EAB471A5F8D1D8
:1009A30047C0CEF255E3DC246435ED077616FF62CB
:1009B3004073C9415250DBA82CB9A58B3E9AB7EEC0
:1009C30008FF81CD1ADC932D7D3CF40E6F1FE66B7F
:1009D300597AD0484B59C2A135B0BC822793AEE7B0
:1009E30011F698C403D58A365627DF154404CD7013
:1009F3007261FB536042E9BA1EAB97990C8885FC80
:100A03003AEDB3DF28CEA13F4F2EC61C5D0DD4793E
:100A13006B68E25A794BF0B307A28E9015819CF56F
:100A230023E4AAD631C7B848C859416BDA7A530EC2
:100A3300EC1F652DFE3C77C480D509E792F61B8237
:100A4300A4932DA1B6B03F41D1505862C3734A0756
:100A5300F5167C24E7356ECD99DC10EE8BFF028B07
:100A6300BD9A34A8AFB9265AFA4B7379E868611C6A
:100A7300DE0D573FCC2E45D6B2C73BF5A0E42990F7
:100A830096811FB384A20D53E3426A70F161781516
:100A9300C7044E36D5275CDFABCE22FCB9ED3099C7
:100AA3008F8806BA9DAB146CAC7D254FBE5E372A8A
:100AB300883B01099A1813E0E4F16DC3F6D27FA6CF
:100AC300C0B74985D2945B65B5743C46A7572E23BE
:100AD3009132180083110AE9FDF874CAEFDB66AF9F
:100AE300D9BE508CCB9D427E9E6F175D8C4C0538D2
:100AF300BA29331BA80A21F2D6E35FD1C4C04DB48F
:100B0300F2A57B97E086697787660E5495451C317D
:100B1300A3202A12B10338FBCFEA46D8DDC954BD5E
:100B2300EBAC629EF98F70E59620E7FB75960EE4B9
:100B3300F597E59620E7FB759691E59620E7FB9000
:100B4300079CE597F0E0FF30E210E59620E7FB75A0
:100B53009611E4F59790078EF022EF30E410E596B6
:100B630020E7FB759611759780E490078EF0900748
:100B73008EE06003020C5690079CE020E003020C19
:100B8300567596204396C0E4F55AE59620E7FB7424
:100B93007E255AF582E43407F583E597F0055AE597
:100BA3005AB407E6E59620E7FBE4F596747E255AEA
:100BB300F582E43407F583E597F0900781E0FE9032
:100BC3000780E07C002400FFEC3E900794F0A3EF45
:100BD300F0900785E0FE900784E02400FFEC3E9050
:100BE3000796F0A3EFF090077FE004603B14B40C8A
:100BF30000505D900BFDF8282873020C21020C268F
:100C0300020C2B020C30020C53020C35020C3A027C
:100C13000C53020C3F020C44020C49020C4E1213FB
:100C23000E8030121381802B120FC580261213E021
:100C33008021121589801C1211B380171214988019
:100C43001212143E800D121519800812002E800313
:100C53001215A990078EE064016003020D3E900710
:100C63009C7402F0C390078DE0944090078CE0944D
:100C7300004055E59620E7FB759620E4F55A90076A
:100C830087E0FBA3E0FAA3E0F9855A82758300129B
:100C93000575F597E59620E7FB055AE55AB440DE5E
:100CA300900788E475F0401205A290078DE024C0F8
:100CB300F090078CE034FFF090078BE02440F09035
:100CC300078AE03400F08045E59620E7FB7596201F
:100CD300E4F55AD390078DE0955A90078CE0940081
:100CE300401F900787E0FBA3E0FAA3E0F9855A824F
:100CF300758300120575F597E59620E7FB055A8085
:100D0300D290079CE04408F0E490078EF090079699
:100D1300E0FEA3E0FF90078AE0B50611A3E0B50764
:100D23000C90079CE04408F0E490078EF0E59620D1
:100D3300E7FB75961190079CE0F59722C0E0C0F0A1
:100D4300C083C082C0D075D000C000C001C002C043
:100D530003C004C005C006C00790079DE596F0E5F3
:100D63009620E7FB75968EE59620E7FB90079EE5B8
:100D730097F0E59620E7FB759686E59620E7FB90CE
:100D83000798E597F0E030E30BE59620E7FB7596CF
:100D93000B759707900798E030E203120003900762
:100DA30098E030E014900786E0FF64046004EFB439
:100DB3000607900791E04480F0E59620E7FB7596DF
:100DC30082E59620E7FB900798E597F0E030E00393
:100DD300120B2A900798E030E22AE59620E7FB758C
:100DE300960E759702E59620E7FB759691E596209A
:100DF300E7FB900799E597F0E0540370079007919C
:100E0300E04402F0E59620E7FB759684E59620E73B
:100E1300FB900798E597F0E030E229E59620E7FBA1
:100E230075960E759702E59620E7FB759694E59601
:100E330020E7FB900799E597F0E030E007900791F2
:100E4300E04404F0E59620E7FB75960E90079EE0DC
:100E5300F597E59620E7FB90079DE596F0E596204C
:100E6300E7FB900793E030E009900791E0600312FD
:100E73001567D007D006D005D004D003D002D00127
:100E8300D000D0D0D082D083D0F0D0E0329004EA2A
:100E9300EEF0A3EFF09004EEEBF0A3EAF0A3E9F099
:100EA300E4F52CE52C9014DF93FF7440252CF58298
:100EB300E43407F583EFF0052CE52CB412E5E4F5F3
:100EC3002CE52C9014F193FF7452252CF582E43415
:100ED30007F583EFF0052CE52CB420E59004EAE058
:100EE300F52DA3E0F52E900748E52EF0A3E52DF0B0
:100EF3008C2D8D2EA3E52EF0A3E52DF090077274B3
:100F0300FFF0A37415F0A37411F09004EEE0F9A3BD
:100F1300E0FAA3E0900775C9F0A3EAF0A3E9F09023
:100F230004F1E0F9A3E0FAA3E0900778C9F0A3EA9B
:100F3300F0A3E9F09004F4E0F9A3E0FAA3E090074A
:100F43007BC9F0A3EAF0A3E9F09004F7E0FFC394B0
:100F5300FA500590075AEFF09004F8E0900759F023
:100F63009004F9E0FEA3E090074CF0EEA3F0E596C1
:100F730020E7FB759601759708E59620E7FB7596C4
:100F83000775970FE59620E7FB75960975970EE5AC
:100F93009620E7FB75960B75970775D7E01215F545
:100FA300E4900792F0900791F0900793F0900786F2
:100FB300F043E602D2AFE59620E7FB7596017597FD
:100FC3000122900794E0B4373CA3E0B40B379007B9
:100FD3008EE06404601012002E90078E7401F0E41A
:100FE30090078AF0A3F090079B7480F090078774B2
:100FF30001F0A37407F0A3749BF090078CE4F0A3B3
:1010030004F00210C7900795E020E00302109E90C1
:101013000793E030E00854FEF04402F080079007A5
:1010230093E054FDF0E59620E7FB75960E75970265
:10103300E59620E7FB759614759710E59620E7FB78
:10104300759611759708E59620E7FB759694E596D6
:1010530020E7FB90079BE597F0E020E4E9E5962085
:10106300E7FB759614759710E59620E7FB75969147
:10107300E59620E7FB90079BE597F0E020E3E9E5A1
:101083009620E7FB7596117597089007917408F001
:10109300900793E0FF30E1034401F0900794E0FCF4
:1010A300A3E0FD30E10D9007867406F0900791E010
:1010B3004410F0ED30E20D9007867404F090079130
:1010C300E04420F0E59620E7FB75960EE4F59702E1
:1010D300002E8D38900786E0B40606EDD394404089
:1010E300037F0022E59620E7FB75960E759702E5D0
:1010F3009620E7FB759694E59620E7FB90079AE523
:1011030097F0E020E0030211B0E59620E7FB759627
:1011130096E59620E7FB900792E597F0E0FFEDC395
:101123009F5006AE05AF068000900792EFF053E69E
:10113300FDE59620E7FB7596E2900792E06052AFDB
:1011430001AE02AD038F348E338D32753100E5323B
:101153007014AF018F35E59620E7FBA835A69705F8
:1011630035D538F2802BE53220E723AE02AF018E6E
:10117300368F37E59620E7FB853782853683E597FB
:10118300F00537E53770020536D538E780037F0071
:1011930022E59620E7FBE4F596E59620E7FB7596B6
:1011A30014E4F59743E602900792E0FF227F0022C2
:1011B300E49004FBF0900781E024FE601B14603B85
:1011C300240270729007877401F0A37407F0A3746C
:1011D30040F0900740E080539007877401F0A374B8
:1011E30007F0A37452F0900755E0FE900754E07C9B
:1011F300002400FFEC3E90078C8035900780E0FFD1
:10120300D394034002802FEF75F003A42472F58278
:10121300E43407F583E0FBA3E0FAA3E0F990078742
:10122300EBF0A3EAF0A3E9F012055CFF90078CE46E
:10123300F0A3EFF080031215A990078CE0FEA3E062
:10124300FF900796E0FCA3E0FDC39FEC9E5008903F
:10125300078CECF0A3EDF090078EE06404601012AD
:10126300002E90078E7401F0E490078AF0A3F02219
:10127300E4F5D978FFF6D8FD9000007E047F00F0F6
:10128300A3DFFCDEFA75815A0212C9022BD3E49361
:10129300A3F8E493A34003F68001F208DFF4802966
:1012A300E493A3F85407240CC8C333C4540F442055
:1012B300C8834004F456800146F6DFE4800B010244
:1012C3000408102040809015DFE47E019360BCA3E6
:1012D300FF543F30E509541FFEE493A360010ECF92
:1012E30054C025E060A840B8E493A3FAE493A3F8BC
:1012F300E493A3C8C582C8CAC583CAF0A3C8C5827C
:10130300C8CAC583CADFE9DEE780BE90077EE02452
:101313007F600714600624027048802D90078FE0D9
:10132300B40309900782E0B40202800E900790E0B4
:10133300B40316900782E0B4820F90078774FFF01E
:10134300A37415F0A37415800D90078774FFF0A3A1
:101353007415F0A37417F090078CE4F0A37402F0F3
:1013630080031215A990078EE06404601012002E0A
:1013730090078E7401F0E490078AF0A3F02290079F
:1013830080E07048900782E0FFB4021DE59620E7F5
:10139300FB75960E759702E59620E7FB7596147517
:1013A3009780E490078FF08026EFB4821DE59620A6
:1013B300E7FB75960E759702E59620E7FB75961188
:1013C300759740E4900790F0800580001215A9E519
:1013D3009620E7FB75960EE4F59702002E900780A2
:1013E300E07047900782E0FFB4021BE59620E7FB1D
:1013F30075960E759702E59620E7FB75961475971B
:101403002090078F801DEFB4821EE59620E7FB75C1
:10141300960E759702E59620E7FB75961175971062
:101423009007907403F0800580001215A9E59620BB
:10143300E7FB75960EE4F59702002E900780E0D344
:1014430094004042900791E04440F0900786740472
:10145300F0E490078FF0A3F0E59620E7FB75960E76
:10146300759702E59620E7FB759612759784E596C6
:1014730020E7FB759615759780E59620E7FB759633
:101483000EE4F597800C9007867403F090078FF0B5
:10149300A3F002002E900786E0FFB40414A374FFA8
:1014A300F0A37415F0A37415F090078CE4F0A30473
:1014B300F0EFB4031690078774FFF0A37415F0A33D
:1014C3007417F090078CE4F0A304F012002E900739
:1014D3008E7401F0E490078AF0A3F0221201100148
:1014E30000000040C41000000000010203010902D3
:1014F300200001010080FA0904000002FF0000003F
:1015030007050202400000070582024000000403B1
:1015130009040100000090078774FFF0A37415F01D
:10152300A37417F090078CE4F0A304F012002E903C
:10153300078E7401F0E490078AF0A3F022EFB40A57
:1015430007740D12154B740A309811A899B8130C2F
:10155300C2983098FDA899C298B811F63099FDC287
:1015630099F59922D007D007D007D006D005D0042B
:10157300D003D002D001D000D0D0D082D083D0F01D
:10158300D0E002008322E59620E7FBE4F59690077E
:1015930080E0FFF597EF90078660057403F0800302
:1015A3007402F002002EE59620E7FB75960EE4F533
:1015B30097E59620E7FB75961175972090078E7433
:1015C30004F022900793E04401F0900791E0600B50
:1015D300E59620E7FB75960B75970F22011400C162
:1015E300C1C142C1C802200000022200000224003F
:1015F3000000E59620E7FB75960F75978922900703
:1016030091E0F559E4F0AF5922FF2ABAFF2B03FF0B
:101613002B69FF27F9FF1863FF17E608000808087E
:101623000800FFFF080808080474FFF531F532E4E9
:10163300FDFCD3900045E09D900044E09C4031E5E3
:1016430031FF74482DF58274003CF583E06F75F02B
:1016530002A4242AF582E5F03409F583E532FEE499
:10166300936EF531740193F5320DBD00010C80C208
:10167300AE31AF32223047091233541207F3C24757
:101683002290004BE02404FE90004AE034009000D6
:1016930044F0A3CEF0D12C900046EEF0A3EFF0C2BD
:1016A3003812002A12335A900045E02408FD9000B6
:1016B30044E03400FC0200861233541207F3123361
:1016C3005A1234CC30470B7BFF7A087967120262D7
:1016D300C322C3E52E9408E49400400E900040E03A
:1016E30064437004A3E0644C601A7BFF7A08797446
:1016F300852E34900040E0F535A3E0F53612026202
:10170300D247C322900042E07004A3E06401601357
:101713007BFF7A0879A4120262900042E4F0A304EA
:10172300F0C322E52E24F8F52DE434FFF52CE4F57F
:101733002FF530D3900045E0952D900044E0952C93
:1017430040487448252DF97400352CFA7B01123476
:10175300CCE52E70287F01FE121A3E0530E530706D
:1017630002052FFFAE2FE4FCFD7B507AC3F9F8D3BB
:1017730012060750BE7BFF7A0879BC8021E52E252F
:101783002DF52DE4352CF52C80A9900044E0652C33
:101793007004A3E0652D600E7BFF7A0879D01234C4
:1017A300127401F0C322D23812002AD12C900046C1
:1017B300E06E7003A3E06F600D7BFF7A0879E81297
:1017C300341214F0C322D322EF30E2080509E509ED
:1017D30070020508EF30E30A0509E5097002050800
:1017E300D24722E4F50AF50BF508F50922121EB7D4
:0B17F300021D29A807E2FE08E2FF2209
:10180000900048E0F52CA3E0F52D7403FFFEE4F50D
:101810002EE52E25E025E024F6F582E43408F58354
:10182000740193B52D22E493B52C1DE52E25E025FA
:10183000E024F8F582E43408F583E493FE74019320
:10184000AA06F91207048009052EE52EC3940D405F
:10185000C0900048EEF0A3EFF0EE64037004A3F034
:10186000A3F022752B01E50B850AF012069D187A6C
:1018700000001880013C000018AF750A01750B3C90
:10188000AE08AF09D3EF9400EE94004003D380017B
:10189000C340037F0022E5091509700215081216DE
:1018A000BB50021100121678E4F508F50980CBE46C
:1018B000F52BF50AF50B7F0322AD077B087801AF06
:1018C00005EF08800123D8FDFD13929212316712B3
:1018D000332B20820E1233447002153F4E600451A8
:1018E0003A80EF123167C2828000DBD1D29212318E
:1018F0006712332B20820E1233447002153F4E6064
:1019000004513A80EFA292923A123167C28280006B
:10191000A23AB32212349BA31231E112339BC23993
:10192000515E4003A2392230AF05C2AFD38001C35C
:101930009238E5384537700CE5384537706CE53A34
:1019400045397066D2921231671233DE208211E57A
:101950003E153EAE3D7002153D4E6004513A80EC9E
:1019600012315EC28280001234C454FEFF11B940AD
:1019700002410EE4F53BF53CC3E53C9538E53B956B
:10198000375027E5362405F582E43535F583E582C1
:10199000253CF582E583353BF583E0FF11B9506EB8
:1019A000053CE53C7002053B80CEE53A4539605C7C
:1019B000D2921231671233DE208211E53E153EAE1F
:1019C0003D7002153D4E6004513A80EC12315EC20A
:1019D0008280001234C44401FF11B95031E4F53B58
:1019E000F53C1234BC95395023E53A24FFFFE53924
:1019F00034FFFEEFB53C07EEB53B03D38001C39245
:101A00003AF1441232327002053B80D6D23912319B
:101A1000651233DE208211E53E153EAE3D700215A3
:101A20003D4E6004513A80EC123167D292A2389256
:101A3000AFA23922A2A0D29792307F017E008018F7
:101A4000EF1F70011E144E60140000000000000023
:101A5000000000000000000000000080E32230824F
:101A600005309202D32230827120926E753F0912A6
:101A70003167C28280001231671233D5208211E5AE
:101A8000411541AE40700215404E6004513A80EC61
:101A9000D53FDC309244D2921231671233D5208286
:101AA00011E5411541AE40700215404E6004513AB7
:101AB00080EC12315EC28280001231651233D52073
:101AC0008211E5411541AE40700215404E6004514F
:101AD0003A80EC123167D292D322C32212341DEB2A
:101AE00070057E01FF8004EBFF7E008E3F8F40C2B9
:101AF0003830977630A073AF16D1B77F071231EE2A
:101B000071FCEF20E00912316E6004513A80F1124D
:101B100032D97056E53BFF716DAF3C1231E971FC73
:101B2000EF20E00912316E6004513A80F11232D98F
:101B300070381233447002153F4E6015053EE53E85
:101B4000AE3D7002053D14F5828E83E0FF716D801D
:101B5000E11231F171FCEF20E00912316E600451A5
:101B60003A80F1B129BF0D02D238A23822122F30AB
:101B700075452775461071FCEF30E111E5461546B5
:101B8000AE45700215454E6004513A80E922AB071C
:101B9000C23830976430A061AF16D1B77F081232D7
:101BA000B171FCEF20E00B78331231706004513AD0
:101BB00080EF1232D97042AF031232B171FCEF20C4
:101BC000E00B78331231706004513A80EF1232D951
:101BD0007027E4FF716DE475364075359CF534F57A
:101BE0003371FCEF20E00B78331231706004513A0E
:101BF00080EFB129BF0D02D238A23822C243D244AD
:101C000030AF05C2AFD38001C31231FD0000000028
:101C10001232950000000012334B00000000123316
:101C20008600D29700000000C2970000A2A0D297C1
:101C300092300000C2970000A2A0D297923100001B
:101C4000C2970000A2A0D29792320000C297000073
:101C5000A2A0D29792330000C2970000A2A0D29710
:101C600092340000C2970000A2A0D29792350000E3
:101C7000C2970000A2A0D29792360000C29700003F
:101C8000123284AF262274FFF536F535F534F5337C
:101C9000209702A12020A002A1201232E053A57FAC
:101CA0007F02D1B7122F307F04122F307F01122F05
:101CB000307F147E00122B28E4FF1217F08F337F41
:101CC000011217F08F34E533F460557516B41234F1
:101CD000A4716DF126EF640D601F7516AD1234A46A
:101CE0001233AA71FCEF20E00B78371231706004D8
:101CF000513A80EF1232D97027F1268F35AF16D1C5
:101D0000B77F011233AA71FCEF20E00B7837123154
:101D1000706004513A80EFB129BF0D04F1268F366F
:101D2000AF36AE35AD34AC3322C243C244C245C235
:101D30004630AF05C2AFD38001C31231FD000000B1
:101D4000001232950000000012334B000000001218
:101D5000342F0000000012342600000000123386E9
:101D600000D2970000754927754A100000C29700FD
:101D700000513420300DE54A154AAE49700215492C
:101D80004E70E80000C2970000A2A0D297923000E7
:101D900000C2970000A2A0D29792310000C2970023
:101DA00000A2A0D29792320000C2970000A2A0D257
:101DB0009792330000C2970000A2A0D297923400FD
:101DC00000C2970000A2A0D29792350000C29700EF
:101DD00000A2A0D29792360000C29700001232846F
:101DE000AF2622C23830975230A04FAF16D1B77FFE
:101DF000031232B171FCEF20E00B783312317060C6
:101E000004513A80EF1232D970307FDE716D7FADB0
:101E1000716D7FA5716D75360075352D7534317511
:101E2000330171FCEF20E00B783312317060045104
:101E30003A80EFB129BF0D02D238A2382212341DE8
:101E4000EB70057E01FF8004EBFF7E008E3F8F402C
:101E5000C23830975F30A05CAF16D1B77F06123121
:101E6000EE71FCEF20E00912316E6004513A80F10E
:101E70001232D9703FE53DFF716DAF3E1231E9710D
:101E8000FCEF20E00912316E6004513A80F1B12973
:101E9000BF0D211233447002153F4E6015F1260527
:101EA0003CE53CAC3B7002053B14F5828C83EFF0C3
:101EB00080E1D238A23822D243D2448F2630AF05F7
:101EC000C2AFD38001C31231FD0000000012329571
:101ED0000000000012334B000000001234770000B5
:101EE000000012346E000000001234650000000093
:101EF00012345C0000000012345300000000123461
:101F00004A00000000123441000000001234380082
:101F1000000000D297D2A053A6FE123205000000A6
:101F200000D29702328DE4754810754727F546F5C3
:101F30004571FCEF20E00B78451231706004513A96
:101F400080EFA129E4FD7C0812316712332B208237
:101F50000E1233447002153F4E6004513A80EFED8B
:101F600025E0FDA292E4334205123167C28280006F
:101F7000DCD6A23A929212316712332B20820E12D3
:101F800033447002153F4E6004513A80EF123167BE
:101F9000C2828000D292AF052230970320A002C3F4
:101FA000221232E053A57FD322438E10E4F5C87588
:101FB000CA4075CC4075CBA275CDA2C2CFD2CAC2E1
:101FC000BDD2ADF50FF50EF50DF50C122E2475D121
:101FD000077FD07E07513EF1E453A57F53A6FED282
:101FE00097D2A02275BB1E75BA1F75BCB875E88064
:0C1FF000228D447A007B447D0102222AED
:1020000012349BA31231E112339BE5384537603619
:102010008F828E83E5822405F582E43583F583E0A3
:10202000F514D3E5389400E5379401400122E538F2
:1020300014FDE5362406FBE43535FAAF1411F0E55E
:1020400014253814F514E53A4539601CE4F53BF5E0
:102050003C1234BC95395010AF140514122D1712D0
:1020600032327002053B80E9D32275330075344C5F
:1020700012337EE0FEA3E0FF2405FDE43EFC900069
:102080004AE0B50424A3E0B5051F12337EA3A3E004
:10209000FCA3E0FDEF2DFFEE3CFEE4FCFD7B337A7C
:1020A00004F9F8C312060750057E037F0422853425
:1020B00082853383E0AF34AE33B4FE041100800375
:1020C000121914502612337EE0FEA3E02405FFE42B
:1020D0003EFE12337EA3A3E0FCA3E02FFFEC3E9074
:1020E000004AF0A3EFF07E017F40227E037F402272
:1020F0008F3D8D3E8A3F8B40122CD88F41E541F4B5
:1021000070024129E53E7002412912340A40091249
:1021100033F750047F2080027F80EF14523DE53E6C
:10212000FDE53D2DFDE433FCEFFBD3ED9B7480F822
:102130006C984008E53D253EC39FF53EE5416401AE
:102140007027F542E542C3953E501C1232F5F54327
:10215000E53D24E524FB500424087005A83DE54333
:10216000F20542053D80DD61C3E541B4061BE53D56
:10217000253EFFE433FED3EF9460EE64809480400C
:1021800008E53D253E24A0F53EAF41EF3395E0FE46
:1021900074252FF58274163E1234899F500241290E
:1021A00012340B405C1233F75057E4F542E542C35A
:1021B000953E507512340A401B1233F750161232F6
:1021C000F5FFE53D2542FEE54114C43354E02EF809
:1021D000EFF280291234B440241234AC501F123371
:1021E00090C333CE33CED8F91233EFE53D25427C90
:1021F000002FFFEC3EFE1232F5FD121FF10542806A
:10220000AC1234B440231234AC501E123390C3339A
:10221000CE33CED8F91233EF7C00EF253DFFEC3EF4
:10222000FEAB40AA3FAD3E512A228E458F468A47DB
:102230008B48A90530AF05C2AFD38001C3E433F5A5
:1022400049E54554FEF54A754B00E5455401F54C0A
:1022500085464DE4FFFEEEC3995033E54B254DFD19
:10226000E54A354CFCEE7A002DFDEA3C8D82F58383
:10227000E493F54EE5482EF582E43547F583E0F525
:102280004F554E654F60047F0180030E80C8EF708C
:102290000B1233B9AF46AE45711C8075123480AB5A
:1022A0004BAA4AAD4DAC4C7118E54D254FF54FE5A5
:1022B0004C354EF54E1233B97118E9FF7E00254FAB
:1022C000F54FEE354EF54EE54D2FFFEE354CFEC386
:1022D000E49FFD74029EFCE54B254DFFE54A354C1D
:1022E000FE7A00EF29FBEA3EFAD2387118E4FB7D52
:1022F00003AF4BAE4A7176123480AB4FAA4E7D00CD
:102300007C02AF4BAE4A711CE4FB7D03FF7E3A7149
:1023100076E54924FF92AF22AF4FAE4E8E508F51DB
:102320008C528D538A548B55E5531553AE5270021F
:1023300015524E604030380B855582855483E493A6
:10234000FF8008855582758300E0FF8F5685518296
:10235000855083E4936556600AAB567D01AF51AE5C
:102360005071760551E551700205500555E55570DF
:1023700002055480B3228E578F5875FF8075EF0683
:102380008D8FA2AFE43324A5F5B775B7F1855882D8
:10239000855783EBF0E4F58F22123167D2827533D3
:1023A000017534F4208212E5341534AE3370021511
:1023B000334E6005121A3A80EBD2921233237E011B
:1023C0007F40227F1B7E00F1EB8F478E468D458C30
:1023D000441206CA23EAF62652A723F2FC54D4027A
:1023E00023EEFDE7554F000023F675EF1222751519
:1023F0000822751504227F7C12336D700475150256
:10240000227F7812336D700475150122E4F51522D0
:10241000FFE43438FE8F828E83020655AF2EAE2D38
:102420008E308F318D32E4253291108F3A8E398D76
:10243000388C37E532240491108F3E8E3D8D3C8CD4
:102440003BAE30AF31E4FCFDAB3AAA39A938A8372E
:102450001205B8780812062EEF253EF536EE353D0A
:10246000F535ED353CF534EC353BF533303831E4BA
:102470007FFF7E7F1232CEC312060740067E7F7F2B
:10248000FF80477F007E807DFF7CFF1232D0D31219
:10249000060750067E807F008004AE35AF36802A66
:1024A000E47FFF7EFF1232CEC312060740067EFF96
:1024B0007FFF8016E4FFFE1232CED31206075006CD
:1024C0007E007F008004AE35AF3622E4F531F53072
:1024D000F52FF52E7F1BFE122CC961C37B037D1FD8
:1024E0007F1E1233177F207E00D1C6D238E4FD81D3
:1024F0001C7818E2FF8FFC91DCAC06AD07E4FFFE10
:10250000D1C6D1CEAC06AD077F027E00D1C6D1E3E5
:10251000AC06AD077F047E00D1C67F40123334C0C5
:1025200006C007FF12327BD007D006D31233FF500C
:10253000177F42123334C006C007FF12327BD00728
:10254000D006C31233FF500DE4F52C7819E2123196
:102550004C6020800B752C017819E212314C60130D
:102560007819E2FFEF54FEFBE52C5401FFEF4BFF1F
:10257000E4EFF27F44123334C006C0077F02123208
:102580007BD007D006D3ED9FEC9E50197F461233C7
:1025900034C006C0077F0212327BD007D006C3EDDD
:1025A0009FEC9E500FE4F52C7819E2C31312314CC6
:1025B0006033800D752C017819E2C31312314C6021
:1025C0002412326F54FDFFC004C005C006C007E5E9
:1025D0002C5401FFE47801120642D003D002D0014E
:1025E000D0001232C07F48123334C006C007123206
:1025F00079D007D006D3ED9FEC9E50177F4A123357
:1026000034C006C007123279D007D006C3ED9FEC64
:102610009E500DE4F52C1233E712314C6031800BE3
:10262000752C011233E712314C602412326F54FBC7
:10263000FFC004C005C006C007E52C5401FFE478C4
:1026400002120642D003D002D001D0001232C012D2
:10265000326F1233C8702E7819E2C31312327254DB
:1026600001FFE4F8C312061D701B1233E712327229
:102670005401FFE4F8C312061D700A752C011231D3
:1026800043602E8008E4F52C123143602412326F2F
:10269000547FFFC004C005C006C007E52C5401FFED
:1026A000E47807120642D003D002D001D0001232E3
:1026B000C0221233237E017F40228F828E83E493D7
:1026C000FE740193FF22A807ECF208EDF2227B03CF
:1026D0007D1E7F1F1233177F227E00D1C6C2387D38
:1026E00008811C7B037D1F7F0A1233177F247E0025
:1026F000D1C6C2387D10811C8FBB8DBA7FC87E00C9
:10270000121A3EE4FDFC04A803088002C333D8FC7F
:10271000FAEAD39400401AC2EDD2EC30EDFDAFBE20
:10272000EFFEA9BDE9F582E5822DFDEE3CFC1A80A5
:10273000E0AF03EDAE04A807088006CEA2E713CEF3
:1027400013D8F8FF2290004CE0FFA3E0FD7A047B51
:10275000EAF15C7E0140027E037F40228B828A8305
:10276000122FC830AF05C2AFD38001C39238F17CBD
:10277000A2381233614003D38001C32212305312B6
:1027800030A1122FDC0000D296D294C296D2A1D2F0
:102790009600001231B692001231B692271231B66D
:1027A00092261231B692251231B692241231B69287
:1027B000231231B692221231B692211231B69220F2
:1027C0001231B6922F1231B6922E1231B6922D12CC
:1027D00031B6922C1231B6922B1231B6922A1231A6
:1027E000B692291231B6922802333BA807E2FC08C0
:0F27F000E2FD08E2FE08E2FF22E4F512F51322F3
:1028000012317A12280F7E0140027E037F4022D2CD
:102810003811C130AF05C2AFD38001C39239115A0C
:10282000D20DC20CE53A153AAE39700215394E6038
:102830002212277CE53CFF2402F53CE53BFE3400F8
:10284000F53B8F828E831233634003D38001C340F4
:10285000D3C238A23992AFA238221230531230A11B
:10286000F1DCA20112304CA20012304CA21712303F
:102870004CA21612304CA21512304CA21412304C3D
:10288000A21312304CA21212304CA21112304CA2E0
:102890001012304CA21F12304CA21E12304CA21D3E
:1028A00012304CA21C12304CA21B12304CA21A1235
:1028B000304CA21912304CA21812304C00000233D6
:1028C0003BC20FC20EC20D1230FAC2008A228B2305
:1028D000228A378B38AE05AC07E53A153AAA39702B
:1028E0000215394A6043853C82853B83E0F524A389
:1028F000E0F525AF04AD06AB38AA3711C130AF05FE
:10290000C2AFD38001C39238115AC20DD20C312B01
:10291000A23892AF0538E538700205377402253CBD
:10292000F53CE4353BF53B80B0D3221230531230F6
:10293000A1F1DCA20112304CA20012304CA22712ED
:10294000304CA22612304CA22512304CA224123058
:102950004CA22312304CA22212304CA22112304C35
:10296000A22012304CA22F12304CA22E12304CA2B8
:102970002D12304CA22C12304CA22B12304CA22A19
:1029800012304CA22912304CA22812304C00000206
:10299000333B12317A11D17E0140027E037F402207
:1029A0001233237E017F4022123323121F997E03AC
:1029B00050027E017F4022121C8690004C12068538
:1029C00090004AE4F0A37404F07E017F40221233A9
:1029D00023121DE37E0350027E017F402290004AB5
:1029E000E07004A3E0640160057E037F0422900090
:1029F0004CE0FF121B8E7E0350027E017F402212AC
:102A000031BD90004AE07004A3E06406700BD3E58A
:102A1000389432E537940440057E037F0422E5387C
:102A2000240690004BF0E4353790004AF0E5384535
:102A300037602EC3E53794015006AE37AF388004B7
:102A40007E017F008E398F3AAB3AAD36AC35AF346C
:102A5000AE33121E3D40057E037F402212320C80B1
:102A6000CC7E017F40221231BD2406FFE43537FEC3
:102A700090004AE06E7003A3E06F60057E037F0460
:102A800022E5384537602EC3E53794015006AE374E
:102A9000AF3880047E017F008E398F3AAB3AAD3477
:102AA000AC33AF36AE35121ADC40057E037F4022D0
:102AB00012320C80CC7E017F4022752B01E5107014
:102AC00038E51124CF601F2431702E1224F1E50F58
:102AD0002432FFE4350E123492FC9004FC12068579
:102AE000751000751131009004FC1232587F0050AF
:102AF000027F01EF60D57F0022E4F52BF510F51180
:102B00007F0322E4F510F5111201DD121FA99038A0
:102B100060E493FF7818EFF27818E2FFE48FFC7F0F
:102B20000A7E007128C291228F828E8330AF23EFFC
:102B3000250FF53EEE350EF53DE4350DF53CE4355B
:102B40000CF53BAF3EAE3DAD3CAC3B123263501892
:102B500080F1E5821582AE83700215834E60097F95
:102B6000E87E03121A3E80EA22752B01E5127054AA
:102B7000E51324C5603B243B704A7819E2C4131363
:102B80001354011232721233C87006D293C2868077
:102B900004C293D28663A008E50F24F4FFE50E3447
:102BA00001123492FC90050012068575120075130F
:102BB0003B009005001232587F0050027F01EF6009
:102BC000B97F0022E4F52BF512F5137F0322D2AF73
:102BD0000215C6910671F071CEE4F52AE52A75F06A
:102BE00006A4240CF582E4341612330240EE80E988
:102BF000E4F52AE52A75F006A4240FF582E43416DC
:102C000012330240EE22E4F5A8F5E675B283E5B290
:102C1000C4131354031350F675B9807F057E001258
:102C20001A3E43B9C0E5B9C41354071350F775A948
:102C30000275B6809196438E08E589540F4420F5BD
:102C400089758D98D28EAFD4EF54EFFF8FD4AFD467
:102C5000EF54DFFF8FD443E101759802E4FB75FC6C
:102C6000FF75DA42AFD4EF54FDFF8FD40BE4F5E9E2
:102C7000F5EAE4F5DBE4F5EBF5ECE4F5DCE4F5EDA1
:102C8000F5EEE4F5DDE4F5FAF5F975D90875D84007
:102C9000EB540742E2227580BF7590F775A0FF756F
:102CA000B0FF75F17F75F2FE75F3FB75F4FE75A448
:102CB0004A75A55875A60AE4F5A775D4FF75D5FF22
:102CC00075D6FFF5E175E24022AB07AF31AE30AD0E
:102CD0002FAC2EA803020691EFC3946050037F0629
:102CE00022EFC3948050037F0122781FE22480608A
:102CF0001714601714601724836016243F7015EFB3
:102D0000C394A0500F7F02227F03227F04227F05FD
:102D1000227F00227FFF22AD0791D8AE07BEFF03BE
:102D20007FAA22C3EE64809481400CD3EE64809429
:102D30008250047F2080027F80EF145205EEFB3327
:102D400095E0FA741E2BF58274163A1234899F406E
:102D50007BEE6014147027ED24E524FD500460051B
:102D6000801C7F0022AF1522EDC39478400DEDD377
:102D7000947F5007ED90017093FF227FAA22C3EE4B
:102D8000648094814014D3EE64809482500CEE14DD
:102D9000C43354E02DF8E2FF8031C3EE64809483A5
:102DA0004027D3EE64809486501FAF06123392C33F
:102DB00033CE33CED8F91233EF7C00EF2DFFEC3E4B
:102DC0008F82F583E493FF80027FAA227FAA22C02C
:102DD000E0C0D075D000C004C005C006C007C2CF97
:102DE000AF0FAE0EAD0DAC0CEF2401F50FE43EF5C8
:102DF0000EE43DF50DE43CF50CD007D006D005D02F
:102E000004D0D0D0E032C0E0C083C082C0D075D042
:102E100000C0071216011217CBD007D0D0D082D035
:102E200083D0E0329004857403F07F02EFC39422D4
:102E30005030EFC313C3940124901232A14023E514
:102E40002B947F501D74842FF582E43404F583E5C0
:102E50002BF074852FF582E43404F583E4F00F0F32
:102E600080CA900484EFF09004A77403F07F02EF0F
:102E7000C394225030EFC313C3940124A01232A193
:102E80004023E52B947F501D74A62FF582E4340473
:102E9000F583E52BF074A72FF582E43404F583E481
:102EA000F00F0F80CA9004A6EFF09004C97403F0ED
:102EB0007F02EFC394225030EFC313C3940124B0B8
:102EC0001232A14023E52B947F501D74C82FF58248
:102ED000E43404F583E52BF074C92FF582E434045F
:102EE000F583E4F00F0F80CA9004C8EFF043F602B8
:102EF0001200469004F17401F0A37404F0A374A6C8
:102F0000F0A37401F0A37404F0A374C8F0A374FADE
:102F1000F0A37480F0A37401F0A3E4F07B017A04C1
:102F200079847D617CEA7FC47E10120E90C2AF224C
:102F3000D243C244C245C2468F2630AF05C2AFD38A
:102F40008001C31231FD0000000012329500000024
:102F50000012334B0000000012342F00000000125A
:102F60003426000000001234770000000012346E96
:102F7000000000001234650000000012345C000004
:102F800000001234530000000012344A0000000018
:102F900012344100000000123438000000001233E7
:102FA0008600D29700007547277548100000C29729
:102FB0000000121A3420300DE5481548AE47700263
:102FC00015474E70E702328AC20FC20ED20DD20CE4
:102FD0001230FCD20074FFF524F52522D29692948B
:102FE000C296A20FD2969294C296A20ED2969294B4
:102FF000C296A20DD2969294C296A20CD2969294A8
:10300000C296A20BD2969294C296A20AD29692949B
:10301000C296A209D2969294C296A208D29692948F
:10302000C296A207D2969294C296A206D296929483
:10303000C296A205D2969294C296A204D296929477
:10304000C296A203D2969294C296A202D29692946B
:10305000C29622C283C2A1A248D2969294C296A2DC
:1030600048D2969294C296A248D2969294C296A2C0
:1030700048D2969294C296A248D2969294C296A2B0
:1030800048D2969294C296A248D2969294C296A2A0
:1030900048D2969294C296A248D2969294C296A290
:1030A00048D2969294C296A248D2969294C296A280
:1030B00048D2969294C296A248D2969294C296A270
:1030C00048D2969294C296A248D2969294C296A260
:1030D00048D2969294C296A248D2969294C296A250
:1030E00048D2969294C296A248D2969294C296A240
:1030F00048D2969294C296A24822C20CEFC4540FB2
:1031000013920BEF131313541F13920AEF1313545C
:103110003F139209EFC313139208EF139207EDC404
:10312000540F139206ED131313541F139205ED134E
:1031300013543F139204EDC313139203ED13920241
:10314000D201227819E2C41313135401FFEF540182
:10315000FBE4FAF9F8AF2CFCFDFEC302061D7F0369
:103160007E00121A3EC2927F037E00021A3E784110
:1031700074FF120667EC4D4E4F2275330075344CC8
:10318000853482853383E0FFA3E0FD853482853377
:1031900083A3A3E0FAA3E0FBE5342404F582E4353D
:1031A00033F583E0F539A3E0F53AE5342406F53C40
:1031B000E43533F53B22C296A280D296227B4C7A2C
:1031C00000EB2406F534E43AF5338B828A83A3A31B
:1031D000E0FEA3E08E35F536EB2404F582E43AF503
:1031E00083E0F537A3E0F53822121B6DAF03121B05
:1031F0006DE4754410754327F542F5412292395329
:10320000A6FE43A580A24192A0C29722E53A2534AA
:10321000F534E5393533F533E53A2536F536E53914
:103220003535F535C3E538953AF538E5379539F54F
:103230003722E538253CFDE537353BFCE5362405EE
:10324000F582E43535F583E5822DF582E5833CF59D
:1032500083EFF0053CE53C22E0FCA3E0FDA3E0FEAB
:10326000A3E0FFAB0FAA0EA90DA80CC302061D78A0
:1032700019E2FFE4FCFDFEEF227F04FE1217F6AD1B
:1032800007AC0622A2A0D297923753A6FE53A57F81
:10329000A23992AF22D29743A601A24392A0C2972D
:1032A00022FDE434398D82F583E493F52BC3942019
:1032B00022121B6DE4753610753527F534F533226F
:1032C000EF4BFFEE4AED49EC487819EFF222FDFC96
:1032D000AB36AA35A934A83322121D29EF640D227A
:1032E00043A580C2977F147E00121A3ED2977F02B8
:1032F0007E00021A3EE5402542F582E4353FF58323
:10330000E022F583740193FA740293F9120704051D
:103310002AE52AC39403221226F88E2D8F2EAD2E75
:10332000AC2D22E490004AF0A3F022D282753F0136
:103330007540F4227E381226BAE422D296D294D274
:1033400083D2A122E5401540AE3F22D297A24492FB
:10335000A0C297227E047F447D007B017A007940E1
:103360002292AFE524F0A3E525F0A200227E3812D8
:103370002415AB47AA46A945A844C302061D8534B7
:1033800082853383A322D29753A6FED2A0C297226E
:10339000AF41EF3395E0FEEF7807228F828E83A353
:1033A000A3A3E0F539A3E0F53A22121B6DE4753AC8
:1033B00010753927F538F53722E9FD7C00AE47AFA7
:1033C00048AB07AA06C238225401FFE47B01FAF990
:1033D000F8C302061DD2827540017541F422D282E3
:1033E000753D01753EF4227819E21313543F2224EF
:1033F00080FFEE3436FE22D3E5416480948222EDD4
:103400009FEE6480F8EC64809822C3E54164809468
:1034100081221202629000487403F0A3228E3B8F37
:103420003C8C3D8D3E22D297A24692A0C29722D2DA
:1034300097A24592A0C29722D297A23792A0C29794
:1034400022D297A23692A0C29722D297A23592A0FA
:10345000C29722D297A23492A0C29722D297A233C7
:1034600092A0C29722D297A23292A0C29722D2975C
:10347000A23192A0C29722D297A23092A0C29722E4
:10348000754E3A754F00D23822F583E493FFE51567
:10349000C322FEE4350DFDE4350C228E358F368FC8
:1034A000828E8322AF16121EB77F0222D3E54164BB
:1034B00080948622C3E5416480948322C3E53C95D1
:1034C0003AE53B22853682853583E0227D40121025
:0434D000D58F2E2244
:00000001FF
