:100000000214A79007867402F0E59620E7FB759628
:1000100001759701E490078EF0A37403F0A3F0E458
:10002000900792F090079104F022220227A5E4FFA6
:10003000FE120200600C0FEF70010E09E970F20A67
:1000400080EF2202008DE4F510E5B964E0602E53E4
:10005000A90F85A91143B280E5A95407D3940140A3
:1000600003E4F5A9E4F5B943B980D510FD43B9C05F
:10007000E5B930E5FBE511B4020343A90253A90F2A
:0800800022C192C113002232DB
:10008B0080FAC0E0C0F0C083C082C0D075D000C081
:10009B0000C001C002C003C004C005C006C0079069
:1000AB00079DE596F0E59620E7FB75968EE5962085
:1000BB00E7FB90079EE597F0E59620E7FB759686A4
:1000CB00E59620E7FB900798E597F0E030E30BE52A
:1000DB009620E7FB75960B759707900798E030E233
:1000EB0003120003900798E030E014900786E0FFBE
:1000FB0064046004EFB40607900791E04480F0E5D8
:10010B009620E7FB759682E59620E7FB900798E52E
:10011B0097F0E030E003120CA5900798E030E22A4C
:10012B00E59620E7FB75960E759702E59620E7FBA3
:10013B00759691E59620E7FB900799E597F0E054CB
:10014B00037007900791E04402F0E59620E7FB75FA
:10015B009684E59620E7FB900798E597F0E030E270
:10016B0029E59620E7FB75960E759702E59620E735
:10017B00FB759694E59620E7FB900799E597F0E0E1
:10018B0030E007900791E04404F0E59620E7FB751B
:10019B00960E90079EE0F597E59620E7FB90079D5E
:1001AB00E596F0E59620E7FB900793E030E00990A9
:1001BB000791E0600312197BD007D006D005D0045D
:1001CB00D003D002D001D000D0D0D082D083D0F0D9
:0301DB00D0E0323F
:1001E00046333231424F4F540510FFFF00000001EB
:1001F00000000000000000000000000000000000FF
:10020000BB010689828A83E0225002E722BBFE02FC
:10021000E32289828A83E49322BB010CE58229F5DB
:1002200082E5833AF583E0225006E92582F8E6224A
:10023000BBFE06E92582F8E222E58229F582E58304
:100240003AF583E49322BB010689828A83F0225027
:1002500002F722BBFE01F322C5F0F8A3E028F0C5A7
:10026000F0F8E582158270021583E038F022EB9FEA
:10027000F5F0EA9E42F0E99D42F0E89C45F022E864
:10028000600FEFC333FFEE33FEED33FDEC33FCD8EC
:10029000F1227401FF3395E0FEFDFC080808E6CF6B
:1002A0002FF618E6CE3EF618E6CD3DF618E6CC3C25
:1002B000F622ECF0A3EDF0A3EEF0A3EFF022D08352
:1002C000D082F8E4937012740193700DA3A393F895
:1002D000740193F5828883E4737402936860EFA3DA
:1002E000A3A380DFD083D082F8E4937012740193CB
:1002F000700DA3A393F8740193F5828883E473745B
:100300000293B5F0067403936860E9A3A3A3A380E6
:10031000D88A838982E473E3F5F009E208B5F06DC9
:10032000606B80F3E3F5F009E608B5F060605E808D
:10033000F387F009E608B5F054605280F487F009BD
:10034000E208B5F048604680F488828C8387F00923
:10035000E0A3B5F038603680F488828C8387F0099A
:10036000E493A3B5F027602580F388828C83E3F5BE
:10037000F009E0A3B5F016601480F388828C83E363
:10038000F5F009E493A3B5F004600280F2020442A0
:10039000808580E7808E80D2803C8015806C807E56
:1003A000809B80B5808B80A1804F8070803A020452
:1003B0004E89828A83ECFAE493F5F0A3C8C582C81B
:1003C000CCC583CCE493A3C8C582C8CCC583CCB5C7
:1003D000F070606E80E189828A83E493F5F0A3E295
:1003E00008B5F05E605C80F289828A83E0F5F0A354
:1003F000E608B5F04D604B80F389828A83E0F5F022
:10040000A3E208B5F03C603A80F389828A83E493E2
:10041000F5F0A3E608B5F02A602880F280538982BF
:100420008A83ECFAE493F5F0A3C8C582C8CCC583EF
:10043000CCE0A3C8C582C8CCC583CCB5F0046002AB
:1004400080E27FFFB5F0020F2240027F0122898205
:100450008A83ECFAE0F5F0A3C8C582C8CCC583CC8A
:10046000E0A3C8C582C8CCC583CCB5F0D560D38025
:10047000E389828A83ECFAE0F5F0A3C8C582C8CC90
:10048000C583CCE493A3C8C582C8CCC583CCB5F0E2
:10049000B160AF80E288F0ED2402B4040050A3F50F
:1004A00082EB2402B4040050992323458223900355
:1004B0009073E709F60870FA8046E709F20870FAC7
:1004C000803E88828C83E709F0A370FA807EE3097E
:1004D000F60870FA8076E309F20870FA806E888276
:1004E0008C83E309F0A370FA806289828A83E0A397
:1004F000F60870FA805689828A83E0A3F20870FABF
:10050000804A80D280FA80C680D4806580F28031B3
:10051000801080A680EA809A80A880DA80E280CA73
:10052000803189828A83ECFAE493A3C8C582C8CC5F
:10053000C583CCF0A3C8C582C8CCC583CC70E98084
:100540000D89828A83E493A3F60870F9ECFAA9F086
:10055000EDFB2289828A83ECFAE0A3C8C582C8CC6D
:10056000C583CCF0A3C8C582C8CCC583CC70EA8053
:10057000DD89828A83E493A3F20870F980CE88F043
:10058000ED2402B4040050C4F582EB2402B404004C
:1005900050BA232345822390050273EF4E6012EF79
:1005A00060010EEDBB010B89828A83F0A3DFFCDEC4
:1005B000FA2289F05007F709DFFCA9F022BBFEFC04
:1005C000F309DFFCA9F022E88FF0A4CC8BF0A42C77
:1005D000FCE98EF0A42CFC8AF0EDA42CFCEA8EF051
:1005E000A4CDA8F08BF0A42DCC3825F0FDE98FF038
:1005F000A42CCD35F0FCEB8EF0A4FEA9F0EB8FF02F
:10060000A4CFC5F02ECD39FEE43CFCEAA42DCE35B6
:10061000F0FDE43CFC22C3E49FFFE49EFEE49DFD6C
:10062000E49CFC22FAE6FB0808E6F925F0F618E659
:10063000CA3AF622BB011A89828A83D0F0D0E0F848
:10064000D0E0F9D0E0FAD0E0FBE8C0E0C0F002066C
:100650008C5016E9F8D083D082D0E0F9D0E0FAD0FF
:10066000E0FBC082C083020683BBFE16E9F8D0839C
:10067000D082D0E0F9D0E0FAD0E0FBC082C08302A3
:10068000069522EBF608EAF608E9F622EBF0A3EA73
:10069000F0A3E9F022EBF208EAF208E9F222E53FE2
:1006A0002433F8E6053F2278303010027833E475C1
:1006B000F0011206240202002009EB7F2ED20980ED
:1006C00018EF540F2490D43440D4FF300D0BEF2496
:1006D000BFB41A0050032461FFE5406002154005D5
:1006E00043E5437002054230100D7830E475F001A7
:1006F000120624EF0202460219547403D21080033A
:10070000E4C210F53F8B308A318932E4F540F5427E
:10071000F543E54060077F201206D980F57541FF5B
:10072000C20AC209C20BC20CC20EC20FC21112060B
:10073000A7FF700D3010057F001206EAAF43AE42EE
:1007400022B4255FC2D5C20D1206A7FF24D0B40A79
:1007500000501A75F00A784030D50508B6FF01063A
:10076000C6A426F620D5047002D20C80D924CFB4BA
:100770001A00EF5004C2E5D20D0208EAD20A80C680
:10078000D20980C0D20B80BCD2D580BAD20E80B440
:100790007F201206D9200B077401B5400040F112EA
:1007A000069EFF1206D9020712D211D20F809512AF
:1007B000069EFB12069EFA12069EF94A4B700679B7
:1007C000BB7A097BFF200B2EE540602A7E008E82DB
:1007D00075830012021960060EEE654170F0C2D5F5
:1007E000EBC0E0EAC0E0E9C0E0EE120931D0E0F988
:1007F000D0E0FAD0E0FB120200FF60AAEBC0E0EA12
:10080000C0E0E9C0E01206D9D0E02401F9D0E0341C
:1008100000FAD0E0FBE5410460DCD541D980877B5C
:10082000FF7A09792DD20B809C791080027908C259
:100830000FC2118008D2D5790A8004790AC2D5E5A1
:1008400041047002F541E4FAFDFEFF12069EFC7BB6
:1008500008200A1312069EFD7B1030090A12069E1C
:10086000FE12069EFF7B20EC3382D592D55013C337
:10087000E43009069FFFE49EFEE4200A039DFDE4A8
:100880009CFCE4CBF8C20AEC700CCFCECDCCE824B3
:10089000F8F870F38017C3EF33FFEE33FEED33FD4E
:1008A000EC33FCEB33FB994002FB0FD8E9EB300A49
:1008B00005F8D0E0C448B20AC0E00AEC4D4E4F78CB
:1008C000207B0070C2EAB5410040BCC0E012093391
:1008D000D0F0D0E0200A04C4C0E0C4B20AC0F012D4
:1008E00006C2D0F0D5F0EB0207121202BE07AF53DA
:1008F00008295807804C077C42082D4F08354408CA
:100900003549079543083B55081F46081F45081FF2
:100910004709DB5007842D07882E07AB2B078C2354
:1009200007A92009C42A074448000007A33F3F3F06
:1009300000790AA2D5200C14300E09B91002040463
:10094000B9080104A2D5200F02500104200B6892BF
:100950000BB540005034C0E07F20300C197F30A22E
:100960000B720F720E500F12098AC20BC20FC20E09
:10097000C2117F30800F300E03E9C0E01206D9307B
:100980000E03D0E0F9D0E0B540CC300E177F30B97F
:10099000100C1206D97F58300D077F788003B908F4
:1009A000031206D9300B057F2D0206D97F202011B6
:1009B000F87F2B200FF322920B80CF286E756C6C82
:1009C0002900D20A12069E300AF8C20A784030D5B1
:1009D0000108F60207442D5043495812069E24038D
:1009E000B405004001E49009D6931206CA743A1285
:1009F00006CAD20C754004020829636C73006C6F40
:100A00006F706261636B007265626F6F74006D5F1F
:100A100072205B636F64657C78646174615D203C07
:100A20006164723E207B3C636E743E7D006D5F7737
:100A3000205B636F64657C78646174615D203C61F8
:100A400064723E203C6461743E207B2E2E2E7D001D
:100A5000696F5F77203C706F72743E203C626974EE
:100A60003E203C76616C3E00696F5F6D0063326DC5
:100A70005F72657365740063326D5F70726F62657B
:100A80000063326D5F6368697065726173650063EE
:100A9000326D5F706167656572617365203C70617E
:100AA00067655F6E6F3E0063326D5F72656164669D
:100AB0006C617368203C616464723E207B3C6C65B1
:100AC0006E3E7D0063326D5F7772697465666C613E
:100AD0007368203C616464723E203C6461743E2013
:100AE0007B2E2E7D000A0D417661696C61626C651A
:100AF00020436F6D6D616E6473203A000A0D2025EE
:100B000073000A0D0A0D436F6E74696E756F75730D
:100B1000204578656375746520436F6D6D616E6403
:100B20003A0A0D203C636F6D6D616E643E203C702F
:100B30006172616D733E202573002F430000082011
:100B4000080025730025732000256263003F002301
:100B5000000A0A0D202020202020202020202020F4
:100B600020002D2D2D2D2D2D2D2D2D2D2020202023
:100B7000507265737320274553432720746F2045B7
:100B8000786974202020202D2D2D2D2D2D2D2D2DFB
:100B90002D000A0D496E76616C696420636F6D6D7E
:100BA000616E6421000A0D25733E000A0D202A2A79
:100BB0002A2A2A2A2A2A2A2A2A2A2A2A2A2A2A2A95
:100BC0002A2A2A2A2A2A2A2A2A2A2A2A2A2A2A2A85
:100BD0002A2A2A2A2A2A2A2A2A2A2A2A2A2A2A2A75
:100BE0002A2A2A2A2A2A2A2A2A2A2A2A2A2A2A2A65
:100BF0002A2A2A2A2A2A2A2A2A2A2A000A0D2020D0
:100C0000204669726D776172652056657273696FEF
:100C10006E203A20256258252E3262582D252E321C
:100C20006258252E3262582D252E3262582D252EDF
:100C30003262582D252E3262582D252E32625800F0
:100C40000A0D2020204275696C642054696D65206E
:100C50002020202020203A204A756E203134203276
:100C6000303136202031313A31343A3338000A0DF0
:100C7000001FF509FA262409FE2D3F0A072B600AFA
:100C80000E2C500A2D29DA0A502AF20A682D4D0A34
:100C90006D2D6A0A772D870A812DA40A8F2DE20A0D
:100CA000A72E990AC4E59620E7FB75960EE4F59702
:100CB000E59620E7FB759691E59620E7FB90079C6B
:100CC000E597F0E0FF30E210E59620E7FB7596111E
:100CD000E4F59790078EF022EF30E410E59620E7D8
:100CE000FB759611759780E490078EF090078EE063
:100CF0006003020DD190079CE020E003020DD17546
:100D000096204396C0E4F544E59620E7FB747E25E3
:100D100044F582E43407F583E597F00544E544B4EF
:100D200007E6E59620E7FBE4F596747E2544F58218
:100D3000E43407F583E597F0900781E0FE900780A3
:100D4000E07C002400FFEC3E900794F0A3EFF090CD
:100D50000785E0FE900784E02400FFEC3E900796B4
:100D6000F0A3EFF090077FE004603B14B40C005058
:100D70005D900D78F8282873020D9C020DA1020DDC
:100D8000A6020DAB020DCE020DB0020DB5020DCEC6
:100D9000020DBA020DBF020DC4020DC91215DA8090
:100DA000301216BC802B1212D7802612171B8021FE
:100DB00012199D801C1213E78017121878801212E6
:100DC0001779800D12192D80081219F3800312195A
:100DD000BD90078EE064016003020EB990079C7419
:100DE00002F0C390078DE0944090078CE09400409F
:100DF00055E59620E7FB759620E4F544900787E0DB
:100E0000FBA3E0FAA3E0F98544827583001202197E
:100E1000F597E59620E7FB0544E544B440DE9007EE
:100E200088E475F04012025890078DE024C0F090DD
:100E3000078CE034FFF090078BE02440F090078AA5
:100E4000E03400F08045E59620E7FB759620E4F558
:100E500044D390078DE0954490078CE09400401FA8
:100E6000900787E0FBA3E0FAA3E0F985448275834D
:100E700000120219F597E59620E7FB054480D29011
:100E8000079CE04408F0E490078EF0900796E0FE9F
:100E9000A3E0FF90078AE0B50611A3E0B5070C9028
:100EA000079CE04408F0E490078EF0E59620E7FB0D
:100EB00075961190079CE0F597228B308A31893224
:100EC000E4F53CF53BF53AF539F537F538E53445C9
:100ED0003545336012EBC0E0EAC0E0E9C0E0AB3377
:100EE000AA34A935120634AB300532E532AA317086
:100EF00002053114F9120200F53DC394094007E5DB
:100F00003DD3940D40E1E53D642060DBE53DB42D2B
:100F1000054338038016E53DB42B05433801800CAA
:100F200074FF2532F53274FF3531F531E536600452
:100F30006410703FAB30AA31A932120200643060F5
:100F400009E536702E75360A8029900001120219C3
:100F5000FF64786004EFB458134338017536107499
:100F6000022532F532E43531F5318007E53670037C
:100F7000753608AB300532E532AA317002053114FE
:100F8000F9120200F53DC39461400AE53DD3947A1D
:100F90005003533DDF74D0253DF53DC3940A400C0A
:100FA000E53D9411406D74F9253DF53DE53DC39552
:100FB000365060433801853C41853B40853A3F854A
:100FC000393EAF367E00E4FCFDAB3CAA3BA93AA813
:100FD000391205C7C8ECC8C9EDC9CAEECACBEFCBF8
:100FE000E4FCFDFEEB253DF53CEE3AF53BED39F535
:100FF0003AEC38F539AF3CAE3BAD3AFCAB41AA40D8
:10100000A93FA83ED312026E5003020F7343380467
:10101000020F73E53820E003E4802DE534453545C3
:1010200033601EAB30E53224FFF9E53134FFFAEBD3
:10103000C0E0EAC0E0E9C0E0AB33AA34A93512064B
:1010400034E53830E20774FFFFFEFDFC22E538AFDF
:101050003CAE3BAD3AAC3930E103020616220A0D34
:1010600043324D2052657365742054617267657414
:1010700020446576696365202E2E2E2000446F6E15
:10108000652E004661696C2E000A0D43324D2050DA
:10109000726F626520546172676574204465766979
:1010A0006365204944202E2E2E2000252E386C58B2
:1010B000000A0D43324D2054617267657420446507
:1010C00076696365204368697020457261736520A5
:1010D0002E2E2E20000A0D496E76616C6964205018
:1010E0006172616D6574657221000A0D4332204D95
:1010F0006173746572205061676520457261736524
:101100003A20706167655F6E6F3D3078252E3262E0
:1011100058202E2E2E20000A0D4332204D6173746C
:101120006572205265616420466C6173683A206183
:101130006464723D3078252E3468582C206C656EBE
:101140003D3078252E326258202E2E2E20000A0D9A
:1011500020252E3468583A00202D0020252E32629A
:1011600058000A0D4332204D617374657220577226
:1011700069746520466C6173683A20616464723DED
:101180003058252E3468582C206C656E3D307825FB
:101190002E326258202E2E2E20000A0D44617461DA
:1011A0003A009001ADEEF0A3EFF09001B1EBF0A3A7
:1011B000EAF0A3E9F0E4F525E5259018BF93FF7464
:1011C000402525F582E43407F583EFF00525E52574
:1011D000B412E5E4F525E5259018D193FF74522566
:1011E00025F582E43407F583EFF00525E525B420E5
:1011F000E59001ADE0F526A3E0F527900748E52747
:10120000F0A3E526F08C268D27A3E527F0A3E5269D
:10121000F090077274FFF0A37418F0A374F1F090CB
:1012200001B1E0F9A3E0FAA3E0900775C9F0A3EAE1
:10123000F0A3E9F09001B4E0F9A3E0FAA3E090078D
:1012400078C9F0A3EAF0A3E9F09001B7E0F9A3E0D0
:10125000FAA3E090077BC9F0A3EAF0A3E9F09001BC
:10126000BAE0FFC394FA500590075AEFF09001BB23
:10127000E0900759F09001BCE0FEA3E090074CF02D
:10128000EEA3F0E59620E7FB759601759708E596C5
:1012900020E7FB75960775970FE59620E7FB759697
:1012A0000975970EE59620E7FB75960B7597077500
:1012B000D7E0121A07E4900792F0900791F0900798
:1012C00093F0900786F043E602D2AFE59620E7FB65
:1012D00075960175970122900794E0B4373CA3E01E
:1012E000B40B3790078EE0640460101219F3900776
:1012F0008E7401F0E490078AF0A3F090079B74804D
:10130000F09007877401F0A37407F0A3749BF0902A
:10131000078CE4F0A304F00213D9900795E020E0D5
:10132000030213B0900793E030E00854FEF044024B
:10133000F08007900793E054FDF0E59620E7FB75F9
:10134000960E759702E59620E7FB75961475971033
:10135000E59620E7FB759611759708E59620E7FB63
:10136000759694E59620E7FB90079BE597F0E020C3
:10137000E4E9E59620E7FB759614759710E596204D
:10138000E7FB759691E59620E7FB90079BE597F0C4
:10139000E020E3E9E59620E7FB7596117597089044
:1013A00007917408F0900793E0FF30E1034401F0E7
:1013B000900794E0FCA3E0FD30E10D9007867406F1
:1013C000F0900791E04410F0ED30E20D9007867444
:1013D00004F0900791E04420F0E59620E7FB759635
:1013E0000EE4F5970219F3E490022DF0900781E0E6
:1013F00024FE601B14603B24027072900787740106
:10140000F0A37407F0A37440F0900740E08053907D
:1014100007877401F0A37407F0A37452F090075586
:10142000E0FE900754E07C002400FFEC3E90078C27
:101430008035900780E0FFD394034002802FEF7542
:10144000F003A42472F582E43407F583E0FBA3E003
:10145000FAA3E0F9900787EBF0A3EAF0A3E9F01212
:101460000200FF90078CE4F0A3EFF080031219BD97
:1014700090078CE0FEA3E0FF900796E0FCA3E0FD60
:10148000C39FEC9E500890078CECF0A3EDF0900702
:101490008EE0640460101219F390078E7401F0E47A
:1014A00090078AF0A3F022E4F5D978FFF6D8FD90F2
:1014B00000007E047F00F0A3DFFCDEFA75814402A9
:1014C00014FD021C27E493A3F8E493A34003F680E1
:1014D00001F208DFF48029E493A3F85407240CC830
:1014E000C333C4540F4420C8834004F456800146DB
:1014F000F6DFE4800B010204081020408090008198
:10150000E47E019360BCA3FF543F30E509541FFE05
:10151000E493A360010ECF54C025E060A840B8E476
:1015200093A3FAE493A3F8E493A3C8C582C8CAC5F9
:1015300083CAF0A3C8C582C8CAC583CADFE9DEE78B
:1015400080BE0A0D205761726E696E673A200A0DDF
:1015500020204F6E636520656E7465726564206C33
:101560006F6F706261636B206D6F64652C200A0D74
:1015700020206F6E6C7920686172647761726520DB
:1015800072657365742063616E207265636F766542
:101590007220746F206E6F726D616C206D6F646568
:1015A0002E0A0D20436F6E74696E75653F202859B1
:1015B0002F4E292000590A004E0A0020252E3262A3
:1015C00058000A0D2053797374656D205265626F5F
:1015D0006F74696E67202E2E2E0090077EE0247FA8
:1015E000600714600624027048802D90078FE0B4D5
:1015F0000309900782E0B40202800E900790E0B4E5
:101600000316900782E0B4820F90078774FFF0A35F
:101610007418F0A374F5800D90078774FFF0A3741D
:1016200018F0A374F7F090078CE4F0A37402F08034
:10163000031219BD90078EE0640460101219F39034
:10164000078E7401F0E490078AF0A3F0228B268ABB
:10165000278928AB29AA2AA92B120200FEAB26AAA9
:1016600027A928120200FF6E702BEF600DE52D15E3
:101670002D7002152C14452C70037F002274012557
:1016800028F528E43527F5277401252BF52BE435BB
:101690002AF52A80BEAB26AA27A928120200FDD36C
:1016A000EE6480F8ED64809840037F0122AB29AAA4
:1016B0002AA92B120200FFC3ED9FFF22900780E0B2
:1016C0007048900782E0FFB4021DE59620E7FB75A5
:1016D000960E759702E59620E7FB75961475978030
:1016E000E490078FF08026EFB4821DE59620E7FB9B
:1016F00075960E759702E59620E7FB75961175971E
:1017000040E4900790F0800580001219BDE5962016
:10171000E7FB75960EE4F5970219F3900780E070E9
:1017200047900782E0FFB4021BE59620E7FB759621
:101730000E759702E59620E7FB7596147597209035
:10174000078F801DEFB4821EE59620E7FB75960E8D
:10175000759702E59620E7FB75961175971090072F
:10176000907403F0800580001219BDE59620E7FB18
:1017700075960EE4F5970219F3900780E0D3940074
:101780004042900791E04440F09007867404F0E4F2
:1017900090078FF0A3F0E59620E7FB75960E7597FE
:1017A00002E59620E7FB759612759784E59620E78B
:1017B000FB759615759780E59620E7FB75960EE408
:1017C000F597800C9007867403F090078FF0A3F0D4
:1017D0000219F30A0D496E76616C696420506172DA
:1017E000616D6574657221000A0D20494F205772A2
:1017F00069746520502562642E2562643D2562640B
:1018000020000A0D20416C6C20494F205265616414
:10181000205374617475733A000A0D00202050251E
:1018200062642E2562643D256264001B5B25626450
:1018300044001B5B25626443001B5B25626441001E
:101840001B5B25626442001B5B2562644B001B5BD3
:101850002562644A001B5B2562646D001B282562BB
:1018600064001B37001B38001B5B2562643B25624C
:101870006448001B5B366E00900786E0FFB40414DA
:10188000A374FFF0A37418F0A374F5F090078CE430
:10189000F0A304F0EFB4031690078774FFF0A3746D
:1018A00018F0A374F7F090078CE4F0A304F0121979
:1018B000F390078E7401F0E490078AF0A3F02212EF
:1018C00001100100000040C41000000000010203EC
:1018D000010902200001010080FA0904000002FF52
:1018E00000000007050202400000070582024000D8
:1018F0000004030904010000000A0D496E76616CC2
:10190000696420506172616D657465722100636F56
:101910006465007864617461000A0D20252E3468C6
:10192000583A00202D0020252E326258009007875B
:1019300074FFF0A37418F0A374F7F090078CE4F030
:10194000A304F01219F390078E7401F0E490078A53
:10195000F0A3F022EFB40A07740D12195F740A3075
:101960009811A899B8130CC2983098FDA899C298FC
:10197000B811F63099FDC299F59922D007D007D059
:1019800007D006D005D004D003D002D001D000D0BB
:10199000D0D082D083D0F0D0E002008322E5962020
:1019A000E7FBE4F596900780E0FFF597EF90078658
:1019B00060057403F080037402F00219F3E59620C9
:1019C000E7FB75960EE4F597E59620E7FB75961113
:1019D00075972090078E7404F022900793E04401DD
:1019E000F0900791E0600BE59620E7FB75960B758C
:1019F000970F2290078EE06404600BE59620E7FBCA
:101A000075961175974022E59620E7FB75960F7540
:101A1000978922437265614C696768747320496EC7
:101A2000632E00005553422D436F6E7665727465C8
:101A3000720000000053696C6162732D433241648F
:101A4000617074657200FF1A58FF1AA1FF1AABFF8C
:101A50001C1DFF274DFF296E752401E50C7038E52C
:101A60000D24CF601D2431702E12002A120086E54D
:101A70000B24321230D89002941202B2750C007509
:101A80000D31E4F5FE9002941230137F0050027F76
:101A900001EF60D57F0022E4F524F50CF50D7F03FE
:101AA00022E4F50CF50D51F1020086752401E50ED6
:101AB0007035E50F24C8601A2438702B63A008E540
:101AC0000B24641230D89002981202B2750E007581
:101AD0000F38E4F5FE9002981230137F0050027F19
:101AE00001EF60D87F0022E4F524F50EF50F7F03A7
:101AF00022438E10E4F5C875CA4075CC4075CBA260
:101B000075CDA2C2CFD2CAC2BDD2ADF50BF50AF5D2
:101B100009F508712053A57F53A6FED297D2A022C3
:101B200090022F7403F07F02EFC39422502BEFC377
:101B300013901A121231BC4020E524947F501A747D
:101B40002E2FF582E43402F583E524F0742F2FF56F
:101B500082E434021231B580CF90022EEFF0900271
:101B6000517403F07F02EFC39422502BEFC3139004
:101B70001A231231BC4020E524947F501A74502F50
:101B8000F582E43402F583E524F074512FF582E404
:101B900034021231B580CF900250EFF0900273748E
:101BA00003F07F02EFC39422502BEFC313901A343B
:101BB0001231BC4020E524947F501A74722FF582B4
:101BC000E43402F583E524F074732FF582E43402E3
:101BD0001231B580CF900272EFF043F60212004648
:101BE0009001B47401F0A37402F0A37450F0A374D4
:101BF00001F0A37402F0A37472F0A374FAF0A3745A
:101C000080F0A37401F0A3E4F07B017A02792E7DC9
:101C1000617CEA7FC47E101211A2C2AF22E4F50EED
:101C2000F50F22D2AF21DA915E91469123E4F5239C
:101C3000E52375F006A42446F582E4341A12311B1C
:101C4000940340EC80E7E4F523E52375F006A42433
:101C500049F582E4341A12311B940340EC22E4F576
:101C6000A8F5E675B283E5B2C4131354031350F616
:101C700075B9807F057E0091E043B9C0E5B9C41312
:101C800054071350F775A90275B680122800438EC9
:101C900008E589540F4420F589758D98D28EAFD40C
:101CA000EF54EFFF8FD4AFD4EF54DFFF8FD443E175
:101CB00001759812122833E58E54F84402F58EE52A
:101CC0008954F04402F589758CCED28C75FD75432C
:101CD000D940E4F5FE22A2A0D29792007F017E00B7
:101CE0008018EF1F70011E144E60140000000000E9
:101CF0000000000000000000000000000080E3225F
:101D000074FFF52BF52AF529F528209702A19820D4
:101D1000A002A1981230BF7F0212214E12286D7FBF
:101D20000412286D7F0112286D7F147E001221C2DB
:101D3000E4FFF1E38F287F01F1E38F29E528F460C8
:101D4000577514B4123225B1A1F1C5EF640D601FAF
:101D50007514AD123225123166D1D3EF20E00B7825
:101D60002C122FFC600491DC80EF12310C7029F1F1
:101D7000C58F2AAF1412214E7F01123166D1D3EFE5
:101D800020E00B782C122FFC600491DC80EF1220F5
:101D900000BF0D04F1C58F2BAF2BAE2AAD29AC28A7
:101DA0002212286D753627753710D1D3EF30E11127
:101DB000E5371537AE36700215364E600491DC807B
:101DC000E9228E2B8F2C8C2D8D2EEB70057E01FF42
:101DD0008004EBFF7E008E2F8F30C208209702C157
:101DE0006030A07CAF1412214E7F071230FDD1D39A
:101DF000EF20E009122FFA600491DC80F112310C1F
:101E0000705EE52BFFB1A1AF2CB1A1AF031230FD85
:101E1000D1D3EF20E009122FFA600491DC80F11297
:101E2000310C703CE5301530AE2F7002152F4E602E
:101E300015052EE52EAE2D7002052D14F5828E832C
:101E4000E0FFB1A180DE123100D1D3EF20E0091212
:101E50002FFA600491DC80F1122000BF0D02D2083D
:101E6000A20822AB07C20830976630A063AF1412F5
:101E7000214E7F08123157D1D3EF20E00B78291281
:101E80002FFC600491DC80EF12310C7043AF031221
:101E90003157D1D3EF20E00B7829122FFC60049149
:101EA000DC80EF12310C7028E4FFB1A1E4752C4006
:101EB000752B9CF52AF529D1D3EF20E00B78291258
:101EC0002FFC600491DC80EF122000BF0D02D208CD
:101ED000A20822C214D21530AF05C2AFD38001C30D
:101EE00012305BC297000000001230A20000000018
:101EF000122FF10000000012313E00D297000000C6
:101F000000C2970000A2A0D29792000000C29700E2
:101F100000A2A0D29792010000C2970000A2A0D216
:101F20009792020000C2970000A2A0D297920300ED
:101F300000C2970000A2A0D29792040000C29700AE
:101F400000A2A0D29792050000C2970000A2A0D2E2
:101F50009792060000C2970000123091AF2022C273
:101F60000830975E30A05BAF1412214E7F03B1A101
:101F7000E4752B10752A27F529F528D1D3EF20E039
:101F80000B7828122FFC600491DC80EF12310C706A
:101F9000317FDEB1A17FADB1A17FA5B1A1752B00CD
:101FA000752A2D752931752801D1D3EF20E00B78E2
:101FB00028122FFC600491DC80EF122000BF0D027C
:101FC000D208A20822E4753910753827F537F5369E
:101FD000D1D3EF20E00B7836122FFC600491DC8027
:101FE000EF801D12214E801830970320A002C322DB
:0A1FF0001230BFD322E4FF0225AB3C
:10200000C214C215C216C21730AF05C2AFD38001C9
:10201000C312305BC297000000001230A200000023
:1020200000122FF1000000001231CC00000000125D
:1020300031C30000000012313E00D2970000753A13
:1020400027753B100000C2970000121CD620000D1F
:10205000E53B153BAE3A7002153A4E70E70000C200
:10206000970000A2A0D29792000000C2970000A2A1
:10207000A0D29792010000C2970000A2A0D297922E
:10208000020000C2970000A2A0D29792030000C2F3
:10209000970000A2A0D29792040000C2970000A26D
:1020A000A0D29792050000C2970000A2A0D29792FA
:1020B000060000C2970000123091AF20228E2C8FB4
:1020C0002D8C2E8D2FEB70057E01FF8004EBFF7EA3
:1020D000008E308F31C20830977130A06EAF14314E
:1020E0004E7F06123148121ED3EF20E00C783212D8
:1020F0002FFC6005121CDC80ED12310C704DE52EBA
:10210000FF121DA1AF2F121DA1AF03123148121EE5
:10211000D3EF20E00C7832122FFC6005121CDC801B
:10212000ED1100BF0D25E5311531AE3070021530CF
:102130004E6016121FC5052DE52DAC2C7002052C26
:1021400014F5828C83EFF080DDD208A20822D2142D
:10215000D2158F2030AF05C2AFD38001C312305BE0
:10216000C297000000001230A200000000122FF100
:10217000000000001232140000000012320B0000B8
:102180000000123202000000001231F900000000CD
:102190001231F0000000001231E70000000012319F
:1021A000DE000000001231D500000000D297D2A05E
:1021B00053A6FEA21292A0C29700000000D297027E
:1021C000309A8F828E8330AF26EF250BF533EE35B4
:1021D0000AF532E43509F531E43508F530AF33AEB0
:1021E00032AD31AC3012301E501EE4F5FE80EEE50B
:1021F000821582AE83700215834E600CE4F5FE7F7B
:10220000E87E03121CE080E72274FFFFFE8E2A8F17
:102210002BE52B452A602120981EC3E52A64809473
:1022200080400DE52B152BAE2A7002152A4E600852
:102230007F017E0031C280DF2098067EFF7FFF8015
:1022400006C298AF997E0022E4FFFE510D8E258FC5
:1022500026EFF47002EEF47002815AE52560026107
:10226000D9E5261202BE23B508228B0A228B0D2344
:10227000401A239A7F237A8123888222D98522F9E2
:1022800086235987236988000023D97E017F5BD18B
:102290006F7B017A01795B12308A7001D3402D90F7
:1022A0000015E0FF04F0EF1230B3A801FC7D017BC4
:1022B000017A01795B12057E9000151230AEA801FB
:1022C000FC7D017BFF7A0B793D12057E900015E0C5
:1022D000A3F0E49001ACF0D322123006E0C39FE4F7
:1022E0009E500512303F80F1123113400512304BE1
:1022F00080F6900016E014801E123006E0C39FE4C2
:102300009E500512303F80F1123113400512304BC0
:1023100080F6900016E004F01230AEFA7B01785B94
:102320007C017D0112057E123006EFF075330175D8
:10233000340175355B7BFF7A0B7942120700414807
:10234000123006E0C39FE49E500512303F80F11228
:102350003113402D12304B80F61231135002414898
:102360007F01916E1230544148123006E0C39FE461
:102370009E4002414812303F41489001ACE0FF913D
:102380006EE49001ACF04148123006E0FEC3EF9ECF
:10239000FF915C123006EFF04148123006E0C39F17
:1023A000E49E400241481231A9C001123190D0018F
:1023B00012057E801B12311350024148E014F012C6
:1023C00031A9C001123190D00112057E7F01916EBA
:1023D0001230E67A0B7945807AC3E5269420E5250C
:1023E0006480948050024148E526947FE52564800E
:1023F0009480400241487B017A01795B12002E8F64
:1024000027E527D3945040024148745C2FF582E4BD
:102410003401F583E4F09001ACE0FFE527D39F4061
:1024200016745A2527F582E43401F583E0FF123152
:102430009DEFF0152780DF12319DE526F012304424
:102440007BFF7A0B79498526331207001230E67A32
:102450000B7942120700F1DC4148C322EFD394000C
:10246000400B7BFF7A1879328F3312070022EFD3AB
:102470009400400B7BFF7A18792B8F3312070022D0
:10248000900014E07002A196900004E0FEA3E0AA80
:1024900006F8122FA47A0B794D120495EF7004B14F
:1024A000E5A192122F437529FF752A0B752B4F75E5
:1024B0002C00752D0112164DEF7002A192E4F52546
:1024C000122F4312002E8E2C8F2D122F43C002127A
:1024D000302D1230797529FF8A2AF52BD002121679
:1024E0004DEF6002A179122F4312302A1231756428
:1024F00020600B122F4312302A123175707B90002E
:1025000014E0FFD394014068EF25E02402F582E453
:102510003400F583122F8B7001D3401874FFC37001
:1025200001D34010122F9E7A0B793A122F97700226
:102530007F0180027F00EF6037E4FFB1AB7F01B124
:10254000AB123068F91203117BFF7A0B7951120735
:10255000007F07B1A07BFF7A0B7962120700E4FFCE
:10256000B1A07FE87E03510DEF641B4E70CF801445
:10257000123068F9120311800B0525E525C3940D6F
:10258000500281C0E525B40D097BFF7A0B799212C8
:102590000700E4123183227BFF7A18796202070078
:1025A0007BFF7A1879558F33020700EF1460070418
:1025B000700D7F0280027F01F1E5E4FDFFF1F02262
:1025C000B1CAE4FFB1A0E4FF80E130AC05C2ACD3F6
:1025D0008001C39208E4FFFE510DBEFFF8BFFFF576
:1025E000A20892AC227BFF7A0A79E5120700E4F593
:1025F00026E52612302F1230797533FF8A34F535EF
:102600007BFF7A0A79FC1207000526E526C3940DA4
:1026100040DF7533FF75340B75353A7BFF7A0B79E4
:10262000020207007BFF7A15794212070051098EDA
:10263000288F29E52870F6E52924B2601724E06088
:102640001324F56004242070E47BFF7A1579B51219
:10265000070080097BFF7A1579B802070051098FBE
:10266000287BFF7A1579BB85283312070080EE8E10
:10267000288F291230847001D3404585282A852966
:102680002B12321D603AAF2BAE2AF1088E2A8F2B07
:1026900012321DFF60136420600FEF6409600A05A9
:1026A0002BE52B7002052A80E7EF6014052BE52B44
:1026B000AE2A7002052A14F5828E837420F080C140
:1026C000AF29AE281230807001D34037AA2CA92D33
:1026D0007B0112002EEF252DFFEE352CCF24FFF5C8
:1026E0002FEF34FFF52E122FABE0FF64206004EFD4
:1026F000B4090AE52F152F7002152E80E9122FABB1
:10270000A3E4F0AE2CAF2D221230807001D34038FC
:10271000852C2E852D2F122FABE0FF64206004EF57
:10272000B4090A052FE52F7002052E80E9E52F6513
:102730002D7004E52E652C600FAA2EA92F7B01A811
:102740002DAC2C7D0112057EAE2CAF2D22752401FF
:10275000E5138512F01202E4276400002786018445
:102760000000279B5148500B122906918012312EF0
:10277000120700E50B24051230D89000001202B2B7
:10278000751201751384E4F5FE9000001230137F7A
:102790000050027F01EF60CC7F0022E4F524F512A7
:1027A000F5137F0322C0E0C0D075D000C004C0057F
:1027B000C006C007C2CFAF0BAE0AAD09AC08EF240C
:1027C00001F50BE43EF50AE43DF509E43CF508D0DB
:1027D00007D006D005D004D0D0D0E0327BFF7A18E5
:1027E00079650207007BFF7A18794E8F3302070064
:0D27F0007BFF7A1879688F338D3402070063
:102800007580BF7590F675A0FF75B0FF75F17F7587
:10281000F2FF75F3FB75F4FE75A44A75A55875A60D
:102820000AE4F5A775D4FF75D5FF75D6FFF5E175F8
:10283000E24022E4FB75FCFF75DA42AFD4EF54FDB1
:10284000FF8FD40BE4F5E9F5EAE4F5DBE4F5EBF50D
:10285000ECE4F5DCE4F5EDF5EEE4F5DDE4F5FAF5B0
:10286000F975D90475D840EB540742E222D214C25C
:1028700015C216C2178F2030AF05C2AFD38001C377
:1028800012305BC297000000001230A2000000006E
:10289000F1F1000000001231CC000000001231C341
:1028A000000000001232140000000012320B000081
:1028B0000000123202000000001231F90000000096
:1028C0001231F0000000001231E700000000123168
:1028D000DE000000001231D50000000012313E0081
:1028E000D29700007538277539100000C297000094
:1028F000121CD620000DE5391539AE387002153896
:102900004E70E70230977E017F5BE4900014F08FF9
:10291000828E83E060578F828E83E0FDB420070FA4
:10292000BF00010E80F0ED6044900014E0FD04F063
:10293000ED25E02404F582E43400F583EEF0A3EF06
:10294000F08F828E83E0FD6420600AED601F0FBF70
:1029500000010E80EC0FEFAC0670010E14F5828CB6
:1029600083E4F0900014E0D3940840A32222E4F51D
:1029700012F5131231831225C07E017F447D007B46
:10298000017A00791712059BE4900015F0A3F0F18D
:10299000D47A0B79FC9001E8E493F533A3E493F542
:1029A00034A3E493F535A3E493F536A3E493F53724
:1029B000A3E493F538A3E493F539A3E493F53A122D
:1029C00007007BFF7A0C7940120700F1D47A0C796A
:1029D0006E12070012312E020700900014E064040A
:1029E00060028043900006F146C003F150D003120C
:1029F0000EBA8F28900008F146C003F150D00312A0
:102A00000EBA8F2990000AF146C003F150D003128C
:102A10000EBA8F2AE528D39403500CE52994075069
:102A200006E52A940140087BFF7A1779D341EFE548
:102A30002814603714605D14700241BD24036002E5
:102A400041E4F1648005C333CE33CED8F9F4FFAD51
:102A500080F175C004C005C006C007F16CD003D07A
:102A600002D001D000F17E8F808079F1648005C3AF
:102A700033CE33CED8F9F4FFAD90F175C004C00564
:102A8000C006C007F16CD003D002D001D000F17EA7
:102A90008F908050F1648005C333CE33CED8F9F4E3
:102AA000FFADA0F175C004C005C006C007F16CD031
:102AB00003D002D001D000F17E8FA08027F1648086
:102AC00005C333CE33CED8F9F4FFADB0F175C004F1
:102AD000C005C006C007F16CD003D002D001D00001
:102AE000F17E8FB07BFF7A1779E8F15D852A350298
:102AF00007007BFF7A187902120700E4F5287BFFB4
:102B00007A187919120700E52814600F146011145F
:102B100060132403701485802A801285902A800D0A
:102B200085A02A800885B02A8003E4F52AE4F529E7
:102B30007BFF7A18791CF15DAF29E52AA807088088
:102B400002C313D8FC13E433F5351207000529E559
:102B500029D3940740DA0528E528D39403409F221F
:102B6000900014E0FFC394034050EFD3940440025C
:102B70008048F1887001D3401274FFC37001D340C4
:102B80000AF19EF19370027F0180027F00EF6004E2
:102B9000D208802FF1887001D3401674FFC37001F2
:102BA000D3400EF19E7A197913F19770027F01805C
:102BB000027F00EF6004C20880097BFF7A1879F970
:102BC000020700900008F146C003F150D003F1C0A5
:102BD000900014E0B4041490000AF146C003F150D0
:102BE000D003120EBA8E2A8F2B8006752A00752B01
:102BF00001E4F52CF52DC3E52D952BE52C952A50F8
:102C00004EE529252DF52FE528352CF52EE52D54FB
:102C10000F700E7BFF7A197919852E33852F34803A
:102C20000CE52D540770097BFF7A197923120700F0
:102C3000F1B9300807F1ABE493FF8004F1ABE0FF9A
:102C40008F33120700052DE52D7002052C80A72279
:102C5000900014E0C3940450028048F1887001D3BE
:102C6000401274FFC37001D3400AF19EF1937002C9
:102C70007F0180027F00EF6004D208802FF188700E
:102C800001D3401674FFC37001D3400EF19E7A1930
:102C90007913F19770027F0180027F00EF6004C218
:102CA0000880097BFF7A1879F9020700900008F183
:102CB00046C003F150D003F1C0900014E024FDF5AC
:102CC0002AE4F52BE52BC3952A5073AF2B7E00E544
:102CD000292FF52DEE3528F52CEF25E0FFEE33FEFC
:102CE000740A2FF58274003EF583F146C003F1505B
:102CF000D003120EBA8F2EE52B540F700E7BFF7A85
:102D0000197919852C33852D34800CE52B540770E7
:102D1000097BFF7A19792312070030080CF1B98575
:102D20002D82852C83E493800C852D82852C83E570
:102D30002EF0F1B9E0F533120700052B8086227BD7
:102D4000FF7A1579C212070075EF1280FB7BFF7ABC
:102D500010795E120700121FE87BFF50067A107987
:102D60007D80047A1079830207007BFF7A107989CD
:102D7000120700121D008F368E358D348C337BFF89
:102D80007A1079AB0207007BFF7A1079B112070045
:102D9000121F5F7BFF50067A10797D80047A1079CC
:102DA00083020700900014E064026004F1B2802FF7
:102DB000900006F146C003F150D003120EBA8F28DE
:102DC0007BFF7A1079EA852833120700AF28121E9C
:102DD000637BFF50067A10797D80047A1079830234
:102DE00007007E007F80F1E0B40205752A0180189B
:102DF000EFB40312900008F146C003F150D0031263
:102E00000EBA8F2A80028014900006F146C003F1AA
:102E100050D003F1C0E52AD394804004F1B280750C
:102E20007BFF7A117917F15D852A351207007E0143
:102E30007FADAB2AAD29AC281220BD50527BFF7A62
:102E400010797D120700E4F52BE52BC3952A504835
:102E5000E52B540F70147BFF7A11794EFEE529257E
:102E60002BF534EE3528F533800CE52B540770092B
:102E70007BFF7A1179581207007BFF7A11795B7416
:102E8000AD252BF1CCE0F533120700052B80BA7B82
:102E9000FF7A107983120700227E007F08F1E0C3D9
:102EA0009403401CEF24FEF529900006F146C00370
:102EB000F150D003120EBA8F28E529D394084005AB
:102EC000F1B2020700E4F52AE52AC395295025E569
:102ED0002A25E0FFE433FE74082FF58274003EF5E6
:102EE00083F146C003F150D003120EBAF1C8EFF0DF
:102EF000052A80D47BFF7A117962F15D120700AF59
:102F0000287E007C017DADAB29121DC27BFF5006DF
:102F10007A10797D80047A1079831207007BFF7A1A
:102F200011799A120700E4F52AE52AC3952950126F
:102F30007BFF7A11795BF1C8E0F533120700052AAF
:102F400080E722900004E0FEA3E0AA06F97B0122BC
:102F50001B8B33753400753500E4F5362285283334
:102F60008529342274017E00A8290822AF2AA929C4
:102F7000A80102027FE4FEEF5DFFE4FCFD22EF4BBF
:102F8000FFEE4AED49EC4822900006E0FEA3E0FF88
:102F90004EC3227A19790E120495EF7F0022AA06F9
:102FA000A907A801AC027D017BFF22852F82852E17
:102FB00083227BFF7A1079D5227BFF7A197926222A
:102FC000120EBA8E288F292274AD252AF582E43498
:102FD00001F583227BFF7A0B79AB1207007BFF227E
:102FE0007D007B017A0179AD12059B900014E0FF12
:102FF00022D297A21592A0C29722783174FF1202B2
:1030000094EC4D4E4F227B017A01795B12002E9099
:1030100001AC22E0FCA3E0FDA3E0FEA3E0FFAB0BCC
:10302000AA0AA909A808C302026E12002EE52525E6
:10303000E025E02473F582E4340CF583E493227FE9
:103040000112245C9001ACE004F0227BFF7A0B7942
:103050003E1207009001ACE014F022920953A6FE44
:1030600043A580A21292A022E52525E025E0247147
:10307000F582E4340CF583E493FE740193AA0622EE
:103080008E2C8F2DAA06A9077B0112002EEF4EC3AE
:1030900022A2A0D297920753A6FE53A57FA209921F
:1030A000AF22D29743A601A21492A0C29722E05465
:1030B00003F0E075F051A42417F9740035F02243B1
:1030C000A580C2977F147E00121CE0D2977F027EFB
:1030D00000121CE053A57F22FFE4350AFEE4350907
:1030E000FDE43508FC221225979001ACE0245BF941
:1030F000E43401753301F53489357BFF22121DA1BB
:10310000E4753410753327F532F53122122000EFC3
:10311000640D229001ACE0D3940022F583740193F6
:10312000FA740293F91203110523E523C3227533C0
:10313000FF75340B75353D7BFF7A0B79A522D2974D
:1031400053A6FED2A0C29722121DA1E475351075B8
:103150003427F533F53222121DA1E4752C10752B9E
:1031600027F52AF52922121DA1E4752F10752E27A7
:10317000F52DF52C22FC7401932FF582EC3EF5839E
:10318000E4932290015BF09001ACF0900014F022E7
:10319000745B2FF9E43401A801FC7D0122745B25E6
:1031A00027F582E43401F58322E0FF245CF9E4345E
:1031B00001FA7B0122F583E4F00F0F2293F524C37B
:1031C000942022D297A21792A0C29722D297A21639
:1031D00092A0C29722D297A20792A0C29722D2971A
:1031E000A20692A0C29722D297A20592A0C29722CD
:1031F000D297A20492A0C29722D297A20392A0C211
:103200009722D297A20292A0C29722D297A20192AD
:10321000A0C29722D297A20092A0C29722852B82A9
:0D322000852A83E022AF1412214E7F022286
:00000001FF
